:040000007BEF00F0A2
:100008004182FACF11F0FBCF12F0E9CF13F0EACF1B
:1000180014F0E1CF15F0E2CF16F0D9CF17F0DACF10
:1000280018F0F3CF19F0F4CF1AF0F6CF1BF0F7CF92
:100038001CF0F8CF1DF0F5CF1EF0C7EC1DF0F2BA9A
:10004800F2A413D0F29400019A5100019B11D8B484
:1000580005D000019A07D8A09B0707D0000E000121
:100068009B6F780E9A6F83EC14F09DB09EA015D00C
:100078009E90C00ECF6E010E376E010E386E3F5047
:10008800D8B403D0000E3F6E08D0010E3F6ED1ECFD
:1000980019F034EC1EF0010E386EA0B2A1A209D0FE
:1000A800A192010E366E3C0E016E000E026E10EC2F
:1000B8001EF01EC0F5FF1DC0F8FF1CC0F7FF1BC0D7
:1000C800F6FF1AC0F4FF19C0F3FF18C0DAFF17C013
:1000D800D9FF16C0E2FF15C0E1FF14C0EAFF13C044
:1000E800E9FF12C0FBFF11C0FAFF4192110068EF4F
:0200F8001CF0FA
:100F00000053554E004D4F4E005455450057454433
:100F100000544855004652490053415400534C4533
:100F20004550494E4700416C776179734F4E0041FF
:100F300075746F53746F70005265736574656400E7
:100F400053746174696F6E0052657365743F00433A
:100F5000454E544552004368617267650043656EB3
:100F600074657200524947485400526967687400BA
:100F7000432E532E004C454654004C656674006D5C
:100F800041680020200000006BEC20F049D2000EE8
:100F90000001C96F000E7DEC1FF0560E0001C76FF7
:100FA0000F0E0001C86F68EC1AF0010E0001C96F46
:100FB000000E7DEC1FF0400E0001C76F0F0E000108
:100FC000C86F68EC1AF01200AC0E0001F56F000E4D
:100FD0000001F66FC30E0001F76F000E0001F86FFD
:100FE00053EC12F012006DEC15F0010E0001C96F08
:100FF000000E7DEC1FF0270E226E100E216E395070
:10100000020D230EF324D96E000EF420DA6EDECF2B
:101010001FF0DDCF20F0ECEC1DF01FC0DAF020C097
:10102000DBF0030E0001DD6FE80EDC6FF1EC1BF06E
:101030000001DA51300FFDEC1EF02E0EFDEC1EF01B
:10104000030E226EE80E216E3950020D230EF3249A
:10105000D96E000EF420DA6EDECF1FF0DDCF20F067
:10106000ECEC1DF01FC0DAF020C0DBF0000E000138
:10107000DD6F640EDC6FF1EC1BF00001DA51300F14
:10108000FDEC1EF0000E226E640E216E3950020D32
:10109000230EF324D96E000EF420DA6EDECF1FF09B
:1010A000DDCF20F0ECEC1DF01FC0DAF020C0DBF04B
:1010B000000E0001DD6F0A0EDC6FF1EC1BF0000189
:1010C000DA51300FFDEC1EF03950020D230EF324DF
:1010D000D96E000EF420DA6EDECF1FF0DDCF20F0E7
:1010E000000E226E0A0E216EECEC1DF01F50300F28
:1010F000FDEC1EF0410EFDEC1EF012006DEC15F043
:10110000010E0001C96F000E7DEC1FF0000E000102
:10111000E16F010E0001E26F3950040D600EF324FF
:10112000D96E000EF420DA6EDECFE3F0DDCFE4F00E
:10113000050E0001E56FAEEC1AF0000E0001C76F5E
:10114000010E0001C86F68EC1AF07F0E0001C76F36
:101150000F0E0001C86F68EC1AF012006DEC15F06C
:10116000000E0001C96F060E7DEC1FF0100E00018D
:10117000CB6F0E0ECC6F000ECD6F000ECE6F3950C0
:10118000040D6C0EF324D96E000EF420DA6EDECF5F
:10119000C7F0DECFC8F0DECFC9F0DECFCAF067EC13
:1011A00017F0C7C00AF1C8C00BF1C9C00CF1CAC022
:1011B0000DF1000E0001E16F010E0001E26F0AC1A6
:1011C000C7F00BC1C8F00CC1C9F00DC1CAF0180EB0
:1011D0000001CB6F000ECC6F000ECD6F000ECE6FF6
:1011E00067EC17F0C7C0E3F0C8C0E4F0020E0001DE
:1011F000E56FAEEC1AF0000E0001C76F010E0001A2
:10120000C86F68EC1AF0010E0001C96F000E7DEC8A
:101210001FF0000E0001E16F010E0001E26F100EE1
:101220000001CB6F0E0ECC6F000ECD6F000ECE6F97
:101230003950040D6C0EF324D96E000EF420DA6ED2
:10124000DECFC7F0DECFC8F0DECFC9F0DECFCAF008
:1012500067EC17F0C7C0D4F0C8C0D5F0C9C0D6F04D
:10126000CAC0D7F0180E0001D86F000ED96F000E5B
:10127000DA6F000EDB6F1EEC1AF0D4C0E3F0D5C0BD
:10128000E4F0020E0001E56FAEEC1AF0000E000172
:10129000C76F010E0001C86F68EC1AF03A0EFDEC42
:1012A0001EF0000E0001E16F010E0001E26F3C0E26
:1012B0000001CB6F000ECC6F000ECD6F000ECE6F15
:1012C0003950040D6C0EF324D96E000EF420DA6E42
:1012D000DECFC7F0DECFC8F0DECFC9F0DECFCAF078
:1012E00067EC17F0C7C0D4F0C8C0D5F0C9C0D6F0BD
:1012F000CAC0D7F03C0E0001D86F000ED96F000EA7
:10130000DA6F000EDB6F1EEC1AF0D4C0E3F0D5C02C
:10131000E4F0020E0001E56FAEEC1AF0000E0001E1
:10132000C76F010E0001C86F68EC1AF02D0EFDECBE
:101330001EF0000E0001E16F010E0001E26F395056
:10134000040D6C0EF324D96E000EF420DA6EDECF9D
:10135000D4F0DECFD5F0DECFD6F0DECFD7F03C0E26
:101360000001D86F000ED96F000EDA6F000EDB6F30
:101370001EEC1AF0D4C0E3F0D5C0E4F0020E000178
:10138000E56FAEEC1AF0000E0001C76F010E000110
:10139000C86F68EC1AF012006DEC15F0010E000138
:1013A000C96F000E7DEC1FF0480E0001C76F0F0ED5
:1013B0000001C86F68EC1AF012006DEC15F0010E18
:1013C0000001C96F000E7DEC1FF0380E0001C76FE1
:1013D0000F0E0001C86F68EC1AF012006DEC15F0EA
:1013E000010E0001C96F000E7DEC1FF0260E0001FA
:1013F000C76F0F0E0001C86F68EC1AF012006DEC99
:1014000015F0010E0001C96F000E7DEC1FF02F0ECC
:101410000001C76F0F0E0001C86F68EC1AF01200D0
:101420000001A251000AD8B4B2D5010AD8B4CCD573
:10143000030AD8B4D8D5010AD8B460D6070AD8B4FC
:101440008DD6010AD8B4A8D7030AD8B4B6D7010AF2
:10145000D8B4C4D70F0AD8A41200D1D70001E351E1
:101460000001D8B4A8D0E1C0D9FFE2C0DAFF840EF1
:10147000DE180DE1030EDE18D8A409D0000120EE1D
:1014800003F0E151D926E251DA220001DF8EE1C0FA
:10149000D9FFE2C0DAFFBC0EDE180DE1020EDE1845
:1014A000D8A409D0000120EE03F0E151D926E25181
:1014B000DA220001DF8CE1C0D9FFE2C0DAFFF40ECE
:1014C000DE180CE1DE04D8A409D0000120EE03F000
:1014D000E151D926E251DA220001DF8AE1C0D9FFC9
:1014E000E2C0DAFF2C0EDE180CE1DE04D8A409D02D
:1014F000000120EE03F0E151D926E251DA22000189
:10150000DF88E1C0D9FFE2C0DAFF960EDE18DE10F8
:10151000D8A409D0000120EE03F0E151D926E25110
:10152000DA220001DF86E1C0D9FFE2C0DAFF3C0E1B
:10153000DE18DE10D8A409D0000120EE03F0E1513E
:10154000D926E251DA220001DF84E1C0D9FFE2C0EE
:10155000DAFF100EDE18DE10D8A409D0000120EE4C
:1015600003F0E151D926E251DA220001DF82E1C025
:10157000D9FFE2C0DAFF020EDE18DE10D8A409D0CF
:10158000000120EE03F0E151D926E251DA220001F8
:10159000DF80E1C0D9FFE2C0DAFF850EDE5C030E1A
:1015A000DE58D8B01200E1C0D9FFE2C0DAFFDE2A6F
:1015B000000EDD221200E1C0D9FFE2C0DAFF840E86
:1015C000DE5C030EDE58D8A00AD0000120EE02F047
:1015D000E151D926E251DA220001DF8E8FD0E1C03D
:1015E000D9FFE2C0DAFFBC0EDE5C020EDE58D8A0E6
:1015F0000AD0000120EE02F0E151D926E251DA22B0
:101600000001DF8C7BD0E1C0D9FFE2C0DAFFF40E2D
:10161000DE5C010EDE58D8A00AD0000120EE02F0F8
:10162000E151D926E251DA220001DF8A67D0E1C018
:10163000D9FFE2C0DAFF2C0EDE5C010EDE58D8A026
:101640000AD0000120EE02F0E151D926E251DA225F
:101650000001DF8853D0E1C0D9FFE2C0DAFF010EFC
:10166000DB5004E1960EDE5CD8A00AD0000120EE2B
:1016700002F0E151D926E251DA220001DF863ED0A4
:10168000E1C0D9FFE2C0DAFF010EDB5004E13C0EFD
:10169000DE5CD8A00AD0000120EE02F0E151D9268C
:1016A000E251DA220001DF8429D0E1C0D9FFE2C093
:1016B000DAFF010EDB5004E1100EDE5CD8A00AD088
:1016C000000120EE02F0E151D926E251DA220001B8
:1016D000DF8214D0E1C0D9FFE2C0DAFF010EDB5097
:1016E00004E1020EDE5CD8A009D0000120EE02F079
:1016F000E151D926E251DA220001DF80E1C0D9FFB1
:10170000E2C0DAFF000EDE6E000EDD6E000120EE9C
:1017100002F0E151D926E251DA22FF0EDE16000E68
:10172000DD161200000E0001EA6F000EEB6F000ED6
:10173000EC6F000EED6F000E0001E86F37D0010E68
:101740000001EE6F0C0E0001EE6501D02DD0EEC051
:10175000C9F00001E8513EEC16F00001E46F000111
:10176000E4510001D46FD56BD66BD76B800E0001AE
:10177000D86F510ED96F010EDA6F000EDB6F2DECB2
:101780001CF00001D4510001EA270001D5510001ED
:10179000EB230001D6510001EC230001D7510001D9
:1017A000ED230001EE2BCED70001E82B000120EE47
:1017B00006F0E051D926E151DA22DE500001E85D61
:1017C000D8A0BDD7010E0001E96F32D0E9C0C9F041
:1017D000000120EE06F0E051D926E151DA22DF5077
:1017E0003EEC16F00001E46F0001E4510001D46FFB
:1017F000D56BD66BD76B800E0001D86F510ED96FA9
:10180000010EDA6F000EDB6F2DEC1CF00001D451DD
:101810000001EA270001D5510001EB230001D65158
:101820000001EC230001D7510001ED230001E92B59
:10183000000120EE05F0E051D926E151DA22DE5018
:101840000001E95DD8A0C2D7FF0E0001E46FFF0ED2
:101850000001E56F000120EE04F0E051D926E151CE
:10186000DA22DF500001E66FE76B0001E45100016E
:10187000E6270001E5510001E723E6C0D4F0E7C008
:10188000D5F00001000ED5BFFF0ED66FD76F800ECA
:101890000001D86F510ED96F010EDA6F000EDB6FA9
:1018A0002DEC1CF00001D4510001EA270001D551B4
:1018B0000001EB230001D6510001EC230001D751B8
:1018C0000001ED23000120EE02F0E051D926E151A4
:1018D000DA22DF500001E46F0001E4510001D46F0F
:1018E000D56BD66BD76B100E0001D86F0E0ED96F6B
:1018F000000EDA6F000EDB6F2DEC1CF00001D451EE
:101900000001EA270001D5510001EB230001D65167
:101910000001EC230001D7510001ED23000120EE6E
:1019200001F0E051D926E151DA22DF500001E46FE5
:101930000001E4510001D46FD56BD66BD76B3C0E20
:101940000001D86F000ED96F000EDA6F000EDB6F4A
:101950002DEC1CF00001D4510001EA270001D55103
:101960000001EB230001D6510001EC230001D75107
:101970000001ED23E0C0D9FFE1C0DAFFDF50000134
:10198000E46F0001E4510001EA27000EEB23EC2391
:10199000ED23E2C0D9FFE3C0DAFFEAC0DEFFEBC00F
:1019A000DEFFECC0DEFFEDC0DEFF1200000E000126
:1019B000C76F020E0001C76501D024D1010E206E51
:1019C000000E1F6E0001C751C8EC1CF01F50201004
:1019D000D8B42DD0010E1F6E0001C75175EC1DF05B
:1019E000010E1F6E0001C751BFEC1EF00001C75170
:1019F000020D840EF324D96E000EF420DA6E000E70
:101A0000DE6E000EDD6EC7C039F0080E0001A219AF
:101A1000D8B40AD0070E0001A219D8B405D0060E1A
:101A20000001A219D8A403D0020E0001A26F040E77
:101A3000206E000E1F6E0001C751C8EC1CF01F5035
:101A40002010D8B40BD0000E206E000E1F6E0001C7
:101A5000C7517BEC1EF0050E0001A26F000E206E38
:101A6000040E1F6E0001C751C8EC1CF01F5020105F
:101A7000D8B43CD0000E206E000E1F6E0001C7517E
:101A80007BEC1EF0060E0001A26F0001C751040D91
:101A9000600EF324D96E000EF420DA6EDE6ADE6A80
:101AA000DE6ADD6A0001C751040D780EF324D96E99
:101AB000000EF420DA6EDE6ADE6ADE6ADD6A00019C
:101AC000C751040D6C0EF324D96E000EF420DA6EAB
:101AD000DE6ADE6ADE6ADD6A3C0E1F6E000E206E74
:101AE000000E226E400E216E09EC20F0080E206ED2
:101AF000000E1F6E0001C751C8EC1CF01F502010D3
:101B0000D8B419D0000E206E000E1F6E0001C75110
:101B10007BEC1EF00001C751010D290EF324D96E94
:101B2000000EF420DA6EDF50D8B402D0080E01D0D7
:101B3000070E0001A26F000E206E080E1F6E00013E
:101B4000C751C8EC1CF01F502010D8B441D0000E73
:101B5000206E000E1F6E0001C7517BEC1EF00001CD
:101B6000C751010D290EF324D96E000EF420DA6E50
:101B7000DF50D8B415D00001C751010D290EF32450
:101B8000D96E000EF420DA6E000EDF6E070E000133
:101B9000A26F010E1F6E0001C75175EC1DF00ED033
:101BA0000001C751010D290EF324D96E000EF42057
:101BB000DA6E010EDF6E080E0001A26F3C0E1F6E82
:101BC000000E206E000E226E400E216E09EC20F0F9
:101BD000100E206E000E1F6E0001C751C8EC1CF0E5
:101BE0001F502010D8B40BD0000E206E000E1F6EB8
:101BF0000001C7517BEC1EF0000E0001A26F000136
:101C0000C72BD7D63C50D8B41200000E3C6E020E43
:101C10000001A26F010E386E120000C1EFF001C189
:101C2000F0F002C1F1F003C1F2F03CEC20F0000151
:101C3000A0A109D002C1D9FF03C1DAFFDE2A000E3C
:101C4000DE22DE22DE220001A0A30AD03C0E02C169
:101C5000D9FF03C1DAFFDE26000EDE22DE22DE22FD
:101C60000001A0A50CD002C1D9FF03C1DAFF100EFC
:101C7000DE260E0EDE22000EDE22000EDE22000127
:101C8000A0A70CD002C1D9FF03C1DAFF800EDE2667
:101C9000510EDE22010EDE22000EDE220001A0A97E
:101CA00038D0010120EE05F00051D9260151DA2289
:101CB000DF500001C96F010120EE06F00051D92666
:101CC0000151DA22DF503EEC16F00101046F0101F0
:101CD00004510001D46FD56BD66BD76B800E000119
:101CE000D86F510ED96F010EDA6F000EDB6F2DEC3D
:101CF0001CF002C1D9FF03C1DAFF0001D451DE2676
:101D00000001D551DE220001D651DE220001D7515B
:101D1000DE220001A0AB88D0010120EE05F00051C9
:101D2000D9260151DA22DF500101096F0C0E0101A1
:101D3000096501D033D009C1C9F0010120EE06F0D8
:101D40000051D9260151DA22DF503EEC16F0010194
:101D5000046F010104510001D46FD56BD66BD76BB2
:101D6000800E0001D86F510ED96F010EDA6F000E90
:101D7000DB6F2DEC1CF002C1D9FF03C1DAFF0001BB
:101D8000D451DE260001D551DE220001D651DE22DB
:101D90000001D751DE220101092BC8D7010E010134
:101DA000086F36D008C1C9F0010120EE06F00051DD
:101DB000D9260151DA22DF500101046F0101042903
:101DC0003EEC16F00101056F010105510001D46FD1
:101DD000D56BD66BD76B800E0001D86F510ED96FC3
:101DE000010EDA6F000EDB6F2DEC1CF002C1D9FF83
:101DF00003C1DAFF0001D451DE260001D551DE22F5
:101E00000001D651DE220001D751DE220101082B4C
:101E1000010120EE05F00051D9260151DA22DE50F1
:101E20000101085DD8A0BED702C1D9FF03C1DAFF06
:101E3000800EDE5C130EDE58190EDE58BC0EDE5826
:101E4000D8A00CD002C1D9FF03C1DAFF800EDE5E3C
:101E5000130EDE5A190EDE5ABC0EDE5AAC0E00010D
:101E6000F86F000E0001F96FC30E0001FA6F000E4B
:101E70000001FB6F1AEC20F0010E3B6E120000C156
:101E8000EFF001C1F0F002C1F1F003C1F2F03CEC5F
:101E900020F00001A0A109D002C1D9FF03C1DAFFDF
:101EA000DE06000EDE5ADE5ADE5A0001A0A30AD07A
:101EB0003C0E02C1D9FF03C1DAFFDE5E000EDE5A1E
:101EC000DE5ADE5A0001A0A50CD002C1D9FF03C121
:101ED000DAFF100EDE5E0E0EDE5A000EDE5A000E27
:101EE000DE5A0001A0A70CD002C1D9FF03C1DAFF5E
:101EF000800EDE5E510EDE5A010EDE5A000EDE5AF4
:101F00000001A0A938D0010120EE05F00051D9262A
:101F10000151DA22DF500001C96F010120EE06F005
:101F20000051D9260151DA22DF503EEC16F00101B2
:101F3000046F010104510001D46FD56BD66BD76BD0
:101F4000800E0001D86F510ED96F010EDA6F000EAE
:101F5000DB6F2DEC1CF002C1D9FF03C1DAFF0001D9
:101F6000D451DE5E0001D551DE5A0001D651DE5A51
:101F70000001D751DE5A0001A0AB88D0010120EE4C
:101F800005F00051D9260151DA22DF500101096F15
:101F9000010109510101D8B433D009C1C9F00101CF
:101FA00020EE06F00051D9260151DA22DF503EEC36
:101FB00016F00101046F010104510001D46FD56BCB
:101FC000D66BD76B800E0001D86F510ED96F010E02
:101FD000DA6F000EDB6F2DEC1CF002C1D9FF03C1DC
:101FE000DAFF0001D451DE5E0001D551DE5A000156
:101FF000D651DE5A0001D751DE5A01010907C8D770
:102000000C0E0101086F36D008C1C9F0010120EEA5
:1020100006F00051D9260151DA22DF500101046F88
:10202000010104053EEC16F00101056F01010551A7
:102030000001D46FD56BD66BD76B800E0001D86FC3
:10204000510ED96F010EDA6F000EDB6F2DEC1CF014
:1020500002C1D9FF03C1DAFF0001D451DE5E0001E5
:10206000D551DE5A0001D651DE5A0001D751DE5A51
:1020700001010807010120EE05F00051D9260151A8
:10208000DA2201010851DE5CD8A0BED702C1D9FF17
:1020900003C1DAFF800EDE5C130EDE58190EDE5827
:1020A000BC0EDE58D8A00CD002C1D9FF03C1DAFFA4
:1020B000800EDE26130EDE22190EDE22BC0EDE227C
:1020C000AC0E0001F86F000E0001F96FC30E0001A5
:1020D000FA6F000E0001FB6F1AEC20F0010E3B6E50
:1020E0001200000E0001F26F010E0001F36FEAC052
:1020F000D9FFEBC0DAFFDECFF4F0DECFF5F0DECFB4
:10210000F6F0DECFF7F0F40E0001E06F000E0001F4
:10211000E16F3C0E0001E26F03EC15F00001E051AD
:10212000E8C0D9FFE9C0DAFFDF6EF40E0001E06F0E
:10213000000E0001E16F3C0E0001E26F03EC15F0B0
:10214000000120EE01F0E851D926E951DA22000120
:10215000E0C0DFFFF40E0001E06F000E0001E16F50
:10216000180E0001E26F03EC15F0000120EE02F002
:10217000E851D926E951DA220001E0C0DFFFF4C0BE
:10218000F0F0F5C0F1F0F0C0EEF0F1C0EFF0060EA7
:102190000001F427000EF523F623F723F40E0001C7
:1021A000E06F000E0001E16F070E0001E26F03EC2B
:1021B00015F0000120EE03F0E851D926E951DA22AA
:1021C0000001E0C0DFFF3FD08A84F3C0C9F0000106
:1021D000F2513EEC16F00001EC6FED6B0001EC1FCC
:1021E000ED1FEC4BED2B0001F0510001EC2500013F
:1021F000F06F0001F1510001ED210001F16F0C0EB3
:102200000001F319D8A419D0010E0001F36F0001E9
:10221000F22B630E0001F26512D0EAC0D9FFEBC0C9
:10222000DAFF800EDE5E130EDE5A190EDE5ABC0E89
:10223000DE5A000E0001F26F02D00001F32BF3C052
:10224000FFF0F2C0A3F0F3C0C9F00001F2513EEC80
:1022500016F00001EC6F0001EC510001F05D000E82
:10226000F159D8B0B1D7F0C0ECF0F1C0EDF00001F9
:10227000EC1FED1FEC4BED2B0001EE510001EC25A6
:1022800000019C6F0001EF510001ED2100019D6FE5
:102290000001F04BF12B000120EE06F0E851D926A9
:1022A000E951DA22F2C0DFFF000120EE05F0E8512B
:1022B000D926E951DA22F3C0DFFF000120EE04F055
:1022C000E851D926E951DA22F0C0DFFF1200B3EC61
:1022D0001BF0F28E020E08EC17F0D8901F36203655
:1022E000D8901F3620361FC0DAF020C0DBF0000E79
:1022F0000001DD6F050EDC6FF1EC1BF0DAC02CF095
:10230000DBC02DF0010E08EC17F0D8901F362036F8
:10231000D8901F3620361FC0DAF020C0DBF0000E48
:102320000001DD6F050EDC6FF1EC1BF0DAC02EF062
:10233000DBC02FF0000E08EC17F0D8901F362036C7
:10234000D8901F3620361FC0DAF020C0DBF0000E18
:102350000001DD6F050EDC6FF1EC1BF0DAC030F030
:10236000DBC031F0030E08EC17F0D8901F36203692
:10237000D8901F3620361FC0DAF020C0DBF0000EE8
:102380000001DD6F050EDC6FF1EC1BF0DAC032F0FE
:10239000DBC033F0AC0E0001EF6F000E0001F06FF8
:1023A000C30E0001F16F000E0001F26F3CEC20F053
:1023B0000001B051D8A417D0000E0001C36F000E69
:1023C000C46F000EC56F000EC66FAC0E0001F86F33
:1023D000000E0001F96FC30E0001FA6F000E00013C
:1023E000FB6F1AEC20F0010E0001A26F6BEC20F0E5
:1023F000000E0001C96F000E7DEC1FF0560E0001AB
:10240000C76F0F0E0001C86F68EC1AF0010E0001D3
:10241000C96F000E7DEC1FF0400E0001C76F0F0E5C
:102420000001C86F68EC1AF0070E206ED00E1F6E08
:10243000F7EC1FF0000E0001FC6F020E0001FC65BE
:1024400001D027D0010E1F6E0001FC5175EC1DF06C
:10245000010E1F6E0001FC51BFEC1EF00001FC518B
:10246000020D840EF324D96E000EF420DA6E000EF5
:10247000DE6E000EDD6E0001FC51010D290EF3240D
:10248000D96E000EF420DA6E010EDF6E0001FC2B17
:10249000D4D73A50D8A404D07EEC18F058EC1EF0F3
:1024A000A5EC16F0F6D7F5C0EFF0F6C0F0F0F7C0E7
:1024B000F1F0F8C0F2F03CEC20F0000E0001C96F22
:1024C000000E7DEC1FF0000EA0BB010E0001E96FB5
:1024D000000120EE06F0F551D926F651DA22DF5040
:1024E000F5EC1CF02F0EFDEC1EF0000EA0B9010E55
:1024F0000001E96F000120EE05F0F551D926F651F3
:10250000DA22DF50F5EC1CF02F0EFDEC1EF0000E71
:10251000A0B7010E0001E96F000120EE04F0F551B3
:10252000D926F651DA22DF50F5EC1CF02F0EFDEC27
:102530001EF0000120EE03F0F551D926F651DA2203
:10254000DF500001F96F0001F951040D010EF32471
:102550000001C76F0F0EF4200001C86F68EC1AF07D
:10256000010E0001C96F000E7DEC1FF0000EA0B53A
:10257000010E0001E96F000120EE02F0F551D926AD
:10258000F651DA22DF50F5EC1CF000019F51D8B46F
:1025900004D03A0EFDEC1EF003D0200EFDEC1EF030
:1025A000000EA0B3010E0001E96F000120EE01F062
:1025B000F551D926F651DA22DF50F5EC1CF02D0E3C
:1025C000FDEC1EF0000EA0B1010E0001E96FF5C098
:1025D000D9FFF6C0DAFFDF50F5EC1CF01200010164
:1025E00020EE03F00A51D9260B51DA220101DFA6B1
:1025F0002CD0010120EE03F00A51D9260B51DA222A
:102600000101DF9684EC20F0010120EE02F00A5176
:10261000D9260B51DA22000EDE6E000EDD6E0101AE
:1026200020EE02F00C51D9260D51DA22000EDE6E9A
:10263000000EDD6E010120EE02F00E51D9260F5181
:10264000DA22000EDE6E000EDD6E0001A051D8B45D
:102650001200010120EE02F00A51D9260B51DA22B4
:102660000101DFA00BD0010120EE02F00A51D926B2
:102670000B51DA220101DF909AEC1CF0010120EEEF
:1026800002F00C51D9260D51DA220101DFA017D03A
:10269000010120EE02F00C51D9260D51DA22010180
:1026A000DF90AC0E0101006F000E0101016FC30E3F
:1026B0000101026F000E0101036F0DEC0EF001012C
:1026C00020EE02F00E51D9260F51DA220101DFA0CF
:1026D0001200010120EE02F00E51D9260F51DA222C
:1026E0000101DF90AC0E0101006F000E0101016FCE
:1026F000C30E0101026F000E0101036F3FEC0FF0EA
:102700001200B30E0001E16F000E0001E26F020E35
:1027100008EC17F01FC0DAF020C0DBF02CC0DCF0B2
:102720002DC0DDF0F1EC1BF00001DA510001DB11EE
:10273000D8A402D0010E01D0000E0001E36F2EECF0
:102740000AF0B70E0001E16F000E0001E26F010E0A
:1027500008EC17F01FC0DAF020C0DBF02EC0DCF070
:102760002FC0DDF0F1EC1BF00001DA510001DB11AC
:10277000D8A402D0010E01D0000E0001E36F2EECB0
:102780000AF0BB0E0001E16F000E0001E26F000EC7
:1027900008EC17F01FC0DAF020C0DBF030C0DCF02E
:1027A00031C0DDF0F1EC1BF00001DA510001DB116A
:1027B000D8A402D0010E01D0000E0001E36F2EEC70
:1027C0000AF0BF0E0001E16F000E0001E26F030E80
:1027D00008EC17F01FC0DAF020C0DBF032C0DCF0EC
:1027E00033C0DDF0F1EC1BF00001DA510001DB1128
:1027F000D8A402D0010E01D0000E0001E36F2EEC30
:102800000AF01200000E0001CF6F020E0001CF652A
:1028100001D012000001CF51A8EC1FF0BCEC1FF05A
:102820001FC0C7F020C0C8F0000E0001CA6F0D0E17
:10283000C96F18EC1FF0040E0001CD6F0001D89095
:10284000C833C7330001CD2FF9D70001CF51020D96
:10285000230EF324D96E000EF420DA6E0001C7C0F7
:10286000DEFF0001C8C0DDFF0001CF51010D290EC0
:10287000F324D96E000EF420DA6EDF50D8B440D0C5
:102880000001CF51020D230EF324D96E000EF42067
:10289000DA6E010EDB5027E1640EDE5CD8B023D087
:1028A0000001CF51020D840EF324D96E000EF420E6
:1028B000DA6EDE2A000EDD220001CF51020D840EF9
:1028C000F324D96E000EF420DA6E010EDB5004E121
:1028D000070EDE5CD8A014D0000E1F6E0001CF5191
:1028E00075EC1DF00DD00001CF51020D840EF324C4
:1028F000D96E000EF420DA6E000EDE6E000EDD6E74
:102900000001CF2B82D7000E0C6E020E0C6401D09A
:1029100012000C50010D940EF324D96E000EF42019
:10292000DA6EDF2A0C50010D940EF324D96E000EDE
:10293000F420DA6E0001DFA006D0000E016E0C500C
:10294000DEEC1EF05ED00C50020D230EF324D96E87
:10295000000EF420DA6EDECF01F0DDCF02F0000EC3
:10296000046E640E036E9EEC1DF001C009F002C0FF
:102970000AF00C50010D940EF324D96E000EF420D1
:10298000DA6EDF500B6E0B50016E026A000E046EA1
:10299000020E036EF1EC1AF00150095C02500A5865
:1029A000D8A00CD0010E016E0C50DEEC1EF00C50C5
:1029B000010D970EF324D96E000E1FD00C50010D9F
:1029C000970EF324D96E000EF420DA6EDF2A000E83
:1029D000016E0C50DEEC1EF00C50010D970EF3242E
:1029E000D96E000EF420DA6E010EDF640AD00C50AE
:1029F000010D940EF324D96E000EF420DA6E000E51
:102A0000DF6E0C2A82D7E0C0D9FFE1C0DAFFDECF4B
:102A1000E4F0DECFE5F0DECFE6F0DECFE7F0000158
:102A2000E2510001CB6FCC6BCD6BCE6BE4C0C7F035
:102A3000E5C0C8F0E6C0C9F0E7C0CAF067EC17F01F
:102A4000E0C0D9FFE1C0DAFF0001C7C0DEFF00012E
:102A5000C8C0DEFF0001C9C0DEFF0001CAC0DDFF43
:102A6000DD52DD52DECFD4F0DECFD5F0DECFD6F0B2
:102A7000DECFD7F00001E2510001D86FD96BDA6BDD
:102A8000DB6B2DEC1CF00001D41F0001D51F0001F1
:102A9000D61F0001D71F0001D42B000E0001D52343
:102AA0000001D6230001D7230001E4510001D42501
:102AB0000001E06F0001E5510001D5210001E16F47
:102AC0000001E6510001D6210001E26F0001E7514B
:102AD0000001D7210001E36F1200000E0001C96F51
:102AE000000E7DEC1FF057D03950010D290EF32454
:102AF000D96E000EF420DA6EDF50D8B409D06A0E19
:102B00000001C76F0F0E0001C86F68EC1AF01200C9
:102B1000640E0001C76F0F0E0001C86F68EC1AF059
:102B200012003950010D290EF324D96E000EF42045
:102B3000DA6EDF50D8B409D05D0E0001C76F0F0EFA
:102B40000001C86F68EC1AF012004F0E0001C76F49
:102B50000F0E0001C86F68EC1AF012003950010D19
:102B6000290EF324D96E000EF420DA6EDF50D8B4AB
:102B700009D07A0E0001C76F0F0E0001C86F68EC14
:102B80001AF01200750E0001C76F0F0E0001C86F1A
:102B900068EC1AF012003950000AD8B4A5D7010A1F
:102BA000D8B4BFD7030AD8A41200D8D70F013FB9B1
:102BB000FDD70F013F810F013F83000120EE06F09A
:102BC000CC51D926CD51DA22DF502BEC20F00F0169
:102BD0003A6F000E0F013B6F0F013F910F013F83D2
:102BE000000120EE04F0CC51D926CD51DA22DF507D
:102BF0002BEC20F00F013A6F000120EE05F0CC51D4
:102C0000D926CD51DA22DF502BEC20F00F013B6F9B
:102C10000F013F810F013F93000120EE02F0CC51E4
:102C2000D926CD51DA22DF502BEC20F00F013A6F7C
:102C3000000120EE03F0CC51D926CD51DA22DF502D
:102C40002BEC20F00F013B6F0F013F910F013F93E1
:102C5000CCC0D9FFCDC0DAFFDF502BEC20F00F0144
:102C60003A6F000120EE01F0CC51D926CD51DA2285
:102C7000DF502BEC20F00F013B6F12000001CE6FF4
:102C8000020E0001C919D8A436D0CEC01FF0206AA8
:102C9000000E226E640E216E74EC1BF01F5020108B
:102CA000D8A402D0010E01D0000E00080001CA6FA6
:102CB000CEC01FF0206A010E226E900E216E74ECC1
:102CC0001BF01F502010D8A404D00001CB6BCB2BDD
:102CD00002D00001CB6BCEC0CCF0030E0001CC17AC
:102CE000D8A402D0010E01D0000E0001CB250001B6
:102CF000CA251C0F12000001C951010B0001CA6F47
:102D0000CB6B0001CA1FCB1FCA4BCB2B0001C95193
:102D10000001CC6FCD6B0001CA510001CC1B00013A
:102D2000CB510001CD1B0D0E0001CC17000ECD17AD
:102D3000040E0001CC190001CD11D8A402D0010E5F
:102D400001D0000E00081F0F120081A002D0010E5A
:102D500001D0000E4018D8B455D0000E81B0010E3D
:102D6000406E81B039D0010E3A6EF29E000E000125
:102D7000F36F020E0001F36501D00FD0000E1F6E3D
:102D80000001F35175EC1DF0000E1F6E0001F351B0
:102D9000BFEC1EF00001F32BECD76BEC20F0000E23
:102DA0000001C96F000E7DEC1FF0700E0001C76FAF
:102DB0000F0E0001C86F68EC1AF0010E0001C96F18
:102DC000000E7DEC1FF01D0E0001C76F0F0E0001FD
:102DD000C86F68EC1AF016D0000E3A6EAC0E000107
:102DE000EF6F000E0001F06FC30E0001F16F000ED7
:102DF0000001F26F3CEC20F0010E0001A26F010E09
:102E00003B6EF28E3A50D8B41200030000F012006C
:102E10000001D46F000E0001D56F000ED66F000EBA
:102E2000D76F000ED86F000E0001D96F090E000198
:102E3000D96501D029D0D4C021F021462146C25005
:102E40002118C30B2118C26EB38EB290B292B38216
:102E5000500EE82EFED7B392B280140EE82EFED7A5
:102E6000B2909E9CC2829EACFED7C3500001D52773
:102E7000C4500001D623000E0001D723000E00012C
:102E8000D8230001D92BD2D7D5C0C7F0D6C0C8F0FF
:102E9000D7C0C9F0D8C0CAF00A0E0001CB6F000E2F
:102EA000CC6F000ECD6F000ECE6F67EC17F0030EE7
:102EB00007D00001D890CA33C9330001C833C733E3
:102EC000E82EF7D7C7C01FF0C8C020F01200000ED0
:102ED0000001CF6F000ED06F000ED16F000ED26FC9
:102EE0000001CB510001CC110001CD110001CE1128
:102EF000D8B442D0010E0001D36F08D00001D890A1
:102F0000CB37CC37CD37CE370001D32B0001CEAF36
:102F1000F5D70001D890CF37D037D137D23700015D
:102F2000CB510001C75D0001CC510001C85900011F
:102F3000CD510001C9590001CE510001CA59D8A094
:102F400012D00001CB510001C75F0001CC5100013C
:102F5000C85B0001CD510001C95B0001CE510001E9
:102F6000CA5B0001CF810001D890CE33CD33CC3382
:102F7000CB330001D32FCDD7CFC0C7F0D0C0C8F01E
:102F8000D1C0C9F0D2C0CAF0120020EE06F0015044
:102F9000D9260250DA2210EE04F00150E126025048
:102FA000E222DE50E65CDE50E658D8A01FD020EECC
:102FB00004F00150D9260250DA22DECF03F0DDCF33
:102FC00004F020EE06F00150D9260250DA22DECFBE
:102FD00005F0DDCF06F0051E061E054A062A035041
:102FE0000524016E04500620026E120020EE04F04B
:102FF0000150D9260250DA22DECF03F0DDCF04F0F3
:1030000020EE02F00150D9260250DA22DECF05F080
:10301000DDCF06F020EE06F00150D9260250DA226C
:10302000DECF07F0DDCF08F0071E081E074A082A8A
:10303000055007260650082203500724016E04504D
:103040000820026E120009C001F00AC002F0C5ECAF
:1030500017F020EE02F00950D9260A50DA22DE508D
:10306000015CDE500258D8B0120020EE04F0095086
:10307000D9260A50DA22DECF0CF0DDCF0DF009C0E0
:10308000D9FF0AC0DAFFDECF0EF0DDCF0FF00C5013
:103090000E24D96E0D500F20DA6E0BC0DFFF20EE2C
:1030A00002F00950D9260A50DA2210EE04F0095035
:1030B000E1260A50E222E6CF0EF0E5CF0FF0010E36
:1030C0000E26000E0F22DE500E5CDE500F58D8B0D8
:1030D0000AD020EE04F00950D9260A50DA22DE2A5E
:1030E000000EDD22120020EE04F00950D9260A500D
:1030F000DA22000EDE6E000EDD6E12000001A0511D
:10310000D8A421D0D6EC0CF00001C1A11CD0000144
:10311000C1910AD0030E03D0040E01D0010E0001AC
:10312000A26F11D0020EFBD70001A251010AD8B440
:10313000F9D7030AD8B4EED7010AD8B4EDD7070AF5
:10314000D8B4ECD7EFD73750D8B404D0000E376ED0
:1031500002EC14F03B50D8B404D0000E3B6E010ECC
:10316000386E0001A205D8A414D0BF0E01010A6F69
:10317000000E01010B6FB30E01010C6F000E010177
:103180000D6FB70E01010E6F000E01010F6FEFEC16
:1031900012F03850D8B404D0000E386EC4EC07F0EA
:1031A0003650D8B41200000E366E81EC13F01200C7
:1031B00009C001F00AC002F0C5EC17F0015002107E
:1031C000D8B44AD020EE06F00950D9260A50DA22A7
:1031D000DECF0BF0DDCF0CF009C0D9FF0AC0DAFF5B
:1031E000DECF0DF0DDCF0EF00B500D24D96E0C505C
:1031F0000E20DA6EDF500F6E20EE02F00950D92655
:103200000A50DA2210EE06F00950E1260A50E222B6
:10321000E6CF0DF0E5CF0EF0010E0D26000E0E22CA
:10322000DE500D5CDE500E58D8B00AD020EE06F00D
:103230000950D9260A50DA22DE2A000EDD220AD0F1
:1032400020EE06F00950D9260A50DA22000EDE6E72
:10325000000EDD6E0F501200000E12000F013FB97C
:10326000FDD70F013F810F013F8320EE06F0215073
:10327000D9262250DA220F013A5178EC20F0DF6E85
:103280003BCFC7F020EE04F02150D9262250DA229D
:103290000F013A5178EC20F0DF6E20EE05F021505E
:1032A000D9262250DA220F013B5178EC20F0DF6E54
:1032B00020EE02F02150D9262250DA220F013A5195
:1032C00078EC20F0DF6E20EE03F02150D92622505A
:1032D000DA220F013B5178EC20F0DF6E0F013A51FA
:1032E00078EC20F021C0D9FF22C0DAFFDF6E20EE9B
:1032F00001F02150D9262250DA220F013B5178ECFF
:1033000020F0DF6E1200000E0001C86F22AE07D061
:10331000216C221ED8B0222A010E0001C86F20AEF7
:1033200007D01F6C201ED8B0202A010E0001C81B38
:10333000000E0001CA6F000EC96F21502210D8B4D0
:1033400021D0010E0001C76F05D0D890213622365A
:103350000001C72B22AEF9D70001D890C937CA3770
:1033600021501F5C22502058D8A006D021501F5E4B
:103370002250205A0001C981D89022322132000106
:10338000C72FEAD70001C8510001D8B405D0000109
:10339000C96DCA1FD8B0CA2BC9C01FF0CAC020F05F
:1033A0001200000E106E020E106401D012001050B8
:1033B000020D230EF324D96E000EF420DA6EDECF58
:1033C0000EF0DDCF0FF01050040D780EF324D96EFF
:1033D000000EF420DA6E0E50DE260F50DE22000EB4
:1033E000DE22DE221050040D780EF324D96E000E7A
:1033F000F420DA6EDECF01F0DECF02F0DECF03F094
:10340000DECF04F0100E056E0E0E066E000E076E77
:10341000000E086E33EC1BF01050040D600EF32408
:10342000D96E000EF420DA6E01C0DEFF02C0DEFFAE
:1034300003C0DEFF04C0DEFF102AB5D70001D8515B
:103440000001D9110001DA110001DB11D8B437D025
:10345000010E1F6E07D00001D890D837D937DA3760
:10346000DB371F2A0001DBAFF6D70001D85100017E
:10347000D45D0001D9510001D5590001DA51000194
:10348000D6590001DB510001D759D8A010D0000156
:10349000D8510001D45F0001D9510001D55B000172
:1034A000DA510001D65B0001DB510001D75B00015E
:1034B000D890DB33DA33D933D8331F2ED6D7D4C0E4
:1034C000D4F0D5C0D5F0D6C0D6F0D7C0D7F0120012
:1034D000000E216E3E0E93EC1FF00001C96F00013B
:1034E000C9510001CA6FCB6B0001CA510001CB1159
:1034F000D8A431D0400E8FEC20F019D0C7C0F6FF11
:10350000C8C0F7FF000EF86E0E0EF76403D0080077
:10351000F55005D0F6CFE1FFF7CFE2FFE7508FEC93
:1035200020F00001C74BC82B680EE82EFED7C7C09D
:10353000F6FFC8C0F7FF000EF86E0E0EF76403D05A
:103540000800F55005D0F6CFE1FFF7CFE2FFE750D6
:103550000009D8A4D3D7AEEC20F0120035D0E3C0D8
:10356000E7F0E4C0E8F0E5C0E6F00FD0E7C0DAF03D
:10357000E8C0DBF0000E0001DD6F0A0EDC6FF1EC3D
:103580001BF0DAC0E7F0DBC0E8F00001E60700015D
:10359000E629D8A4EBD7E7C01FF0E8C020F0000E62
:1035A000226E0A0E216EECEC1DF01FC0E7F020C069
:1035B000E8F00001E751300FE1C0D9FFE2C0DAFFC7
:1035C000DF6E0001E14BE22B0001E5070001E52978
:1035D000D8A4C5D7E1C0D9FFE2C0DAFF000EDF6E84
:1035E0001200000E066E04AE06D0036C041ED8B0A6
:1035F000042A010E066E02AE06D0016C021ED8B07F
:10360000022A010E061A000E086E000E076E035005
:103610000410D8B41CD0010E056E04D0D890033627
:103620000436052A04AEFAD7D89007360836035078
:10363000015C04500258D8A005D00350015E04502C
:10364000025A0780D89004320332052EEDD7065077
:10365000D8B404D0076C081ED8B0082A07C001F0FF
:1036600008C002F01200000E096E000E0A6E000E75
:103670000B6E000E0C6E0550061007100810D8B423
:103680002AD0010E0D6E06D0D890053606360736C4
:1036900008360D2A08AEF8D7D89009360A360B3608
:1036A0000C360550015C065002580750035808506C
:1036B0000458D8A009D00550015E0650025A0750A0
:1036C000035A0850045A0980D8900832073206324B
:1036D00005320D2EE1D709C001F00AC002F00BC07F
:1036E00003F00CC004F01200000E0001C86F20AE01
:1036F00007D01F6C201ED8B0202A010E0001C86F11
:1037000022AE04D0216C221ED8B0222A21502210D1
:10371000D8B41BD0010E0001C76F05D0D890213658
:1037200022360001C72B22AEF9D721501F5C225050
:103730002058D8A004D021501F5E2250205AD89083
:10374000223221320001C72FF0D70001C8510001F9
:10375000D8B404D01F6C201ED8B0202A1FC01FF080
:1037600020C020F01200D388D38AD38C9B8CFC0E0F
:10377000D3161F0E926E3F0E936EB20E946E0F0113
:103780004869180E0F01496FF19E060E4EEC1FF0AE
:10379000020E1F6E000E9DEC1EF0020EE4EC1FF0F8
:1037A000A5EC20F04BEC1DF0000E5DEC20F066EC7B
:1037B0001FF0D0EC1FF04DEC20F0C80E0001C76FD9
:1037C000010E0001C86F000E0001C96F010E00015B
:1037D000CA6F000E0001CC6FC80ECB6F21EC1DF03C
:1037E0001200000E0001E06F000EDF6F0001DC51DF
:1037F0000001DD11D8B42CD0010E0001DE6F06D01F
:103800000001D890DC37DD370001DE2B0001DDAF91
:10381000F7D70001D890DF37E0370001DC51000115
:10382000DA5D0001DD510001DB59D8A00AD00001AA
:10383000DC510001DA5F0001DD510001DB5B0001BA
:10384000DF810001D890DD33DC330001DE2FE1D7CA
:10385000DFC0DAF0E0C0DBF01200000E0001DC6F28
:10386000000EDD6F000EDE6F000EDF6F0001D4A1D1
:1038700010D00001D8510001DC270001D95100010E
:10388000DD230001DA510001DE230001DB510001DC
:10389000DF230001D890D837D937DA37DB3700017A
:1038A000D890D733D633D533D4330001D451000167
:1038B000D5110001D6110001D711D8A4D7D7DCC08B
:1038C000D4F0DDC0D5F0DEC0D6F0DFC0D7F01200F6
:1038D00001EEC8F0080EEE6AE806FDE100EE60F0C9
:1038E000670EEE6AE806FDE100EE23F01C0EEE6ABC
:1038F000E806FDE1660EF66E410EF76E000EF86EFC
:103900000900F5CFFDF00900F5CFFEF00900F5CF75
:10391000FFF0690EF66E410EF76E000EF86E0900AC
:10392000F5CF3FF00900F5CF40F041904192000102
:1039300067EF11F00001A0A104D0020E0001A06FFA
:1039400012000001A0A304D0040E0001A06F120019
:103950000001A0A504D0080E0001A06F1200000114
:10396000A0A704D0100E0001A06F12000001A0A9B2
:1039700004D0200E0001A06F12000001A0AB04D003
:10398000010E0001A06F1200000E0001A06F1200D6
:10399000216E20D01F500001B5151F6E2050000170
:1039A000B615206E12001F500001B9151F6E205071
:1039B0000001BA15206E12001F500001BD151F6EC8
:1039C00020500001BE15206E1200000E206E000E69
:1039D0001F6E12002150000AD8B4DCD7010AD8B4F7
:1039E000E2D7030AD8B4E8D7F0D70001F46FEA0EA3
:1039F0000001E16F000E0001E26FF4C0E3F000018E
:103A0000E46B020E0001E56FAEEC1AF00001E95123
:103A10000001D8B40DD00001A151D8B409D0830E53
:103A20000001C76F0F0E0001C86F68EC1AF012009A
:103A3000EA0E0001C76F000E0001C86F68EC1AF0B3
:103A40001200C7C0D9FFC8C0DAFFC9C0DEFFCAC0B4
:103A5000DDFF000120EE02F0C751D926C851DA225D
:103A6000CBC0DEFFCCC0DDFF000120EE04F0C7516B
:103A7000D926C851DA22000EDE6E000EDD6E00017E
:103A800020EE06F0C751D926C851DA22000EDE6EAC
:103A9000000EDD6E1200000E206E280E1F6EF7EC79
:103AA0001FF0380E33EC1FF0390E33EC1FF0140EFC
:103AB00033EC1FF0700E33EC1FF0560E33EC1FF09A
:103AC0006C0E33EC1FF0000E206EC80E1F6EF7EC6C
:103AD0001FF0380E33EC1FF00C0E33EC1FF0060E07
:103AE00033EC1FF06BEC20F01200206E2050010D23
:103AF000910EF324D96E000EF420DA6E1FC0DFFFA2
:103B000012D01FA002D0898E1200899E12001FA021
:103B100002D0898C1200899C12001FA002D0898AD1
:103B20001200899A12002050000AD8B4EAD7010A7C
:103B3000D8B4EDD7030AD8A41200EFD7000E066E52
:103B4000000E056E03500410D8B41CD0010E076E91
:103B500004D0D89003360436072A04AEFAD7D8909A
:103B6000053606360350015C04500258D8A005D033
:103B70000350015E0450025A0580D890043203328B
:103B8000072EEDD705C001F006C002F012009DB867
:103B90009EA813D0C80E016E010E026EC5EC17F080
:103BA00001500210D8B408D0C80E096E010E0A6E7A
:103BB000D8EC18F0AE6E01D09D989EAA12009DAA76
:103BC0001200AFCF10F0A40E096E000E0A6E10C0E6
:103BD0000BF023EC18F0120021502210D8B41BD0A7
:103BE000010E0001C76F05D0D890213622360001A2
:103BF000C72B22AEF9D721501F5C22502058D8A0E5
:103C000004D021501F5E2250205AD89022322132F7
:103C10000001C72FF0D71FC01FF020C020F01200F6
:103C200020EE01F00150D9260250DA22DE04DE1027
:103C3000D8A406D001C0D9FF02C0DAFF010EDF6EA2
:103C400020EE01F00150D9260250DA22DE50DE10BB
:103C5000D8B4120020EE01F00150D9260250DA2229
:103C6000DE06000EDD5A1200000E036E020E036423
:103C700001D012000350020D230EF324D96E000E62
:103C8000F420DA6E010EDB5004E1650EDE5CD8A094
:103C90000DD00350040D6C0EF324D96E000EF420E9
:103CA000DA6EDE2A000EDE22DE22DE22032ADED7D4
:103CB0000F013FB9FDD7000E3FB7010E0001A16F04
:103CC0000001A15100019E19D8B41200A1C09EF0BC
:103CD000A1C09FF0010E3B6EAC0E0001EF6F000E15
:103CE0000001F06FC30E0001F16F000E0001F26FD2
:103CF0003CEC20F01200216E15D01F500001B517CA
:103D000020500001B61712001F500001B9172050B3
:103D10000001BA1712001F500001BD17205000010A
:103D2000BE1712002150000AD8B4E7D7010AD8B450
:103D3000EBD7030AD8A41200EED7216E1FC020F0E3
:103D4000203A20462046CD5020183F0B2018CD6E3B
:103D5000020E1F18D8A402D0CD8601D0CD9621C066
:103D600020F0203ACD502018CF0B2018CD6ECD84F6
:103D7000CD92CD809F909E909D80F28C1200206EFF
:103D800012D01FA002D08B8412008B9412001FA0AF
:103D900002D08A8C12008A9C12001FA002D08A8E48
:103DA00012008A9E12002050000AD8B4EAD7010AF5
:103DB000D8B4EDD7030AD8A41200EFD7026E12D000
:103DC00001A002D08B8412008B94120001A002D0BB
:103DD0008A8C12008A9C120001A002D08A8E1200E6
:103DE0008A9E12000250000AD8B4EAD7010AD8B459
:103DF000EDD7030AD8A41200EFD70001C76F000E59
:103E0000216E3E0E93EC1FF00001C86F0001C851F7
:103E10000001D8A407D0C00E8FEC20F00001C751DC
:103E20008FEC20F0AEEC20F0680EE82EFED71200EA
:103E30000001C7510001C903F3CFCBF0F4CFCCF0A0
:103E40000001C7510001CA03F3500001CC27000153
:103E5000C8510001C903F3500001CC27CBC0C7F003
:103E6000CCC0C8F012000001C76F000E216E3E0EDC
:103E700093EC1FF00001C86F0001C8510001D8A4E5
:103E800007D0800E8FEC20F00001C7518FEC20F09E
:103E9000AEEC20F0680EE82EFED71200206ED58E14
:103EA000D58CD59A2050D8A402D0D5860AD0D596E4
:103EB00020C01FF0FF0E1F26D5501F18F80B1F182B
:103EC000D56EF28AF294F194F28C12000F013F8BBE
:103ED0000F013FBB06D0550EA76EAA0EA76E0F01AD
:103EE0003F8B0F013F8F0F013F950F013C830F0167
:103EF0003C85000E0F013E6F12000001CC6FFDC02B
:103F0000CAF0FEC0CBF00001C951010DCA0EF32466
:103F1000D96E000EF420DA6EDF500001CC25800946
:103F200033EC1FF01200226E050E9AEC20F0C580D3
:103F3000050E9AEC20F09E96225022242124C96E70
:103F40009EA6FED7C5AC02D0010E1200000E1200D4
:103F50001F6E06D00A0E1200090E1200080E120083
:103F60001F50000AD8B4F6D7010AD8B4F5D7030A0F
:103F7000D8B4F4D7000E1200226E22C021F02146E0
:103F80002146C2502118C30B2118C26EC2809E9CCC
:103F9000C2829EACFED7C3CF1FF0C4CF20F0120068
:103FA000000EB36E900EB26E010EB16EC18EC19C4A
:103FB000C150C70B0809C16EC150F80B0609C16E8C
:103FC000C29CC29EC2801200206E3F0E7916799666
:103FD00020C01FF01F3A79501F18CF0B1F18796EA1
:103FE000799E7980A292A192A082F28C120008D0D0
:103FF000100E216E940EE82EFED7212EFCD700D095
:104000001F06D8A020061F28F3E12028D8B41200EC
:10401000EFD720EE01F01F50D9262050DA2221C020
:10402000DEFF22C0DDFF1FC0D9FF20C0DAFF000E77
:10403000DF6E1200F8C0E8F0F9C0E9F0FAC0EAF06B
:10404000FBC0EBF071EC10F0F8C0CCF0F9C0CDF093
:10405000D6EC15F012000001CB6FCBC01FF0206A28
:10406000000E226E0A0E216E83EC19F01F50060D11
:10407000F3500001CB251200EFC021F0F0C022F078
:104080002EEC19F0EFC0E0F0F0C0E1F0F1C0E2F08A
:10409000F2C0E3F092EC0BF01200AD9CAD8AAD984B
:1040A000AD94AC8EAC9CAC887E964D0EB06E000E7E
:1040B0007F6E9F9A9D8AF28C12001F6EC29E1FB067
:1040C00002D0C29C01D0C28CC18EC19CC150F80BE1
:1040D0000609C16E1200010E33EC1FF0120E000132
:1040E000C96F230EE82EFED7C92FFCD700F01200AF
:1040F000206E20C01FF00F0E1F1620380F0B0F0B65
:104100000A0DF3501F2412000001A051D8B404D0AE
:10411000000E0001A06F12000001A0811200216EAC
:10412000050E9AEC20F09E9621C0C9FF9EA6FED7F0
:10413000C5501200206EC75020141F6EC5501F0BB3
:104140001F100009D8B41200F6D7800EC76E280ED3
:10415000C66E130EC86E9E96A1961200050E9AECBE
:0C41600020F0C5841200004001020100A4
:020000040001F9
:08FFF8008CF70AFAF2F8FFFB96
:00000001FF
