:061000007FEF08F0004044
:101008005B82FACF4DF0FBCF4EF0E9CF4FF0EACF3D
:1010180050F0E1CF51F0E2CF52F0D9CF53F0DACF10
:1010280054F0F3CF55F0F4CF56F0F6CF57F0F7CF92
:1010380058F0F8CF59F0F5CF5AF079ECA3F0F2B4A4
:10104800F2949EA010D09E90800ECF6E8ABA03D0E4
:101058004C6A4C2A01D04C6A4C3A4C468A504C187F
:10106800DF0B4C188A6EA1A228D0A1928F0E2E6E8B
:10107800010E2F6E80BA02D0010E01D0000E306E24
:1010880096EC8AF08B0E2E6E010E2F6E80BC02D06D
:10109800010E01D0000E306E96EC8AF0870E2E6E8F
:1010A800010E2F6E80BE02D0010E01D0000E306EF0
:1010B80096EC8AF0010E0001EB6F5AC0F5FF59C09B
:1010C800F8FF58C0F7FF57C0F6FF56C0F4FF55C0E9
:1010D800F3FF54C0DAFF53C0D9FF52C0E2FF51C03A
:1010E800E1FF50C0EAFF4FC0E9FF4EC0FBFF4DC013
:0A10F800FAFF5B92110017EF9EF063
:10FD02000001000A006400E8031027EEFD58FD8C94
:10FD1200FD15FD09024300020100C0320904000082
:10FD2200010202010005240010010424020205243C
:10FD320006000105240100010705810308000209EC
:10FD4200040100020A000000070502024000000749
:10FD520005820240000034034D0069006300720016
:10FD62006F006300680069007000200054006500A5
:10FD7200630068006E006F006C006F00670079001E
:10FD8200200049006E0063002E003403430044004B
:10FD920043002000520053002D0032003300320095
:10FDA200200045006D0075006C0061007400690060
:10FDB2006F006E002000440065006D006F00535517
:10FDC2004E004D4F4E00545545005745440054488F
:10FDD20055004652490053415400120100020200EC
:10FDE2000008D8040A00000101020001040309040A
:10FDF200092A2A2A2A2A2A2A2A2A2A2A2A2A2A2A82
:10FE02002A2A2A2A2A2A2A2A2A2A2A0A092A2A2A91
:10FE12002A204B696C6C6966697368204C69676853
:10FE22007420202A2A2A2A0A092A2A2A2A204D61EB
:10FE32006465206279204052796F6B657269202A6D
:10FE42002A2A2A0A092A2A2A2A2A2A2A2A2A2A2A51
:10FE52002A2A2A2A2A2A2A2A2A2A2A2A2A2A2A0A20
:10FE62000A09636F6D6D616E6420096F70656C6164
:10FE72006E6431096F70656C616E64320A0A0970D2
:10FE820072696E745F74696D652874290A09616408
:10FE92006A7573745F74696D6528617429205B6883
:10FEA200616E643A792C4D2C642C682C6D2C735D38
:10FEB200205B76616C756528646563696D616C2988
:10FEC2005D0A0970776D205B636F6C6F723A522C1A
:10FED200472C422C575D205B76616C75652825297D
:10FEE2003A307E3130305D0A0970776D20636C657F
:10FEF20061720A097365742074696D655F73796E46
:10FF0200635F6D6F64652873796E63290A0973658F
:10FF120074204144435F6D6F646528616463290AFC
:10FF220009524553455428293B0A000932302530ED
:10FF320032642F253032642F25303264282573290C
:10FF4200253032643A253032642D253032640A007D
:10FF520061646A7573745F74696D65007072696E4D
:10FF6200745F74696D6500524553455428293B00FE
:10FF7200626F6F746C6F616400202020202020204B
:10FF82002000096572726F720A00286E756C6C2906
:10FF9200007365636F6E64006D696E7574650063EE
:10FFA2006C656172006D6F6E74680073796E6300C8
:10FFB20068656C70007965617200686F7572002502
:10FFC200303264004144430050574D006164630085
:10FFD20070776D0073657400082008006461790011
:10FFE2006174003F00420047005200570062006700
:0EFFF200007700730028002D002F003A000059
:020000040001F9
:10000000C7C060F0C8C061F0B20E0001626FFF0EA1
:100010000001636F59ECA0F0000160510001611113
:10002000D8B412D0C7C060F0C8C061F0E50E0001BE
:10003000626FFF0E0001636F59ECA0F00001605188
:1000400000016111D8A408D0F20E00016F6FFD0EFF
:100050000001706F50ECA1F0C5C0BCF0C6C0BDF08F
:10006000C7C0BEF0C8C0BFF0C9C0C0F0CAC0C1F0B0
:10007000CBC0C2F0CCC0C3F080EC84F0C7C060F04D
:10008000C8C061F0690E0001626FFF0E0001636F6E
:1000900059ECA0F00001605100016111D8B4FF00DB
:1000A000C7C060F0C8C061F0720E0001626FFF0E41
:1000B0000001636F59ECA0F0000160510001611173
:1000C000D8B40EEF00F0C7C060F0C8C061F0D60E23
:1000D0000001626FFF0E0001636F59ECA0F0000198
:1000E000605100016111D8A43CD0C9C060F0CAC001
:1000F00061F0AD0E0001626FFF0E0001636F59ECFD
:10010000A0F00001605100016111D8A403D0000EDD
:100110000001F16FC9C060F0CAC061F0CE0E0001ED
:10012000626FFF0E0001636F59ECA0F00001605197
:1001300000016111D8B412D0C9C060F0CAC061F02A
:10014000C60E0001626FFF0E0001636F59ECA0F054
:100150000001605100016111D8A403D0010E00011B
:10016000F16FC7C060F0C8C061F0D20E0001626FCD
:10017000FF0E0001636F59ECA0F000016051000117
:100180006111D8B412D0C7C060F0C8C061F0CA0E07
:100190000001626FFF0E0001636F59ECA0F00001D7
:1001A000605100016111D8A41200C9C060F0CAC03A
:1001B00061F0A50E0001626FFF0E0001636F59EC44
:1001C000A0F00001605100016111D8B412D0C9C083
:1001D00060F0CAC061F0EB0E0001626FFF0E00011B
:1001E000636F59ECA0F00001605100016111D8A4C7
:1001F0002ED0020E0001F16FCBC066F0CCC067F0CC
:100200007AEC92F066C0CFF067C0D0F0CFC060F05B
:10021000D0C061F0000E0001636FFA0E626FE7EC70
:10022000A1F060C06DF061C06EF0000E0001706F53
:10023000640E6F6FE3EC98F06DC0D1F06EC0D2F039
:10024000D1C075F0D2C076F0000EDCEC8DF0C9C0E4
:1002500060F0CAC061F0F10E0001626FFF0E000194
:10026000636F59ECA0F00001605100016111D8B436
:1002700012D0C9C060F0CAC061F0E90E0001626F1F
:10028000FF0E0001636F59ECA0F000016051000106
:100290006111D8A42ED0020E0001F16FCBC066F020
:1002A000CCC067F07AEC92F066C0CFF067C0D0F0B7
:1002B000CFC060F0D0C061F0000E0001636FFA0E95
:1002C000626FE7ECA1F060C06DF061C06EF0000EEF
:1002D0000001706F640E6F6FE3EC98F06DC0D1F0A9
:1002E0006EC0D2F0D1C075F0D2C076F0010EDCEC59
:1002F0008DF0C9C060F0CAC061F0EF0E0001626FFE
:10030000FF0E0001636F59ECA0F000016051000185
:100310006111D8B412D0C9C060F0CAC061F0E70E54
:100320000001626FFF0E0001636F59ECA0F0000145
:10033000605100016111D8A42ED0020E0001F16FAE
:10034000CBC066F0CCC067F07AEC92F066C0CFF01C
:1003500067C0D0F0CFC060F0D0C061F0000E0001E7
:10036000636FFA0E626FE7ECA1F060C06DF061C0E0
:100370006EF0000E0001706F640E6F6FE3EC98F08A
:100380006DC0D1F06EC0D2F0D1C075F0D2C076F0A1
:10039000020EDCEC8DF0C9C060F0CAC061F0F30E53
:1003A0000001626FFF0E0001636F59ECA0F00001C5
:1003B000605100016111D8B412D0C9C060F0CAC048
:1003C00061F0ED0E0001626FFF0E0001636F59ECEA
:1003D000A0F00001605100016111D8A42ED0020EDE
:1003E0000001F16FCBC066F0CCC067F07AEC92F000
:1003F00066C0CFF067C0D0F0CFC060F0D0C061F071
:10040000000E0001636FFA0E626FE7ECA1F060C0AE
:100410006DF061C06EF0000E0001706F640E6F6FC2
:10042000E3EC98F06DC0D1F06EC0D2F0D1C075F0A1
:10043000D2C076F0030EDCEC8DF0C9C060F0CAC00B
:1004400061F0A10E0001626FFF0E0001636F59ECB5
:10045000A0F00001605100016111D8A41200020E49
:100460000001F16F000E0001766F000E756F000E37
:10047000DCEC8DF0000E0001766F000E756F010E42
:10048000DCEC8DF0000E0001766F000E756F020E31
:10049000DCEC8DF0000E0001766F000E756F030E20
:1004A000DCEC8DF01200760E0001896F000E000169
:1004B0008A6F0FD2250E00019219D8B40AD072C0EB
:1004C000D9FF73C0DAFF92C0DFFF0001724B732BBC
:1004D00000D2000E0001946F000E936F000E000119
:1004E000916F05D0000191850001744B752B74C08C
:1004F000F6FF75C0F7FF000EF86E0800F550300AE1
:10050000D8B4F0D774C0F6FF75C0F7FF000EF86ED0
:100510000800F550BCECA2F0D8A0CBD0000E000132
:10052000946F000E936F93C060F094C061F0000E62
:100530000001636F0A0E626FE7ECA1F060C093F0F8
:1005400061C094F0D00E0001846FFF0E0001856F32
:1005500074C0F6FF75C0F7FF000EF86E0800F55086
:100560000001866F876B000184510001862700011E
:100570008551000187230001865100019327000166
:100580008751000194230001744B752B74C0F6FF52
:1005900075C0F7FF000EF86E0800F550BCECA2F035
:1005A000D8A087D0C0D789C0D9FF8AC0DAFFDECFF4
:1005B0008BF0DDCF8CF0020E00018927000E8A231C
:1005C00000018B5100018C11D8A406D08C0E0001C3
:1005D0008B6FFF0E00018C6F000E0001906F000EFC
:1005E0008F6F03D000018F4B902B00018F510001C2
:1005F0008B250001846F0001905100018C210001C6
:10060000856F84C0F6FF85C0F7FF000EF86E080006
:10061000F5500009D8A4E6D70001935100018F5D81
:100620000001945100019059D8B009D000018F51B8
:100630000001935F000190510001945B0FD0000E08
:100640000001946F000E936F09D072C0D9FF73C080
:10065000DAFF200EDF6E0001724B732B000193074F
:10066000D8A0940700019329F0E100019429D8B49F
:1006700014D0EBD78BC0F6FF8CC0F7FF000EF86EDE
:1006800072C0D9FF73C0DAFF0800F5CFDFFF0001A9
:100690008B4B8C2B0001724B732B00018F07D8A062
:1006A000900700018F29E6E100019029D8B411D10B
:1006B000E1D774C0F6FF75C0F7FF0001744B752BCE
:1006C000000EF86E0800F5CF92F000019251000A7A
:1006D000D8B40FD1640AD8B407D00D0AD8B404D066
:1006E0001A0AD8B460D7F5D089C0D9FF8AC0DAFF1A
:1006F000DECF8DF0DDCF8EF0020E00018927000ED7
:100700008A2300018EAF08D0030E0001911300016F
:100710008D6D8E1FD8B08E2B010E0001926F050ECD
:1007200000019219D8B419D000019251020D030EA4
:10073000F324F66EFD0EF420F76EF86A000EF82230
:100740000900F55000018D5D0900F55000018E593A
:10075000D8A003D00001922BE2D7000193510001F1
:100760009411D8B40BD091C084F0030E000184170B
:10077000D8B404D000019307D8A09407800E0001DC
:1007800092BF7F0E0001846F000193510001925DC2
:1007900000019451800A00018459D8B00BD00001A7
:1007A00092510001935F000E000192BFFF0E000105
:1007B000945B05D0000E0001946F000E936F000152
:1007C00091A524D091C084F0030E00018417D8B401
:1007D00009D072C0D9FF73C0DAFF2D0EDF6E0001A1
:1007E000724B732B0001935100019411D8B437D090
:1007F00072C0D9FF73C0DAFF300EDF6E0001724B9A
:10080000732B00019307D8A09407ECD700019351F4
:1008100000019411D8B413D072C0D9FF73C0DAFFAD
:10082000200EDF6E0001724B732B00019307D8A0DE
:1008300094070001935100019411D8A4EDD791C001
:1008400084F0030E00018417D8B409D072C0D9FF18
:1008500073C0DAFF2D0EDF6E0001724B732B92C056
:1008600088F031D000018851020D030EF324F66E9A
:10087000FD0EF420F76EF86A000EF8220900F5CF9D
:1008800068F00A00F5CF69F08DC066F08EC067F0A1
:1008900017EC9FF066C06DF067C06EF0000E0001AF
:1008A000706F0A0E6F6F28ECA0F000016D51300FD1
:1008B0000001926F72C0D9FF73C0DAFF92C0DFFFF0
:1008C0000001724B732B0001880700018829D8A40E
:1008D000C9D774C0F6FF75C0F7FF0001744B752BC4
:1008E000000EF86E0800F5CF92F000019251D8A4E6
:1008F000E1D572C0D9FF73C0DAFF000EDF6E1200BF
:10090000BEC060F0BFC061F05E0E0001626FFF0EFE
:100910000001636F59ECA0F000016051000161110A
:10092000D8B412D0BEC060F0BFC061F0E30E0001C9
:10093000626FFF0E0001636F59ECA0F0000160517F
:1009400000016111D8A406D0BCC095F0BDC096F0DE
:10095000D1EC9DF0BEC060F0BFC061F0E20E0001BE
:10096000626FFF0E0001636F59ECA0F0000160514F
:1009700000016111D8B412D0BEC060F0BFC061F0F8
:10098000520E0001626FFF0E0001636F59ECA0F080
:100990000001605100016111D8A41200C0C060F0D4
:1009A000C1C061F0E00E0001626FFF0E0001636FD5
:1009B00059ECA0F00001605100016111D8B412D0CF
:1009C000C0C060F0C1C061F0B70E0001626FFF0EE1
:1009D0000001636F59ECA0F000016051000161114A
:1009E000D8A41CD0BCC0B5F0BDC0B6F0540E0001F8
:1009F000B76F010E0001B86F000E0001B96F630EF2
:100A00000001BA6FC2C066F0C3C067F07AEC92F022
:100A1000000166510001BB6FF7EC9FF0C0C060F0B1
:100A2000C1C061F0CC0E0001626FFF0E0001636F68
:100A300059ECA0F00001605100016111D8B412D04E
:100A4000C0C060F0C1C061F0A70E0001626FFF0E70
:100A50000001636F59ECA0F00001605100016111C9
:100A6000D8A41CD0BCC0B5F0BDC0B6F0530E000178
:100A7000B76F010E0001B86F010E0001B96F0C0EC7
:100A80000001BA6FC2C066F0C3C067F07AEC92F0A2
:100A9000000166510001BB6FF7EC9FF0C0C060F031
:100AA000C1C061F0C40E0001626FFF0E0001636FF0
:100AB00059ECA0F00001605100016111D8B412D0CE
:100AC000C0C060F0C1C061F0DE0E0001626FFF0EB9
:100AD0000001636F59ECA0F0000160510001611149
:100AE000D8A423D053C166F00101545157EC94F0BF
:100AF0000001C46FBCC0B5F0BDC0B6F0520E00011D
:100B0000B76F010E0001B86F010E0001B96FC4C0CC
:100B1000BAF0C2C066F0C3C067F07AEC92F0000190
:100B200066510001BB6FF7EC9FF0C0C060F0C1C020
:100B300061F0AB0E0001626FFF0E0001636F59ECB4
:100B4000A0F00001605100016111D8B412D0C0C002
:100B500060F0C1C061F0BC0E0001626FFF0E0001C9
:100B6000636F59ECA0F00001605100016111D8A43D
:100B70001CD0BCC0B5F0BDC0B6F0500E0001B76FC0
:100B8000010E0001B86F000E0001B96F170E0001D1
:100B9000BA6FC2C066F0C3C067F07AEC92F0000191
:100BA00066510001BB6FF7EC9FF0C0C060F0C1C0A0
:100BB00061F0D40E0001626FFF0E0001636F59EC0B
:100BC000A0F00001605100016111D8B412D0C0C082
:100BD00060F0C1C061F09A0E0001626FFF0E00016B
:100BE000636F59ECA0F00001605100016111D8A4BD
:100BF0001CD0BCC0B5F0BDC0B6F04F0E0001B76F41
:100C0000010E0001B86F000E0001B96F3B0E00012C
:100C1000BA6FC2C066F0C3C067F07AEC92F0000110
:100C200066510001BB6FF7EC9FF0C0C060F0C1C01F
:100C300061F0F50E0001626FFF0E0001636F59EC69
:100C4000A0F00001605100016111D8B412D0C0C001
:100C500060F0C1C061F0930E0001626FFF0E0001F1
:100C6000636F59ECA0F00001605100016111D8A43C
:100C70001200BCC0B5F0BDC0B6F04E0E0001B76F9B
:100C8000010E0001B86F000E0001B96F3B0E0001AC
:100C9000BA6FC2C066F0C3C067F07AEC92F0000190
:100CA00066510001BB6FF7EC9FF012000001F45198
:100CB0000001D8A416D0010E0001F46FF50E00015A
:100CC000606F000E0001616F000E0001626F040E84
:100CD0000001636F000E0001656F640E646FB5EC78
:100CE000A0F095C160F096C161F06BEC93F000014B
:100CF000605100016111D8B4120095C168F096C12D
:100D000069F01CEC98F00401676F76D1F50E0001D4
:100D1000686F000E0001696F000E00016A6F78ECC9
:100D200096F093C168F094C169F0090E00016A6FF2
:100D300078EC96F0F50E0001606F000E0001616F17
:100D40006BEC93F0FF0E000160250401646FFF0E51
:100D5000000161210401656F93C172F094C173F0C9
:100D600064C474F065C475F0020E0001766F59EC2E
:100D70009EF093C168F094C169F00A0E00016A6F99
:100D800078EC96F0000E0401686F02D00401682B25
:100D9000F50E0001686F000E0001696F1CEC98F001
:100DA0000001D36F04016851010D180EF324D96EB0
:100DB000010EF420DA6ED3C0DFFFDF50D8A4E6D7EF
:100DC00004016851010D180EF324D96E010EF420B0
:100DD000DA6E000EDF6E000E0401686F02D00401AF
:100DE000682BF50E0001686F000E0001696F1CECA6
:100DF00098F00001D36F04016851010D310EF32406
:100E0000D96E010EF420DA6ED3C0DFFFDF50D8A414
:100E1000E6D704016851010D310EF324D96E010E9D
:100E2000F420DA6E000EDF6E000E0401686F02D04F
:100E30000401682BF50E0001686F000E0001696F58
:100E40001CEC98F00001D36F04016851010D800E75
:100E5000F324D96E020EF420DA6ED3C0DFFFDF5028
:100E6000D8A4E6D704016851010D800EF324D96E91
:100E7000020EF420DA6E000EDF6E000E0401686FC1
:100E800002D00401682BF50E0001686F000E00010E
:100E9000696F1CEC98F00001D36F04016851010DDB
:100EA000990EF324D96E020EF420DA6ED3C0DFFF60
:100EB000DF50D8A4E6D704016851010D990EF32440
:100EC000D96E020EF420DA6E000EDF6E93C1C5F00B
:100ED00094C1C6F0180E0001C76F010E0001C86F63
:100EE000310E0001C96F010E0001CA6F800E0001B2
:100EF000CB6F020E0001CC6F990E0001CD6F020E78
:100F00000001CE6F00EC80F01200F50E0001686F5A
:100F1000000E0001696F000E00016A6F78EC96F018
:100F200093C168F094C169F0200E00016A6F78ECFB
:100F300096F01200F50E0001686F000E0001696F57
:100F400043EC9DF093C16FF094C170F0DA0E000194
:100F5000716FFF0E0001726FC5EC9FF01200000E62
:100F60000401666F0ED093C16FF094C170F0DA0E79
:100F70000001716FFF0E0001726FC5EC9FF004015C
:100F8000662BF50E0001606F000E0001616F6BECC7
:100F900093F0040166510001D36FD46B00016051DE
:100FA0000001D35D000161510001D459D8A0DBD705
:100FB000F50E0001606F000E0001616FF8ECA2F009
:100FC00012001F0E0401676512007F0E04016761A5
:100FD0001200F50E0001686F000E0001696F67C412
:100FE0006AF078EC96F093C168F094C169F067C438
:100FF0006AF078EC96F0120004016751080AD8B440
:1010000099D7050AD8B482D62D0AD8B47ED75F0AFC
:10101000D8B4A5D7D6D7000E0001806F000E816F1F
:10102000000E826F000E836F000E00017E6F37D0BE
:10103000010E0001846F0C0E0001846501D02DD0DB
:1010400084C066F000017E5157EC94F000017A6F85
:1010500000017A5100016C6F6D6B6E6B6F6B800ECF
:101060000001706F510E716F010E726F000E736F81
:1010700053EC9FF000016C510001802700016D517D
:101080000001812300016E510001822300016F5194
:10109000000183230001842BCED700017E2B0001A9
:1010A00020EE0AF07851D9267951DA22DE5000017B
:1010B0007E5DD8A0BDD7010E00017F6F32D07FC00A
:1010C00066F0000120EE0AF07851D9267951DA2233
:1010D000DF5057EC94F000017A6F00017A51000163
:1010E0006C6F6D6B6E6B6F6B800E0001706F510ECD
:1010F000716F010E726F000E736F53EC9FF0000161
:101100006C510001802700016D5100018123000115
:101110006E510001822300016F5100018323000101
:101120007F2B000120EE09F07851D9267951DA227F
:10113000DE5000017F5DD8A0C2D7FF0E00017A6F9C
:10114000FF0E00017B6F000120EE08F07851D926D8
:101150007951DA22DF5000017C6F7D6B00017A51FA
:1011600000017C2700017B5100017D237CC06CF0D5
:101170007DC06DF00001000E6DBFFF0E6E6F6F6FD2
:10118000800E0001706F510E716F010E726F000EB4
:10119000736F53EC9FF000016C5100018027000138
:1011A0006D510001812300016E5100018223000175
:1011B0006F5100018323000120EE06F07851D926FB
:1011C0007951DA22DF5000017A6F00017A51000173
:1011D0006C6F6D6B6E6B6F6B100E0001706F0E0E8F
:1011E000716F000E726F000E736F53EC9FF0000171
:1011F0006C510001802700016D5100018123000125
:101200006E510001822300016F5100018323000110
:1012100020EE05F07851D9267951DA22DF5000010D
:101220007A6F00017A5100016C6F6D6B6E6B6F6BA2
:101230003C0E0001706F000E716F000E726F000E99
:10124000736F53EC9FF000016C5100018027000187
:101250006D510001812300016E51000182230001C4
:101260006F5100018323000120EE04F07851D9264C
:101270007951DA22DF5000017A6F00017A510001C2
:101280008027000E81238223832378C0D9FF79C071
:10129000DAFF80C0DEFF81C0DEFF82C0DEFF83C0D8
:1012A000DEFF12000D013205D8A410D00D0130511F
:1012B0001F0B0009D8A40AD00D8E030E0D013119A1
:1012C000D8A402D0010E01D0000E1E6E0D013251C5
:1012D000D8A412000D0130511F0B020AD8A412002D
:1012E0000D0134510F0B0009D8B412000D01345117
:1012F0000F0B426E030E42601200200E2218D8A47B
:1013000012000D8E0D0134BF1BD00D0134510F0B97
:10131000426E4250020DD50EF324D96E000EF42019
:10132000DA6EDECF46F0DDCF47F00D0134510F0B02
:10133000426E4250010DDB0EF324D96E000E1AD01E
:101340000D0134510F0B426E4250020D100EF3246A
:10135000D96E000EF420DA6EDECF46F0DDCF47F016
:101360000D0134510F0B426E4250010D160EF32445
:10137000D96E000EF420DA6EDF50456E45B002D013
:10138000469401D046840D0134BF0BD00D01345179
:101390000F0B426E4250020DD50EF324D96E000E93
:1013A0000AD00D0134510F0B426E4250020D100E47
:1013B000F324D96E000EF420DA6E46C0DEFF47C07B
:1013C000DDFF030E0D013119D8A431D046C0D9FF7D
:1013D00047C0DAFFDFAE1ED00D0134BF0ED00D01C5
:1013E00034510F0B426E4250010DDB0EF324D96EC7
:1013F000000EF420DA6E00010CD00D0134510F0BF9
:10140000426E4250010D160EF324D96E000EF420E8
:10141000DA6EDF8246C0D9FF47C0DAFF000EDB84F8
:1014200046C0D9FF47C0DAFF000EDB8E1200040E63
:10143000461A46C0D9FF47C0DAFFDFAE1BD046C010
:10144000D9FF47C0DAFF7F0EDF1646C0D9FF47C07D
:10145000DAFF000EDB8C000E3B6E050E3A6E46C0C6
:101460003CF047C03DF0000E3F6E020E3E6E4DEC6C
:10147000A2F006D046C0D9FF47C0DAFF000EDB8CD1
:10148000040E461A45B206D046C0D9FF47C0DAFF5F
:10149000DFAE33D00D0134BF0ED00D0134510F0B30
:1014A000426E4250010DDB0EF324D96E000EF42083
:1014B000DA6E00010CD00D0134510F0B426E425018
:1014C000010D160EF324D96E000EF420DA6EDF92B1
:1014D00046C0D9FF47C0DAFF3B0EDF16000E3B6E59
:1014E000050E3A6E46C03CF047C03DF0000E3F6E20
:1014F000020E3E6E4DECA2F006D046C0D9FF47C0AA
:10150000DAFF3B0EDF160D0134510F0B426E4250D5
:10151000010D260EF324436E0F0EF420446E43C0DB
:10152000D9FF44C0DAFFFE0EDF1612003050D8B4E7
:1015300098D02EC0D9FF2FC0DAFF840EDE180BE141
:10154000030EDE18D8A407D020EE03F02E50D926C3
:101550002F50DA22DF8E2EC0D9FF2FC0DAFFBC0E4B
:10156000DE180BE1020EDE18D8A407D020EE03F03F
:101570002E50D9262F50DA22DF8C2EC0D9FF2FC053
:10158000DAFFF40EDE180AE1DE04D8A407D020EE5C
:1015900003F02E50D9262F50DA22DF8A2EC0D9FF31
:1015A0002FC0DAFF2C0EDE180AE1DE04D8A407D023
:1015B00020EE03F02E50D9262F50DA22DF882EC0DD
:1015C000D9FF2FC0DAFF960EDE18DE10D8A407D0A0
:1015D00020EE03F02E50D9262F50DA22DF862EC0BF
:1015E000D9FF2FC0DAFF3C0EDE18DE10D8A407D0DA
:1015F00020EE03F02E50D9262F50DA22DF842EC0A1
:10160000D9FF2FC0DAFF100EDE18DE10D8A407D0E5
:1016100020EE03F02E50D9262F50DA22DF822EC082
:10162000D9FF2FC0DAFF020EDE18DE10D8A407D0D3
:1016300020EE03F02E50D9262F50DA22DF802EC064
:10164000D9FF2FC0DAFF850EDE5C030EDE58D8B05E
:1016500012002EC0D9FF2FC0DAFFDE2A000EDD22D5
:1016600012002EC0D9FF2FC0DAFF840EDE5C030EFD
:10167000DE58D8A008D020EE02F02E50D9262F50E8
:10168000DA22DF8E81D02EC0D9FF2FC0DAFFBC0E48
:10169000DE5C020EDE58D8A008D020EE02F02E50FC
:1016A000D9262F50DA22DF8C6FD02EC0D9FF2FC061
:1016B000DAFFF40EDE5C010EDE58D8A008D020EE72
:1016C00002F02E50D9262F50DA22DF8A5DD02EC0AC
:1016D000D9FF2FC0DAFF2C0EDE5C010EDE58D8A039
:1016E00008D020EE02F02E50D9262F50DA22DF88C3
:1016F0004BD02EC0D9FF2FC0DAFF010EDB5004E122
:10170000960EDE5CD8A008D020EE02F02E50D9262E
:101710002F50DA22DF8638D02EC0D9FF2FC0DAFF53
:10172000010EDB5004E13C0EDE5CD8A008D020EEB8
:1017300002F02E50D9262F50DA22DF8425D02EC079
:10174000D9FF2FC0DAFF010EDB5004E1100EDE5C82
:10175000D8A008D020EE02F02E50D9262F50DA2241
:10176000DF8212D02EC0D9FF2FC0DAFF010EDB506E
:1017700004E1020EDE5CD8A007D020EE02F02E506D
:10178000D9262F50DA22DF802EC0D9FF2FC0DAFFF2
:10179000000EDE6E000EDD6E20EE02F02E50D92619
:1017A0002F50DA22FF0EDE16000EDD1612000001A9
:1017B000F251D8B4AED0000E0001F26F4A0E000113
:1017C000856F010E0001866F58ECA3F00001F15106
:1017D000D8A49FD04AC160F04BC161F04CC162F007
:1017E0004DC163F0800E0001646F510E656F010EF4
:1017F000666F000E676F14EC9CF060C08DF061C0E6
:101800008EF062C08FF063C090F000019051000133
:101810008F1108E1C10E00018D5DA80E00018E59E7
:10182000D8A026D08DC087F08EC088F08FC089F0F8
:1018300090C08AF00001871F881F891F8A1F872B8D
:10184000000E882389238A23800E0001872500014A
:101850008D6F510E0001882100018E6F010E000175
:10186000892100018F6F000E00018A210001906F15
:10187000D89000018D3500016C6F00018E3500019C
:101880006D6F00018F3500016E6F00019035000112
:101890006F6FFA0E0001706F000E716F000E726FA5
:1018A000000E736F53EC9FF06CC078F06DC079F050
:1018B0006EC07AF06FC07BF0800E00017C6F510E1D
:1018C0007D6F010E7E6F000E7F6FFEEC99F078C089
:1018D0008DF079C08EF07AC08FF07BC090F08DC013
:1018E00075F08EC076F0030EDCEC8DF0000E00017A
:1018F000916F020E0001916501D00BD08DC075F083
:101900008EC076F000019151DCEC8DF00001912B3E
:10191000F0D701018DA12AD0000E01018E6F000EBB
:101920008D6F020E0001F16F020E0001FE6504D002
:10193000000E0001FE6F02D00001FE2B0001FE51DF
:10194000530DF3CF8BF0000E0001916F020E0001DA
:10195000916501D00BD08BC075F00001766B000152
:101960009151DCEC8DF00001912BF0D7010189A1A0
:101970001ED0000E01018A6F000E896F020E000159
:10198000F16F020E0001FD6504D0000E0001FD6F35
:1019900002D00001FD2B0001FD51530DF3CF8CF05F
:1019A0008CC075F00001766B030EDCEC8DF001014C
:1019B00091A11200000E0101926F000E916F000EB6
:1019C0000001F16F1200000E0001956F010E000181
:1019D000966F8DC0D9FF8EC0DAFFDECF97F0DECFD5
:1019E00098F0DECF99F0DECF9AF0970E0001856F68
:1019F000000E0001866F3C0E0001876FE2EC96F04E
:101A0000000120EE04F08D51D9268E51DA2200011A
:101A100085C0DFFF970E0001856F000E0001866F05
:101A20003C0E0001876FE2EC96F0000120EE05F01D
:101A30008D51D9268E51DA22000185C0DFFF970E25
:101A40000001856F000E0001866F180E0001876F80
:101A5000E2EC96F0000120EE06F08D51D9268E5171
:101A6000DA22000185C0DFFF97C093F098C094F0A0
:101A700093C091F094C092F0060E00019727000EDB
:101A8000982399239A23970E0001856F000E000179
:101A9000866F070E0001876FE2EC96F0000120EEE2
:101AA00007F08D51D9268E51DA22000185C0DFFF63
:101AB0003FD08A8496C066F00001955157EC94F0AF
:101AC00000018F6F906B00018F1F901F8F4B902B29
:101AD0000001935100018F250001936F0001945183
:101AE000000190210001946F0C0E00019619D8A4FA
:101AF00019D0010E0001966F0001952B630E0001B5
:101B0000956512D08DC0D9FF8EC0DAFF800EDE5EE3
:101B1000130EDE5A190EDE5ABC0EDE5A000E0001FC
:101B2000956F02D00001962B96C0FFF095C0F3F0A0
:101B300096C066F00001955157EC94F000018F6F4C
:101B400000018F510001935D000E9459D8B0B1D7B8
:101B500093C08FF094C090F000018F1F901F8F4BA7
:101B6000902B0001915100018F250101146F00019C
:101B70009251000190210101156F0001934B942BAC
:101B8000000120EE0AF08D51D9268E51DA2295C03F
:101B9000DFFF000120EE09F08D51D9268E51DA22A7
:101BA00096C0DFFF000120EE08F08D51D9268E513E
:101BB000DA2293C0DFFF12000001796F75C060F078
:101BC00076C061F075C062F076C063F0E7ECA1F01A
:101BD00060C066F061C067F0000E0001696FFA0E28
:101BE000686F17EC9FF066C075F067C076F075C03F
:101BF00060F076C061F075C062F076C063F0E7EC2B
:101C0000A1F060C066F061C067F0000E0001696F6E
:101C1000FA0E686F17EC9FF066C075F067C076F03B
:101C200075C060F076C061F0000E0001636F030EB6
:101C3000626FE7ECA1F00001D890613360330001DE
:101C4000D8906133603360C075F061C076F056D0D3
:101C50000001765105E13E0E0001755DD8A071D0FE
:101C600075C077F076C078F0D89000017737783774
:101C7000840E000177250001666FFF0E00017821B8
:101C80000001676F000E0001696F030E686F17ECAB
:101C90009FF03E0E000166250001756F000E0001E9
:101CA000672129D00001765105E13E0E0001755DE6
:101CB000D8A047D0C20E000175250001606FFF0E4D
:101CC000000176210001616F000E0001636F030EB9
:101CD000626FE7ECA1F00001D8906133603300013E
:101CE000D890613360333E0E000160250001756FAE
:101CF000000E000161210001766F23D000017951AF
:101D0000000AD8B4A5D7010AD8B41BD0030AD8B4A6
:101D1000C9D7010A16D0CF0EBA1675C0BBFF120084
:101D2000CF0EB41675C0B5FF1200CF0E0F011517F8
:101D300075C016FF1200CF0E0F01121775C013FFEA
:101D4000120000017951000AD8B4E5D7010AD8B4CD
:101D5000E7D7030AD8B4E9D7010AD8A41200EBD711
:101D6000A0980001E4510001E511D8B413D0E4C0FB
:101D7000D9FFE5C0DAFF0001DFAE04D00001676BD8
:101D8000672B02D00001676B000167510001686F8B
:101D9000696B05D0000E0001696F000E686F0001CD
:101DA000685100016911D8B402D0A0881200030E56
:101DB0002618D8A402D0000E266E2650D8A402D031
:101DC000A0881200020E2618D8A416D0010E000119
:101DD000606F000E0001616F000E0001626F000E67
:101DE0000001636F020EA1EC95F060C0E4F061C0E9
:101DF000E5F0030E266E6FD02604D8A46CD0400EFA
:101E00000001EF6504D0400E00016B6F02D0EFC0FF
:101E10006BF000016B5100080001EF250001EF6F2E
:101E2000400E0001DE6F020E0001DF6F6BC06AF032
:101E30000001ED51D8B413D02AD0E1C0D9FFE2C0DF
:101E4000DAFFDEC0E1FFDFC0E2FFDFCFE7FF000126
:101E5000DE4BDF2B0001E14BE22B00016A070001A2
:101E60006A510001D8B418D0E8D7E1C0D9FFE2C068
:101E7000DAFFDEC0E1FFDFC0E2FFDFCFE7FF0001F6
:101E8000DE4BDF2B0001E14BE22B00016A07000172
:101E90006A510001D8A4E9D70001EF51D8A409D0B4
:101EA000400E00016B19D8A402D0020E01D0030E1F
:101EB000266E010E0001606F400E0001616F020E80
:101EC0000001626F6BC063F0020EA1EC95F060C080
:101ED000E4F061C0E5F0A0881200A098000E636EE7
:101EE000000E626E000E0F01266F270E0001606F5C
:101EF0000F0E0001616F000E0001636F000E626F34
:101F0000000E0001656F020E646F02ECA2F0160E67
:101F10000F01396F9F0E0F01376F7B0E0F01366F68
:101F2000000E0001686F0B0E0001686501D010D033
:101F300000016851040D000EF324D96E0D0EF4203B
:101F4000DA6EDE6ADE6ADE6ADD6A0001682BEBD7D4
:101F5000658C000E0F01386F6598659C09D06296FC
:101F6000000E0D6E000E046E000E066E000E056E65
:101F700062B6F5D7010E236E010E246E000E1F6EA1
:101F8000000E206E000E0001EC6F000E0001686F65
:101F9000020E0001686501D033D000016851020DC6
:101FA000100EF324D96E000EF420DA6E000EDE6EF1
:101FB000000EDD6E00016851020DD50EF324D96EBE
:101FC000000EF420DA6E000EDE6E000EDD6E0001F3
:101FD0006851010D160EF324D96E000EF420DA6E4E
:101FE000000EDF6E00016851010DDB0EF324D96E87
:101FF000000EF420DA6E000EDF6E0001682BC8D7E9
:10200000080E106E0D0E116E160E0F01266F0D0EBE
:102010000D01036F300E026F080E0D01016F040EEB
:102020000D01006F0D01008F000E2C6E000E226E50
:1020300012002204D8B465BA08D0000E626E0F01F7
:1020400036810F013689020E226E62A406D00F017E
:1020500036A503D062941CECA2F065A202D0A19830
:10206000120062A009D00F0136A106D0BEEC90F09C
:10207000A088040E226E629062A806D00F0136A9D5
:1020800003D090ECA2F0629862AC19D00F0136AD8B
:102090000ED0000E3B6E730E3A6E000E3C6E000EBC
:1020A0003D6E000E3F6E010E3E6E4DECA2F0629C46
:1020B0002550D8A425062550D8B482EC98F062AA01
:1020C00004D00F0136BB2DECA1F062A212D00F019B
:1020D00036A30FD07F0E3B6E3A68000E3C6E000EAA
:1020E0003D6E000E3F6E010E3E6E4DECA2F0000EF6
:1020F000636E040E226002D0A19812000F0136A771
:102100003BD0000E4B6E030E4B6401D035D062A65F
:1021100033D064CF2DF02D30E832E8320F0B286E2B
:1021200062962DB40AD02850010DDB0EF324D96E2F
:10213000000EF420DA6E000108D02850010D160EB2
:10214000F324D96E000EF420DA6EDF702850D8A484
:1021500003D0B5EC97F00ED0000E3B6E720E3A6EC7
:102160002D0E3C6E000E3D6E000E3F6E000E3E6E5C
:102170004DECA2F04B2AC7D7A1981200A098000EF0
:10218000636E000E626E000E0F01266F270E2E6E1C
:102190000F0E2F6E000E316E000E306E000E336E7D
:1021A000020E326EA6ECA2F0160E0F01396F9F0ED2
:1021B0000F01376F7B0E0F01366F000E366E0B0E60
:1021C000366401D00ED03650040D000EF324D96EC3
:1021D0000D0EF420DA6EDE6ADE6ADE6ADD6A362A09
:1021E000EED7658C000E0F01386F6598659C09D09D
:1021F0006296000E0D6E000E046E000E066E000E4E
:10220000056E62B6F5D7010E236E010E246E000E28
:102210001F6E000E206E000E0001EC6F000E366E79
:10222000020E366401D02ED03650020D100EF3246B
:10223000D96E000EF420DA6E000EDE6E000EDD6E3A
:102240003650020DD50EF324D96E000EF420DA6E4E
:10225000000EDE6E000EDD6E3650010D160EF324FC
:10226000D96E000EF420DA6E000EDF6E3650010DCE
:10227000DB0EF324D96E000EF420DA6E000EDF6E52
:10228000362ACED7080E106E0D0E116E160E0F01E7
:10229000266F0D0E0D01036F300E026F080E0D013B
:1022A000016F040E0D01006F0D01008F000E2C6EEA
:1022B000000E226E1200800E0D013019D8A41200FB
:1022C000C00E0D6E85D0DC0E0A6EFD0E0B6E000E7C
:1022D0000F6E120E0E6E12000D013251D8A443D0B3
:1022E0000D013251020D130EF324F66EFD0EF42093
:1022F000F76EF86A000EF8220900F5CF0AF00A001E
:10230000F5CF0BF0020E0A242E6E000E0B202F6E5E
:102310002EC0F6FF2FC0F7FF000EF86E0E0EF7640A
:1023200003D00800F55005D0F6CFE9FFF7CFEAFF5C
:10233000EF500E6E030E0A242E6E000E0B202F6E31
:102340002EC0F6FF2FC0F7FF000EF86E0E0EF764DA
:1023500003D00800F55005D0F6CFE9FFF7CFEAFF2C
:10236000EF500F6E1200000E0D6E1200030E0D01E5
:10237000326128D00D013251020D0D0EF324F66E9C
:10238000FD0EF420F76EF86A000EF8220900F5CF72
:102390000AF00A00F5CF0BF00AC0F6FF0BC0F7FFFA
:1023A000000EF86E0E0EF76403D00800F55005D04D
:1023B000F6CFE9FFF7CFEAFFEF502E6E2E500E6EEC
:1023C0000F6A1200000E0D6E1200000E0D6E12004C
:1023D0000D013351010AD8B476D7030AD8B47CD79B
:1023E000010AD8B4C3D7F1D720EE01F01950D9268D
:1023F0001A50DA22DF502F6E2F50055C000E06585F
:10240000D8A005C02FF02F50055E000E065A000E12
:102410002E6E11D02E50010D380EF324D96E0D0EF4
:10242000F420DA6E01C0E1FF02C0E2FFDFCFE7FF78
:10243000014A022A2E2A2F502E5CD8A0EBD7055035
:102440000610D8B432D020EE01F01B50D9261C5013
:10245000DA22080EDF6E20EE02F01B50D9261C5047
:10246000DA22380EDE6E0D0EDD6E19C0D9FF1AC0ED
:10247000DAFFDFBC0DD01BC0D9FF1CC0DAFF480E4D
:10248000DF6E1BC0D9FF1CC0DAFF000EDB8E12000E
:102490001BC0D9FF1CC0DAFF080EDF6E1BC0D9FFBE
:1024A0001CC0DAFF000EDB8E120020EE01F01B5084
:1024B000D9261C50DA22080EDF6E20EE02F01B50E7
:1024C000D9261C50DA22300EDE6E0D0EDD6E1BC0DA
:1024D000D9FF1CC0DAFF040EDF6E1BC0D9FF1CC081
:1024E000DAFF000EDB8E049E2150D8A4120082EC8D
:1024F00098F0120003D00001664B672B66C0D9FF2D
:1025000067C0DAFF200EDE18D8B4F5D766C0D9FF51
:1025100067C0DAFF090EDE18D8B4EDD7000E00014F
:102520006C6F000E6B6F000E00016A6F66C0D9FF02
:1025300067C0DAFF2D0EDE18D8A403D000016A2B85
:102540002ED066C0D9FF67C0DAFF2B0EDE18D8A4E4
:1025500029D025D06BC060F06CC061F0000E000186
:10256000636F0A0E626FE7ECA1F066C0D9FF67C027
:10257000DAFFDF500001686F696B000160510001F4
:1025800068270001615100016923D00E0001682510
:1025900000016B6FFF0E0001692100016C6F0001EB
:1025A000664B672B66C0D9FF67C0DAFFDF50BCEC13
:1025B000A2F0D8B0CFD700016A510001D8B40ED034
:1025C0006BC068F06CC069F00001681F691F684B40
:1025D000692B68C066F069C067F012006BC066F0D6
:1025E0006CC067F0120065980DBE38D004AE0BD0F9
:1025F000020E276E2050D8B4ADEC9CF0000E246E75
:10260000000E236E120020EE01F01B50D9261C5044
:10261000DA22080EDF6E20EE02F01B50D9261C5085
:10262000DA22300EDE6E0D0EDD6E1BC0D9FF1CC02F
:10263000DAFF0C0EDF6E1BC0D9FF1CC0DAFF000EE4
:10264000DB8E10C0D9FF11C0DAFF040EDF6E10C0A0
:10265000D9FF11C0DAFF000EDB8E12000D0130AF82
:1026600010D0010E276E1F50D8B4ADEC9CF0000EB8
:10267000246E000E236E2150D8A4120082EC98F034
:102680001200020E276E20EE01F01B50D9261C50BE
:10269000DA22080EDF6E20EE02F01B50D9261C5005
:1026A000DA22300EDE6E0D0EDD6E1BC0D9FF1CC0AF
:1026B000DAFF040EDF6E1BC0D9FF1CC0DAFF000E6C
:1026C000DB8E000E246E000E236E2150D8A4120063
:1026D00082EC98F01200000120EE06F06051D9263D
:1026E0006151DA22000110EE04F06051E1266151DF
:1026F000E222DE50E65CDE50E658D8A028D0000189
:1027000020EE04F06051D9266151DA22DECF62F06A
:10271000DDCF63F0000120EE06F06051D926615153
:10272000DA22DECF64F0DDCF65F00001641F651FA3
:10273000644B652B00016251000164250001606F4C
:1027400000016351000165210001616F1200000169
:1027500020EE04F06051D9266151DA22DECF62F01A
:10276000DDCF63F0000120EE02F06051D926615107
:10277000DA22DECF64F0DDCF65F0000120EE06F056
:102780006051D9266151DA22DECF66F0DDCF67F0E5
:102790000001661F671F664B672B00016451000133
:1027A00066270001655100016723000162510001A5
:1027B00066250001606F000163510001672100017F
:1027C000616F1200000E0001EE6F0001E651000182
:1027D000E711D8B413D0E6C0D9FFE7C0DAFF000193
:1027E000DFAE04D000016A6B6A2B02D000016A6B75
:1027F00000016A5100016B6F6C6B05D0000E000187
:102800006C6F000E6B6F00016B5100016C11D8A44E
:102810004BD0000120EE01F0E651D926E751DA2233
:1028200000016951DE5CD8B00AD0000120EE01F051
:10283000E651D926E751DA22DF500001696F000E18
:102840000001EE6F18D00001EE51010D000EF324CF
:10285000D96E020EF420DA6E0001EE51010DF35034
:1028600000016725E16EF45000016821E26EDFCFC0
:10287000E7FF0001EE2B000169510001EE5DD8A0D9
:10288000E2D7000E0001606F000E0001616F020EC2
:102890000001626F400E0001636F020EA1EC95F023
:1028A00060C0E6F061C0E7F00001EE5112000001E7
:1028B0006B6F020E00016619D8A43ED06BC060F0A9
:1028C0000001616B000E0001636F640E626FC3EC68
:1028D0009BF00001605100016111D8A402D0010EEB
:1028E00001D0000E00080001676F6BC060F00001AE
:1028F000616B010E0001636F900E626FC3EC9BF081
:102900000001605100016111D8A404D00001686B7E
:10291000682B02D00001686B6BC069F0030E0001E8
:102920006917D8A402D0010E01D0000E000168255D
:10293000000167251C0F120000016651010B000108
:10294000676F686B0001671F681F674B682B00018A
:1029500066510001696F6A6B000167510001691BD4
:102960000001685100016A1B0D0E00016917000E7D
:102970006A17040E0001691900016A11D8A402D077
:10298000010E01D0000E00081F0F12000D8E270E41
:102990002E6E0F0E2F6E000E316E000E306E000E7A
:1029A000336E020E326EA6ECA2F0000E2E6E0D0EED
:1029B0002F6E000E316E000E306E000E336E300E34
:1029C000326EA6ECA2F0658C000E426E020E4264DE
:1029D00001D016D04250010D160EF324D96E000E10
:1029E000F420DA6E000EDF6E4250010DDB0EF32490
:1029F000D96E000EF420DA6E000EDF6E422AE6D7A2
:102A00002A0E2E6E000E2F6E000E316E000E306EEE
:102A1000000E336E020E326EA6ECA2F0659C080E1C
:102A2000106E0D0E116E000E196E0D0E1A6E19C07D
:102A30001BF01AC01CF032CD2CF02C50D8A403D0BF
:102A4000100E226E1200000E3B6E010E3A6E2C0E1E
:102A50003C6E000E3D6E000E3F6E010E3E6E4DEC64
:102A6000A2F0200E226E12000D013039E832030B65
:102A70000009D8A4120043D00D8E080E226E120059
:102A80005BEC91F01200C6EC94F012002C0E0A6E72
:102A9000000E0B6E0D80010E0E6E0D8E12006EEC90
:102AA0009BF0120052EC89F012000D013451010D1F
:102AB0002A0EF3240A6E000EF4200B6E0D80010E18
:102AC0000E6E0D8E12000D8E0D013451010D2A0E69
:102AD000F324D96E000EF420DA6E32CDDFFF12003F
:102AE000000E3B6E020E3A6E000E3C6E000E3D6E06
:102AF000000E3F6E000E3E6E4DECA2F012000D0176
:102B00003151000AD8B4CBD7010AD8B4CBD7020AC6
:102B1000D8B4C8D7060AD8B4AFD7030AD8B4B0D748
:102B2000010AD8B4DDD70F0AD8B4B0D7010AD8B497
:102B3000AAD7030AD8B4B9D7010AD8B4C4D7070AA8
:102B400012000001646F000160510001D8B408D088
:102B500000016451020D100EF324D96E000E07D04F
:102B600000016451020DD50EF324D96E000EF4203D
:102B7000DA6EDECF65F0DDCF66F000016551000151
:102B80006611D8A407D0000E0001606F000E00018E
:102B9000616F1200000120EE02F06551D9266651E6
:102BA000DA2261C0DEFF62C0DDFF000120EE01F02D
:102BB0006551D9266651DA2263C0DFFF65C0D9FFAF
:102BC00066C0DAFF400EDF1665C0D9FF66C0DAFFC7
:102BD000000EDB8665C0D9FF66C0DAFF000EDB8E13
:102BE000000160510001D8B408D000016451020D09
:102BF000100EF324D96E000E07D000016451020DAF
:102C0000D50EF324D96E000EF420DA6E040EDF1A0E
:102C100065C060F066C061F012000F013FB9FDD7DA
:102C20000F013F810F013F83000120EE0AF0765132
:102C3000D9267751DA22DF50D1ECA2F00F013A6F9A
:102C4000000E0F013B6F0F013F910F013F83000109
:102C500020EE08F07651D9267751DA22DF50D1ECF8
:102C6000A2F00F013A6F000120EE09F07651D9264B
:102C70007751DA22DF50D1ECA2F00F013B6F0F0148
:102C80003F810F013F93000120EE06F07651D926D7
:102C90007751DA22DF50D1ECA2F00F013A6F000138
:102CA00020EE07F07651D9267751DA22DF50D1ECA9
:102CB000A2F00F013B6F0F013F910F013F93000105
:102CC00020EE04F07651D9267751DA22DF50D1EC8C
:102CD000A2F00F013A6F000120EE05F07651D926DF
:102CE0007751DA22DF50D1ECA2F00F013B6F1200D6
:102CF00068C060F069C061F06BEC93F0000120EEF9
:102D000002F06851D9266951DA22DE500001605D77
:102D1000DE5000016159D8B01200000120EE04F02D
:102D20006851D9266951DA22DECF6BF0DDCF6CF025
:102D300068C0D9FF69C0DAFFDECF6DF0DDCF6EF07D
:102D400000016B5100016D25D96E00016C5100012D
:102D50006E21DA6E6AC0DFFF000120EE02F06851DA
:102D6000D9266951DA22000110EE04F06851E126FB
:102D70006951E222E6CF6DF0E5CF6EF0010E000161
:102D80006D27000E6E23DE5000016D5DDE500001E8
:102D90006E59D8B00BD0000120EE04F06851D9264E
:102DA0006951DA22DE2A000EDD221200000120EE37
:102DB00004F06851D9266951DA22000EDE6E000E49
:102DC000DD6E120085C0D9FF86C0DAFFDECF89F044
:102DD000DECF8AF0DECF8BF0DECF8CF000018751A2
:102DE00000017C6F7D6B7E6B7F6B89C078F08AC041
:102DF00079F08BC07AF08CC07BF0FEEC99F085C046
:102E0000D9FF86C0DAFF000178C0DEFF000179C07B
:102E1000DEFF00017AC0DEFF00017BC0DDFFDD5276
:102E2000DD52DECF6CF0DECF6DF0DECF6EF0DECFA8
:102E30006FF0000187510001706F716B726B736BE3
:102E400053EC9FF000016C1F00016D1F00016E1F0D
:102E500000016F1F00016C2B000E00016D230001AB
:102E60006E2300016F230001895100016C250001D0
:102E7000856F00018A5100016D210001866F0001FC
:102E80008B5100016E210001876F00018C51000100
:102E90006F210001886F1200080E2E6E0F5010E196
:102EA000080E0E5CD8B00CD00EC02EF02950D8A45D
:102EB00002D0010E04D02904D8A402D0020E296E3B
:102EC0002E500E5E000E0F5A20EE01F01050D92643
:102ED0001150DA222EC0DFFF380E0001E86F0D0E10
:102EE0000001E96F0DA01DD03CD00AC0F6FF0BC059
:102EF000F7FF000EF86EE8C0D9FFE9C0DAFF0E0E4A
:102F0000F76403D00800F55005D0F6CFE9FFF7CFFE
:102F1000EAFFEF50DF6E0A4A0B2A0001E84BE92B6B
:102F20002E062E50D8B41200E0D70AC0F6FF0BC010
:102F3000F7FF000EF86EE8C0D9FFE9C0DAFF0E0E09
:102F4000F76403D00800F55005D0F6CFE9FFF7CFBE
:102F5000EAFFEF50DF6E0A4A0B2A0001E84BE92B2B
:102F60002E062E50D8B41200E0D72D0E256E2DC09F
:102F700048F0FD0E4816D8A457D02DC048F0D89080
:102F800048323F0E48164850040D000EF324196EC7
:102F90000D0EF4201A6E19C01BF01AC01CF0040E9E
:102FA0001B1A19C0D9FF1AC0DAFFDF30E8320F0B45
:102FB0000D0AD8A436D0000E4A6E070E4A6401D01E
:102FC00023D020EE02F01950D9261A50DA22DECF93
:102FD00048F0DDCF49F048C0D9FF49C0DAFF4A5078
:102FE000010D300EF324E16E0D0EF420E26EDFCF02
:102FF000E7FF20EE02F01950D9261A50DA22DE2A15
:10300000000EDD224A2AD9D720EE02F01950D92627
:103010001A50DA22300EDE6E0D0EDD6E9AEC9EF046
:10302000120087ECA0F012002D50FD0B040AD8A46A
:103030001200B9EC9AF0120068C060F069C061F04B
:103040006BEC93F00001605100016111D8B458D0CD
:10305000000120EE06F06851D9266951DA22DECF50
:103060006AF0DDCF6BF068C0D9FF69C0DAFFDECF50
:103070006CF0DDCF6DF000016A5100016C25D96E56
:1030800000016B5100016D21DA6EDF5000016E6F9F
:10309000000120EE02F06851D9266951DA220001C0
:1030A00010EE06F06851E1266951E222E6CF6CF09D
:1030B000E5CF6DF0010E00016C27000E6D23DE5090
:1030C00000016C5DDE5000016D59D8B00BD00001DD
:1030D00020EE06F06851D9266951DA22DE2A000E68
:1030E000DD220BD0000120EE06F06851D92669518F
:1030F000DA22000EDE6E000EDD6E00016E5112004F
:10310000000E12002350D8A41200010E236E24508A
:10311000D8A41200010E246E020E2718D8A415D0D0
:1031200020EE01F01050D9261150DA22000EDF6E89
:1031300010C0D9FF11C0DAFF480EDF6E10C0D9FFF2
:1031400011C0DAFF000EDB8E12002704D8A4120093
:10315000000E1D6E20EE01F01950D9261A50DA2209
:10316000080EDF6E20EE02F01950D9261A50DA222E
:10317000300EDE6E0D0EDD6E19C0D9FF1AC0DAFFFB
:10318000040EDF6E19C0D9FF1AC0DAFF000EDB8E05
:10319000010E1D6E20EE01F01B50D9261C50DA22C4
:1031A000080EDF6E20EE02F01B50D9261C50DA22EA
:1031B000300EDE6E0D0EDD6E1BC0D9FF1CC0DAFFB7
:1031C000800EDF6E1200000E0001726F000170AF02
:1031D00008D000016F6D701FD8B0702B010E000178
:1031E000726F00016EAF08D000016D6D6E1FD8B018
:1031F0006E2B010E0001721B000E0001746F000E99
:10320000736F00016F5100017011D8B42CD0010E02
:103210000001716F06D00001D8906F377037000140
:10322000712B000170AFF7D70001D8907337743756
:1032300000016F5100016D5D0001705100016E5978
:10324000D8A00AD000016F5100016D5F00017051DC
:1032500000016E5B000173810001D89070336F3301
:103260000001712FE1D7000172510001D8B405D0DF
:103270000001736D741FD8B0742B73C06DF074C0EF
:103280006EF012000001606F0E01BF910E01BFA130
:1032900006D0550EA76EAA0EA76E0E01BF910E0E98
:1032A0000E01C36F120E0E01C46F160E0E01C56F14
:1032B000BA50F00B0C09BA6E3F0EBA160F015291BC
:1032C00052935295000EBB6ECF0EBA16B450F00B4F
:1032D0000C09B46E3F0EB4160F0152975299529BCF
:1032E000000EB56ECF0EB4160F011551F00B0C0980
:1032F000156F3F0E0F0115173F0E0F015217000EED
:103300000F01166FCF0E0F0115170F011251F00BA1
:103310000C09126FFC0E0F015117000E0F01136FF5
:10332000CF0E0F011217CA96CA98CA9ACA9CCA50E1
:10333000FC0B0209CA6E00016005CB6ECA84120044
:103340000F013FB9FDD70F013F810F013F830001FE
:1033500020EE0AF06251D9266351DA220F013A5168
:103360002CECA3F0DF6E3BCF64F0000120EE08F000
:103370006251D9266351DA220F013A512CECA3F0A5
:10338000DF6E000120EE09F06251D9266351DA2286
:103390000F013B512CECA3F0DF6E000120EE06F094
:1033A0006251D9266351DA220F013A512CECA3F075
:1033B000DF6E000120EE07F06251D9266351DA2258
:1033C0000F013B512CECA3F0DF6E000120EE04F066
:1033D0006251D9266351DA220F013A512CECA3F045
:1033E000DF6E000120EE05F06251D9266351DA222A
:1033F0000F013B512CECA3F0DF6E1200000E000118
:10340000806F000E816F000E826F000E836F0001CF
:103410007C5100017D1100017E1100017F11D8B4A3
:1034200042D0010E0001846F08D00001D8907C3793
:103430007D377E377F370001842B00017FAFF5D7C2
:103440000001D890803781378237833700017C5163
:103450000001785D00017D510001795900017E5124
:1034600000017A5900017F5100017B59D8A012D088
:1034700000017C510001785F00017D510001795B02
:1034800000017E5100017A5B00017F5100017B5BEE
:10349000000180810001D8907F337E337D337C33FF
:1034A0000001842FCDD780C078F081C079F082C030
:1034B0007AF083C07BF01200326E2E50D8B407D061
:1034C0003250020D100EF324D96E000E06D0325089
:1034D000020DD50EF324D96E000EF420DA6EDECF85
:1034E00033F0DDCF34F033503410D8A405D0000EC3
:1034F0002E6E000E2F6E120020EE02F03350D926F1
:103500003450DA222FC0DEFF30C0DDFF20EE01F0A4
:103510003350D9263450DA2231C0DFFF33C0D9FF0F
:1035200034C0DAFF400EDF1633C0D9FF34C0DAFFF3
:10353000000EDB8633C0D9FF34C0DAFF000EDB8E0D
:103540002E50D8B407D03250020D100EF324D96E8D
:10355000000E06D03250020DD50EF324D96E000EA7
:10356000F420DA6E040EDF1A33C02EF034C02FF0D0
:10357000120010C0D9FF11C0DAFF000EDFBC010E2F
:103580002F6E040E101A080E2218D8A40DD00D01AB
:1035900032517F0B0F01386F0F013851D8B402D070
:1035A000100E01D0040E226E2704D8A43AD020EECB
:1035B00002F01050D9261150DA22380EDE6E0D0EB0
:1035C000DD6E4CEC97F0020E2918D8A40DD010C077
:1035D000D9FF11C0DAFF040EDF6E10C0D9FF11C091
:1035E000DAFF000EDB8E12002F50D8A40DD010C0D1
:1035F000D9FF11C0DAFF480EDF6E10C0D9FF11C02D
:10360000DAFF000EDB8E120010C0D9FF11C0DAFF06
:10361000080EDF6E10C0D9FF11C0DAFF000EDB8E7E
:10362000120004BE049E000E276E12000D013051E0
:103630001F0BE806D8A412000D013039E832030B45
:10364000E806D8A412000D013451D8B435D00D01CC
:103650003405D8A4120030D0580E0A6E010E0B6E3D
:10366000000E0F6E080E0E6E0D800D8E1200580E9D
:103670000A6E010E0B6E0D8E120036CD05F037CDA1
:1036800006F0800E016E010E026E000E076E000E37
:10369000086E000E096E048E1200800E0A6E010E76
:1036A0000B6E000E0F6E070E0E6EC10E0D6E120029
:1036B00032CDF0F00D8E12000D013151000AD8B458
:1036C000CBD7010AD8B4D3D7210AD8B4D6D7010AA8
:1036D000D8B4E3D7030AD8A41200EAD7000E0D012C
:1036E000386F000E0D01396F38D00D8E1E04D8A42E
:1036F00040D00D0138833DD00D8E3BD00D8E0D0195
:1037000034BF0BD00D0134510F0B2E6E2E50020D15
:10371000D50EF324D96E000E0AD00D0134510F0BD3
:103720002E6E2E50020D100EF324D96E000EF420D2
:10373000DA6EDECF2FF0DDCF30F02FC0D9FF30C0F2
:10374000DAFFDFAE16D02FC0D9FF30C0DAFFDFA41A
:1037500010D0010E0D01386F0CD00D0130511F0B30
:10376000000AD8B4C2D7010AD8B4C6D7030AD8B45D
:10377000C5D70DAE1200380E0A6E0D0E0B6E0D8001
:10378000020E0E6E1200000E0001656F000161AFA7
:1037900008D00001606D611FD8B0612B010E0001DF
:1037A000656F000163AF05D00001626D631FD8B083
:1037B000632B0001625100016311D8B426D0010EC1
:1037C0000001646F06D00001D890623763370001B2
:1037D000642B000163AFF7D7000162510001605D07
:1037E0000001635100016159D8A008D00001625165
:1037F0000001605F000163510001615B0001D8902E
:10380000633362330001642FE7D700016551000183
:10381000D8B405D00001606D611FD8B0612B60C0C5
:1038200060F061C061F01200000164510001651197
:103830000001661100016711D8B43AD0010E0001F1
:10384000686F08D00001D8906437653766376737EE
:103850000001682B000167AFF5D70001645100013A
:10386000605D000165510001615900016651000170
:1038700062590001675100016359D8A010D00001BE
:1038800064510001605F000165510001615B00014E
:1038900066510001625B000167510001635B00013A
:1038A000D89067336633653364330001682FD5D70A
:1038B00060C060F061C061F062C062F063C063F03C
:1038C000120072ECA3F0E70E926E000E936EBA0E29
:1038D000946EF80E0F01486F1F0E0F01496FF19E95
:1038E000080EAEECA1F0020E0001606F000EDFECDE
:1038F000A0F0020E64ECA2F0000E1CECA3F035EC7C
:10390000A2F0FA0E42EC99F03CECA3F0780E000124
:10391000606F010E0001616F690E0001626F040E9D
:103920000001636F030E0001656FE80E646FB5EC74
:10393000A0F0700E0001606F010E0001616F000EBB
:103940000001626F030E0001636F000E0001656FDE
:10395000FA0E646FB5ECA0F01200000E1F6E000EA0
:10396000206E020E2718D8A41FD020EE01F01B50A5
:10397000D9261C50DA22080EDF6E20EE02F01B5012
:10398000D9261C50DA22380EDE6E0D0EDD6E1BC0FD
:10399000D9FF1CC0DAFF480EDF6E1BC0D9FF1CC068
:1039A000DAFF000EDB8E12000E500D01365D0F5057
:1039B0000D013759D8B004D036CD0EF037CD0FF009
:1039C0004CEC97F020EE02F01050D9261150DA227C
:1039D000380EDE6E0D0EDD6E10C0D9FF11C0DAFF9D
:1039E000480EDF6E10C0D9FF11C0DAFF000EDB8E6B
:1039F0001200336E000E346E0D0E356E2E502F6E8B
:103A0000306AD8902F3630363350316E326AD890C3
:103A100031363236D890313632362F50312630504A
:103A20003222D89031363236D89031363236315053
:103A300034263250352234C0D9FF35C0DAFFDF9E3C
:103A40002E50D8A407D03350020DD50EF324D96ED2
:103A5000000E06D03350020D100EF324D96E000E66
:103A6000F420DA6E34C0DEFF35C0DDFF34C0D9FF8C
:103A700035C0DAFFDF9C20EE04F03450D9263550F3
:103A8000DA22DF8C120068C060F069C061F06BEC74
:103A900093F00001605100016111D8B412000001DF
:103AA00020EE04F06851D9266951DA22DE50DE108A
:103AB000D8B40BD0000120EE04F06851D92669512A
:103AC000DA22DE06000EDD5A1200FF0E00016A6FD8
:103AD000FF0E00016B6F000120EE02F06851D92645
:103AE0006951DA22DECF6CF0DDCF6DF000016A5152
:103AF00000016C2700016B5100016D23000120EED5
:103B000004F06851D9266951DA226CC0DEFF6DC01D
:103B1000DDFF1200760E00016D6F000E00016E6F6A
:103B2000000E0001706F010E6F6F07ECA1F06DC009
:103B300074F06EC075F00001745100017511D8B4B5
:103B40000AD0700E0001686F010E0001696F76C027
:103B50006AF078EC96F0780E0001606F010E0001BB
:103B6000616F6BEC93F00001605100016111D8B4FA
:103B70001200780E0001686F010E0001696F1CECE5
:103B800098F00001766F760E00016C6F000E000158
:103B90006D6F000E00016F6F010E6E6F7AECA2F078
:103BA00012004A0E0001856F010E0001866F58EC6D
:103BB000A3F0970E0001726F000E0001736F2D0EBF
:103BC0000001746FFF0E0001756F54C176F00001A3
:103BD000776B53C178F00001796B52C17AF0000124
:103BE0007B6B01015151040DC00EF32400017C6F69
:103BF000FD0EF42000017D6F50C17EF000017F6B4F
:103C00004FC180F00001816B4EC182F00001836BD7
:103C100053EC82F095C06FF096C070F0970E0001E3
:103C2000716F000E0001726FC5EC9FF0120004EE80
:103C300069F013EEE8F0EE6AE550E150FCE1E25085
:103C4000FAE103EE00F0FA0EEE6AE806FDE102EE9C
:103C500000F0B20EEE6AE806FDE101EE00F0930E10
:103C6000EE6AE806FDE100EED5F02A0EEE6AE806FF
:103C7000FDE100EE01F02D0EEE6AE806FDE1040E16
:103C8000F66E100EF76E000EF86E0900F5CF97F184
:103C90000900F5CF98F1F80EF66E460EF76E010E9C
:103CA000F86E0900F5CFFFF05B905B920001DBEF4F
:103CB0009EF039D074C078F075C079F0000E000124
:103CC000776F11D078C066F079C067F0000E000100
:103CD000696F0A0E686F17EC9FF066C078F067C0D6
:103CE00079F00001772B000176510001775DD8A0B3
:103CF000E9D778C06DF079C06EF0000E0001706FEA
:103D00000A0E6F6F28ECA0F06DC078F06EC079F0ED
:103D100072C068F073C069F000017851300F000183
:103D20006A6F78EC96F00001760700017629D8B426
:103D30001200C0D7000E296E000E216E000E1F6EFD
:103D4000000E206E000E1D6E000E276E10C0D9FFF3
:103D500011C0DAFF7F0EDF16040E101A10C0D9FF53
:103D600011C0DAFF7F0EDF16040E101A1BC0D9FF38
:103D70001CC0DAFF7F0EDF16000E0D6E000E0F6EF8
:103D8000000E0E6E000E046E000E066E000E056E26
:103D900034EC95F0000E3B6E030E3A6E000E3C6E56
:103DA000000E3D6E000E3F6E000E3E6E4DECA2F01A
:103DB000F3EC92F0120061EC9CF04A0E0001856F6A
:103DC000010E0001866F58ECA3F001015251D8A4F6
:103DD00011D0000E01014A6F000E4B6F000E4C6FA8
:103DE000000E4D6F4A0E00019B6F010E00019C6F8B
:103DF00065ECA3F0F29E8AEC9DF0F28EF29E72ECDE
:103E0000A1F0F28EF29E780E0101936F010E010176
:103E1000946F700E0101956F010E0101966F56ECC3
:103E200086F0F28EF29ED7EC8BF0F28EE3D7000E86
:103E300000016C6F000E6B6F000168510001691189
:103E4000D8B42CD0010E00016A6F06D00001D890C2
:103E50006837693700016A2B000169AFF7D70001A5
:103E6000D8906B376C37000168510001665D000126
:103E7000695100016759D8A00AD0000168510001BA
:103E8000665F000169510001675B00016B81000101
:103E9000D8906933683300016A2FE1D76BC066F0B0
:103EA0006CC067F01200000E0001746F000E756F99
:103EB000000E766F000E776F00016CA110D000012C
:103EC0007051000174270001715100017523000138
:103ED0007251000176230001735100017723000124
:103EE000D89070377137723773370001D8906F33BD
:103EF0006E336D336C3300016C5100016D110001A4
:103F00006E1100016F11D8A4D7D774C06CF075C0C2
:103F10006DF076C06EF077C06FF01200000E0101F8
:103F2000806F4B0E816F000E826F000E836F000E4C
:103F30000101846F000E0101856F080E0101866F7B
:103F4000000E0001EE6F1A0E366E010E90ECA1F01D
:103F50001E0E366E020E90ECA1F0000E2E6E000EBC
:103F60002F6E020E306E400E316E020E5CEC9AF037
:103F70002EC0E6F02FC0E7F0000E0001E46F000E47
:103F80000001E56F000E266E12001CD06FC068F0B5
:103F900070C069F071C0F6FF72C0F7FF000EF86ED6
:103FA0000E0EF76403D00800F55005D0F6CFE9FFF8
:103FB000F7CFEAFFEF5000016A6F78EC96F000014E
:103FC000714B722B71C0F6FF72C0F7FF000EF86ED6
:103FD0000E0EF76403D00800F55005D0F6CFE9FFC8
:103FE000F7CFEAFFEF500009D8B41200CFD7000195
:103FF000B9510001BB5DD8A01ED00001BB5100012A
:10400000BA5DD8A018D0B7C0D9FFB8C0DAFFBBC01E
:10401000DFFF4A0E00019B6F010E00019C6FE5EC73
:10402000A2F0010E0001F26FB5C095F0B6C096F097
:10403000D1EC9DF01200B5C06FF0B6C070F0840EE8
:104040000001716FFF0E0001726FC5EC9FF012004E
:1040500000016F5100017011D8B426D0010E00018B
:10406000716F06D00001D8906F3770370001712B47
:10407000000170AFF7D700016F5100016D5D0001C5
:10408000705100016E59D8A008D000016F51000195
:104090006D5F0001705100016E5B0001D8907033BC
:1040A0006F330001712FE7D76DC06DF06EC06EF0F9
:1040B000120006D00001604B612B0001624B632BA4
:1040C00060C0D9FF61C0DAFFDF500001646F62C0D9
:1040D000F6FF63C0F7FF000EF86E0800F550000809
:1040E000000164250001656F00016551D8A407D067
:1040F00060C0D9FF61C0DAFFDF50D8A4DBD7000170
:1041000065510001606F616B60BF61071200020EB4
:104110002718D8A403D0F4EC91F01200000E276EFB
:104120001D50D8A41FD020EE01F01B50D9261C50E2
:10413000DA22080EDF6E20EE02F01B50D9261C504A
:10414000DA22300EDE6E0D0EDD6E1BC0D9FF1CC0F4
:10415000DAFF0C0EDF6E1BC0D9FF1CC0DAFF000EA9
:10416000DB8E1200000E1D6E120060C0D9FF61C010
:10417000DAFF62C0DEFF63C0DDFF000120EE02F067
:104180006051D9266151DA2264C0DEFF65C0DDFFCF
:10419000000120EE04F06051D9266151DA22000EB0
:1041A000DE6E000EDD6E000120EE06F06051D926B5
:1041B0006151DA22000EDE6E000EDD6E120000018B
:1041C000626F60C061F00001613B61476147CD50A3
:1041D000000161193F0B6119CD6E020E00016019DB
:1041E000D8A402D0CD8601D0CD9662C061F0000186
:1041F000613BCD5000016119CF0B6119CD6ECD84AB
:10420000CD92CD809F909E909D80F28C12004AECC2
:10421000A3F00009D8A408D0000E00016E6F000EB4
:104220006D6F1200B0EC8EF02650D8A4FBD76DC095
:1042300067F06EC068F06FC069F0E2EC93F00001C7
:10424000716F000171510001726F736BB0EC8EF0F1
:1042500072C06DF073C06EF012000F0126A11ED067
:1042600019C0D9FF1AC0DAFF800EDE18D8A414D006
:1042700010C0D9FF11C0DAFF840EDE18D8A40CD00C
:1042800019C0D9FF1AC0DAFF0C0EDF6E19C0D9FFB2
:104290001AC0DAFF000EDB8E0F012691629A12001F
:1042A00014D0680E0001686F010E0001696F6FC0C5
:1042B000F6FF70C0F7FF000EF86E0800F5CF6AF049
:1042C00078EC96F000016F4B702B6FC0F6FF70C05A
:1042D000F7FF000EF86E0800F5500009D8A4E1D7EA
:1042E0009D8812000F013FB9FDD7000E3FB7010EA8
:1042F0000101566F0001EA5101015619D8B41200AC
:1043000056C1EAF056C155F1010E0001F26F4A0E96
:104310000001856F010E0001866F58ECA3F01200BA
:10432000396E36A405D0000E2E6E3950F9EC9CF093
:1043300036A205D0010E2E6E3950F9EC9CF03950A2
:10434000010D260EF324376E0F0EF420386E37C0A1
:10435000D9FF38C0DAFF36C0DFFF12000001616FFD
:10436000D58ED58CD59A000161510001D8A402D018
:10437000D5860CD0D59661C060F0FF0E0001602795
:10438000D55000016019F80B6019D56EF28AF294CD
:10439000F194F28C12002250D8A41200000E656E27
:1043A000000E0F01366F160E0F01396F9F0E0F01B1
:1043B000376F7B0E0F01366FD08EA288A088F28EE9
:1043C00001D0658665A6FDD7010E226E12000001A0
:1043D000605100016203F3CF64F0F4CF65F0000197
:1043E000605100016303F350000165270001615132
:1043F00000016203F3500001652764C060F065C0EE
:1044000061F0120060C066F061C067F009D066C05C
:10441000D9FF67C0DAFF62C0DFFF0001664B672B80
:1044200000016407D8A0650700016429F0E10001DC
:104430006529D8B41200EBD7000E0001EC6F000E16
:104440003B6E740E3A6E000E3C6E000E3D6E000E1A
:104450003F6E000E3E6E4DECA2F065920F01369558
:1044600001D0629462A41200FCD70F013F8B0F01B0
:104470003FBB06D0550EA76EAA0EA76E0F013F8B4D
:104480000F013F8F0F013F950F013C830F013C85CA
:10449000000E0F013E6FCD86120006D08EEC9FF00D
:1044A000120016EC9BF012003AC040F03BC041F005
:1044B0004150000AD8A412004050010AD8B4EED7E7
:1044C000020AD8A41200EDD70001616F3F0E7916E1
:1044D000799661C060F00001603B7950000160197D
:1044E000CF0B6019796E799E7980A292A192A082F9
:1044F000F28C12004AECA3F00009D8B4120002D0EA
:10450000B0EC8EF02650D8A4FBD76CC060F06DC024
:1045100061F06EC062F00BECA3F0B0EC8EF0120014
:104520000F01368562986582010E0001EC6F000E66
:104530003B6E750E3A6E000E3C6E000E3D6E000E28
:104540003F6E000E3E6E4DECA2F012002EC034F015
:104550002FC035F008D034C0D9FF35C0DAFF30C0E5
:10456000DFFF344A352A3206D8A033063228F3E179
:104570003328D8B41200EFD70001626F000E00019B
:10458000616F3A0E0001626107D02F0E0001626573
:1045900003D0010E0001616F61C060F00001603165
:1045A00012000001756F75C06DF000016E6B000E9A
:1045B0000001706F0A0E6F6FE3EC98F000016D510F
:1045C000060DF3500001752512009BC078F09CC0C9
:1045D00079F00BEC88F09BC08DF09CC08EF0E3EC82
:1045E0008CF09BC076F09CC077F00DEC96F012003A
:1045F000000120EE06F06051D9266151DA22000157
:1046000010EE04F06051E1266151E222DECFE6FFB8
:10461000DDCFE5FF1200A0982650D8A40BD060C0D3
:10462000E1F061C0E2F062C0EFF0010E0001ED6F59
:10463000010E266EA08812000001606FC29E00016C
:1046400060B102D0C29C01D0C28CC18EC19CC1504D
:10465000F80B0609C16E12000001616F61C060F0C5
:104660000F0E00016017000161390F0B0F0B0A0DCF
:10467000F3500001602512006DEC8FF0CBECA1F03F
:10468000000E0101806FC20E816F010E826F000E5D
:10469000836F1200000E0001606F1F0E226405D0B0
:1046A00065B203D0010E0001606F0001605112007D
:1046B00085C062F086C063F0A0EC99F085C078F008
:1046C00086C079F00BEC88F012009BC08DF09CC086
:1046D0008EF0E3EC8CF09BC076F09CC077F00DEC94
:1046E00096F01200D388D38AD38C9B8CFC0ED31601
:0A46F000120019EC90F01200010016
:08FFF8008CF70AFAF2F8FFFB96
:00000001FF
