:0400000081312929F8
:100008007E14803120007F08D400111C872811102D
:100018004B30F0000030F1004908F3004808F200C6
:100028008231272280310030710226300319700294
:1000380003183828FC010A307C02031838287C0889
:100048002A3E8600870101082000D0007C083E3E39
:1000580086008701500881000130D0005008FC0755
:100068000A307C02031C23284B30F0000030F100DA
:1000780020004908F3004808F20082312722803125
:1000880000307102283003197002031C6528FC0136
:100098000A307C02031865287C08203E8600870108
:1000A80001082000D0007C083E3E860087015008E9
:1000B80081000130D0005008FC070A307C02031C84
:1000C800502801302000C8070030C93D9430480648
:1000D800113003194906031D8728C801C9013B309F
:1000E8004A06031D8328CA0117307D06031D7E2892
:1000F800FD0187280130D0005008FD07872801300E
:10010800D0005008CA070B1D25290B110130D0005B
:100118005008CB071729FF308D0001308C000A30BA
:10012800F0000030F1004A08D000D1015008F20078
:100138005108F3008131E22180317008CC28FF306A
:100148008D0002308C000A30F7000030F8000A30C9
:10015800F0000030F1004A08D000D1015008F20048
:100168005108F3008131E221803170092000D2006A
:100178007109D300D20A0319D30A4A085207F900B1
:1001880053080318530AFA00813144218031770853
:10019800203E0D29FF308D0004308C000A30F0001D
:1001A8000030F1007D08D000D1015008F20051085C
:1001B800F3008131E221803170083E3E0D29FF3085
:1001C8008D0008308C000A30F7000030F8000A3043
:1001D800F0000030F1007D08D000D1015008F20095
:1001E8005108F3008131E221803170092000D200EA
:1001F8007109D300D20A0319D30A7D085207F900FE
:1002080053080318530AFA008131442180317708D2
:10021800343E86008701010820008D002529FF3023
:100228008D00CB0125294B08013A03198F28033A81
:100238000319A328013A0319CE28073A0319E3281A
:1002480013295408FF007E10090081312B29FC0175
:10025800FD013E308400003085000E30823171226D
:100268008131533084008230850020308600003090
:1002780087001E30823177227E1020008131962936
:100288002000CD01F81F4F29F709F809F70A0319CB
:10029800F80ACD01CD0AFA1F5A29F909FA09F90A0B
:1002A8000319FA0A0130FB007B08CD06CE01CF0105
:1002B8007708780403198929CC01CC0AF81B6E2920
:1002C8000130F735F80D890B65290130FB007B08F3
:1002D800CC0762290130CE35CF0D890B6F297808FC
:1002E8007A02031D792977087902031C8029770887
:1002F800F9027808FA3B4E140130F836F70C890BEE
:1003080081290130CC02031D6E294D08031991295A
:10031800CE09CF09CE0A0319CF0A4F08F8004E08B4
:10032800F70008002100990123008C018D01F030AD
:1003380021008C008D01933095008B160130200030
:10034800980097019601210011140B178B172000B4
:100358000C1ADE293B3020004A06031DB529CA01C4
:10036800B9290130D5005508CA070530D700FD3036
:10037800D600AA30D500D50BBF29D60BBF29D70B7D
:10038800BF290032AB2917307D06031DCD29FD0199
:10039800D1290130D5005508FD070530D700FD30BB
:1003A800D600AA30D500D50BD729D60BD729D70B1D
:1003B800D729003220008C1AAB29C729F601F31F70
:1003C800EC29F209F309F20A0319F30AF601F60A0D
:1003D800F11FF329F009F109F00A0319F10A70086D
:1003E800710403191A2AF501F50AF11B052A0130CF
:1003F800F035F10D890BFC290130F4007408F5077C
:10040800F92971087302031D0B2A70087202031C74
:10041800112A7008F2027108F33B0130F136F00C32
:10042800890B122A0130F502031D052A76080319E3
:10043800222AF209F309F20A0319F30A7308F100F0
:100448007208F00008007008710403194E2AF501BB
:10045800F50AF11B392A0130F035F10D890B302AE4
:100468000130F4007408F5072D2A71087302031D82
:100478003F2A70087202031C452A7008F2027108AC
:10048800F33B0130F136F00C890B462A0130F502B6
:10049800031D392A7308F1007208F00008000334BC
:1004A8009F3425340D349934493441341B34013494
:1004B800093402349E3424340C349834483440349B
:1004C8001A3400340834FF349F3425340D349934F9
:1004D800493441341B34013409346400800101314A
:1004E800890B722A0034FE0012001E00FE0B782AC7
:0204F8000034CE
:020000040001F9
:04000E00A2C9FFDCA8
:00000001FF
