:0400000080312628FD
:100008007E14803120007F08F50081316121803124
:100018000B1D1828200095010B11CC01CC0A79087A
:10002800031918280130F9022000911E2128911285
:1000380023001908F4007408F60075082000FF0072
:100048007E10090080312828F901C701C801C901BB
:10005800CA01CB01CC01CD01CE01CF01D001813144
:1000680097218031F70081319821F8007E10200017
:1000780080313E282000C701C801CC017030210022
:100088009900013023008C008D01013021008C0083
:1000980002308D00003081317821803129302000F4
:1000A800A6002608A0001E30A7002708A1004D3092
:1000B80081314621803105302000A8000F30A7008B
:1000C800F430A600A60B6628A70B6628A80B66289E
:1000D8000C3020009E009F01C130980099139501B3
:1000E8000630210095000730950460308B00200011
:1000F800960197018B174C0803197F28CC019E1392
:100108001708C801C8071608C701C70779080319DF
:10011800902822008C14922822008C102000480875
:10012800A7004708A6002708A600A7014A08270233
:10013800031DA028490826020318A6282030A60077
:100148002608F9004808A7004708A6002708A600BF
:10015800A7012608C9002708CA00960197019E171B
:100168000130A6002608CB070B304B02031C7F2862
:10017800480881318B2180312000CB017F28200065
:10018800A3002008A1002308860087012308023E57
:100198008400850100080107A20022088600870163
:1001A800210881000130A1002308023E8600870152
:1001B800210881072308023E86008701230A84005C
:1001C800850100080102031C08002308023E86007E
:1001D800870181010800F30073088600870173080E
:1001E800033E8400850100080107F00070088600BE
:1001F80087010108F1007108F2000130F00073086E
:10020800033E86008701700881077308033E860055
:100218008701730A8400850100080102031C19295B
:100228007308033E86008701810172080800F10007
:100238007108023E860087017108033E840085012B
:1002480000080102031C34297108023E8600870158
:100258007108033E840085010003FF3A0107080086
:100268007108023E86008701710A84008501000832
:10027800F0007108033E840085010003FF3A70070F
:10028800010708002000A3002008A2002308860018
:100298008701220881002108A200230A860087011D
:1002A800220881002308023E860087018101230875
:1002B800033E86008701810108002100111E080005
:1002C8002000111E080011124D3081311B2181318F
:1002D800003A031975294D308031EF2023009A0028
:1002E80008002100111208002000A000A008031D2A
:1002F800080023009D1790309D009F119C01CF306E
:100308009B0024309E00210091160B170800200046
:10031800A5002508A4002408A0004D308031C32082
:0A03280021001116080000344034D3
:020000040001F9
:04000E00A4C9FFDDA5
:00000001FF
