:0400000063EF00F0BA
:10000800FACF11F0FBCF12F0E9CF13F0EACF14F0DA
:10001800E1CF15F0E2CF16F0D9CF17F0DACF18F00C
:10002800F3CF19F0F4CF1AF0F6CF1BF0F7CF1CF08E
:10003800F8CF1DF0F5CF1EF0D9EC1BF09EAA06D024
:100048009E9AAFCF1FF01F505BEC0FF0F2B4F29402
:100058009EA003D09E90800ECF6EA1A213D0A19235
:10006800000E026E300E016E80BC02D0010E01D06F
:10007800000E036EC4EC0CF0000E026E340E016E1E
:1000880030EC1BF01EC0F5FF1DC0F8FF1CC0F7FFC9
:100098001BC0F6FF1AC0F4FF19C0F3FF18C0DAFF3F
:1000A80017C0D9FF16C0E2FF15C0E1FF14C0EAFF70
:1000B80013C0E9FF12C0FBFF11C0FAFF1100F0EFF7
:0200C80018F02E
:100F0000005765646E6573646179002A2A52544300
:100F1000432A2A0031384632374A35330053617448
:100F200075726461790054687572736461790054F4
:100F3000756573646179004D6F6E646179005375F6
:100F40006E6461790046727964617900085F2008F7
:100F500008000A0A0A005745440054554500465205
:100F600049004D4F4E0053554E00534154005448D4
:100F700055005F08002020002920002028007473FD
:100F8000002D002F004D00640068006D000025500A
:100F9000D8B41200000E256E000E0001916F000EF5
:100FA0000001926F1CD000019251010D0101000E51
:100FB000F324D96E0101010EF420DA6E0001915183
:100FC000010D0201000EF324E16E0201020EF42075
:100FD000E26EDFCFE7FF0001912B0001922B000EA4
:100FE0000001636F260E0001626FBEEC14F0000179
:100FF000906F00019251010D0101000EF324D96E92
:101000000101010EF420DA6E90C0DFFFDF50D8A49A
:10101000CAD700019251010D0101000EF324D96ECF
:101020000101010EF420DA6E000EDF6E0001915115
:10103000010D0201000EF324D96E0201020EF4200C
:10104000DA6E200EDF6E0001912B000E0001926F10
:101050001CD000019251010D0101000EF324D96E44
:101060000101010EF420DA6E00019151010D02011F
:10107000000EF324E16E0201020EF420E26EDFCFD7
:10108000E7FF0001912B0001922B000E0001636F1E
:10109000260E0001626FBEEC14F00001906F00019B
:1010A0009251010D0301000EF324D96E0301030ECA
:1010B000F420DA6E90C0DFFFDF50D8A4CAD7000159
:1010C0009251010D0301000EF324D96E0301030EAA
:1010D000F420DA6E000EDF6E00019151010D020165
:1010E000000EF324D96E0201020EF420DA6E200EF7
:1010F000DF6E0001912B000E0001926F1CD00001E9
:101100009251010D0101000EF324D96E0101010E6F
:10111000F420DA6E00019151010D0201000EF3245A
:10112000E16E0201020EF420E26EDFCFE7FF000164
:10113000912B0001922B000E0001636F260E00011F
:10114000626FBEEC14F00001906F00019251010D2E
:101150000401000EF324D96E0401040EF420DA6EAB
:1011600090C0DFFFDF50D8A4CAD700019251010D13
:101170000401000EF324D96E0401040EF420DA6E8B
:10118000000EDF6E00019151010D0201000EF324EB
:10119000D96E0201020EF420DA6E000EDF6E01013C
:1011A000010E0001616F0101000E0001606F0F0E62
:1011B0000001636F7E0E0001626F34EC16F00009CF
:1011C000D8A412000301030E0001616F0301000E99
:1011D0000001606F0F0E0001636F3C0E0001626F33
:1011E00034EC16F00009D8A40AD00401040E216ED4
:1011F0000401000E206ECAEC19F00001DC6F03013F
:10120000030E0001616F0301000E0001606F0F0EFD
:101210000001636F850E0001626F34EC16F0000967
:10122000D8A40AD00401040E216E0401000E206E21
:10123000CAEC19F00001DB6F0301030E0001616FBE
:101240000301000E0001606F0F0E0001636F870E37
:101250000001626F34EC16F00009D8A40AD0040132
:10126000040E216E0401000E206ECAEC19F000017C
:10127000DA6F0301030E0001616F0301000E00012C
:10128000606F0F0E0001636F890E0001626F34EC16
:1012900016F00009D8A40AD00401040E216E04013E
:1012A000000E206ECAEC19F00001D86F0301030E86
:1012B0000001616F0301000E0001606F0F0E00015D
:1012C000636F8B0E0001626F34EC16F00009D8A436
:1012D0000AD00401040E216E0401000E206ECAEC37
:1012E00019F00001D76F0301030E0001616F0301C4
:1012F000000E0001606F0F0E0001636F7F0E000192
:10130000626F34EC16F00009D8A40AD00401040E70
:10131000216E0401000E206ECAEC19F00001D66F98
:101320000001000E00018D6F0001D60E00018C6FD0
:101330000001000E00018F6F0001DD0E00018E6FB5
:10134000F1EC1BF0010E0001D46F1200000E000141
:10135000876F000E0001886F000E0001896F000E7C
:1013600000018A6F000E0001856F44D0010E00015C
:101370008B6F3AD08BC022F00001855182EC13F0C4
:1013800000017D6F00017D5100016D6F00016E6BEA
:1013900000016F6B0001706B800E0001716F510EC8
:1013A0000001726F010E0001736F000E0001746F77
:1013B000F3EC17F06DC07EF06EC07FF06FC080F070
:1013C00070C081F000017E510001872700017F512C
:1013D000000188230001805100018923000181510F
:1013E00000018A2300018B2B0C0E00018B65C2D7F4
:1013F0000001852B000120EE06F000017951D9266D
:1014000000017A51DA22DF500001855DD8A0AED705
:10141000010E0001866F42D086C022F0000120EE4E
:1014200006F000017951D92600017A51DA22DF5005
:1014300082EC13F000017D6F00017D5100016D6FA2
:1014400000016E6B00016F6B0001706B800E00017C
:10145000716F510E0001726F010E0001736F000E6B
:101460000001746FF3EC17F06DC07EF06EC07FF07A
:101470006FC080F070C081F000017E5100018727AD
:1014800000017F5100018823000180510001892360
:101490000001815100018A230001862B000120EE0A
:1014A00005F000017951D92600017A51DA22DF5086
:1014B0000001865DD8A0B0D7FF0E00017D6FFF0E42
:1014C0007E6F000120EE04F000017951D926000161
:1014D0007A51DA22DF5000017F6F806B00017D516D
:1014E00000017F2700017E510001802300017FC0A1
:1014F0006DF0000180C06EF00001000E00016EBFB3
:10150000FF0E00016F6F0001706F800E0001716FA0
:10151000510E0001726F010E0001736F000E000189
:10152000746FF3EC17F06DC081F06EC082F06FC085
:1015300083F070C084F00001815100018727000111
:101540008251000188230001835100018923000199
:10155000845100018A23000120EE02F0000179513C
:10156000D92600017A51DA22DF5000017D6F000197
:101570007D5100016D6F00016E6B00016F6B00010A
:10158000706B100E0001716F0E0E0001726F000E75
:101590000001736F000E0001746FF3EC17F06DC063
:1015A0007EF06EC07FF06FC080F070C081F00001EF
:1015B0007E510001872700017F510001882300012F
:1015C0008051000189230001815100018A2300011B
:1015D00020EE01F000017951D92600017A51DA227A
:1015E000DF5000017D6F00017D5100016D6F000132
:1015F0006E6B00016F6B0001706B3C0E0001716F30
:10160000000E0001726F000E0001736F000E0001EA
:10161000746FF3EC17F06DC07EF06EC07FF06FC09A
:1016200080F070C081F000017E5100018727000129
:101630007F510001882300018051000189230001AE
:10164000815100018A2379C0D9FF7AC0DAFFDF50C7
:1016500000017D6F00017D5100018727000E000110
:1016600088230001892300018A237BC0D9FF7CC025
:10167000DAFF000187C0DEFF000188C0DEFF000145
:1016800089C0DEFF00018AC0DEFF12000001A0C099
:101690008DF000019FC08CF00001A2C08FF000010E
:1016A000A1C08EF036EC1CF00001D3A109D0A1C07E
:1016B000D9FFA2C0DAFFDE2A000EDE22DE22DD2202
:1016C0000001D3A30CD03C0EA1C0D9FFA2C0DAFF09
:1016D000DE26000EDE22DE22DD22DD52DD5200019A
:1016E000D3A50ED0A1C0D9FFA2C0DAFF100EDE260E
:1016F0000E0EDE22000EDE22000EDD22DD52DD5255
:101700000001D3A70ED0A1C0D9FFA2C0DAFF800E7E
:10171000DE26510EDE22010EDE22000EDD22DD521B
:10172000DD520001D3A948D0000120EE05F00001F0
:101730009F51D9260001A051DA22DF50226E00010C
:1017400020EE06F000019F51D9260001A051DA22B7
:10175000DF5082EC13F00001A36F0001A3510001E0
:101760006D6F00016E6B00016F6B0001706B800E7E
:101770000001716F510E0001726F010E0001736F55
:10178000000E0001746FF3EC17F06DC0A4F06EC092
:10179000A5F06FC0A6F070C0A7F0A1C0D9FFA2C08D
:1017A000DAFF0001A451DE26A551DE22A651DE2279
:1017B000A751DD22DD52DD520001D3ABA9D00001DB
:1017C00020EE05F000019F51D9260001A051DA2238
:1017D000DF500001AA6F41D0AAC022F0000120EE24
:1017E00006F000019F51D9260001A051DA22DF50F6
:1017F00082EC13F00001A36F0001A35100016D6F93
:1018000000016E6B00016F6B0001706B800E0001B8
:10181000716F510E0001726F010E0001736F000EA7
:101820000001746FF3EC17F06DC0A4F06EC0A5F06A
:101830006FC0A6F070C0A7F0A1C0D9FFA2C0DAFFA8
:101840000001A451DE26A551DE22A651DE22A751B9
:10185000DD22DD52DD520001AA2B0C0E0001AA652B
:10186000BBD7010E0001A96F45D0A9C022F000012D
:1018700020EE06F000019F51D9260001A051DA2286
:10188000DF500001A36F0001A32982EC13F00001D7
:10189000A46F0001A45100016D6F00016E6B000187
:1018A0006F6B0001706B800E0001716F510E0001B3
:1018B000726F010E0001736F000E0001746FF3EC84
:1018C00017F06DC0A5F06EC0A6F06FC0A7F070C095
:1018D000A8F0A1C0D9FFA2C0DAFF0001A551DE2601
:1018E000A651DE22A751DE22A851DD22DD52DD52B3
:1018F0000001A92B000120EE05F000019F51D9261F
:101900000001A051DA22DF500001A95DD8A0ADD7B7
:10191000A1C0D9FFA2C0DAFFDECFA3F0DECFA4F0D2
:10192000DECFA5F0DECFA6F0800E0001A35D130E82
:10193000A459190EA559BC0E0001A659D8A00ED065
:10194000A1C0D9FFA2C0DAFF800EDE5E130EDE5A00
:10195000190EDE5ABC0EDD5ADD52DD520001000EBA
:1019600000019C6F0001D60E00019B6F0001000E6C
:1019700000019E6F0001DD0E00019D6F1FEC1CF049
:10198000010E0001D46F12000350D8B49CD001C0E6
:10199000D9FF02C0DAFFDECF04F0DDCF05F05F0E25
:1019A000045C010E0558D8B007D001C0D9FF02C0B1
:1019B000DAFFDE2A000EDD2201C0D9FF02C0DAFF05
:1019C000D92ADD50010A5E0ED8B4DF18D8A407D09A
:1019D00020EE03F00150D9260250DA22DF8E01C03A
:1019E000D9FF02C0DAFFD92ADD50010A2C0ED8B483
:1019F000DF18D8A407D020EE03F00150D9260250FA
:101A0000DA22DF8C01C0D9FF02C0DAFFDE50FA0A09
:101A1000DD10D8A407D020EE03F00150D9260250E3
:101A2000DA22DF8A01C0D9FF02C0DAFFDE50C80A1D
:101A3000DD10D8A407D020EE03F00150D9260250C3
:101A4000DA22DF8801C0D9FF02C0DAFFDE50960A31
:101A5000DD10D8A407D020EE03F00150D9260250A3
:101A6000DA22DF8601C0D9FF02C0DAFFDE503C0A6D
:101A7000DD10D8A407D020EE03F00150D926025083
:101A8000DA22DF8401C0D9FF02C0DAFFDE50100A7B
:101A9000DD10D8A407D020EE03F00150D926025063
:101AA000DA22DF8201C0D9FF02C0DAFFDE50020A6B
:101AB000DD10D8A4120020EE03F00150D926025008
:101AC000DA22DF80120001C0D9FF02C0DAFFDECFC8
:101AD00004F0DDCF05F05E0E045C010E0558D8A0C1
:101AE00008D020EE02F00150D9260250DA22DF8E13
:101AF00099D001C0D9FF02C0DAFFDECF04F0DDCFFC
:101B000005F02C0E045C010E0558D8A008D020EE7C
:101B100002F00150D9260250DA22DF8C83D001C0B6
:101B2000D9FF02C0DAFFDECF04F0DDCF05F0FA0EF8
:101B3000045C000E0558D8A008D020EE02F0015039
:101B4000D9260250DA22DF8A6DD001C0D9FF02C047
:101B5000DAFFDECF04F0DDCF05F0C80E045C000E26
:101B60000558D8A008D020EE02F00150D926025026
:101B7000DA22DF8857D001C0D9FF02C0DAFFDECFFA
:101B800004F0DDCF05F0960E045C000E0558D8A0D9
:101B900008D020EE02F00150D9260250DA22DF866A
:101BA00041D001C0D9FF02C0DAFFDECF04F0DDCFA3
:101BB00005F03C0E045C000E0558D8A008D020EEBD
:101BC00002F00150D9260250DA22DF842BD001C066
:101BD000D9FF02C0DAFFDECF04F0DDCF05F0100E32
:101BE000045C000E0558D8A008D020EE02F0015089
:101BF000D9260250DA22DF8215D001C0D9FF02C0F7
:101C0000DAFFDECF04F0DDCF05F0020E045C000E3B
:101C10000558D8A007D020EE02F00150D926025076
:101C2000DA22DF8001C0D9FF02C0DAFF000EDE6ECB
:101C3000000EDD6E20EE02F00150D9260250DA22AD
:101C4000FF0EDE16000EDD161200000E0001956F6D
:101C5000010E0001966F8BC0D9FF8CC0DAFF000126
:101C6000DECF97F00001DECF98F00001DECF99F0D3
:101C70000001DECF9AF00001000E00017A6F000132
:101C8000970E0001796F3C0E00017B6F92EC12F011
:101C900079C08DF07AC08EF07BC08FF07CC090F060
:101CA00000018D5189C0D9FF8AC0DAFFDF6E0001C3
:101CB000000E00017A6F0001970E0001796F3C0E53
:101CC00000017B6F92EC12F079C08DF07AC08EF03B
:101CD0007BC08FF07CC090F0000120EE01F000018D
:101CE0008951D92600018A51DA228DC0DFFF000117
:101CF000000E00017A6F0001970E0001796F180E37
:101D000000017B6F92EC12F079C08DF07AC08EF0FA
:101D10007BC08FF07CC090F0000120EE02F000014B
:101D20008951D92600018A51DA228DC0DFFF97C080
:101D300093F098C094F093C091F094C092F0060E86
:101D400000019727000E000198230001992300014C
:101D50009A230001000E00017A6F0001970E000126
:101D6000796F070E00017B6F92EC12F079C08DF055
:101D70007AC08EF07BC08FF07CC090F0000120EE26
:101D800003F000018951D92600018A51DA228DC061
:101D9000DFFF41D08A8496C022F00001955182EC89
:101DA00013F000018D6F8E6B00018D1F8E1F8D4B08
:101DB0008E2B0001935100018D250001936F0001CE
:101DC000945100018E210001946F000196510C0A7C
:101DD000D8A41BD0010E0001966F0001952B630E55
:101DE0000001956514D08BC0D9FF8CC0DAFF800E3E
:101DF000DE5E130EDE5A190EDE5ABC0EDD5ADD52BF
:101E0000DD52000E0001956F02D00001962B96C0A6
:101E1000CBF095C0D5F096C022F00001955182EC30
:101E200013F000018D6F00018D510001935D000ED4
:101E300000019459D8B0AED7000193C08DF00001D5
:101E400094C08EF000018D1F8E1F8D4B8E2B0001D4
:101E5000915100018D250001D06F000192510001C8
:101E60008E210001D16F0001934B942B000120EED5
:101E700006F000018951D92600018A51DA220001B9
:101E800095C0DFFF000120EE05F000018951D92641
:101E900000018A51DA22000196C0DFFF000120EE26
:101EA00004F000018951D92600018A51DA2200018B
:101EB00093C0DFFF12000F6E000E0E6E390E0D6E16
:101EC00099EC19F0000E106E09D00001000E0E6E94
:101ED0000001CC0E0D6E99EC19F0102A000E026E66
:101EE000260E016E75EC18F0105CD8B061D0EDD7FD
:101EF000010E256E000E066E260E056E000E076E94
:101F0000D8EC15F0200EFFEC1CF060D0000E066E31
:101F1000260E056E000E076ED8EC15F0200EFFECB5
:101F20001CF00F0E0E6E720E0D6E99EC19F04ED065
:101F3000000E066E260E056EB1EC1AF00F0E0E6E38
:101F40004C0E0D6E99EC19F041D0000E106E07D0BA
:101F50000F0E0E6E4C0E0D6E99EC19F0102A000E3D
:101F6000026E260E016E75EC18F0105CD8A0F0D74A
:101F7000000E026E260E016EA9EC1CF027D01F0E7B
:101F80000F6424D07F0E0F5CD8B020D0000E066EF8
:101F9000260E056E0FC007F0D8EC15F00F50FFECC1
:101FA0001CF00F0E0E6E720E0D6E99EC19F00ED025
:101FB0000F50080AD8B4BCD7050AD8B499D72D0A4F
:101FC000D8B4A4D75F0AD8B4C0D7D9D72550D8B4CD
:101FD00020D0000E106E04D0080EFFEC1CF0102A6A
:101FE000000E026E260E016E75EC18F0105CD8A083
:101FF000F3D7000E106E04D0200EFFEC1CF0102A58
:10200000000E026E260E016E75EC18F0105CD8A062
:10201000F3D7000E106E04D0080EFFEC1CF0102A4F
:10202000000E026E260E016E75EC18F0105CD8A042
:10203000F3D7000E0E6E3D0E0D6E99EC19F01200E6
:10204000000191C08DF0000190C08CF0000193C0A0
:102050008FF0000192C08EF036EC1CF0000E0001F3
:10206000636F000EA9EC1BF0000E0001D3BB010E44
:1020700000016C6F000120EE06F000019051D9269E
:1020800000019151DA22DF5028EC1AF02F0E90EC6B
:102090001BF0000E0001D3B9010E00016C6F0001AE
:1020A00020EE05F000019051D92600019151DA226D
:1020B000DF5028EC1AF02F0E90EC1BF0000E000100
:1020C000D3B7010E00016C6F000120EE04F0000197
:1020D0009051D92600019151DA22DF5028EC1AF0F4
:1020E0002F0E90EC1BF0000120EE03F00001905148
:1020F000D92600019151DA22DF500001946F0001CE
:102100009451020D0001AB0EF324D96E0001000EB4
:10211000F420DA6E0001DECF61F00001DDCF62F065
:10212000D2EC16F0010E0001636F000EA9EC1BF05B
:10213000000E0001D3B5010E00016C6F000120EE0E
:1021400002F000019051D92600019151DA22DF50AE
:1021500028EC1AF00001D251D8B404D03A0E90EC19
:102160001BF003D0200E90EC1BF0000E0001D3B347
:10217000010E00016C6F000120EE01F00001905192
:10218000D92600019151DA22DF5028EC1AF02D0EE9
:1021900090EC1BF0000E0001D3B1010E00016C6F3A
:1021A00090C0D9FF91C0DAFFDF5028EC1AF012007E
:1021B0000001000E00018D6F0001D60E00018C6F32
:1021C0000001000E00018F6F0001DD0E00018E6F17
:1021D00036EC1CF0000E0001D3BB010E00016C6F49
:1021E000140EF9EC19F0000E0001D3BB010E000132
:1021F0006C6F0001DC51F9EC19F00F0E00016B6FF0
:10220000830E00016A6F2BEC19F0000E0001D3B9A8
:10221000010E00016C6F0001DB51F9EC19F00F0E9B
:1022200000016B6F830E00016A6F2BEC19F0000E3A
:102230000001D3B7010E00016C6F0001DA51F9EC17
:1022400019F00F0E00016B6F7B0E00016A6F2BEC13
:1022500019F00001D951020D0001AB0EF324D96E23
:102260000001000EF420DA6E0001DECF6AF00001FA
:10227000DDCF6BF02BEC19F00F0E00016B6F780EB9
:1022800000016A6F2BEC19F0000E0001D3B5010EAE
:1022900000016C6F0001D851F9EC19F00001D25126
:1022A000D8B404D03A0EB8EC1CF003D0200EB8EC31
:1022B0001CF0000E0001D3B3010E00016C6F000191
:1022C000D751F9EC19F00F0E00016B6F810E000170
:1022D0006A6F2BEC19F0000E0001D3B1010E000162
:1022E0006C6F0001D651F9EC19F00F0E00016B6F05
:1022F000760E00016A6F2BEC19F012001CEC17F03F
:10230000F28EC5EC1CF0000E0001636F000EA9EC0C
:102310001BF00F0E0001626F140E0001616FD2EC12
:1023200016F0010E0001636F000EA9EC1BF00F0EFA
:102330000001626F0B0E0001616FD2EC16F0760E99
:102340000001DD6F130E0001DE6F190E0001DF6F5B
:10235000BC0E0001E06F0001000E00019C6F000147
:10236000D60E00019B6F0001000E00019E6F000160
:10237000DD0E00019D6F1FEC1CF00F0E00016B6F56
:10238000520E00016A6F2BEC19F036EC18F0C7EC16
:1023900007F00001D451D8B418D0000E0001D46F5A
:1023A000020EB4EC18F00001000E0001916F000164
:1023B000D60E0001906F0001000E0001936F000126
:1023C000DD0E0001926F20EC10F033A606D0000E57
:1023D000336E000E326EF4EC1CF00001D351D8B411
:1023E000D4D732A206D0000E336E000E326E06EC49
:1023F0001BF032A0CAD7000E336E000E326E000101
:10240000000E0001A06F0001D60E00019F6F0001B9
:10241000000E0001A26F0001DD0E0001A16F46EC6D
:102420000BF0B3D7000163C021F0000162C020F0BF
:10243000ACEC17F00001656F000120EE02F0000126
:102440006251D92600016351DA22DF500001655D37
:10245000D8B01200000120EE03F000016251D9262D
:1024600000016351DA22DF500001656F0001655100
:10247000010D62C0D9FF63C0DAFFDECF66F0DDCFA9
:1024800067F0F35000016625D96EF4500001672112
:10249000DA6E000164C0DFFF000120EE02F00001EF
:1024A0006251D92600016351DA22DF500001656FC5
:1024B000666B000120EE03F000016251D926000195
:1024C0006351DA22DF500001676F686B010E000173
:1024D0006727000E682300016851800A0001696FB8
:1024E000000165510001675D00016651800A00012D
:1024F0006959D8B00BD0000120EE03F00001625101
:10250000D92600016351DA22DF2A1200000120EEF1
:1025100003F000016251D92600016351DA22000E56
:10252000DF6E120079C0D9FF7AC0DAFF0001DECF7A
:1025300085F00001DECF86F00001DECF87F00001DC
:10254000DECF88F000017B510001646F0001656BF4
:102550000001666B0001676B85C060F086C061F0AA
:1025600087C062F088C063F0F0EC13F060C07DF0CB
:1025700061C07EF062C07FF063C080F079C0D9FF97
:102580007AC0DAFF7DC0DEFF7EC0DEFF7FC0DEFFE7
:1025900080C0DDFFD906D9060001DECF6DF0000155
:1025A000DECF6EF00001DECF6FF00001DDCF70F006
:1025B000DD52DD5200017B510001716F0001726B31
:1025C0000001736B0001746BF3EC17F06DC081F0C8
:1025D0006EC082F06FC083F070C084F00001811F74
:1025E000821F831F841F812B000E82238323842359
:1025F00000018551000181250001796F000186519C
:102600000001822100017A6F0001875100018321BE
:1026100000017B6F000188510001842100017C6F63
:102620001200000E0001656F00016351800AF36E15
:10263000800EF35C000ED8B4625DD8B009D0000102
:10264000626D0001631FD8B0632B010E0001656F3E
:1026500000016151800AF36E800EF35C000ED8B465
:10266000605DD8B009D00001606D0001611FD8B075
:10267000612B010E0001651B000E0001676F000E4B
:102680000001666F000163516211D8B42CD0010EB5
:102690000001646F06D00001D890623763370001F3
:1026A000642B000163AFF7D70001D8906637673716
:1026B000000162510001605D000163510001615938
:1026C000D8A00AD0000162510001605F000163518F
:1026D0000001615B000166810001D89063336233C1
:1026E0000001642FE1D700016551D8B406D0000184
:1026F000666D0001671FD8B0672B66C060F067C0C9
:1027000061F012000001686F2250020AD8A441D083
:10271000000168C060F00001616B000E0001636F92
:10272000640E0001626F7CEC15F000016151000144
:102730006011D8A402D0010E01D0000E00080001E3
:10274000646F000168C060F00001616B010E000160
:10275000636F900E0001626F7CEC15F00001615117
:1027600000016011D8A402D0010E01D0000E0001BA
:10277000656F68C066F0030E00016617D8A402D02A
:10278000010E01D0000E00016525000164251C0F1B
:1027900012002250010B0001646F656B0001641F81
:1027A000651F644B652B22500001666F676B00014B
:1027B00064510001661B000165510001671B0D0E8D
:1027C00000016617000E671700016651040A6711C1
:1027D000D8A402D0010E01D0000E00081F0F120075
:1027E000000E0001686F000E0001696F000E00010D
:1027F0006A6F000E00016B6F000167516411651173
:102800006611D8B44ED0010E00016C6F0CD00001DF
:10281000D890000164370001653700016637000178
:10282000673700016C2B000167AFF1D70001D8902A
:10283000000168370001693700016A3700016B3712
:10284000000164510001605D0001655100016159A2
:10285000000166510001625900016751000163598E
:10286000D8A012D0000164510001605F00016551E1
:102870000001615B000166510001625B000167516C
:102880000001635B000168810001D890000167339B
:1028900000016633000165330001643300016C2FD1
:1028A000C5D768C060F069C061F06AC062F06BC0F3
:1028B00063F012000F013F810F013F83000120EE02
:1028C00006F000016051D92600016151DA220F01A2
:1028D0003A51D2EC1CF0DF6E3BCF22F0000120EE2B
:1028E00004F000016051D92600016151DA220F0184
:1028F0003A51D2EC1CF0DF6E000120EE05F0000131
:102900006051D92600016151DA220F013B51D2EC0E
:102910001CF0DF6E000120EE02F000016051D926AC
:1029200000016151DA220F013A51D2EC1CF0DF6E46
:10293000000120EE03F000016051D9260001615131
:10294000DA220F013B51D2EC1CF0DF6E0F013A513D
:10295000D2EC1CF060C0D9FF61C0DAFFDF6E00016D
:1029600020EE01F000016051D92600016151DA2208
:102970000F013B51D2EC1CF0DF6E1200000163C06E
:1029800021F0000162C020F0ACEC17F00009D8B4CF
:1029900052D0000120EE04F000016251D92600015E
:1029A0006351DA22DF500001646F00016451010DB0
:1029B00062C0D9FF63C0DAFFDECF65F0DDCF66F01D
:1029C000F35000016525D96EF45000016621DA6EDE
:1029D000DF50226E000120EE04F000016251D92682
:1029E00000016351DA22DF2A000120EE04F0000129
:1029F0006251D92600016351DA22DF500001646F71
:102A0000000120EE02F000016251D926000163515D
:102A1000DA22DF500001645DD8A00BD0000120EE67
:102A200004F000016251D92600016351DA22000E40
:102A3000DF6E22501200000E12000F013F810F01C5
:102A40003F8320EE06F02150D9262250DA22DF50B3
:102A50004DEC1CF00F013A6F000E0F013B6F0F01A0
:102A60003F910F013F8320EE04F02150D9262250E0
:102A7000DA22DF504DEC1CF00F013A6F20EE05F02A
:102A80002150D9262250DA22DF504DEC1CF00F01E4
:102A90003B6F0F013F810F013F9320EE02F0215069
:102AA000D9262250DA22DF504DEC1CF00F013A6F8C
:102AB00020EE03F02150D9262250DA22DF504DECCF
:102AC0001CF00F013B6F0F013F910F013F9321C09D
:102AD000D9FF22C0DAFFDF504DEC1CF00F013A6F36
:102AE00020EE01F02150D9262250DA22DF504DECA1
:102AF0001CF00F013B6F1200000E216E00016151AE
:102B0000800AF36E800EF35C000ED8B4605DD8B01E
:102B100008D00001606D0001611FD8B0612B010E6B
:102B2000216E00016351800AF36E800EF35C000E8B
:102B3000D8B4625DD8B006D00001626D0001631F99
:102B4000D8B0632B000163516211D8B423D0010EB9
:102B5000206E05D00001D89062376337202A00012B
:102B600063AFF8D7000162510001605D000163515D
:102B700000016159D8A008D0000162510001605FD6
:102B8000000163510001615B0001D890633362333F
:102B9000202EE8D72150D8B406D00001606D000186
:102BA000611FD8B0612B60C060F061C061F012009D
:102BB00006C002F005C001F075EC18F0086E20EEBA
:102BC00002F00550D9260650DA22DF50085CD8B052
:102BD000120020EE03F00550D9260650DA22DF500D
:102BE000086E0850010D05C0D9FF06C0DAFFDECF20
:102BF00009F0DDCF0AF0F3500924D96EF4500A2011
:102C0000DA6E07C0DFFF20EE02F00550D92606502D
:102C1000DA22DF50086E096A20EE03F00550D9264B
:102C20000650DA22DF500A6E0B6A010E0A26000EE9
:102C30000B220B50800A0C6E08500A5C0950800A67
:102C40000C58D8B008D020EE03F00550D926065015
:102C5000DA22DF2A120020EE03F00550D9260650B2
:102C6000DA22000EDF6E12002CD0000162C0F6FFE7
:102C7000000163C0F7FF000EF86E0800F5CF20F0EA
:102C800060C0D9FF61C0DAFFDF502018D8B413D07C
:102C900060C0D9FF61C0DAFFDF50206E000162C062
:102CA000F6FF000163C0F7FF000EF86E0800F55054
:102CB0000008202412000001604B612B0001624BD0
:102CC000632B60C0D9FF61C0DAFFDF50D8B40DD0EC
:102CD000000162C0F6FF000163C0F7FF000EF86E4E
:102CE0000800F5500009D8A4C0D760C0D9FF61C062
:102CF000DAFFDF50206E000162C0F6FF000163C002
:102D0000F7FF000EF86E0800F550000820241200AE
:102D10003CD066C06AF067C06BF068C069F012D042
:102D20006AC060F06BC061F0000E0001636F0A0EB4
:102D30000001626F64EC19F0000160C06AF00001EC
:102D400061C06BF00001690700016929D8A4E8D7C8
:102D50006AC060F06BC061F0000E0001636F0A0E84
:102D60000001626F84EC1AF0000160C06AF000019B
:102D700061C06BF000016A51300F64C0D9FF65C0BB
:102D8000DAFFDF6E0001644B652B0001680700016C
:102D90006829D8A4BED764C0D9FF65C0DAFF000E89
:102DA000DF6E1200000E226E3E0EC1EC1BF0000121
:102DB000636F000163510001646F0001656B0001E6
:102DC00065516411D8A435D0400EDEEC1CF01BD048
:102DD000000161C0F6FF000162C0F7FF000EF86E4F
:102DE0000E0EF76403D00800F55005D0F6CFE1FFD2
:102DF000F7CFE2FFE750DEEC1CF00001614B622BE5
:102E0000680EE82EFED7000161C0F6FF000162C027
:102E1000F7FF000EF86E0E0EF76403D00800F550B1
:102E200005D0F6CFE1FFF7CFE2FFE7500009D8A4C5
:102E3000CFD71FEC1DF0120013EC1DF0400E926E68
:102E4000300E936EB20E946EF80E0F01486F1F0E87
:102E50000F01496FF19E0F01399D020E206E000E89
:102E600055EC1BF0020E61EC1CF00AEC1DF0DCECE2
:102E70001AF008EC1CF099EC1CF0000E0001616FD8
:102E80002B0E0001606F0501050E0001636F050147
:102E9000000E0001626FFA0E0001646F57EC1AF029
:102EA000000E0001616F260E0001606F0601060E24
:102EB0000001636F0601000E0001626FFA0E00014F
:102EC000646F57EC1AF0120006C002F005C001F062
:102ED00075EC18F00009D8B43DD020EE04F0055090
:102EE000D9260650DA22DF50076E0750010D05C0C3
:102EF000D9FF06C0DAFFDECF08F0DDCF09F0F350CE
:102F00000824D96EF4500920DA6EDF500A6E20EEE4
:102F100004F00550D9260650DA22DF2A20EE04F00C
:102F20000550D9260650DA22DF50076E20EE02F057
:102F30000550D9260650DA22DF50075CD8A008D009
:102F400020EE04F00550D9260650DA22000EDF6E7E
:102F50000A501200000E120020EE03F02050D92675
:102F60002150DA22DF500001606F20EE04F0205083
:102F7000D9262150DA22DF500001605DD8A014D09C
:102F800020EE03F02050D9262150DA22DF50000134
:102F9000606F20EE04F02050D9262150DA22DF5055
:102FA000000800016025120020EE03F02050D92611
:102FB0002150DA22DF500001606F20EE02F0205035
:102FC000D9262150DA22DF500001616F20EE04F093
:102FD0002050D9262150DA22DF5000080001612557
:102FE000000160251200000E0001756F000E000147
:102FF000766F000E0001776F000E0001786F000100
:103000006DA110D0000171510001752700017251AE
:1030100000017623000173510001772300017451F0
:10302000000178230001D890000171370001723748
:1030300000017337000174370001D890000170332C
:1030400000016F3300016E3300016D3300017051D8
:103050006D116E116F11D8A4D2D775C06DF076C006
:103060006EF077C06FF078C070F012000F013FA7CC
:1030700002D0010E01D0000E2318D8B41200000EA9
:103080000F013FB7010E236E000E0F013FB7010E77
:103090000001D26F0F013FB724D0010E0001DD27E0
:1030A000000E0001DE230001DF230001E023800E7B
:1030B0000001DD5D130E0001DE59190E0001DF591C
:1030C000BC0E0001E059D8A00CD0800E0001DD5FDD
:1030D000130E0001DE5B190E0001DF5BBC0E000168
:1030E000E05B010E0001D46F120020EE03F00150EE
:1030F000D9260250DA22DF50036E20EE04F0015090
:10310000D9260250DA22DF50035CD8A012D020EE7C
:1031100003F00150D9260250DA22DF50036E20EE70
:1031200004F00150D9260250DA22DF5000080324AF
:10313000120020EE03F00150D9260250DA22DF50AF
:10314000036E20EE02F00150D9260250DA22DF5041
:10315000046E20EE04F00150D9260250DA22DF502E
:1031600000080424032412000001906FF29E000E58
:103170000001916F0AD0000E00016B6F390E000143
:103180006A6F2BEC19F00001912B000190510001A6
:10319000915DD8A0F0D7D8EC10F0000E0001916F2F
:1031A00005D0080EB8EC1CF00001912B190E00019F
:1031B0009165F7D7000E0001916F0AD0000E000153
:1031C0006B6F3D0E00016A6F2BEC19F00001912B23
:1031D000000190510001915DD8A0F0D7F28E12004D
:1031E00006EE00F0FA0EEE6AE806FDE105EE00F0EC
:1031F000FA0EEE6AE806FDE100EED0F0110EEE6A7E
:10320000E806FDE100EE23F0140EEE6AE806FDE1AB
:10321000E80EF66E380EF76E000EF86E00EEABF0AC
:1032200010EE25F00900F5CFEEFFE550E150FAE190
:10323000340EF66E3A0EF76E000EF86E00EE37F0B2
:1032400010EE0AF00900F5CFEEFFE550E150FAE18B
:1032500000017EEF11F020D0000E0001636F2B0EF5
:103260000001626F00016AC0F6FF00016BC0F7FF4A
:10327000000EF86E0E0EF76403D00800F55005D06E
:10328000F6CFE1FFF7CFE2FFE7500001646F12ECE9
:1032900012F000016A4B6B2B00016AC0F6FF0001BF
:1032A0006BC0F7FF000EF86E0E0EF76403D0080037
:1032B000F55005D0F6CFE1FFF7CFE2FFE750000968
:1032C000D8A4CAD79D881200000E226E000E216E6F
:1032D000000163516211D8B427D0010E206E05D0D1
:1032E0000001D89062376337202A000163AFF8D716
:1032F000D89021362236000162510001605D000144
:10330000635100016159D8A009D000016251000148
:10331000605F000163510001615B21800001D89072
:1033200063336233202EE4D721C060F022C061F005
:1033300012001AD0000E066E2B0E056E0DC0F6FFA1
:103340000EC0F7FF000EF86E0E0EF76403D00800F3
:10335000F55005D0F6CFE1FFF7CFE2FFE750076E5B
:10336000D8EC15F00D4A0E2A0DC0F6FF0EC0F7FF7F
:10337000000EF86E0E0EF76403D00800F55005D06D
:10338000F6CFE1FFF7CFE2FFE7500009D8A4D2D78C
:103390009D881200000E0001606F21D020C0D9FF6F
:1033A00021C0DAFF2F0EDF6418D020C0D9FF21C062
:1033B000DAFFDF50226E3A0E225CD8B00ED00A0E31
:1033C00000016003F3500001606F20C0D9FF21C0ED
:1033D000DAFFDF50D00F00016027204A212A20C0E9
:1033E000D9FF21C0DAFFDF50D8A4D8D7000160513F
:1033F00012000001776F0001000E0001656F0001EF
:103400006D0E0001646F000177C066F00001676B0C
:10341000020E0001686F88EC16F000016C51D8B400
:103420000CD00F013FA709D00F0E00016B6F750E76
:1034300000016A6F2BEC19F012000001000E000170
:103440006B6F00016D0E00016A6F2BEC19F012001A
:103450000001776F0001000E0001656F00016D0E25
:103460000001646F000177C066F00001676B020E17
:103470000001686F88EC16F000016C51D8B40CD0D4
:103480000F013FA709D00F0E0001626F750E0001FA
:10349000616FD2EC16F012000001000E0001626FA5
:1034A00000016D0E0001616FD2EC16F0120060C0D9
:1034B000D9FF61C0DAFF000162C0DEFF000163C016
:1034C000DDFF000120EE02F000016051D92600016D
:1034D0006151DA22000164C0DFFF000120EE03F039
:1034E00000016051D92600016151DA22000EDF6E21
:1034F000000120EE04F000016051D9260001615165
:10350000DA22000EDF6E1200000163516211D8B49E
:1035100023D0010E206E05D00001D89062376337AA
:10352000202A000163AFF8D7000162510001605DFD
:103530000001635100016159D8A008D00001625117
:103540000001605F000163510001615B0001D890E0
:1035500063336233202EE8D760C060F061C061F051
:10356000120006C002F005C001F075EC18F0000969
:10357000D8B4120020EE03F00550D9260650DA2206
:10358000DF50D8B408D020EE03F00550D9260650FD
:10359000DA22DF06120020EE03F00550D92606508D
:1035A000DA2210EE02F00550E1260650E222E75042
:1035B000076E0704DF6E1200000E216E280E206ECB
:1035C00087EC1CF0380E77EC1BF0390E77EC1BF013
:1035D000140E77EC1BF0700E77EC1BF0560E77ECA8
:1035E0001BF06C0E77EC1BF0000E216EC80E206EE7
:1035F00087EC1CF0380E77EC1BF00C0E77EC1BF010
:10360000060E77EC1BF0C5EC1CF012000001D3A1F4
:1036100004D0020E0001D36F12000001D3A304D026
:10362000040E0001D36F12000001D3A504D0080ED0
:103630000001D36F12000001D3A704D0100E0001C7
:10364000D36F12000001D3A904D0200E0001D36F64
:1036500012000001D3AB1200010E0001D36F120063
:1036600020EE01F00150D9260250DA22DE50DD10A2
:10367000D8B409D020EE01F00150D9260250DA2248
:10368000DE06000EDD5A20EE01F00150D926025070
:10369000DA22DE50010ADD10D8A4120001C0D9FFE1
:1036A00002C0DAFF010EDF6E1200226E20C021F090
:1036B000213A21462146CD5021183F0B2118CD6ECD
:1036C0002050020AD8A402D0CD8601D0CD9622C0C7
:1036D00021F0213ACD502118CF0B2118CD6ECD8489
:1036E000CD92CD809F909E909D80F28C1200000123
:1036F000616F000E226E3E0EC1EC1BF00001626F86
:103700000001626707D0800EDEEC1CF00001615101
:10371000DEEC1CF01FEC1DF0680EE82EFED7120048
:103720000001616F000E226E3E0EC1EC1BF0000125
:10373000626F0001626707D0C00EDEEC1CF0000172
:103740006151DEEC1CF01FEC1DF0680EE82EFED778
:1037500012000001666F37C064F038C065F00001E8
:103760006351010D0001640EF324D96E0001000EB7
:10377000F420DA6EDF5000016625800977EC1BF03B
:1037800012000001606F050EE9EC1CF0C580050E0B
:10379000E9EC1CF09E960001605100016025222496
:1037A000C96E9EA6FED7C5AC02D0010E1200000E57
:1037B00012009DA812009EA812009E98000E026E94
:1037C0002B0E016E75EC18F00009D8B408D0000E6D
:1037D000066E2B0E056E64EC17F0AE6E12009D980F
:1037E000120000018DC022F000018CC021F01DEC00
:1037F00015F000018DC07AF000018CC079F0000155
:103800008FC07CF000018EC07BF0A6EC09F01200A6
:103810000F013F8B0F013FBB06D0550EA76EAA0EBE
:10382000A76E0F013F8B0F013F8F0F013F950F01D7
:103830003C930F013C85000E0F013E6F120000010A
:103840009CC08AF000019BC089F000019EC08CF0F2
:1038500000019DC08BF025EC0EF000019CC022F011
:1038600000019BC021F01DEC15F0120000018DC07D
:1038700061F000018CC060F05AEC14F000018DC0C2
:103880007AF000018CC079F000018FC07CF000015B
:103890008EC07BF0A6EC09F01200206E000120C063
:1038A00060F00001616B000E0001636F0A0E000101
:1038B000626F11EC13F000016051060DF3502024EB
:1038C0001200216E3F0E7916799621C020F0203A21
:1038D00079502018CF0B2018796E799E7980A292AA
:1038E000A192A082F28C1200660F620F5A0F560F3F
:1038F0006E0F5E0F6A0F3E0F370F2F0F010F260F4F
:10390000450F1D0F1B5B4400011B5B43000008D0EB
:10391000100E226E940EE82EFED7222EFCD700D079
:103920002006D8A021062028D8B42128D8B4120017
:10393000EFD7AD9CAD8AAD98AD94AC8EAC9CAC8805
:103940007E964D0EB06E000E7F6E9F9A9D8AF28C11
:10395000120020EE04F00150D9260250DA2210EEB7
:1039600003F00150E1260250E222DFCFE7FF120010
:10397000226E000E0001636F2B0E0001626F22C0E9
:1039800064F012EC12F09D881200010E77EC1BF02F
:10399000120E0001636F230EE82EFED7632FFCD7B3
:1039A00000F01200216E21C020F00F0E20162138E9
:1039B0000F0B0F0B0A0DF35020241200226E050E80
:1039C000E9EC1CF09E9622C0C9FF9EA6FED7C5500A
:1039D0001200216EC7502114206EC5501F0B2010FD
:1039E0000009D8B41200F6D70001D351D8B404D0DE
:1039F000000E0001D36F12000001D38112000D6E82
:103A0000000E066E2B0E056E0DC007F0D8EC15F0FB
:103A10009D881200800EC76E280EC66E130EC86EEB
:103A20009E96A1961200D388D38AD38C9B8CFC0ED1
:103A3000D316120000401B5B42001B5B4100050EC9
:083A4000E9EC1CF0C584120042
:020000040001F9
:08FFF8008CF70AFAF2F8FFFB96
:00000001FF
