:040000008031202803
:10000800803120007F08B5008231782280310B19B9
:100018000B11200011181110911E1C289112230099
:1000280019082000B4003408B60036088231C1220D
:1000380020003508FF000900803122282030840084
:100048000030850011308231CD2280318231D322B7
:100058008031BE008231D422BF0020008031342894
:10006800703021009900013023008C008D0101308F
:1000780021008C0002308D008231B32280310030A3
:1000880082315F2280310230823144228031023055
:100098008231902280318131E4218031A0302000EA
:1000A800BC003C08B7002830B8000030B9002A303E
:1000B8008231062280318B1700308231252280312F
:1000C800200038082100C900200037082100C80096
:1000D80020003E09BC003F09BD00BC0A0319BD0A47
:1000E8002100480820003C072100CA0049082000D8
:1000F8003D3D2100CB0049082000BF0021004808F1
:100108002000BE0021004B08803A2000BC0080304F
:100118003C02031D9228013021004A02031CA0283A
:1001280001308131B921803121004A088231A3226E
:10013800803122000D16B7282100CB1FB1280230CC
:100148008131B921803121004A03FF3A8231A3224B
:10015800803122000D128D16B82800308131B92166
:10016800803122000D128D1268302000BD00E4306D
:10017800BC00BC0BBD28BD0BBD28000060282000BA
:10018800B100310A86008701403FF800413FF9007D
:10019800310881311921803179087102031DD6286F
:1001A80078087002031808007708F8002000310862
:1001B800860087013108033E840085010008010795
:1001C800F90079088600870178088100310A8600DD
:1001D8008701403FF800413FF9003108033E86009F
:1001E8008701403FFA00413FFB007A08013EFC00CE
:1001F80000307B3DFD0079087D02031D0529780844
:100208007C02031811293108033E8600870101305A
:10021800810741310318810A08003108033E86002E
:1002280087010030C03FC13F0800F6007608053E50
:1002380086008701403FF200413FF3007608033E05
:1002480086008701403FF400413FF50073087502BE
:10025800031D302972087402031C4A297608033EDC
:10026800860087017608053E84008501003FF2007C
:10027800013FF300F209F309F20A0319F30A403FB8
:100288007207F000413F733DF10008007608033E15
:10029800860087017608053E84008501003FF2004C
:1002A800013FF300F209F309F20A0319F30A760A87
:1002B80084008501003F7207F400013F733DF5009B
:1002C800403F7407F000413F753DF10008002000F1
:1002D800B200320881311921813170087104031983
:1002E800B72920003208860087013208053E8400BD
:1002F800850100080107F7007708860087010108D3
:10030800F8007808B100320A86008701403FF700FC
:10031800413FF8003208053E86008701403FF9005A
:10032800413FFA007908013EFB0000307A3DFC00AD
:1003380078087C02031DA22977087B020318AE29DE
:100348003208053E860087010130810741310318D4
:10035800810AB5293208053E860087010030C03F72
:10036800C13F31080800003008002000B700D42938
:1003780022000C138C130C118C11080022000C178E
:100388008C130C158C11080022000C138C170C11FF
:100398008C15080022000C178C170C158C150800FA
:1003A80020003708003A0319BC29013A0319C22969
:1003B800033A0319C829013A0319CE29E329080089
:1003C80025001308F0390C3893003F309305FC30B2
:1003D8009E059101CF3093051A08F0390C389A0020
:1003E8003F309A05F3309E059801CF309A05873043
:1003F80020009C051C08FC3902389C0013309B0027
:100408001C1508002000BB003708BA003B0886000E
:1004180087013A0881003B0A860087013808C03FF7
:100428003908C13F3B08033E860087010030C03FC2
:10043800C13F3B08053E860087010030C03FC13FF1
:1004480008002000BA003A08B900B90DB90D21001A
:100458001D08200039068339390621009D001D1426
:100468002000111321009D142000111F382A21009B
:100478001C082000B80021001B082000B700080055
:100488002000B8003808031D4C2A210095155A2A67
:1004980021009511FF3020003807B700210015080A
:1004A80020003706F83937062100950095121512F5
:1004B8008B160B1708002000B70021009E131E089A
:1004C8008F3960389E001E111E0820003706FC393F
:1004D800370621009E00033020003706031D080060
:1004E80083302200970008002100111E0800200018
:1004F800111E080011122A30813119218231700829
:10050800710403198D2A2A3081316B2123009A0046
:1005180008002100111208002000B80018143F300C
:1005280098053808B700B70E18083706CF393706C8
:10053800980097019601210011140B17080020005C
:10054800B700CF302500930520003708250091001B
:10055800CF309A05200037082500980008002300AE
:100568009D1790309D009F119C01CF309B00243037
:100578009E00210091160B1708002000B3003308D5
:10058800B2003208F7002A308031C320210011164A
:100598000800640080010131890BCE2A00347F34C1
:0205A80000341D
:020000040001F9
:04000E00A4C9FFDDA5
:00000001FF
