:0400000051EF00F0CC
:100008005882FACF1FF0FBCF20F0E9CF21F0EACFDA
:1000180022F0E1CF23F0E2CF24F0D9CF25F0DACFD8
:1000280026F0F3CF27F0F4CF28F0F6CF29F0F7CF5A
:100038002AF0F8CF2BF0F5CF2CF09FECA0F0B6EC1F
:100048009DF0F2B4F2AA01D0F2949EB09DA003D024
:100058009E90C00ECF6EA1B2A0A201D0A1922CC0DA
:10006800F5FF2BC0F8FF2AC0F7FF29C0F6FF28C00C
:10007800F4FF27C0F3FF26C0DAFF25C0D9FF24C04C
:10008800E2FF23C0E1FF22C0EAFF21C0E9FF20C050
:0E009800FBFF1FC0FAFF589211007BEF9AF099
:10FD56000001000A006400E803102742FEACFDE043
:10FD6600FD69FD09024300020100C03209040000DA
:10FD760001020201000524001001042402020524E8
:10FD86000600010524010001070581030800020998
:10FD9600040100020A0000000705020240000007F5
:10FDA60005820240000034034D00690063007200C2
:10FDB6006F00630068006900700020005400650051
:10FDC600630068006E006F006C006F0067007900CA
:10FDD600200049006E0063002E00340343004400F7
:10FDE60043002000520053002D0032003300320041
:10FDF600200045006D0075006C006100740069000C
:10FE06006F006E002000440065006D006F005355C2
:10FE16004E004D4F4E00545545005745440054483A
:10FE26005500465249005341540012010002020097
:10FE36000008D8040A0000010102000104030904B5
:10FE4600092A2A2A2A2A2A2A2A2A2A2A2A2A2A2A2D
:10FE56002A2A2A2A2A2A2A2A2A2A2A2A2A2A2A0A1C
:10FE6600092A2A2A2A2050494331384632374A3548
:10FE7600332074656D706C617465202A2A2A2A0AFB
:10FE8600092A2A2A2A204D61646520627920405277
:10FE9600796F6B65726931342020202A2A2A2A0A52
:10FEA600092A2A2A2A2A2A2A2A2A2A2A2A2A2A2ACD
:10FEB6002A2A2A2A2A2A2A2A2A2A2A2A2A2A2A0ABC
:10FEC6000A097072696E745F74696D652874290A0F
:10FED6000961646A7573745F74696D652861742954
:10FEE600205B68616E643A792C4D2C642C682C6D0D
:10FEF6002C735D205B76616C756528646563696D3E
:10FF0600616C295D0A0A09666F7220446576656C24
:10FF16006F707065720A09524553455428293B0A89
:10FF260009626F6F746C6F61640A000932302530A4
:10FF360032642F253032642F253032642825732908
:10FF4600253032643A253032642D253032640A0079
:10FF5600426F6F746C6F61646572206D6F646500CB
:10FF660061646A7573745F74696D650050494331E5
:10FF7600384632374A3533007072696E745F746979
:10FF86006D6500202020202020202000524553456A
:10FF96005428293B00626F6F746C6F61640054656E
:10FFA6006D706C61746500096572726F720A002863
:10FFB6006E756C6C29007365636F6E64006D696E97
:10FFC600757465006D6F6E7468007965617200689E
:10FFD6006F757200253032640068656C7000082009
:10FFE6000800646179006174004D006D007300289B
:0AFFF600002D002F003A003F00002C
:020000040001F9
:10000000700E0001836F000E0001846F0FD2250E69
:1000100000018C19D8B40AD06CC0D9FF6DC0DAFFCA
:100020008CC0DFFF00016C4B6D2B00D2000E000175
:100030008E6F000E8D6F000E00018B6F05D00001DA
:100040008B8500016E4B6F2B6EC0F6FF6FC0F7FF04
:10005000000EF86E0800F550300AD8B4F0D76EC024
:10006000F6FF6FC0F7FF000EF86E0800F5509AEC2F
:100070009FF0D8A0CBD0000E00018E6F000E8D6FC8
:100080008DC060F08EC061F0000E0001636F0A0E3B
:10009000626FAEEC9EF060C08DF061C08EF0D00E4D
:1000A00000017E6FFF0E00017F6F6EC0F6FF6FC014
:1000B000F7FF000EF86E0800F5500001806F816BAD
:1000C00000017E510001802700017F510001812342
:1000D0000001805100018D270001815100018E2314
:1000E00000016E4B6F2B6EC0F6FF6FC0F7FF000E66
:1000F000F86E0800F5509AEC9FF0D8A087D0C0D7D2
:1001000083C0D9FF84C0DAFFDECF85F0DDCF86F073
:10011000020E00018327000E842300018551000197
:100120008611D8A406D0B50E0001856FFF0E000120
:10013000866F000E00018A6F000E896F03D00001E8
:10014000894B8A2B000189510001852500017E6FB2
:1001500000018A510001862100017F6F7EC0F6FFF9
:100160007FC0F7FF000EF86E0800F5500009D8A414
:10017000E6D700018D510001895D00018E5100011B
:100180008A59D8B009D00001895100018D5F000162
:100190008A5100018E5B0FD0000E00018E6F000EA1
:1001A0008D6F09D06CC0D9FF6DC0DAFF200EDF6EF5
:1001B00000016C4B6D2B00018D07D8A08E0700014C
:1001C0008D29F0E100018E29D8B414D0EBD785C079
:1001D000F6FF86C0F7FF000EF86E6CC0D9FF6DC049
:1001E000DAFF0800F5CFDFFF0001854B862B000109
:1001F0006C4B6D2B00018907D8A08A070001892963
:10020000E6E100018A29D8B411D1E1D76EC0F6FF2A
:100210006FC0F7FF00016E4B6F2B000EF86E0800E9
:10022000F5CF8CF000018C51000AD8B40FD1640ACC
:10023000D8B407D00D0AD8B404D01A0AD8B460D7FD
:10024000F5D083C0D9FF84C0DAFFDECF87F0DDCFE1
:1002500088F0020E00018327000E8423000188AF7E
:1002600008D0030E00018B130001876D881FD8B0E2
:10027000882B010E00018C6F050E00018C19D8B47B
:1002800019D000018C51020D570EF324F66EFD0EAD
:10029000F420F76EF86A000EF8220900F55000010C
:1002A000875D0900F55000018859D8A003D00001EE
:1002B0008C2BE2D700018D5100018E11D8B40BD0E8
:1002C0008BC07EF0030E00017E17D8B404D000016D
:1002D0008D07D8A08E07800E00018CBF7F0E000115
:1002E0007E6F00018D5100018C5D00018E51800AEE
:1002F00000017E59D8B00BD000018C5100018D5FF8
:10030000000E00018CBFFF0E00018E5B05D0000EB9
:1003100000018E6F000E8D6F00018BA524D08BC065
:100320007EF0030E00017E17D8B409D06CC0D9FF4F
:100330006DC0DAFF2D0EDF6E00016C4B6D2B0001DE
:100340008D5100018E11D8B437D06CC0D9FF6DC06B
:10035000DAFF300EDF6E00016C4B6D2B00018D0754
:10036000D8A08E07ECD700018D5100018E11D8B4B2
:1003700013D06CC0D9FF6DC0DAFF200EDF6E000114
:100380006C4B6D2B00018D07D8A08E0700018D519D
:1003900000018E11D8A4EDD78BC07EF0030E0001B2
:1003A0007E17D8B409D06CC0D9FF6DC0DAFF2D0E0E
:1003B000DF6E00016C4B6D2B8CC082F031D00001E0
:1003C0008251020D570EF324F66EFD0EF420F76EE7
:1003D000F86A000EF8220900F5CF62F00A00F5CFA6
:1003E00063F087C060F088C061F0FEEC9AF060C0F6
:1003F00067F061C068F0000E00016A6F0A0E696F55
:10040000B0EC9CF000016751300F00018C6F6CC0A4
:10041000D9FF6DC0DAFF8CC0DFFF00016C4B6D2B84
:100420000001820700018229D8A4C9D76EC0F6FF57
:100430006FC0F7FF00016E4B6F2B000EF86E0800C7
:10044000F5CF8CF000018C51D8A4E1D56CC0D9FF58
:100450006DC0DAFF000EDF6E1200B8C060F0B9C0E8
:1004600061F07E0E0001626FFF0E0001636FE1EC30
:100470009CF00001605100016111D8B412D0B8C0E5
:1004800060F0B9C061F0ED0E0001626FFF0E000177
:10049000636FE1EC9CF00001605100016111D8A490
:1004A00006D0B6C08FF0B7C090F036EC9AF0B8C066
:1004B00060F0B9C061F0EC0E0001626FFF0E000148
:1004C000636FE1EC9CF00001605100016111D8B450
:1004D00012D0B8C060F0B9C061F0660E0001626F62
:1004E000FF0E0001636FE1EC9CF000016051000120
:1004F0006111D8A41200BAC060F0BBC061F0EA0E6E
:100500000001626FFF0E0001636FE1EC9CF00001DF
:10051000605100016111D8B412D0BAC060F0BBC004
:1005200061F0D00E0001626FFF0E0001636FE1EC1D
:100530009CF00001605100016111D8A41CD0B6C02C
:10054000AFF0B7C0B0F04E0E0001B16F000E000169
:10055000B26F000E0001B36F630E0001B46FBCC038
:1005600066F0BDC067F0A2EC8DF00001665100019D
:10057000B56F7FEC9CF0BAC060F0BBC061F0EF0ECD
:100580000001626FFF0E0001636FE1EC9CF000015F
:10059000605100016111D8B412D0BAC060F0BBC084
:1005A00061F0CA0E0001626FFF0E0001636FE1ECA3
:1005B0009CF00001605100016111D8A41CD0B6C0AC
:1005C000AFF0B7C0B0F04D0E0001B16F000E0001EA
:1005D000B26F010E0001B36F0C0E0001B46FBCC00E
:1005E00066F0BDC067F0A2EC8DF00001665100011D
:1005F000B56F7FEC9CF0BAC060F0BBC061F0DD0E5F
:100600000001626FFF0E0001636FE1EC9CF00001DE
:10061000605100016111D8B412D0BAC060F0BBC003
:1006200061F0E80E0001626FFF0E0001636FE1EC04
:100630009CF00001605100016111D8A422D04DC08E
:1006400066F04E5062EC90F00001BE6FB6C0AFF0A5
:10065000B7C0B0F04C0E0001B16F000E0001B26FD8
:10066000010E0001B36FBEC0B4F0BCC066F0BDC0E7
:1006700067F0A2EC8DF0000166510001B56F7FECD0
:100680009CF0BAC060F0BBC061F0CE0E0001626F9A
:10069000FF0E0001636FE1EC9CF00001605100016E
:1006A0006111D8B412D0BAC060F0BBC061F0D50EF1
:1006B0000001626FFF0E0001636FE1EC9CF000012E
:1006C000605100016111D8A41CD0B6C0AFF0B7C012
:1006D000B0F04A0E0001B16F000E0001B26F000EC3
:1006E0000001B36F170E0001B46FBCC066F0BDC04F
:1006F00067F0A2EC8DF0000166510001B56F7FEC50
:100700009CF0BAC060F0BBC061F0F10E0001626FF6
:10071000FF0E0001636FE1EC9CF0000160510001ED
:100720006111D8B412D0BAC060F0BBC061F0C30E82
:100730000001626FFF0E0001636FE1EC9CF00001AD
:10074000605100016111D8A41CD0B6C0AFF0B7C091
:10075000B0F0490E0001B16F000E0001B26F000E43
:100760000001B36F3B0E0001B46FBCC066F0BDC0AA
:1007700067F0A2EC8DF0000166510001B56F7FECCF
:100780009CF0BAC060F0BBC061F0F30E0001626F74
:10079000FF0E0001636FE1EC9CF00001605100016D
:1007A0006111D8B412D0BAC060F0BBC061F0BC0E09
:1007B0000001626FFF0E0001636FE1EC9CF000012D
:1007C000605100016111D8A41200B6C0AFF0B7C0EB
:1007D000B0F0480E0001B16F000E0001B26F000EC4
:1007E0000001B36F3B0E0001B46FBCC066F0BDC02A
:1007F00067F0A2EC8DF0000166510001B56F7FEC4F
:100800009CF012000001FE510001D8A416D0010E88
:100810000001FE6F870E0001606F010E0001616F25
:10082000000E0001626F030E0001636F000E0001F5
:10083000656F640E646F3DEC9DF098C160F099C1E6
:1008400061F094EC8EF00001605100016111D8B4A8
:10085000120098C168F099C169F023EC94F003018B
:10086000676F76D1870E0001686F010E0001696F16
:10087000000E00016A6FE9EC92F096C168F097C132
:1008800069F0090E00016A6FE9EC92F0870E000131
:10089000606F010E0001616F94EC8EF0FF0E00019D
:1008A00060250301646FFF0E000161210301656F84
:1008B00096C16FF097C170F064C371F065C372F0B8
:1008C000020E0001736FBDEC9AF096C168F097C1FB
:1008D00069F00A0E00016A6FE9EC92F0000E030164
:1008E000686F02D00301682B870E0001686F010E4C
:1008F0000001696F23EC94F00001C96F0301685196
:10090000010D140EF324D96E010EF420DA6EC9C065
:10091000DFFFDF50D8A4E6D703016851010D140EA4
:10092000F324D96E010EF420DA6E000EDF6E000E95
:100930000301686F02D00301682B870E0001686F06
:10094000010E0001696F23EC94F00001C96F0301EF
:100950006851010D2D0EF324D96E010EF420DA6ECC
:10096000C9C0DFFFDF50D8A4E6D703016851010DED
:100970002D0EF324D96E010EF420DA6E000EDF6E18
:10098000000E0301686F02D00301682B870E00017F
:10099000686F010E0001696F23EC94F00001C96FCC
:1009A00003016851010D460EF324D96E010EF420A7
:1009B000DA6EC9C0DFFFDF50D8A4E6D70301685163
:1009C000010D460EF324D96E010EF420DA6E000EEE
:1009D000DF6E000E0301686F02D00301682B870EE3
:1009E0000001686F010E0001696F23EC94F00001B3
:1009F000C96F03016851010DE40EF324D96E020E94
:100A0000F420DA6EC9C0DFFFDF50D8A4E6D70301B7
:100A10006851010DE40EF324D96E020EF420DA6E53
:100A2000000EDF6E96C1BFF097C1C0F0140E00013A
:100A3000C16F010E0001C26F2D0E0001C36F010EC8
:100A40000001C46F460E0001C56F010E0001C66FA4
:100A5000E40E0001C76F020E0001C86F53EC93F063
:100A60001200870E0001686F010E0001696F000E11
:100A700000016A6FE9EC92F096C168F097C169F0E5
:100A8000200E00016A6FE9EC92F01200870E00015F
:100A9000686F010E0001696F1BEC99F096C16FF051
:100AA00097C170F0E40E0001716FFF0E0001726FCC
:100AB0004DEC9CF01200000E0301666F0ED096C143
:100AC0006FF097C170F0E40E0001716FFF0E00012E
:100AD000726F4DEC9CF00301662B870E0001606F76
:100AE000010E0001616F94EC8EF00301665100016C
:100AF000C96FCA6B000160510001C95D00016151FD
:100B00000001CA59D8A0DBD7870E0001606F010E23
:100B10000001616FD6EC9FF012001F0E03016765A4
:100B200012007F0E030167611200870E0001686FDB
:100B3000010E0001696F67C36AF0E9EC92F096C19B
:100B400068F097C169F067C36AF0E9EC92F01200AF
:100B500003016751080AD8B499D7050AD8B482D6D8
:100B60002D0AD8B47ED75F0AD8B4A5D7D6D7000E41
:100B70000001816F000E826F000E836F000E846F84
:100B8000000E00017F6F37D0010E0001856F0C0E43
:100B90000001856501D02DD085C066F000017F5130
:100BA00062EC90F000017B6F00017B5100016D6FE2
:100BB0006E6B6F6B706B800E0001716F510E726FF8
:100BC000010E736F000E746F3AEC9BF000016D51D3
:100BD0000001812700016E510001822300016F5145
:100BE0000001832300017051000184230001852B43
:100BF000CED700017F2B000120EE0AF07951D926D3
:100C00007A51DA22DE5000017F5DD8A0BDD7010EF7
:100C10000001806F32D080C066F0000120EE0AF043
:100C20007951D9267A51DA22DF5062EC90F0000136
:100C30007B6F00017B5100016D6F6E6B6F6B706B92
:100C4000800E0001716F510E726F010E736F000EF6
:100C5000746F3AEC9BF000016D5100018127000197
:100C60006E510001822300016F51000183230001B6
:100C70007051000184230001802B000120EE09F057
:100C80007951D9267A51DA22DE500001805DD8A050
:100C9000C2D7FF0E00017B6FFF0E00017C6F0001C9
:100CA00020EE08F07951D9267A51DA22DF5000017E
:100CB0007D6F7E6B00017B5100017D2700017C511F
:100CC00000017E237DC06DF07EC06EF00001000E3D
:100CD0006EBFFF0E6F6F706F800E0001716F510E4F
:100CE000726F010E736F000E746F3AEC9BF000018F
:100CF0006D510001812700016E5100018223000126
:100D00006F51000183230001705100018423000111
:100D100020EE06F07951D9267A51DA22DF5000010F
:100D20007B6F00017B5100016D6F6E6B6F6B706BA1
:100D3000100E0001716F0E0E726F000E736F000EB9
:100D4000746F3AEC9BF000016D51000181270001A6
:100D50006E510001822300016F51000183230001C5
:100D6000705100018423000120EE05F07951D9264D
:100D70007A51DA22DF5000017B6F00017B510001C4
:100D80006D6F6E6B6F6B706B3C0E0001716F000EC0
:100D9000726F000E736F000E746F3AEC9BF00001DF
:100DA0006D510001812700016E5100018223000175
:100DB0006F51000183230001705100018423000161
:100DC00020EE04F07951D9267A51DA22DF50000161
:100DD0007B6F00017B5100018127000E822383235A
:100DE000842379C0D9FF7AC0DAFF81C0DEFF82C0D8
:100DF000DEFF83C0DEFF84C0DEFF12000D0132057E
:100E0000D8A411D00D0130511F0B0009D8A40BD06C
:100E10000001D78F030E0D013119D8A402D0010EA5
:100E200001D0000E386E0D013251D8A412000D0110
:100E300030511F0B020AD8A412000D0134510F0BC0
:100E40000009D8B412000D0134510F0B156E030EBA
:100E500015601200200E3C18D8A412000001D78F94
:100E60000D0134BF1BD00D0134510F0B156E155001
:100E7000020DE00EF324D96E000EF420DA6EDECF00
:100E800019F0DDCF1AF00D0134510F0B156E15500E
:100E9000010DE90EF324D96E000E1AD00D01345164
:100EA0000F0B156E1550020DDA0EF324D96E000EDD
:100EB000F420DA6EDECF19F0DDCF1AF00D013451D7
:100EC0000F0B156E1550010DE60EF324D96E000EB2
:100ED000F420DA6EDF50186E18B002D0199401D0E9
:100EE00019840D0134BF0BD00D0134510F0B156E59
:100EF0001550020DE00EF324D96E000E0AD00D013C
:100F000034510F0B156E1550020DDA0EF324D96E05
:100F1000000EF420DA6E19C0DEFF1AC0DDFF030EEA
:100F20000D013119D8A42FD019C0D9FF1AC0DAFF8A
:100F3000DFAE1CD00D0134BF0BD00D0134510F0BAF
:100F4000156E1550010DE90EF324D96E000E0AD06E
:100F50000D0134510F0B156E1550010DE60EF324E3
:100F6000D96E000EF420DA6E0001DF8219C0D9FFBD
:100F70001AC0DAFF000EDB8419C0D9FF1AC0DAFFED
:100F8000000EDB8E1200040E191A19C0D9FF1AC008
:100F9000DAFFDFAE1BD019C0D9FF1AC0DAFF7F0E0F
:100FA000DF1619C0D9FF1AC0DAFF000EDB8C000E65
:100FB0000E6E050E0D6E19C00FF01AC010F0000E67
:100FC000126E020E116E2BEC9FF006D019C0D9FFE5
:100FD0001AC0DAFF000EDB8C040E191A18B206D004
:100FE00019C0D9FF1AC0DAFFDFAE31D00D0134BF0E
:100FF0000BD00D0134510F0B156E1550010DE90E7C
:10100000F324D96E000E0AD00D0134510F0B156E6A
:101010001550010DE60EF324D96E000EF420DA6EA1
:101020000001DF9219C0D9FF1AC0DAFF3B0EDF16AC
:10103000000E0E6E050E0D6E19C00FF01AC010F0E6
:10104000000E126E020E116E2BEC9FF006D019C02E
:10105000D9FF1AC0DAFF3B0EDF160D0134510F0B1A
:10106000156E1550010D260EF324166E0F0EF4208A
:10107000176E16C0D9FF17C0DAFFFE0EDF1612007A
:10108000000E0001896F010E00018A6F81C0D9FF37
:1010900082C0DAFFDECF8BF0DECF8CF0DECF8DF0BA
:1010A000DECF8EF08B0E0001796F000E00017A6F9B
:1010B0003C0E00017B6F7FEC92F0000120EE04F00B
:1010C0008151D9268251DA22000179C0DFFF8B0ECF
:1010D0000001796F000E00017A6F3C0E00017B6FFA
:1010E0007FEC92F0000120EE05F08151D92682516B
:1010F000DA22000179C0DFFF8B0E0001796F000E4C
:1011000000017A6F180E00017B6F7FEC92F00001F6
:1011100020EE06F08151D9268251DA22000179C0F1
:10112000DFFF8BC087F08CC088F087C085F088C057
:1011300086F0060E00018B27000E8C238D238E2354
:101140008B0E0001796F000E00017A6F070E00010F
:101150007B6F7FEC92F0000120EE07F08151D926E1
:101160008251DA22000179C0DFFF3FD08A848AC031
:1011700066F00001895162EC90F00001836F846B8E
:101180000001831F841F834B842B000187510001C2
:1011900083250001876F000188510001842100012F
:1011A000886F0C0E00018A19D8A419D0010E000115
:1011B0008A6F0001892B630E0001896512D081C0FE
:1011C000D9FF82C0DAFF800EDE5E130EDE5A190EE2
:1011D000DE5ABC0EDE5A000E0001896F02D00001FB
:1011E0008A2B8AC0FFF089C0FDF08AC066F000013A
:1011F000895162EC90F00001836F0001835100017E
:10120000875D000E8859D8B0B1D787C083F088C0F9
:1012100084F00001831F841F834B842B00018551C0
:10122000000183250101126F000186510001842114
:101230000101136F0001874B882B000120EE0AF09B
:101240008151D9268251DA2289C0DFFF000120EEC8
:1012500009F08151D9268251DA228AC0DFFF0001CC
:1012600020EE08F08151D9268251DA2287C0DFFFB3
:101270001200A0980001F2510001F311D8B413D06C
:10128000F2C0D9FFF3C0DAFF0001DFAE04D00001E5
:10129000676B672B02D00001676B0001675100018B
:1012A000686F696B05D0000E0001696F000E686FF2
:1012B0000001685100016911D8B402D0A088120061
:1012C000030E0001FA19D8A403D0000E0001FA6F32
:1012D0000001FA51D8A402D0A0881200020E000129
:1012E000FA19D8A417D0010E0001606F000E00019A
:1012F000616F000E0001626F000E0001636F020E4D
:10130000D1EC90F060C0F2F061C0F3F0030E000188
:10131000FA6F73D00001FA05D8A46FD0400E000117
:10132000FB6504D0400E00016B6F02D0FBC06BF078
:1013300000016B5100080001FB250001FB6FA40EAA
:101340000001EC6F020E0001ED6F6BC06AF000014E
:10135000F8510001D8B413D02AD0EFC0D9FFF0C0A3
:10136000DAFFECC0E1FFEDC0E2FFDFCFE7FF0001F5
:10137000EC4BED2B0001EF4BF02B00016A07000155
:101380006A510001D8B418D0E8D7EFC0D9FFF0C037
:10139000DAFFECC0E1FFEDC0E2FFDFCFE7FF0001C5
:1013A000EC4BED2B0001EF4BF02B00016A07000125
:1013B0006A510001D8A4E9D70001FB510001D8A46B
:1013C0000AD0400E00016B19D8A402D0020E01D041
:1013D000030E0001FA6F010E0001606FA40E000100
:1013E000616F020E0001626F6BC063F0020ED1EC00
:1013F00090F060C0F2F061C0F3F0A0881200A098F5
:10140000000E636E000E626E000E0F01266F270E37
:101410000001606F0F0E0001616F000E0001636F2D
:10142000000E626F000E0001656F020E646FC9EC62
:101430009EF0160E0F01396F9F0E0F01376F7B0E56
:101440000F01366F000E0001686F0B0E000168651A
:1014500001D010D000016851040D000EF324D96EA4
:101460000D0EF420DA6EDE6ADE6ADE6ADD6A0001E5
:10147000682BEBD7658C000E0F01386F6598659C63
:101480000CD06296000E0001D76F000E0001CE6FE7
:10149000000E0001D06F000ECF6F62B6F2D7010EC2
:1014A0003D6E010E3E6E000E396E000E3A6E000E5D
:1014B0000001F76F000E0001686F020E0001686501
:1014C00001D033D000016851020DDA0EF324D96E39
:1014D000000EF420DA6E000EDE6E000EDD6E0001EE
:1014E0006851020DE00EF324D96E000EF420DA6E7E
:1014F000000EDE6E000EDD6E00016851010DE60E7D
:10150000F324D96E000EF420DA6E000EDF6E0001B7
:101510006851010DE90EF324D96E000EF420DA6E45
:10152000000EDF6E0001682BC8D7080E0001DA6FCD
:101530000D0E0001DB6F160E0F01266F0D0E0D0153
:10154000036F300E026F080E0D01016F040E0D01C6
:10155000006F0D01008F000E546E000E3C6E1200E5
:10156000800E0D013019D8A41200C00E0001D76FF3
:1015700092D0300E0001D46FFE0E0001D56F000E28
:101580000001D96F120ED86F12000D013251D8A48C
:1015900049D00D013251020D670EF324F66EFD0E97
:1015A000F420F76EF86A000EF8220900F5CFD4F0A7
:1015B0000A00F5CFD5F0020E0001D425016E000E11
:1015C0000001D521026E01C0F6FF02C0F7FF000E38
:1015D000F86E0E0EF76403D00800F55005D0F6CF74
:1015E000E9FFF7CFEAFFEF500001D86F030E0001CB
:1015F000D425016E000E0001D521026E01C0F6FF58
:1016000002C0F7FF000EF86E0E0EF76403D008005C
:10161000F55005D0F6CFE9FFF7CFEAFFEF50000114
:10162000D96F1200000E0001D76F1200030E0D01DA
:10163000326129D00D013251020D610EF324F66E94
:10164000FD0EF420F76EF86A000EF8220900F5CFBF
:10165000D4F00A00F5CFD5F0D4C0F6FFD5C0F7FF1F
:10166000000EF86E0E0EF76403D00800F55005D09A
:10167000F6CFE9FFF7CFEAFFEF50016E015000010E
:10168000D86FD96B1200000E0001D76F1200000E48
:101690000001D76F12000D013351010AD8B469D788
:1016A000030AD8B472D7010AD8B4C0D7F0D73C0423
:1016B000D8B465BA08D0000E626E0F0136810F01F2
:1016C0003689020E3C6E62A406D00F0136A503D007
:1016D0006294E3EC9EF065A202D0A198120062A091
:1016E00009D00F0136A106D0FAEC8BF0A088040EC9
:1016F0003C6E629062A806D00F0136A903D06EEC52
:101700009FF0629862AC19D00F0136AD0ED0000E7A
:101710000E6E730E0D6E000E0F6E000E106E000E2C
:10172000126E010E116E2BEC9FF0629C3F50D8A4FC
:101730003F063F50D8B489EC94F062AA04D00F0160
:1017400036BBDBEC9DF062A212D00F0136A30FD0A6
:101750007F0E0E6E0D68000E0F6E000E106E000EE6
:10176000126E010E116E2BEC9FF0000E636E040ED4
:101770003C6002D0A19812000F0136A739D0000EAC
:101780001E6E030E1E6401D033D062A631D064CF2A
:1017900055F05530E832E8320F0B426E629655B480
:1017A00007D04250010DE90EF324D96E000E06D089
:1017B0004250010DE60EF324D96E000EF420DA6ECD
:1017C0000001DF704250D8A403D0BCEC93F00ED0DF
:1017D000000E0E6E720E0D6E550E0F6E000E106E18
:1017E000000E126E000E116E2BEC9FF01E2AC9D750
:1017F000A1981200A098000E636E000E626E000E9B
:101800000F01266F270E016E0F0E026E000E046E82
:10181000000E036E000E066E020E056E84EC9FF045
:10182000160E0F01396F9F0E0F01376F7B0E0F01E0
:10183000366F000E096E0B0E096401D00ED00950F0
:10184000040D000EF324D96E0D0EF420DA6EDE6A5C
:10185000DE6ADE6ADD6A092AEED7658C000E0F01AA
:10186000386F6598659C0CD06296000E0001D76FAA
:10187000000E0001CE6F000E0001D06F000ECF6F82
:1018800062B6F2D7010E3D6E010E3E6E000E396E4D
:10189000000E3A6E000E0001F76F000E096E020E88
:1018A000096401D02ED00950020DDA0EF324D96E4E
:1018B000000EF420DA6E000EDE6E000EDD6E0950B2
:1018C000020DE00EF324D96E000EF420DA6E000E45
:1018D000DE6E000EDD6E0950010DE60EF324D96EAA
:1018E000000EF420DA6E000EDF6E0950010DE90ED5
:1018F000F324D96E000EF420DA6E000EDF6E092A92
:10190000CED7080E0001DA6F0D0E0001DB6F160E48
:101910000F01266F0D0E0D01036F300E026F080EC2
:101920000D01016F040E0D01006F0D01008F000EFF
:10193000546E000E3C6E120020EE01F02F50D9269E
:101940003050DA22DF50026E02500001CF5D000EEF
:10195000D059D8A0CFC002F002500001CF5F000ED6
:10196000D05B000E016E12D00150010D380EF32431
:10197000D96E0D0EF420DA6ECBC0E1FFCCC0E2FFD1
:10198000DFCFE7FF0001CB4BCC2B012A0250015CDB
:10199000D8A0EAD70001CF510001D011D8B432D07D
:1019A00020EE01F03150D9263250DA22080EDF6ED7
:1019B00020EE02F03150D9263250DA22380EDE6E97
:1019C0000D0EDD6E2FC0D9FF30C0DAFFDFBC0DD0A9
:1019D00031C0D9FF32C0DAFF480EDF6E31C0D9FF07
:1019E00032C0DAFF000EDB8E120031C0D9FF32C0E8
:1019F000DAFF080EDF6E31C0D9FF32C0DAFF000E09
:101A0000DB8E120020EE01F03150D9263250DA225E
:101A1000080EDF6E20EE02F03150D9263250DA2265
:101A2000300EDE6E0D0EDD6E31C0D9FF32C0DAFF32
:101A3000040EDF6E31C0D9FF32C0DAFF000EDB8E3C
:101A40000001CE9F3B50D8A4120089EC94F0120004
:101A500065980001D7BF39D00001CEAF0BD0020E80
:101A6000406E3A50D8B482EC98F0000E3E6E000EF4
:101A70003D6E120020EE01F03150D9263250DA22AC
:101A8000080EDF6E20EE02F03150D9263250DA22F5
:101A9000300EDE6E0D0EDD6E31C0D9FF32C0DAFFC2
:101AA0000C0EDF6E31C0D9FF32C0DAFF000EDB8EC4
:101AB000DAC0D9FFDBC0DAFF040EDF6EDAC0D9FF6F
:101AC000DBC0DAFF000EDB8E12000D0130AF10D04C
:101AD000010E406E3950D8B482EC98F0000E3E6E84
:101AE000000E3D6E3B50D8A4120089EC94F0120019
:101AF000020E406E20EE01F03150D9263250DA222B
:101B0000080EDF6E20EE02F03150D9263250DA2274
:101B1000300EDE6E0D0EDD6E31C0D9FF32C0DAFF41
:101B2000040EDF6E31C0D9FF32C0DAFF000EDB8E4B
:101B3000000E3E6E000E3D6E3B50D8A4120089ECA4
:101B400094F0120003D00001664B672B66C0D9FFEA
:101B500067C0DAFF200EDE18D8B4F5D766C0D9FF0B
:101B600067C0DAFF090EDE18D8B4EDD7000E000109
:101B70006C6F000E6B6F000E00016A6F66C0D9FFBC
:101B800067C0DAFF2D0EDE18D8A403D000016A2B3F
:101B90002ED066C0D9FF67C0DAFF2B0EDE18D8A49E
:101BA00029D025D06BC060F06CC061F0000E000140
:101BB000636F0A0E626FAEEC9EF066C0D9FF67C01D
:101BC000DAFFDF500001686F696B000160510001AE
:101BD00068270001615100016923D00E00016825CA
:101BE00000016B6FFF0E0001692100016C6F0001A5
:101BF000664B672B66C0D9FF67C0DAFFDF509AECEF
:101C00009FF0D8B0CFD700016A510001D8B40ED0F0
:101C10006BC068F06CC069F00001681F691F684BF9
:101C2000692B68C066F069C067F012006BC066F08F
:101C30006CC067F012000D013039E832030B000967
:101C4000D8A412004FD00001D78F080E3C6E1200AE
:101C5000B0EC8AF01200F1EC8FF01200540E00018B
:101C6000D46F000E0001D56F0001D781010E000175
:101C7000D86F0001D78F1200C6EC96F01200FEEC70
:101C800086F012000D013451010D520EF3240001B3
:101C9000D46F000EF4200001D56F0001D781010E32
:101CA0000001D86F0001D78F12000001D78F0D01FE
:101CB0003451010D520EF324D96E000EF420DA6E69
:101CC00032CDDFFF1200000E0E6E020E0D6E000E02
:101CD0000F6E000E106E000E126E000E116E2BECC9
:101CE0009FF012000D013151000AD8B4C5D7010A86
:101CF000D8B4C5D7020AD8B4C2D7060AD8B4A3D775
:101D0000030AD8B4A5D7010AD8B4DDD70F0AD8B4CE
:101D1000A5D7010AD8B49FD7030AD8B4B3D7010A0C
:101D2000D8B4C3D7070A1200000120EE06F06051B4
:101D3000D9266151DA22000110EE04F06051E1264B
:101D40006151E222DE50E65CDE50E658D8A028D091
:101D5000000120EE04F06051D9266151DA22DECF75
:101D600062F0DDCF63F0000120EE06F06051D9266D
:101D70006151DA22DECF64F0DDCF65F00001641F2F
:101D8000651F644B652B0001625100016425000151
:101D9000606F00016351000165210001616F120055
:101DA000000120EE04F06051D9266151DA22DECF25
:101DB00062F0DDCF63F0000120EE02F06051D92621
:101DC0006151DA22DECF64F0DDCF65F0000120EE54
:101DD00006F06051D9266151DA22DECF66F0DDCF00
:101DE00067F00001661F671F664B672B0001645197
:101DF000000166270001655100016723000162515F
:101E0000000166250001606F000163510001672138
:101E10000001616F1200000E0001F96F0001F45122
:101E20000001F511D8B413D0F4C0D9FFF5C0DAFF22
:101E30000001DFAE04D000016A6B6A2B02D0000102
:101E40006A6B00016A5100016B6F6C6B05D0000E6C
:101E500000016C6F000E6B6F00016B5100016C1183
:101E6000D8A44BD0000120EE01F0F451D926F55151
:101E7000DA2200016951DE5CD8B00AD0000120EE00
:101E800001F0F451D926F551DA22DF500001696FD3
:101E9000000E0001F96F18D00001F951010D640E18
:101EA000F324D96E020EF420DA6E0001F951010D0F
:101EB000F35000016725E16EF45000016821E26EE5
:101EC000DFCFE7FF0001F92B000169510001F95D47
:101ED000D8A0E2D7000E0001606F640E0001616FB0
:101EE000020E0001626F400E0001636F020ED1EC22
:101EF00090F060C0F4F061C0F5F00001F9511200FB
:101F000093ECA0F0100E926E310E936EBA0E946E9A
:101F10000F0148691F0E0F01496FF19E060E3DEC3F
:101F20009EF0020E0001606F000E67EC9DF0020E45
:101F300058EC9FF08AECA0F0F0EC99F01AEC9CF0D1
:101F40003BECA0F07F0E0001606F010E0001616F9D
:101F5000B50E0001626F070E0001636F030E0001F2
:101F6000656FE80E646F3DEC9DF0770E0001606FC9
:101F7000010E0001616F000E0001626F020E000190
:101F8000636F000E0001656F640E646F3DEC9DF0A1
:101F9000FCEC9FF06F0E0001606F010E0001616F9D
:101FA000CD0E0001626F030E0001636F030E00018E
:101FB000656FE80E646F3DEC9DF0670E0001606F89
:101FC000010E0001616F690E0001626F030E0001D6
:101FD000636F000E0001656F640E646F3DEC9DF051
:101FE00012000001D78F270E016E0F0E026E000E39
:101FF000046E000E036E000E066E020E056E84EC7B
:102000009FF0000E016E0D0E026E000E046E000EAB
:10201000036E000E066E300E056E84EC9FF0658C2C
:10202000000E156E020E156401D016D01550010D6C
:10203000E60EF324D96E000EF420DA6E000EDF6E89
:102040001550010DE90EF324D96E000EF420DA6E5E
:10205000000EDF6E152AE6D7520E016E000E026EDC
:10206000000E046E000E036E000E066E020E056E6C
:1020700084EC9FF0659C080E0001DA6F0D0E0001E4
:10208000DB6F000E2F6E0D0E306E2FC031F030C0A2
:1020900032F032CD54F05450D8A403D0100E3C6E20
:1020A0001200000E0E6E010E0D6E540E0F6E000E1D
:1020B000106E000E126E010E116E2BEC9FF0200EB2
:1020C0003C6E120000016B6F020E00016619D8A46D
:1020D0003ED06BC060F00001616B000E0001636FC9
:1020E000640E626F31EC98F00001605100016111E3
:1020F000D8A402D0010E01D0000E00080001676FC5
:102100006BC060F00001616B010E0001636F900E07
:10211000626F31EC98F00001605100016111D8A4A8
:1021200004D00001686B682B02D00001686B6BC0A3
:1021300069F0030E00016917D8A402D0010E01D086
:10214000000E00016825000167251C0F1200000128
:102150006651010B0001676F686B0001671F681F04
:10216000674B682B000166510001696F6A6B0001C3
:1021700067510001691B0001685100016A1B0D0EC7
:1021800000016917000E6A17040E000169190001A9
:102190006A11D8A402D0010E01D0000E00081F0F52
:1021A00012000001646F000160510001D8B408D032
:1021B00000016451020DDA0EF324D96E000E07D02F
:1021C00000016451020DE00EF324D96E000EF420DC
:1021D000DA6EDECF65F0DDCF66F0000165510001FB
:1021E0006611D8A407D0000E0001606F000E000138
:1021F000616F1200000120EE02F06551D926665190
:10220000DA2261C0DEFF62C0DDFF000120EE01F0D6
:102210006551D9266651DA2263C0DFFF65C0D9FF58
:1022200066C0DAFF400EDF1665C0D9FF66C0DAFF70
:10223000000EDB8665C0D9FF66C0DAFF000EDB8EBC
:10224000000160510001D8B408D000016451020DB2
:10225000DA0EF324D96E000E07D000016451020D8E
:10226000E00EF324D96E000EF420DA6E040EDF1AAD
:1022700065C060F066C061F01200080E016E0001DA
:10228000D95111E1080E0001D85DD8B00CD0D8C0EA
:1022900001F04350D8A402D0010E04D04304D8A4C6
:1022A00002D0020E436E01500001D85F000ED95BD0
:1022B000000120EE01F0DA51D926DB51DA2201C00B
:1022C000DFFF380E336E0D0E346E0001D7A11DD026
:1022D0003CD0D4C0F6FFD5C0F7FF000EF86E33C077
:1022E000D9FF34C0DAFF0E0EF76403D00800F550B2
:1022F00005D0F6CFE9FFF7CFEAFFEF50DF6E000120
:10230000D44BD52B334A342A01060150D8B41200DD
:10231000E0D7D4C0F6FFD5C0F7FF000EF86E33C08B
:10232000D9FF34C0DAFF0E0EF76403D00800F55071
:1023300005D0F6CFE9FFF7CFEAFFEF50DF6E0001DF
:10234000D44BD52B334A342A01060150D8B412009D
:10235000E0D70F013FB9FDD70F013F810F013F8348
:10236000000120EE0AF06951D9266A51DA22DF50C5
:10237000AFEC9FF00F013A6F000E0F013B6F0F01A2
:102380003F910F013F83000120EE08F06951D926EB
:102390006A51DA22DF50AFEC9FF00F013A6F000173
:1023A00020EE09F06951D9266A51DA22DF50AFECEC
:1023B0009FF00F013B6F0F013F810F013F93000121
:1023C00020EE06F06951D9266A51DA22DF50AFECCF
:1023D0009FF00F013A6F000120EE07F06951D926F6
:1023E0006A51DA22DF50AFEC9FF00F013B6F0F0113
:1023F0003F910F013F93000120EE04F06951D9266F
:102400006A51DA22DF50AFEC9FF00F013A6F000102
:1024100020EE05F06951D9266A51DA22DF50AFEC7F
:102420009FF00F013B6F12000D0130511F0BE806AA
:10243000D8A412000D013039E832030BE806D8A405
:1024400012000D013451D8B448D00D013405D8A480
:10245000120043D05F0E0001D46F010E0001D56F52
:10246000000E0001D96F080ED86F0001D78100015E
:10247000D78F12005F0E0001D46F010E0001D56FDF
:102480000001D78F120036CDCFF037CDD0F08F0EB0
:102490000001CB6F010E0001CC6F000E0001D16F67
:1024A000000E0001D26F000E0001D36F0001CE8F2D
:1024B00012008F0E0001D46F010E0001D56F000EC7
:1024C0000001D96F070ED86FC10E0001D76F12003F
:1024D00032CD41F00001D78F12000D013151000AB9
:1024E000D8B4B8D7010AD8B4C5D7210AD8B4CBD745
:1024F000010AD8B4DED7030AD8A41200E9D779C0FC
:10250000D9FF7AC0DAFFDECF7DF0DECF7EF0DECFFE
:102510007FF0DECF80F000017B510001646F656BBE
:10252000666B676B7DC060F07EC061F07FC062F05B
:1025300080C063F0ACEC95F079C0D9FF7AC0DAFFC7
:10254000000160C0DEFF000161C0DEFF000162C06B
:10255000DEFF000163C0DDFFDD52DD52DECF6DF036
:10256000DECF6EF0DECF6FF0DECF70F000017B517A
:102570000001716F726B736B746B3AEC9BF000012E
:102580006D1F00016E1F00016F1F0001701F000111
:102590006D2B000E00016E2300016F2300017023DC
:1025A00000017D5100016D250001796F00017E5110
:1025B00000016E2100017A6F00017F5100016F213F
:1025C00000017B6F000180510001702100017C6FD0
:1025D000120068C060F069C061F094EC8EF00001F8
:1025E00020EE02F06851D9266951DA22DE5000014E
:1025F000605DDE5000016159D8B01200000120EE8C
:1026000004F06851D9266951DA22DECF6BF0DDCFB4
:102610006CF068C0D9FF69C0DAFFDECF6DF0DDCFA6
:102620006EF000016B5100016D25D96E00016C51F7
:1026300000016E21DA6E6AC0DFFF000120EE02F0B9
:102640006851D9266951DA22000110EE04F0685170
:10265000E1266951E222E6CF6DF0E5CF6EF0010E82
:1026600000016D27000E6E23DE5000016D5DDE500F
:1026700000016E59D8B00BD0000120EE04F0685173
:10268000D9266951DA22DE2A000EDD22120000016D
:1026900020EE04F06851D9266951DA22000EDE6E70
:1026A000000EDD6E1200C1C060F0C2C061F0DF0E2E
:1026B0000001626FFF0E0001636FE1EC9CF000010E
:1026C000605100016111D8B412D0C1C060F0C2C025
:1026D00061F0FD0E0001626FFF0E0001636FE1EC1F
:1026E0009CF00001605100016111D8A40CD0BFC062
:1026F0006FF0C0C070F0460E0001716FFE0E000159
:10270000726F4DEC9CF0BFC0B6F0C0C0B7F0C1C056
:10271000B8F0C2C0B9F0C3C0BAF0C4C0BBF0C5C005
:10272000BCF0C6C0BDF02DEC82F0C1C060F0C2C0EC
:1027300061F0920E0001626FFF0E0001636FE1EC29
:102740009CF00001605100016111D8B4FF00C1C0CC
:1027500060F0C2C061F09B0E0001626FFF0E0001CD
:10276000636FE1EC9CF00001605100016111D8A49D
:102770001200FEEC9DF012002D0E3F6E55C01BF0B6
:10278000FD0E1B16D8A457D055C01BF0D8901B3295
:102790003F0E1B161B50040D000EF3242F6E0D0E62
:1027A000F420306E2FC031F030C032F0040E311AF8
:1027B0002FC0D9FF30C0DAFFDF30E8320F0B0D0A2F
:1027C000D8A436D0000E1D6E070E1D6401D023D094
:1027D00020EE02F02F50D9263050DA22DECF1BF047
:1027E000DDCF1CF01BC0D9FF1CC0DAFF1D50010D4E
:1027F000300EF324E16E0D0EF420E26EDFCFE7FF22
:1028000020EE02F02F50D9263050DA22DE2A000EB8
:10281000DD221D2AD9D720EE02F02F50D9263050C4
:10282000DA22300EDE6E0D0EDD6EA9EC99F012008C
:102830000FEC9DF012005550FD0B040AD8A41200B5
:10284000EBEC94F0120068C060F069C061F094ECA9
:102850008EF00001605100016111D8B458D0000120
:1028600020EE06F06851D9266951DA22DECF6AF0EF
:10287000DDCF6BF068C0D9FF69C0DAFFDECF6CF046
:10288000DDCF6DF000016A5100016C25D96E0001A9
:102890006B5100016D21DA6EDF5000016E6F000197
:1028A00020EE02F06851D9266951DA22000110EEBB
:1028B00006F06851E1266951E222E6CF6CF0E5CFDF
:1028C0006DF0010E00016C27000E6D23DE5000013B
:1028D0006C5DDE5000016D59D8B00BD0000120EEC8
:1028E00006F06851D9266951DA22DE2A000EDD226F
:1028F0000BD0000120EE06F06851D9266951DA228A
:10290000000EDE6E000EDD6E00016E511200000E34
:1029100012003D50D8A41200010E3D6E3E50D8A4C6
:102920001200010E3E6E020E4018D8A416D000010F
:1029300020EE01F0DA51D926DB51DA22000EDF6EEB
:10294000DAC0D9FFDBC0DAFF480EDF6EDAC0D9FF8C
:10295000DBC0DAFF000EDB8E12004004D8A41200A8
:10296000000E376E20EE01F02F50D9263050DA22BB
:10297000080EDF6E20EE02F02F50D9263050DA22FA
:10298000300EDE6E0D0EDD6E2FC0D9FF30C0DAFFC7
:10299000040EDF6E2FC0D9FF30C0DAFF000EDB8ED1
:1029A000010E376E20EE01F03150D9263250DA2276
:1029B000080EDF6E20EE02F03150D9263250DA22B6
:1029C000300EDE6E0D0EDD6E31C0D9FF32C0DAFF83
:1029D000800EDF6E1200DAC0D9FFDBC0DAFF000E16
:1029E000DFBC010E026E040E0001DA1B080E3C185B
:1029F000D8A40DD00D0132517F0B0F01386F0F019C
:102A00003851D8B402D0100E01D0040E3C6E4004F0
:102A1000D8A43BD0000120EE02F0DA51D926DB51D8
:102A2000DA22380EDE6E0D0EDD6E3DEC91F0020EF8
:102A30004318D8A40DD0DAC0D9FFDBC0DAFF040EEA
:102A4000DF6EDAC0D9FFDBC0DAFF000EDB8E1200CA
:102A50000250D8A40DD0DAC0D9FFDBC0DAFF480E8F
:102A6000DF6EDAC0D9FFDBC0DAFF000EDB8E1200AA
:102A7000DAC0D9FFDBC0DAFF080EDF6EDAC0D9FF9B
:102A8000DBC0DAFF000EDB8E12000001CEAF02D0F9
:102A90000001CE9F000E406E1200000E0001656F17
:102AA000000163AF08D00001626D631FD8B0632BD3
:102AB000010E0001656F000161AF08D00001606D7B
:102AC000611FD8B0612B010E0001651B000E0001D3
:102AD000676F000E666F0001625100016311D8B488
:102AE0002CD0010E0001646F06D00001D89062372F
:102AF00063370001642B000163AFF7D70001D89062
:102B000066376737000162510001605D0001635163
:102B100000016159D8A00AD0000162510001605F34
:102B2000000163510001615B000166810001D890E2
:102B3000633362330001642FE1D700016551000166
:102B4000D8B405D00001666D671FD8B0672B66C08A
:102B500060F067C061F01200000E0001686F000EA7
:102B6000696F000E6A6F000E6B6F00016451000107
:102B700065110001661100016711D8B442D0010E41
:102B800000016C6F08D00001D89064376537663754
:102B9000673700016C2B000167AFF5D70001D890B3
:102BA000683769376A376B37000164510001605D2F
:102BB000000165510001615900016651000162592F
:102BC0000001675100016359D8A012D0000164517F
:102BD0000001605F000165510001615B0001665109
:102BE0000001625B000167510001635B00016881C5
:102BF0000001D890673366336533643300016C2F6E
:102C0000CDD768C060F069C061F06AC062F06BC087
:102C100063F012000F013FB9FDD70F013F810F0193
:102C20003F83000120EE0AF06251D9266351DA2277
:102C30000F013A511CECA0F0DF6E3BCF64F00001B5
:102C400020EE08F06251D9266351DA220F013A5181
:102C50001CECA0F0DF6E000120EE09F06251D926D5
:102C60006351DA220F013B511CECA0F0DF6E000132
:102C700020EE06F06251D9266351DA220F013A5153
:102C80001CECA0F0DF6E000120EE07F06251D926A7
:102C90006351DA220F013B511CECA0F0DF6E000102
:102CA00020EE04F06251D9266351DA220F013A5125
:102CB0001CECA0F0DF6E000120EE05F06251D92679
:102CC0006351DA220F013B511CECA0F0DF6E1200C1
:102CD00020EE06F00150D9260250DA2210EE04F060
:102CE0000150E1260250E222DE50E65CDE50E6585A
:102CF000D8A01FD020EE04F00150D9260250DA22CD
:102D0000DECF03F0DDCF04F020EE06F00150D9262F
:102D10000250DA22DECF05F0DDCF06F0051E061EDA
:102D2000054A062A03500524016E04500620026E4F
:102D3000120020EE04F00150D9260250DA22DECF34
:102D400003F0DDCF04F020EE02F00150D92602504E
:102D5000DA22DECF05F0DDCF06F020EE06F00150DE
:102D6000D9260250DA22DECF07F0DDCF08F0071EA9
:102D7000081E074A082A0550072606500822035055
:102D80000724016E04500820026E1200000E0D018F
:102D9000386F000E0D01396F3BD00001D78F38041A
:102DA000D8A442D00D0138833FD00001D78F3CD04A
:102DB0000001D78F0D0134BF0BD00D0134510F0B23
:102DC000016E0150020DE00EF324D96E000E0AD000
:102DD0000D0134510F0B016E0150020DDA0EF32478
:102DE000D96E000EF420DA6EDECF02F0DDCF03F0F4
:102DF00002C0D9FF03C0DAFFDFAE16D002C0D9FF90
:102E000003C0DAFFDFA410D0010E0D01386F0CD023
:102E10000D0130511F0B000AD8B4BFD7010AD8B436
:102E2000C4D7030AD8B4C4D70001D7AF1200380EF4
:102E30000001D46F0D0E0001D56F0001D781020E85
:102E40000001D86F1200056E0150D8B407D00550AC
:102E5000020DDA0EF324D96E000E06D00550020DD5
:102E6000E00EF324D96E000EF420DA6EDECF06F009
:102E7000DDCF07F006500710D8A405D0000E016E74
:102E8000000E026E120020EE02F00650D926075006
:102E9000DA2202C0DEFF03C0DDFF20EE01F00650A3
:102EA000D9260750DA2204C0DFFF06C0D9FF07C0C9
:102EB000DAFF400EDF1606C0D9FF07C0DAFF000EAA
:102EC000DB8606C0D9FF07C0DAFF000EDB8E01509B
:102ED000D8B407D00550020DDA0EF324D96E000ED7
:102EE00006D00550020DE00EF324D96E000EF4203A
:102EF000DA6E040EDF1A06C001F007C002F01200FD
:102F000009C001F00AC002F068EC96F020EE02F071
:102F10000950D9260A50DA22DE50015CDE500258F0
:102F2000D8B0120020EE04F00950D9260A50DA2257
:102F3000DECF0CF0DDCF0DF009C0D9FF0AC0DAFFFB
:102F4000DECF0EF0DDCF0FF00C500E24D96E0D50F9
:102F50000F20DA6E0BC0DFFF20EE02F00950D926F9
:102F60000A50DA2210EE04F00950E1260A50E2225B
:102F7000E6CF0EF0E5CF0FF0010E0E26000E0F2269
:102F8000DE500E5CDE500F58D8B00AD020EE04F0B0
:102F90000950D9260A50DA22DE2A000EDD2212005C
:102FA00020EE04F00950D9260A50DA22000EDE6E17
:102FB000000EDD6E120009C001F00AC002F068ECDC
:102FC00096F001500210D8B44AD020EE06F0095015
:102FD000D9260A50DA22DECF0BF0DDCF0CF009C083
:102FE000D9FF0AC0DAFFDECF0DF0DDCF0EF00B50B7
:102FF0000D24D96E0C500E20DA6EDF500F6E20EECD
:1030000002F00950D9260A50DA2210EE06F00950D3
:10301000E1260A50E222E6CF0DF0E5CF0EF0010ED8
:103020000D26000E0E22DE500D5CDE500E58D8B07C
:103030000AD020EE06F00950D9260A50DA22DE2AFC
:10304000000EDD220AD020EE06F00950D9260A50E3
:10305000DA22000EDE6E000EDD6E0F501200000E42
:103060001200000E0001656F000161AF08D0000181
:10307000606D611FD8B0612B010E0001656F00010A
:1030800063AF05D00001626D631FD8B0632B0001F0
:10309000625100016311D8B426D0010E0001646FA3
:1030A00006D00001D890623763370001642B00011D
:1030B00063AFF7D7000162510001605D0001635109
:1030C00000016159D8A008D0000162510001605F81
:1030D000000163510001615B0001D89063336233EA
:1030E0000001642FE7D7000165510001D8B405D075
:1030F0000001606D611FD8B0612B60C060F061C0DD
:1031000061F01200000E396E000E3A6E020E401889
:10311000D8A41FD020EE01F03150D9263250DA2247
:10312000080EDF6E20EE02F03150D9263250DA223E
:10313000380EDE6E0D0EDD6E31C0D9FF32C0DAFF03
:10314000480EDF6E31C0D9FF32C0DAFF000EDB8ED1
:1031500012000001D8510D01365D0001D9510D0159
:103160003759D8B004D036CDD8F037CDD9F03DECB2
:1031700091F0000120EE02F0DA51D926DB51DA227B
:10318000380EDE6E0D0EDD6EDAC0D9FFDBC0DAFF61
:10319000480EDF6EDAC0D9FFDBC0DAFF000EDB8E2F
:1031A0001200066E000E076E0D0E086E0150026EC4
:1031B000036AD890023603360650046E056AD8902A
:1031C00004360536D89004360536025004260350DE
:1031D0000522D89004360536D890043605360450BA
:1031E00007260550082207C0D9FF08C0DAFFDF9E76
:1031F0000150D8A407D00650020DE00EF324D96E7A
:10320000000E06D00650020DDA0EF324D96E000E21
:10321000F420DA6E07C0DEFF08C0DDFF07C0D9FF6B
:1032200008C0DAFFDF9C20EE04F00750D9260850D2
:10323000DA22DF8C120068C060F069C061F094ECA3
:103240008EF00001605100016111D8B4120000013C
:1032500020EE04F06851D9266951DA22DE50DE10E2
:10326000D8B40BD0000120EE04F06851D926695182
:10327000DA22DE06000EDD5A1200FF0E00016A6F30
:10328000FF0E00016B6F000120EE02F06851D9269D
:103290006951DA22DECF6CF0DDCF6DF000016A51AA
:1032A00000016C2700016B5100016D23000120EE2D
:1032B00004F06851D9266951DA226CC0DEFF6DC076
:1032C000DDFF1200760E00016D6F000E00016E6FC3
:1032D000000E0001706F010E6F6F8FEC9DF06DC0DE
:1032E00074F06EC075F00001745100017511D8B40E
:1032F0000AD0770E0001686F010E0001696F76C079
:103300006AF0E9EC92F07F0E0001606F010E00019F
:10331000616F94EC8EF00001605100016111D8B42E
:1033200012007F0E0001686F010E0001696F23EC2F
:1033300094F00001766F760E00016C6F000E0001B4
:103340006D6F000E00016F6F010E6E6F14EC9FF039
:103350001200000E436E000E3B6E000E396E000E22
:103360003A6E000E376E000E406EDAC0D9FFDBC039
:10337000DAFF7F0EDF16040E0001DA1BDAC0D9FF78
:10338000DBC0DAFF7F0EDF16040E0001DA1B31C04E
:10339000D9FF32C0DAFF7F0EDF16000E0001D76FB3
:1033A000000E0001D96F000ED86F000E0001CE6F25
:1033B000000E0001D06F000ECF6F1BEC8EF0000EE0
:1033C0000E6E030E0D6E000E0F6E000E106E000ED0
:1033D000126E000E116E2BEC9FF028EC8DF0120097
:1033E000000E0001686F270E0001686501D00CD047
:1033F000100E0001676F940EE82EFED7672FFCD7E2
:1034000000D00001682BEFD7380E76EC9EF0390E15
:1034100076EC9EF0140E76EC9EF0700E76EC9EF03C
:10342000560E76EC9EF06C0E76EC9EF0000E0001CF
:10343000696F270E0001696501D00CD0100E0001E4
:10344000676F940EE82EFED7672FFCD700D00001DF
:10345000692BEFD7380E76EC9EF00C0E76EC9EF0D2
:10346000060E76EC9EF064ECA0F01200440E000113
:10347000866F000E0001876F71ECA0F0910E0001C5
:103480006C6F000E00016D6F310E00016E6FFF0E4C
:1034900000016F6F4EC070F00001716B4DC072F093
:1034A0000001736B4CC074F00001756B4B50040D40
:1034B000140EF3240001766FFE0EF4200001776FE6
:1034C0004AC078F00001796B49C07AF000017B6B4B
:1034D00048C07CF000017D6B00EC80F08FC06FF085
:1034E00090C070F0910E0001716F000E0001726FBC
:1034F0004DEC9CF0120003EECDF017EED0F0EE6A2A
:10350000E550E150FCE1E250FAE103EE69F0640EAF
:10351000EE6AE806FDE102EE00F0FD0EEE6AE80656
:10352000FDE101EE00F0960EEE6AE806FDE100EE28
:10353000CBF0340EEE6AE806FDE100EE2DF0290E28
:10354000EE6AE806FDE1460EF66E410EF76E010EDC
:10355000F86E0900F5CFFFF0440EF66E410EF76EDF
:10356000010EF86E0900F5CF56F00900F5CF57F0BF
:1035700058905892000175EF9BF039D071C075F0EA
:1035800072C076F0000E0001746F11D075C060F04B
:1035900076C061F0000E0001636F0A0E626FFEECF0
:1035A0009AF060C075F061C076F00001742B0001E4
:1035B00073510001745DD8A0E9D775C067F076C07B
:1035C00068F0000E00016A6F0A0E696FB0EC9CF0A3
:1035D00067C075F068C076F06FC068F070C069F0C1
:1035E00000017551300F00016A6FE9EC92F00001A3
:1035F000730700017329D8B41200C0D7000E000170
:10360000666F000E656F0001625100016311D8B44E
:103610002CD0010E0001646F06D00001D8906237F3
:1036200063370001642B000163AFF7D70001D89026
:1036300065376637000162510001605D000163512A
:1036400000016159D8A00AD0000162510001605FF9
:10365000000163510001615B000165810001D890A8
:10366000633362330001642FE1D765C060F066C048
:1036700061F01200000E0001756F000E766F000EF3
:10368000776F000E786F00016DA110D000017151AD
:10369000000175270001725100017623000173516A
:1036A0000001772300017451000178230001D890B4
:1036B00071377237733774370001D89070336F33B6
:1036C0006E336D3300016D5100016E1100016F11F9
:1036D00000017011D8A4D7D775C06DF076C06EF018
:1036E00077C06FF078C070F0120080EC8FF064EC5F
:1036F000A0F0000E0001666F000E42EC9FF0750E08
:103700000001646FFF0E0001656FE5EC9BF0010E98
:103710000001666F000E42EC9FF0A40E0001646F82
:10372000FF0E0001656FE5EC9BF015D0F29E62EC98
:1037300099F00CECA0F092EC9EF07F0E0101966FD8
:10374000010E0101976F770E0101986F010E0101C3
:10375000996F02EC84F0F28EE9D7000E01018F6FB1
:103760004B0E906F000E916F000E926F000E0101D4
:10377000936F000E0101946F080E0101956F000E0A
:103780000001F96F1A0E096E010E1FEC9EF01E0E5D
:10379000096E020E1FEC9EF0000E016E640E026EAA
:1037A000020E036E400E046E020E23EC97F001C071
:1037B000F4F002C0F5F0000E0001F26F000E0001FF
:1037C000F36F000E0001FA6F1200000E0001626F2D
:1037D0003E0EFCEC9EF00001666F00016651000198
:1037E000676F686B0001675100016811D8A41FD092
:1037F000400E7EECA0F010D064C0F6FF65C0F7FF6D
:10380000000EF86E0800F5507EECA0F00001644B4D
:10381000652B680EE82EFED764C0F6FF65C0F7FF83
:10382000000EF86E0800F5500009D8A4E5D79AEC10
:10383000A0F012000F013F8B0F013FBB06D0550EC9
:10384000A76EAA0EA76E0F013F8B0F013F8F0F01CE
:103850003F950F013C830F013C85000E0F013E6F29
:10386000CD86440E0001866F000E0001876F71EC5B
:10387000A0F04C50D8A41200000E446E000E456E0D
:10388000000E466E000E476E440E00018F6F000E54
:103890000001906F57ECA0F012001CD06FC068F0D0
:1038A00070C069F071C0F6FF72C0F7FF000EF86ECD
:1038B0000E0EF76403D00800F55005D0F6CFE9FFEF
:1038C000F7CFEAFFEF5000016A6FE9EC92F00001D8
:1038D000714B722B71C0F6FF72C0F7FF000EF86ECD
:1038E0000E0EF76403D00800F55005D0F6CFE9FFBF
:1038F000F7CFEAFFEF500009D8B41200CFD700018C
:10390000B3510001B55DD8A01ED00001B551000132
:10391000B45DD8A018D0B1C0D9FFB2C0DAFFB5C02D
:10392000DFFF440E00018F6F000E0001906FC3ECAB
:103930009FF0010E0001FC6FAFC08FF0B0C090F09F
:1039400036EC9AF01200AFC06FF0B0C070F0AD0E60
:103950000001716FFF0E0001726F4DEC9CF01200C0
:103960000001695100016A11D8B426D0010E00018E
:103970006B6F06D00001D89069376A3700016B2B56
:1039800000016AAFF7D7000169510001675D0001CE
:103990006A5100016859D8A008D00001695100019E
:1039A000675F00016A510001685B0001D8906A33CB
:1039B000693300016B2FE7D767C067F068C068F014
:1039C000120006D00001604B612B0001624B632B9B
:1039D00060C0D9FF61C0DAFFDF500001646F62C0D0
:1039E000F6FF63C0F7FF000EF86E0800F550000800
:1039F000000164250001656F00016551D8A407D05E
:103A000060C0D9FF61C0DAFFDF50D8A4DBD7000166
:103A100065510001606F616B60BF61071200020EAB
:103A20004018D8A403D09CEC8CF01200000E406E1D
:103A30003750D8A41FD020EE01F03150D926325093
:103A4000DA22080EDF6E20EE02F03150D926325015
:103A5000DA22300EDE6E0D0EDD6E31C0D9FF32C0BF
:103A6000DAFF0C0EDF6E31C0D9FF32C0DAFF000E74
:103A7000DB8E1200000E376E120060C0D9FF61C0ED
:103A8000DAFF62C0DEFF63C0DDFF000120EE02F05E
:103A90006051D9266151DA2264C0DEFF65C0DDFFC6
:103AA000000120EE04F06051D9266151DA22000EA7
:103AB000DE6E000EDD6E000120EE06F06051D926AC
:103AC0006151DA22000EDE6E000EDD6E1200000182
:103AD000626F60C061F00001613B61476147CD509A
:103AE000000161193F0B6119CD6E020E00016019D2
:103AF000D8A402D0CD8601D0CD9662C061F000017D
:103B0000613BCD5000016119CF0B6119CD6ECD84A1
:103B1000CD92CD809F909E909D80F28C120049ECBA
:103B2000A0F00009D8A408D0000E00016E6F000EAE
:103B30006D6F120039EC89F00001FA51D8A4FAD760
:103B40006DC067F06EC068F06FC069F00BEC8FF06D
:103B50000001716F000171510001726F736B39ECDC
:103B600089F072C06DF073C06EF012009DB89EA80F
:103B700013D06F0E016E010E026E68EC96F00150CC
:103B80000210D8B408D06F0E096E010E0A6EDBEC7D
:103B900097F0AE6E01D09D989DAA12009EAA1200C9
:103BA000AFCF10F0670E096E010E0A6E10C00BF059
:103BB00080EC97F012000F0126A11ED02FC0D9FF74
:103BC00030C0DAFF800EDE18D8A414D0DAC0D9FFD6
:103BD000DBC0DAFF840EDE18D8A40CD02FC0D9FFCA
:103BE00030C0DAFF0C0EDF6E2FC0D9FF30C0DAFF15
:103BF000000EDB8E0F012691629A120064ECA0F099
:103C0000000E0001666F000E42EC9FF0720E000184
:103C1000646FFF0E0001656FE5EC9BF0010E000183
:103C2000666F000E42EC9FF0560E0001646FFF0EAF
:103C30000001656FE5EC9BF00EEF00F012000C6EDA
:103C400009A405D0000E016E0C50D1EC98F009A229
:103C500005D0010E016E0C50D1EC98F00C50010D06
:103C6000260EF3240A6E0F0EF4200B6E0AC0D9FF45
:103C70000BC0DAFF09C0DFFF12000001616FD58EB3
:103C8000D58CD59A000161510001D8A402D0D58607
:103C90000CD0D59661C060F0FF0E00016027D550B2
:103CA00000016019F80B6019D56EF28AF294F19454
:103CB000F28C12003C50D8A41200000E656E000E6B
:103CC0000F01366F160E0F01396F9F0E0F01376F00
:103CD0007B0E0F01366FD08EA288A088F28E01D0A5
:103CE000658665A6FDD7010E3C6E12000001646F6B
:103CF000000E0001626F3E0EFCEC9EF00001656F4D
:103D0000000165510001D8A407D0800E7EECA0F020
:103D1000000164517EECA0F09AECA0F0680EE82E51
:103D2000FED712000F013FB9FDD7000E3FB7010EBD
:103D3000506E0001F6515018D8B4120050C0F6F081
:103D400050C04FF0010E0001FC6F440E0001866F61
:103D5000000E0001876F71ECA0F0120000016051AD
:103D600000016203F3CF64F0F4CF65F0000160510D
:103D700000016303F3500001652700016151000158
:103D80006203F3500001652764C060F065C061F014
:103D9000120060C066F061C067F009D066C0D9FF4C
:103DA00067C0DAFF62C0DFFF0001664B672B0001CE
:103DB0006407D8A0650700016429F0E100016529C6
:103DC000D8B41200EBD7000E0001F76F000E0E6E94
:103DD000740E0D6E000E0F6E000E106E000E126E41
:103DE000000E116E2BEC9FF065920F01369501D0FD
:103DF000629462A41200FCD70001636F050E2CECE4
:103E0000A0F0C580050E2CECA0F09E960001635139
:103E1000632500016225C96E9EA6FED7C5AC02D0FF
:103E2000010E1200000E120049ECA0F00009D8B4F7
:103E3000120002D039EC89F00001FA51D8A4FAD767
:103E40006CC060F06DC061F06EC062F0E9EC9FF094
:103E500039EC89F0120006D0ADEC9BF0120014ECA6
:103E600092F012000DC013F00EC014F01450000AAE
:103E7000D8A412001350010AD8B4EED7020AD8A46D
:103E80001200EDD70001696F56C067F057C068F0A7
:103E900000016651010D670EF324D96E000EF42067
:103EA000DA6EDF5000016925800976EC9EF0120081
:103EB0000001616F3F0E7916799661C060F00001D4
:103EC000603B795000016019CF0B6019796E799EC3
:103ED0007980A292A192A082F28C12000F01368505
:103EE00062986582010E0001F76F000E0E6E750E6E
:103EF0000D6E000E0F6E000E106E000E126E000E94
:103F0000116E2BEC9FF0120001C007F002C008F008
:103F100008D007C0D9FF08C0DAFF03C0DFFF074A97
:103F2000082A0506D8A006060528F3E10628D8B415
:103F30001200EFD70001626F000E0001616F3A0EB0
:103F40000001626107D02F0E0001626503D0010EEF
:103F50000001616F61C060F000016031120000017A
:103F6000686F68C060F00001616B000E0001636F54
:103F70000A0E626F4DEC95F000016051060DF35092
:103F80000001682512008FC079F090C07AF0B7EC7C
:103F900085F08FC081F090C082F040EC88F08FC037
:103FA00069F090C06AF0A9EC91F01200000120EED7
:103FB00006F06051D9266151DA22000110EE04F0BA
:103FC0006051E1266151E222DECFE6FFDDCFE5FF61
:103FD0001200A0980001FA51D8A40CD060C0EFF0F4
:103FE00061C0F0F062C0FBF0010E0001F86F010E3D
:103FF0000001FA6FA0881200AD9CAD8AAD98AD9417
:10400000AC8EAC9CAC887E86190EB06E000E7F6EB6
:104010009F9A9D8AF28C12006F0E0001606F010E54
:104020000001616F94EC8EF000016051000161119C
:10403000D8B412009D8812000001616F61C060F069
:104040000F0E00016017000161390F0B0F0B0A0DF5
:10405000F3500001602512000001616FC75000019C
:1040600061150001606FC5501F0B00016011000950
:10407000D8B41200F3D7FFEC89F05AEC9EF0000E92
:1040800001018F6FC20E906F010E916F000E926F43
:104090001200000E0001606F1F0E3C6405D065B277
:1040A00003D0010E0001606F0001605112008FC04B
:1040B00081F090C082F040EC88F08FC069F090C031
:1040C0006AF0A9EC91F01200010E76EC9EF0120E4F
:1040D0000001666F230EE82EFED7662FFCD700F096
:1040E000120086C062F087C063F00AEC96F086C0CA
:1040F00079F087C07AF0B7EC85F012000001626FAA
:10410000050E2CECA0F09E9662C0C9FF9EA6FED7BD
:10411000C5501200800EC76E280EC66E130EC86EF4
:104120009E96A1961200D388D38AD38C9B8CFC0ECA
:10413000D3161200050E2CECA0F0C584120057EC2B
:084140008BF0120000400100A9
:08FFF8008CF70AFAF2F8FFFB96
:00000001FF
