:061000006FEF08F0010093
:10100800FACF11F0FBCF12F0E9CF13F0EACF14F0CA
:10101800E1CF15F0E2CF16F0D9CF17F0DACF18F0FC
:10102800F3CF19F0F4CF1AF0F6CF1BF0F7CF1CF07E
:10103800F8CF1DF0F5CF1EF0E6EC93F0F2B4F29481
:101048009EA004D09E90800ECF6E00D0A1A226D084
:10105800A1923E0E016E000E026E80BA02D0010E01
:1010680001D0000E036E5CEC86F03A0E016E000EA5
:10107800026E80BC02D0010E01D0000E036E5CEC43
:1010880086F0F90E016E000E026E80BE02D0010ECF
:1010980001D0000E036E5CEC86F000D01EC0F5FF98
:1010A8001DC0F8FF1CC0F7FF1BC0F6FF1AC0F4FFF5
:1010B80019C0F3FF18C0DAFF17C0D9FF16C0E2FF46
:1010C80015C0E1FF14C0EAFF13C0E9FF12C0FBFF1F
:0A10D80011C0FAFF11008EEF93F033
:10FE2C000053554E004D4F4E005455450057454418
:10FE3C0000544855004652490053415400092A2A9F
:10FE4C002A2A2A2A2A2A2A2A2A2A2A2A2A2A2A2A06
:10FE5C002A2A2A2A2A2A2A2A0A092A2A2A2A204B20
:10FE6C00696C6C6966697368204C696768742020DA
:10FE7C002A2A2A2A0A092A2A2A2A204D616465205C
:10FE8C006279204052796F6B657269202A2A2A2A7E
:10FE9C000A092A2A2A2A2A2A2A2A2A2A2A2A2A2AF7
:10FEAC002A2A2A2A2A2A2A2A2A2A2A2A0A0A0963CE
:10FEBC006F6D6D616E6420096F70656C616E64317D
:10FECC00096F70656C616E64320A0A097072696E32
:10FEDC00745F74696D652874290A0961646A7573A5
:10FEEC00745F74696D6528617429205B68616E6448
:10FEFC003A792C4D2C642C682C6D2C735D205B7620
:10FF0C00616C756528646563696D616C295D0A09AE
:10FF1C0070776D205B636F6C6F723A522C472C427A
:10FF2C002C575D205B76616C75652825293A307EEF
:10FF3C003130305D0A0970776D20636C6561720A2F
:10FF4C00097365742074696D655F73796E635F6D99
:10FF5C006F64652873796E63290A0973657420418F
:10FF6C0044435F6D6F646528616463290A095245D7
:10FF7C0053455428293B0A0061646A7573745F7495
:10FF8C00696D65007072696E745F74696D6500529D
:10FF9C004553455428293B00096572726F720A005B
:10FFAC00636C6561720073796E630068656C7000D8
:10FFBC00082008004144430050574D006164630021
:10FFCC0070776D00736574002020002920002028B4
:10FFDC000061740009002D002F003F004200470013
:10FFEC0052005700620064006700680073007700DD
:04FFFC007900000088
:020000040001F9
:1000000019EC91F0F28E2F0E0001826F000E0001AC
:10001000836F360E0001846F000E0001856F14ECB3
:1000200095F03350D8A417D0000E366E000E376E00
:10003000000E386E000E396E2F0E0001986F000E04
:100040000001996F360E00019A6F000E00019B6F40
:1000500025EC95F000D0C6EC94F0E10E0001AA6FFB
:10006000000E0001AB6FE90E0001AC6F000E000145
:10007000AD6F7AEC83F0E90E1F6E000E206E45EC3A
:100080008BF01F502010D8B402D09D8800D0000102
:10009000B651D8B4A3D0000E0001B66F2F0E0001E8
:1000A000826F000E0001836F360E0001846F000E18
:1000B0000001856F14EC95F00001B551D8A48ED0E5
:1000C00036C060F037C061F038C062F039C063F00C
:1000D000800E0001646F510E656F010E666F000E99
:1000E000676F7CEC90F060C07BF161C07CF162C016
:1000F0007DF163C07EF101017E5101017D1108E1B6
:10010000C10E01017B5DA80E01017C59D8A027D04A
:100110007BC173F17CC174F17DC175F17EC176F153
:100120000101731F741F751F761F732B000E74233C
:1001300075237623800E0101732501017B6F510E1B
:100140000101742101017C6F010E01017521010182
:100150007D6F000E0101762101017E6F00D0D890E5
:1001600001017B350001676F01017C350001686F7B
:1001700001017D350001696F01017E3500016A6F63
:10018000640E00016B6F000E6C6F000E6D6F000E41
:100190006E6FB2EC92F067C073F068C074F069C023
:1001A00075F06AC076F0800E0001776F510E786F9F
:1001B000010E796F000E7A6F4EEC8DF073C07BF1FB
:1001C00074C07CF175C07DF176C07EF17BC16EF0AC
:1001D0007CC16FF0030E85EC8AF000D03CA033D0D8
:1001E000000E3D6E000E3C6E020E0001B56F030E58
:1001F0000001FE6504D0000E0001FE6F03D0000177
:10020000FE2B00D00001FE51190DF3CF77F1000E47
:100210000101806F000E7F6F0101805114E1030E18
:1002200001017F5DD8B00FD001D00DD077C16EF045
:1002300000016F6B01017F5185EC8AF001017F4B5A
:10024000802BEAD700D00001FBA120D0000E0001D6
:10025000FC6F000EFB6F020E0001B56F030E000174
:10026000FD6504D0000E0001FD6F03D00001FD2BE1
:1002700000D00001FD51190DF3CF78F178C16EF077
:1002800000016F6B030E85EC8AF000D040A008D00F
:10029000000E416E000E406E000E0001B56F00D0E2
:1002A00040A208D0000E416E000E406E010E00010B
:1002B000B56F00D00001B505D8A4CDD6000E010160
:1002C000806F000E7F6F0101805106E1030E010176
:1002D0007F5DD8B0C0D601D0BED601017F51DBEC26
:1002E00094F0040E0101736FD89020321F32010187
:1002F000732FFAD71FC060F020C061F0000E00011C
:10030000636F640E626F77EC94F060C066F061C05A
:1003100067F0000E0001696F686971EC92F066C0C9
:1003200079F167C07AF1B00E01017F25D96E000E18
:1003300001018021DA6EDF500101736F746B0101DE
:1003400079510101731906E101017A510101741912
:10035000D8B413D0B00E01017F25D96E000E010173
:100360008021DA6E79C1DFFF79C16EF07AC16FF05A
:1003700001017F5185EC8AF000D001017F4B802B79
:100380000101805101E1A2D766D66FEF08F002C1EA
:100390001FF003C120F0B70E216EFF0E226ECBECD2
:1003A00090F00009D8B40DD002C11FF003C120F0B5
:1003B000E60E216EFF0E226ECBEC90F00009D8A461
:1003C00009D0490E00016A6FFE0E00016B6F56ECFA
:1003D00094F000D002C11FF003C120F09B0E216EEB
:1003E000FF0E226ECBEC90F00009D8A402D0FF00E3
:1003F00000D002C11FF003C120F0DD0E216EFF0E00
:10040000226ECBEC90F00009D8B40DD002C11FF0E1
:1004100003C120F0840E216EFF0E226ECBEC90F013
:100420000009D8A40FD000C1A3F001C1A4F004C1F9
:10043000A5F005C1A6F006C1A7F007C1A8F09FEC82
:1004400087F000D002C11FF003C120F0900E216E92
:10045000FF0E226ECBEC90F00009D8B40DD002C193
:100460001FF003C120F0DE0E216EFF0E226ECBECDA
:1004700090F00009D8A40AD000C186F001C187F02D
:10048000010E0001886F9AEC89F000D002C11FF0C4
:1004900003C120F0D00E216EFF0E226ECBEC90F047
:1004A0000009D8A42FD004C11FF005C120F0B20E5E
:1004B000216EFF0E226ECBEC90F00009D8A404D080
:1004C000000E0001B56F00D004C11FF005C120F07F
:1004D000C80E216EFF0E226ECBEC90F00009D8B44E
:1004E0000DD004C11FF005C120F0C00E216EFF0E1B
:1004F000226ECBEC90F00009D8A404D0010E0001CC
:10050000B56F00D002C11FF003C120F0CC0E216EE8
:10051000FF0E226ECBEC90F00009D8B40DD002C1D2
:100520001FF003C120F0C40E216EFF0E226ECBEC33
:1005300090F00009D8A4120004C11FF005C120F0FA
:10054000B00E216EFF0E226ECBEC90F00009D8B4F5
:100550000DD004C11FF005C120F0EC0E216EFF0E7E
:10056000226ECBEC90F00009D8A411D0020E00014D
:10057000B56F06C166F007C167F02AEC90F066C05F
:100580006EF067C06FF0000E85EC8AF000D004C1F9
:100590001FF005C120F0F40E216EFF0E226ECBEC91
:1005A00090F00009D8B40DD004C11FF005C120F0AF
:1005B000EA0E216EFF0E226ECBEC90F00009D8A45B
:1005C00011D0020E0001B56F06C166F007C167F0D9
:1005D0002AEC90F066C06EF067C06FF0010E85ECFB
:1005E0008AF000D004C11FF005C120F0F00E216E8A
:1005F000FF0E226ECBEC90F00009D8B40DD004C1F0
:100600001FF005C120F0E80E216EFF0E226ECBEC2C
:1006100090F00009D8A411D0020E0001B56F06C1F8
:1006200066F007C167F02AEC90F066C06EF067C014
:100630006FF0020E85EC8AF000D004C11FF005C1F6
:1006400020F0FA0E216EFF0E226ECBEC90F0000926
:10065000D8B40DD004C11FF005C120F0EE0E216EFC
:10066000FF0E226ECBEC90F00009D8A411D0020E40
:100670000001B56F06C166F007C167F02AEC90F083
:1006800066C06EF067C06FF0030E85EC8AF000D094
:1006900004C11FF005C120F0AC0E216EFF0E226ECA
:1006A000CBEC90F00009D8A41200020E0001B56F47
:1006B000000E00016F6F000E6E6F000E85EC8AF069
:1006C000000E00016F6F000E6E6F010E85EC8AF058
:1006D000000E00016F6F000E6E6F020E85EC8AF047
:1006E000000E00016F6F000E6E6F030E85EC8AF036
:1006F000120012000001B8510001D8A417D0010E59
:100700000001B86FF10E0001606F000E0001616F13
:100710000A0E0001626F010E0001636F000E0001FE
:10072000656F640E646FBCEC93F000D0ACC01FF03A
:10073000ADC020F045EC8BF01F502010D8B4120053
:10074000ACC021F0ADC022F0B1EC8DF00101716FB1
:100750005CD1F10E216E000E226E000E236EEBECCA
:100760008CF0AAC021F0ABC022F0090E236EEBEC96
:100770008CF0F10E1F6E000E206E45EC8BF0FF0E1C
:100780001F2401016E6FFF0E202001016F6FAAC0B0
:100790006DF0ABC06EF06EC16FF06FC170F0020E05
:1007A0000001716F30EC92F0AAC021F0ABC022F0D2
:1007B0000A0E236EEBEC8CF0000E0101726F03D079
:1007C0000101722B00D0F10E216E000E226EB1ECF1
:1007D0008DF00001AE6F01017251010DB90EF324CD
:1007E000D96E000EF420DA6EAEC0DFFFDF50D8A461
:1007F000E7D701017251010DB90EF324D96E000E35
:10080000F420DA6E000EDF6E000E0101726F03D06D
:100810000101722B00D0F10E216E000E226EB1ECA0
:100820008DF00001AE6F01017251010DCD0EF32468
:10083000D96E000EF420DA6EAEC0DFFFDF50D8A410
:10084000E7D701017251010DCD0EF324D96E000ED0
:10085000F420DA6E000EDF6E000E0101726F03D01D
:100860000101722B00D0F10E216E000E226EB1EC50
:100870008DF00001AE6F01017251010D810EF32464
:10088000D96E010EF420DA6EAEC0DFFFDF50D8A4BF
:10089000E7D701017251010D810EF324D96E010ECB
:1008A000F420DA6E000EDF6E000E0101726F03D0CD
:1008B0000101722B00D0F10E216E000E226EB1EC00
:1008C0008DF00001AE6F01017251010D950EF32400
:1008D000D96E010EF420DA6EAEC0DFFFDF50D8A46F
:1008E000E7D701017251010D950EF324D96E010E67
:1008F000F420DA6E000EDF6EAAC000F1ABC001F189
:10090000B90E0101026F000E0101036FCD0E01014E
:10091000046F000E0101056F810E0101066F010ECB
:100920000101076F950E0101086F010E0101096FAA
:10093000C7EC81F01200F10E216E000E226E000E47
:10094000236EEBEC8CF0AAC021F0ABC022F0200E9D
:10095000236EEBEC8CF01200F10E216E000E226E75
:10096000EEEC91F0AAC06AF0ABC06BF0BC0E0001D7
:100970006C6FFF0E00016D6F5CEC93F01200000EC7
:100980000101706F0FD0AAC06AF0ABC06BF0BC0E53
:1009900000016C6FFF0E00016D6F5CEC93F00101C4
:1009A000702B00D0F10E1F6E000E206E45EC8BF008
:1009B000010170510001AE6FAF6B1F500001AE5DC1
:1009C00020500001AF59D8A0DED7F10E1F6E000EE7
:1009D000206E03EC95F012001F0E010171651200EC
:1009E0007F0E010171611200F10E216E000E226E68
:1009F00071C123F0EBEC8CF0AAC021F0ABC022F067
:100A000071C123F0EBEC8CF0120001017151080A66
:100A1000D8B4A2D7050AD8B49CD62D0AD8B48BD79F
:100A20005F0AD8B4ACD7D8D712001200000E00016C
:100A30007D6F000E7E6F000E7F6F000E806F000EC8
:100A400000017B6F38D0010E0001816F0C0E000198
:100A5000816501D02DD081C023F000017B5186EC4F
:100A60008CF00001776F000177510001676F686BB0
:100A7000696B6A6B800E00016B6F510E6C6F010E1B
:100A80006D6F000E6E6FB2EC92F0000167510001C5
:100A90007D270001685100017E230001695100019A
:100AA0007F2300016A51000180230001812BCED7F2
:100AB00000017B2B00D0000120EE06F07351D926F7
:100AC0007451DA22DE5000017B5DD8A0BCD7010E44
:100AD00000017C6F33D07CC023F0000120EE06F0D3
:100AE0007351D9267451DA22DF5086EC8CF0000164
:100AF000776F000177510001676F686B696B6A6BF4
:100B0000800E00016B6F510E6C6F010E6D6F000E49
:100B10006E6FB2EC92F00001675100017D27000179
:100B2000685100017E230001695100017F2300010B
:100B30006A510001802300017C2B00D0000120EECF
:100B400005F07351D9267451DA22DE5000017C5D24
:100B5000D8A0C1D7FF0E0001776FFF0E0001786F9C
:100B6000000120EE04F07351D9267451DA22DF50CF
:100B70000001796F7A6B000177510001792700013C
:100B8000785100017A2379C067F07AC068F00001DB
:100B9000000E68BFFF0E696F6A6F800E00016B6FF9
:100BA000510E6C6F010E6D6F000E6E6FB2EC92F015
:100BB0000001675100017D270001685100017E237B
:100BC0000001695100017F2300016A510001802367
:100BD000000120EE02F07351D9267451DA22DF5061
:100BE0000001776F000177510001676F686B696BD7
:100BF0006A6B100E00016B6F0E0E6C6F000E6D6F46
:100C0000000E6E6FB2EC92F00001675100017D277B
:100C10000001685100017E230001695100017F231A
:100C200000016A5100018023000120EE01F07351A0
:100C3000D9267451DA22DF500001776F0001775115
:100C40000001676F686B696B6A6B3C0E00016B6F2C
:100C5000000E6C6F000E6D6F000E6E6FB2EC92F0B6
:100C60000001675100017D270001685100017E23CA
:100C70000001695100017F2300016A5100018023B6
:100C800073C0D9FF74C0DAFFDF500001776F000135
:100C9000775100017D27000E7E237F23802375C0BE
:100CA000D9FF76C0DAFF7DC0DEFF7EC0DEFF7FC0E9
:100CB000DEFF80C0DEFF12000350D8B498D001C020
:100CC000D9FF02C0DAFF840EDE180BE1030EDE1836
:100CD000D8A407D020EE03F00150D9260250DA2222
:100CE000DF8E01C0D9FF02C0DAFFBC0EDE180BE1B7
:100CF000020EDE18D8A407D020EE03F00150D9264A
:100D00000250DA22DF8C01C0D9FF02C0DAFFF40EF4
:100D1000DE180AE1DE04D8A407D020EE03F001506B
:100D2000D9260250DA22DF8A01C0D9FF02C0DAFFD9
:100D30002C0EDE180AE1DE04D8A407D020EE03F062
:100D40000150D9260250DA22DF8801C0D9FF02C043
:100D5000DAFF960EDE18DE10D8A407D020EE03F0DE
:100D60000150D9260250DA22DF8601C0D9FF02C025
:100D7000DAFF3C0EDE18DE10D8A407D020EE03F018
:100D80000150D9260250DA22DF8401C0D9FF02C007
:100D9000DAFF100EDE18DE10D8A407D020EE03F024
:100DA0000150D9260250DA22DF8201C0D9FF02C0E9
:100DB000DAFF020EDE18DE10D8A407D020EE03F012
:100DC0000150D9260250DA22DF8001C0D9FF02C0CB
:100DD000DAFF850EDE5C030EDE58D8B0120001C0CB
:100DE000D9FF02C0DAFFDE2A000EDD22120001C0A8
:100DF000D9FF02C0DAFF840EDE5C030EDE58D8A0F5
:100E000008D020EE02F00150D9260250DA22DF8EFF
:100E100082D001C0D9FF02C0DAFFBC0EDE5C020E38
:100E2000DE58D8A008D020EE02F00150D92602509A
:100E3000DA22DF8C70D001C0D9FF02C0DAFFF40ED5
:100E4000DE5C010EDE58D8A008D020EE02F0015082
:100E5000D9260250DA22DF8A5ED001C0D9FF02C053
:100E6000DAFF2C0EDE5C010EDE58D8A008D020EE92
:100E700002F00150D9260250DA22DF884CD001C09E
:100E8000D9FF02C0DAFF010EDB5004E1960EDE5CF2
:100E9000D8A008D020EE02F00150D9260250DA2264
:100EA000DF8639D001C0D9FF02C0DAFF010EDB5066
:100EB00004E13C0EDE5CD8A008D020EE02F0015028
:100EC000D9260250DA22DF8426D001C0D9FF02C021
:100ED000DAFF010EDB5004E1100EDE5CD8A008D072
:100EE00020EE02F00150D9260250DA22DF8213D020
:100EF00001C0D9FF02C0DAFF010EDB5004E1020E8F
:100F0000DE5CD8A008D020EE02F00150D9260250B5
:100F1000DA22DF8000D001C0D9FF02C0DAFF000E64
:100F2000DE6E000EDD6E20EE02F00150D92602507A
:100F3000DA22FF0EDE16000EDD1612001200A5C02A
:100F40001FF0A6C020F0FC0E216EFF0E226ECBEC2F
:100F500090F00009D8A41DD0A3C09CF0A4C09DF0BF
:100F6000350E00019E6F000E00019F6F000E000104
:100F7000A06F630E0001A16FA7C066F0A8C067F064
:100F80002AEC90F0000166510001A26FEFEC92F0A4
:100F900000D0A5C01FF0A6C020F0C60E216EFF0E27
:100FA000226ECBEC90F00009D8A41DD0A3C09CF019
:100FB000A4C09DF0340E00019E6F000E00019F6FD3
:100FC000010E0001A06F0C0E0001A16FA7C066F01A
:100FD000A8C067F02AEC90F0000166510001A26FF2
:100FE000EFEC92F000D0A5C01FF0A6C020F0F20EEA
:100FF000216EFF0E226ECBEC90F00009D8A423D016
:1010000034C023F0355086EC8CF00001A96FA3C0EA
:101010009CF0A4C09DF0330E00019E6F000E0001F5
:101020009F6F010E0001A06FA9C0A1F0A7C066F0DC
:10103000A8C067F02AEC90F0000166510001A26F91
:10104000EFEC92F000D0A5C01FF0A6C020F0F60E85
:10105000216EFF0E226ECBEC90F00009D8A41DD0BB
:10106000A3C09CF0A4C09DF0310E00019E6F000E45
:1010700000019F6F000E0001A06F170E0001A16F0D
:10108000A7C066F0A8C067F02AEC90F00001665196
:101090000001A26FEFEC92F000D0A5C01FF0A6C037
:1010A00020F0CE0E216EFF0E226ECBEC90F00009E8
:1010B000D8A41DD0A3C09CF0A4C09DF0300E0001A8
:1010C0009E6F000E00019F6F000E0001A06F3B0E8F
:1010D0000001A16FA7C066F0A8C067F02AEC90F0ED
:1010E000000166510001A26FEFEC92F000D0A5C0A4
:1010F0001FF0A6C020F0F80E216EFF0E226ECBEC82
:1011000090F00009D8A41200A3C09CF0A4C09DF0E8
:101110002F0E00019E6F000E00019F6F000E000158
:10112000A06F3B0E0001A16FA7C066F0A8C067F0DA
:101130002AEC90F0000166510001A26FEFEC92F0F2
:1011400012001200000E0001926F010E0001936F59
:101150008AC0D9FF8BC0DAFFDECF94F0DECF95F0E6
:10116000DECF96F0DECF97F0940E0001806F000E78
:101170000001816F3C0E0001826FB2EC8BF0000128
:10118000805188C0D9FF89C0DAFFDF6E940E00015C
:10119000806F000E0001816F3C0E0001826FB2EC87
:1011A0008BF0000120EE01F08851D9268951DA2216
:1011B000000180C0DFFF940E0001806F000E00016F
:1011C000816F180E0001826FB2EC8BF0000120EEEF
:1011D00002F08851D9268951DA22000180C0DFFF50
:1011E00094C090F095C091F090C08EF091C08FF0B7
:1011F000060E00019427000E952396239723940E44
:101200000001806F000E0001816F070E0001826FE8
:10121000B2EC8BF0000120EE03F08851D926895101
:10122000DA22000180C0DFFF41D08A8493C023F01E
:101230000001925186EC8CF000018C6F8D6B0001E7
:101240008C1F8D1F8C4B8D2B0001905100018C2524
:101250000001906F0001915100018D210001916FFB
:101260000C0E00019319D8A419D0010E0001936F40
:101270000001922B630E0001926513D08AC0D9FF42
:101280008BC0DAFF800EDE5E130EDE5A190EDE5AB8
:10129000BC0EDE5A000E0001926F03D00001932BAA
:1012A00000D093C0FFF092C0B7F000D093C023F0FD
:1012B0000001925186EC8CF000018C6F00018C5182
:1012C0000001905D000E9159D8B0AFD790C08CF05E
:1012D00091C08DF000018C1F8D1F8C4B8D2B000158
:1012E0008E5100018C250001B36F00018F51000168
:1012F0008D210001B46F0001904B912B000120EE75
:1013000006F08851D9268951DA2292C0DFFF000108
:1013100020EE05F08851D9268951DA2293C0DFFFEB
:10132000000120EE04F08851D9268951DA2290C0BC
:10133000DFFF12002F0E0001826F000E0001836F8D
:10134000360E0001846F000E0001856F14EC95F0DD
:10135000000188510001D8B40CD086C06AF087C063
:101360006BF0E00E00016C6FFF0E00016D6F5CEC26
:1013700093F086C075F087C076F0140E0001776F89
:10138000000E2ABA010E0001786F2AEC93F086C095
:1013900075F087C076F035C077F0000E2ABA010EDE
:1013A0000001786F2AEC93F086C06AF087C06BF07A
:1013B000E40E00016C6FFF0E00016D6F5CEC93F0AA
:1013C00086C075F087C076F034C077F0000E2AB87A
:1013D000010E0001786F2AEC93F086C06AF087C096
:1013E0006BF0E40E00016C6FFF0E00016D6F5CECA2
:1013F00093F086C075F087C076F033C077F0000EAA
:101400002AB6010E0001786F2AEC93F086C06AF0CC
:1014100087C06BF0DA0E00016C6FFF0E00016D6F7C
:101420005CEC93F086C06AF087C06BF03250040D1C
:101430002D0EF32400016C6FFE0EF42000016D6F81
:101440005CEC93F086C06AF087C06BF0D70E0001A9
:101450006C6FFF0E00016D6F5CEC93F086C075F051
:1014600087C076F031C077F0000E2AB4010E00017B
:10147000786F2AEC93F02850D8B409D086C021F0B8
:1014800087C022F03A0E236EEBEC8CF009D086C0B8
:1014900021F087C022F0200E236EEBEC8CF000D000
:1014A00086C075F087C076F030C077F0000E2AB2A3
:1014B000010E0001786F2AEC93F086C06AF087C0B5
:1014C0006BF0E20E00016C6FFF0E00016D6F5CECC3
:1014D00093F086C075F087C076F02FC077F0000ECD
:1014E0002AB0010E0001786F2AEC93F000018851B8
:1014F0000001D8B4120086C021F087C022F00A0E85
:10150000236EEBEC8CF012001200236E6EC060F0C4
:101510006FC061F06EC062F06FC063F077EC94F062
:1015200060C066F061C067F0000E0001696F640E74
:10153000686F71EC92F066C06EF067C06FF06EC0BD
:1015400060F06FC061F06EC062F06FC063F077EC66
:1015500094F060C066F061C067F0000E0001696F32
:10156000640E686F71EC92F066C06EF067C06FF049
:101570005BD000016F5107E1190E00016E5DD8A02C
:1015800075D001D073D06EC070F06FC071F0D8907C
:10159000000170377137CE0E000170250001666FB3
:1015A000FF0E000171210001676F000E0001696FDD
:1015B000030E686F71EC92F0190E000166250001B0
:1015C0006E6F000E000167212CD050D000016F51CA
:1015D00007E1190E00016E5DD8A048D001D046D0B9
:1015E000E70E00016E250001606FFF0E00016F2104
:1015F0000001616F000E0001636F030E626F77ECF4
:1016000094F00001D890613360330001D8906133C9
:101610006033190E0001602500016E6F000E00019D
:10162000612100016F6F22D02350000AD8B4A1D7E6
:10163000010AD8B41BD0030AD8B4C8D7010A16D0FF
:10164000CF0EBA166EC0BBFF1200CF0EB4166EC01E
:10165000B5FF1200CF0E0F0115176EC016FF120056
:10166000CF0E0F0112176EC013FF12002350000A95
:10167000D8B4E6D7010AD8B4E8D7030AD8B4EAD771
:10168000010AD8A41200ECD7120020EE06F01F5079
:10169000D9262050DA2210EE04F01F50E126205007
:1016A000E222DE50E65CDE50E658D8A024D020EEE0
:1016B00004F01F50D9262050DA22DECF60F0DDCFB3
:1016C00061F020EE06F01F50D9262050DA22DECF3E
:1016D00062F0DDCF63F00001621F631F624B632B7A
:1016E00000016051000162251F6E0001615100017F
:1016F0006321206E120020EE04F01F50D9262050E6
:10170000DA22DECF60F0DDCF61F020EE02F01F5074
:10171000D9262050DA22DECF62F0DDCF63F020EE52
:1017200006F01F50D9262050DA22DECF64F0DDCF3C
:1017300065F00001641F651F644B652B0001625159
:10174000000164270001635100016523000160511D
:10175000000164251F6E0001615100016521206EAA
:101760001200120080C0D9FF81C0DAFFDECF84F002
:10177000DECF85F0DECF86F0DECF87F0000182512C
:101780000001776F786B796B7A6B84C073F085C0DA
:1017900074F086C075F087C076F04EEC8DF080C096
:1017A000D9FF81C0DAFF000173C0DEFF000174C001
:1017B000DEFF000175C0DEFF000176C0DDFFDD52F7
:1017C000DD52DECF67F0DECF68F0DECF69F0DECF2E
:1017D0006AF00001825100016B6F6C6B6D6B6E6B78
:1017E000B2EC92F00001671F0001681F0001691F41
:1017F00000016A1F0001672B000E00016823000131
:10180000692300016A23000184510001672500015A
:10181000806F00018551000168210001816F000186
:101820008651000169210001826F0001875100018A
:101830006A210001836F1200120000D00F013FB92E
:10184000FDD70F013F810F013F83000120EE06F01D
:101850006451D9266551DA22DF5046EC95F00F012C
:101860003A6F000E0F013B6F0F013F910F013F8355
:10187000000120EE04F06451D9266551DA22DF50D0
:1018800046EC95F00F013A6F000120EE05F064512F
:10189000D9266551DA22DF5046EC95F00F013B6FF7
:1018A0000F013F810F013F93000120EE02F06451D0
:1018B000D9266551DA22DF5046EC95F00F013A6FD8
:1018C000000120EE03F06451D9266551DA22DF5081
:1018D00046EC95F00F013B6F0F013F910F013F93D5
:1018E00064C0D9FF65C0DAFFDF5046EC95F00F0108
:1018F0003A6F000120EE01F06451D9266551DA22D9
:10190000DF5046EC95F00F013B6F12000001666F4F
:10191000020E2318D8A436D066C01FF0206A000E2D
:10192000226E640E216E61EC91F01F502010D8A43D
:1019300002D0010E01D0000E00080001626F66C0E7
:101940001FF0206A010E226E900E216E61EC91F064
:101950001F502010D8A404D00001636B632B02D069
:101960000001636B66C064F0030E00016417D8A425
:1019700002D0010E01D0000E000163250001622596
:101980001C0F12002350010B0001626F636B0001FA
:10199000621F631F624B632B23500001646F656BF2
:1019A000000162510001641B000163510001651BCD
:1019B0000D0E00016417000E6517040E0001641976
:1019C00000016511D8A402D0010E01D0000E00085C
:1019D0001F0F1200120021C01FF022C020F045ECA2
:1019E0008BF020EE02F02150D9262250DA22DE5070
:1019F0001F5CDE502058D8B0120020EE04F02150B9
:101A0000D9262250DA22DECF66F0DDCF67F021C082
:101A1000D9FF22C0DAFFDECF68F0DDCF69F0000128
:101A2000665100016825D96E0001675100016921E6
:101A3000DA6E23C0DFFF20EE02F02150D9262250BB
:101A4000DA2210EE04F02150E1262250E222E6CF05
:101A500068F0E5CF69F0010E00016827000E6923E8
:101A6000DE500001685DDE5000016959D8B00AD02F
:101A700020EE04F02150D9262250DA22DE2A000E70
:101A8000DD22120020EE04F02150D9262250DA2265
:101A9000000EDE6E000EDD6E12001200000E000160
:101AA0007B6F000E7C6F000E7D6F000E7E6F00015D
:101AB0007751000178110001791100017A11D8B431
:101AC00047D0010E00017F6F09D00001D890773711
:101AD000783779377A3700017F2B00D000017ABF41
:101AE00002D0F3D700D00001D8907B377C377D3708
:101AF0007E37000177510001735D000178510001CC
:101B00007459000179510001755900017A510001A1
:101B10007659D8A013D0000177510001735F0001FE
:101B200078510001745B000179510001755B00017F
:101B30007A510001765B00017B8100D00001D890D2
:101B40007A3379337833773300017F2FCCD700D0C5
:101B50007BC073F07CC074F07DC075F07EC076F001
:101B6000120021C01FF022C020F045EC8BF01F5066
:101B70002010D8B452D020EE06F02150D9262250A1
:101B8000DA22DECF66F0DDCF67F021C0D9FF22C0B8
:101B9000DAFFDECF68F0DDCF69F0000166510001A9
:101BA0006825D96E0001675100016921DA6EDF50A6
:101BB000236E20EE02F02150D9262250DA2210EEB8
:101BC00006F02150E1262250E222E6CF68F0E5CF70
:101BD00069F0010E00016827000E6923DE50000144
:101BE000685DDE5000016959D8B00AD020EE06F0D9
:101BF0002150D9262250DA22DE2A000EDD220BD017
:101C000020EE06F02150D9262250DA22000EDE6E98
:101C1000000EDD6E00D023501200000E12001200E4
:101C200020EE06F00150D9260250DA2210EE04F020
:101C30000150E1260250E222DE50E65CDE50E6581A
:101C4000D8A01FD020EE04F00150D9260250DA228D
:101C5000DECF03F0DDCF04F020EE06F00150D926F0
:101C60000250DA22DECF05F0DDCF06F0051E061E9B
:101C7000054A062A03500524016E04500620026E10
:101C8000120020EE04F00150D9260250DA22DECFF5
:101C900003F0DDCF04F020EE02F00150D92602500F
:101CA000DA22DECF05F0DDCF06F020EE06F001509F
:101CB000D9260250DA22DECF07F0DDCF08F0071E6A
:101CC000081E074A082A0550072606500822035016
:101CD0000724016E04500820026E1200120009C091
:101CE00001F00AC002F010EC8EF020EE02F0095074
:101CF000D9260A50DA22DE50015CDE500258D8B0F4
:101D0000120020EE04F00950D9260A50DA22DECF64
:101D10000CF0DDCF0DF009C0D9FF0AC0DAFFDECF2D
:101D20000EF0DDCF0FF00C500E24D96E0D500F20A9
:101D3000DA6E0BC0DFFF20EE02F00950D9260A5000
:101D4000DA2210EE04F00950E1260A50E222E6CF32
:101D50000EF0E5CF0FF0010E0E26000E0F22DE5022
:101D60000E5CDE500F58D8B00AD020EE04F00950B7
:101D7000D9260A50DA22DE2A000EDD22120020EED9
:101D800004F00950D9260A50DA22000EDE6E000E49
:101D9000DD6E120012001F6E0E01BF910E01BFA179
:101DA00006D0550EA76EAA0EA76E0E01BF910E0E9D
:101DB0000E01C36F120E0E01C46F160E0E01C56F19
:101DC000BA50F00B0C09BA6E3F0EBA1652915293EC
:101DD0005295000EBB6ECF0EBA16B450F00B0C0924
:101DE000B46E3F0EB41652975299529B000EB56EC8
:101DF000CF0EB4160F011551F00B0C09156F3F0EE5
:101E00000F0115173F0E0F015217000E0F01166F2D
:101E1000CF0E0F0115170F011251F00B0C09126FA5
:101E2000FC0E0F015117000E0F01136FCF0E0F01A3
:101E30001217CA96CA98CA9ACA9CCA50FC0B0209C1
:101E4000CA6E1F04CB6ECA84120009C001F00AC01A
:101E500002F010EC8EF001500210D8B44BD020EEFE
:101E600006F00950D9260A50DA22DECF0BF0DDCF7A
:101E70000CF009C0D9FF0AC0DAFFDECF0DF0DDCFCC
:101E80000EF00B500D24D96E0C500E20DA6EDF5080
:101E90000F6E20EE02F00950D9260A50DA2210EE19
:101EA00006F00950E1260A50E222E6CF0DF0E5CF18
:101EB0000EF0010E0D26000E0E22DE500D5CDE50DF
:101EC0000E58D8B00AD020EE06F00950D9260A5094
:101ED000DA22DE2A000EDD220BD020EE06F00950B9
:101EE000D9260A50DA22000EDE6E000EDD6E00D01A
:101EF0000F501200000E12001200000E0001616F60
:101F000022AE08D0216C221ED8B0222A010E000178
:101F1000616F00D020AE08D01F6C201ED8B0202AE0
:101F2000010E0001611B00D0000E0001636F000E66
:101F3000626F21502210D8B426D0010E0001606FCC
:101F400006D0D890213622360001602B00D022BE68
:101F500002D0F7D700D00001D89062376337215004
:101F60001F5C22502058D8A007D021501F5E22505D
:101F7000205A0001628100D0D89022322132000123
:101F8000602FE9D700D0000161510001D8B406D01C
:101F90000001626D631FD8B0632B00D062C01FF0D8
:101FA00063C020F01200120000D00F013FB9FDD72E
:101FB0000F013F810F013F8320EE06F02150D9260B
:101FC0002250DA220F013A5164EC95F0DF6E3BCFDC
:101FD00023F020EE04F02150D9262250DA220F01FE
:101FE0003A5164EC95F0DF6E20EE05F02150D926D1
:101FF0002250DA220F013B5164EC95F0DF6E20EEA7
:1020000002F02150D9262250DA220F013A5164EC15
:1020100095F0DF6E20EE03F02150D9262250DA220F
:102020000F013B5164EC95F0DF6E0F013A5164EC07
:1020300095F021C0D9FF22C0DAFFDF6E20EE01F05B
:102040002150D9262250DA220F013B5164EC95F041
:10205000DF6E1200000E00016D6F000E6C6F40D03D
:1020600066C0D9FF67C0DAFF2F0EDF6435D066C0C7
:10207000D9FF67C0DAFF3A0EDF602ED06CC060F087
:102080006DC061F0000E0001636F0A0E626F77ECA5
:1020900094F060C06CF061C06DF0D00E0001686F0C
:1020A000FF0E0001696F66C0D9FF67C0DAFFDF501D
:1020B00000016A6F6B6B0001685100016A27000123
:1020C000695100016B2300016A5100016C27000176
:1020D0006B5100016D2300D00001664B672B00D0CF
:1020E00066C0D9FF67C0DAFFDF50D8A4B9D76CC08B
:1020F00066F06DC067F012000001645100016511C7
:102100000001661100016711D8B43CD0010E1F6EAA
:1021100008D00001D89064376537663767371F2AC3
:1021200000D0000167BF02D0F4D700D00001645195
:102130000001605D000165510001615900016651B7
:10214000000162590001675100016359D8A011D004
:10215000000164510001605F000165510001615B95
:10216000000166510001625B000167510001635B81
:1021700000D00001D89067336633653364331F2E77
:10218000D5D700D060C060F061C061F062C062F07D
:1021900063C063F0120027D01FC0D9FF20C0DAFF50
:1021A000DF50236E21C0F6FF22C0F7FF000EF86E4D
:1021B0000800F5502318D8B411D01FC0D9FF20C093
:1021C000DAFFDF50236E21C0F6FF22C0F7FF000EBA
:1021D000F86E0800F5500008232412001F4A202A38
:1021E000214A222A00D01FC0D9FF20C0DAFFDF50C9
:1021F000D8B40DD021C0F6FF22C0F7FF000EF86E54
:102200000800F5500009D8B402D0C6D700D01FC0CE
:10221000D9FF20C0DAFFDF50236E21C0F6FF22C0B5
:10222000F7FF000EF86E0800F55000082324120096
:10223000120071EC95F0E70E926E000E936EBA0EDE
:10224000946EF80E0F01486F1F0E0F01496FF19E3B
:10225000020E1F6E000E33EC94F0020EF0EC94F0C0
:10226000000E56EC95F0AEEC94F0640ECBEC8EF0D4
:1022700036EC95F0E90E0001606F000E0001616F11
:10228000FA0E0001626F020E0001636F030E00017F
:10229000656FE80E646FBCEC93F0E10E0001606FB7
:1022A000000E0001616F000E0001626F020E00015E
:1022B000636F000E0001656FFA0E646FBCEC93F063
:1022C0001200000E0001616F20AE08D01F6C201EAE
:1022D000D8B0202A010E0001616F00D022AE05D0D7
:1022E000216C221ED8B0222A00D021502210D8B44E
:1022F00020D0010E0001606F06D0D8902136223622
:102300000001602B00D022BE02D0F7D700D02150B0
:102310001F5C22502058D8A005D021501F5E2250AB
:10232000205A00D0D890223221320001602FEFD7FE
:1023300000D0000161510001D8B405D01F6C201EEF
:10234000D8B0202A00D01FC01FF020C020F01200FB
:10235000120037D06FC073F070C074F071C072F0AB
:1023600010D073C066F074C067F0000E0001696F92
:102370000A0E686F71EC92F066C073F067C074F07B
:1023800000D00001720700017229D8A4EAD773C0F7
:102390001FF074C020F0000E226E0A0E216E0DECAC
:1023A00094F01FC073F020C074F000017351300F1F
:1023B0006DC0D9FF6EC0DAFFDF6E00016D4B6E2B72
:1023C00000D00001710700017129D8A4C3D76DC0E6
:1023D000D9FF6EC0DAFF000EDF6E120021C01FF0C1
:1023E00022C020F045EC8BF01F502010D8B4120012
:1023F00020EE04F02150D9262250DA22DE50DE10E1
:10240000D8B40AD020EE04F02150D9262250DA2286
:10241000DE06000EDD5A1200FF0E0001666FFF0E91
:102420000001676F20EE02F02150D9262250DA22F7
:10243000DECF68F0DDCF69F000016651000168274A
:10244000000167510001692320EE04F02150D926D4
:102450002250DA2268C0DEFF69C0DDFF12001200E0
:1024600039D06FC073F070C074F0000E0001726F4D
:1024700012D073C066F074C067F0000E0001696F7F
:102480000A0E686F71EC92F066C073F067C074F06A
:102490000001722B00D0000171510001725DD8A0C3
:1024A000E8D773C01FF074C020F0000E226E0A0E31
:1024B000216E0DEC94F01FC073F020C074F06DC05D
:1024C00021F06EC022F000017351300F236EEBEC4F
:1024D0008CF000D00001710700017129D8A4C1D788
:1024E0001200000E00016C6F000E6B6F000168514E
:1024F00000016911D8B431D0010E00016A6F07D014
:102500000001D8906837693700016A2B00D00001BC
:1025100069BF02D0F5D700D00001D8906B376C3777
:10252000000168510001665D0001695100016759B1
:10253000D8A00BD0000168510001665F000169510D
:102540000001675B00016B8100D00001D890693306
:10255000683300016A2FE0D700D06BC066F06CC012
:1025600067F01200000E00016F6F000E706F000E1A
:10257000716F000E726F00D0000167A111D00001D1
:102580006B5100016F2700016C51000170230001A5
:102590006D510001712300016E510001722300D0C2
:1025A0000001D8906B376C376D376E370001D890CB
:1025B0006A3369336833673300016751000168117A
:1025C0000001691100016A11D8A4D6D76FC067F065
:1025D00070C068F071C069F072C06AF0120000014A
:1025E000A0510001A25DD8A027D00001A251000196
:1025F000A15DD8A021D09EC0D9FF9FC0DAFFA2C0A4
:10260000DFFF2F0E0001986F000E0001996F360E4C
:1026100000019A6F000E00019B6F93EC94F0010E85
:102620000001B66F9CC086F09DC087F0010E0001CE
:10263000886F9AEC89F012009CC06AF09DC06BF024
:10264000A40E00016C6FFF0E00016D6F5CEC93F047
:1026500012001200790E00016D6F000E00016E6F06
:1026600077C06FF00001706B020E0001716FA9EC72
:1026700091F0000178510001D8B410D00F013FA7AC
:102680000DD075C06AF076C06BF0D40E00016C6F8F
:10269000FF0E00016D6F5CEC93F0120075C06AF0E4
:1026A00076C06BF0790E00016C6F000E00016D6F4B
:1026B0005CEC93F0120012001CD06AC021F06BC0D9
:1026C00022F06CC0F6FF6DC0F7FF000EF86E0E0E24
:1026D000F76403D00800F55005D0F6CFE1FFF7CF3F
:1026E000E2FFE750236EEBEC8CF000016C4B6D2B9E
:1026F00000D06CC0F6FF6DC0F7FF000EF86E0E0E36
:10270000F76403D00800F55005D0F6CFE1FFF7CF0E
:10271000E2FFE7500009D8A4D0D7120002EEFAF089
:1027200013EEE8F0EE6AE550E150FCE1E250FAE128
:1027300002EE00F0FA0EEE6AE806FDE101EE81F02D
:10274000280EEE6AE806FDE100EEB0F04F0EEE6AEC
:10275000E806FDE100EE24F01E0EEE6AE806FDE15B
:10276000040EF66E100EF76E000EF86E0900F5CF2F
:10277000FFF0000100EF80F060C0D9FF61C0DAFF18
:1027800062C0DEFF63C0DDFF000120EE02F0605199
:10279000D9266151DA2264C0DEFF65C0DDFF000189
:1027A00020EE04F06051D9266151DA22000EDE6E6F
:1027B000000EDD6E000120EE06F06051D926615159
:1027C000DA22000EDE6E000EDD6E12009DB89EA8AD
:1027D00014D0E90E016E000E026E10EC8EF0015066
:1027E0000210D8B408D0E90E096E000E0A6E25EC6E
:1027F0008FF0AE6E02D09D9800D09EAA12009DAAC6
:102800001200AFCF10F0E10E096E000E0A6E10C07C
:102810000BF06FEC8EF01200120021502210D8B491
:102820001DD0010E236E05D0D89021362236232AE2
:1028300000D022BE02D0F8D700D021501F5C225019
:102840002058D8A005D021501F5E2250205A00D019
:10285000D89022322132232EF0D700D01FC01FF093
:1028600020C020F01200216E1FC020F0203A204628
:102870002046CD5020183F0B2018CD6E020E1F1899
:10288000D8A402D0CD8602D0CD9600D021C020F0B1
:10289000203ACD502018CF0B2018CD6ECD84CD928C
:1028A000CD809F909E909D80F28C120013D0E90EF7
:1028B000216E000E226E6AC0F6FF6BC0F7FF000E9D
:1028C000F86E0800F5CF23F0EBEC8CF000016A4BBA
:1028D0006B2B00D06AC0F6FF6BC0F7FF000EF86EDE
:1028E0000800F5500009D8A4E2D79D881200000125
:1028F000605100016203F3CF64F0F4CF65F0000192
:10290000605100016303F35000016527000161512C
:1029100000016203F3500001652764C060F065C0E8
:1029200061F01200120098C073F099C074F09AC060
:1029300075F09BC076F016EC85F098C088F099C0D1
:1029400089F09AC08AF09BC08BF0A2EC88F098C006
:1029500064F099C065F01DEC8CF012000F013F8B04
:102960000F013FBB07D0550EA76EAA0EA76E0F0131
:102970003F8B00D00F013F8F0F013F950F013C832C
:102980000F013C85000E0F013E6F120000D00F01B9
:102990003FB9FDD7000E3FB7010E2B6E2B50271805
:1029A000D8B412002BC027F02BC028F0010E000174
:1029B000B66F12001200226E22C021F0214621467D
:1029C000C2502118C30B2118C26EC2809E9CC282C5
:1029D00000D09EACFED7C3CF1FF0C4CF20F01200B2
:1029E000206E3F0E7916799620C01FF01F3A79505D
:1029F0001F18CF0B1F18796E799E7980A292A19231
:102A0000A082F28C120020EE06F01F50D926205032
:102A1000DA2210EE04F01F50E1262050E222DECF31
:102A2000E6FFDDCFE5FF120082C021F083C022F077
:102A3000D4EC8FF082C073F083C074F084C075F062
:102A400085C076F016EC85F0120098C088F099C029
:102A500089F09AC08AF09BC08BF0A2EC88F098C0F5
:102A600064F099C065F01DEC8CF01200AD9CAD8A4D
:102A7000AD98AD94AC8EAC9CAC887E964D0EB06E8D
:102A8000000E7F6E9F9A9D8AF28C1200236E23C0E7
:102A90001FF0206A000E226E0A0E216E7DEC8FF070
:102AA0001F50060DF3502324120012001F6EC29E09
:102AB0001FB002D0C29C01D0C28CC18EC19CC1503B
:102AC000F80B0609C16E1200206E20C01FF00F0E19
:102AD0001F1620380F0B0F0B0A0DF3501F24120086
:102AE0001200D388D38AD38C9B8CFC0ED316120091
:08FFF8008CF70AFAF2F8FFFB96
:00000001FF
