:1000000082310F2A003440347E14803120007F0872
:10001000D400911A91122100110E01392000CD0057
:10002000110E01394D0503192528CC308D31C52518
:100030008031003A03192328CC308E311B268031C1
:1000400023009A002528210011122000111CB52838
:10005000111003108C1D0314003003180130F00040
:1000600032308531E3258031031020000C1E03144B
:10007000003003180130F00035308531E325803140
:10008000031020008C1E0314003003180130F00010
:1000900038308531E32580312000D5010330550209
:1000A0000318B5285503FF3A023E8B31E023803117
:1000B0007035F400710DF5000330F6000030F700E4
:1000C0008C316A24803174082000CD007508CE0080
:1000D000CE36CD0CCE36CD0C5535263E860087016A
:1000E0004D08C03F4E08C13F5535263E860087016A
:1000F000403FCD00413FCE0000304E023230031968
:100100004D020318A3285535573E8600013087005D
:100110000130810741310318810A5535573E860069
:1001200001308700403FCD00413FCE0000304E02FD
:10013000B43003194D02031CAC28F00155088D3171
:100140009C258031AC2820005535573E8600013073
:1001500087000030C03FC13F01302000CD004D0876
:10016000D50703305502031C52280B1D0B2A0B1117
:100170000130AC070030AD3D01302D06031DC22813
:1001800090302C06031DD228AC01AD0187311E270B
:10019000803120003008CD004D08C900310882317F
:1001A0003522803101302000AE070030AF3D0730EE
:1001B0002F06031DDD28A1302E06031D0B2AAE01DC
:1001C000AF01D5010330550203180B2A5535263EE1
:1001D00086008701403FCD00413FCE004D08CF0053
:1001E0004E08D000D101D2015508D3000130D335DB
:1001F000FF3E031DF7285335BA3E860087014F089E
:10020000810741315008813D41315108813D4131E3
:100210005208813D0030F3000030F2000E30F10052
:100220001030F0005508CD000130CD35FF3E031DE4
:1002300015294D35BA3E86008701403FF400413F05
:10024000F500423FF600433FF7008F315B278031D6
:1002500020005535203E860087017008C03F710898
:10026000C13F55355D3E860001308700403FCD00DF
:10027000413FCE005535203E86008701403F4D0668
:10028000031D4429413F4E060319032AF401550872
:10029000CD000130CD35FF3E031D4A294D35BA3E14
:1002A00086008701403FCE00413FCF00423FD00053
:1002B000433FD1001830D136D00CCF0CCE0C890B77
:1002C0005B294E08D2005208F50055088C3187246E
:1002D00080310B302000CE006230CD00CD0B6E2976
:1002E000CE0B6E290000F401F40A20005508CD0061
:1002F0000130CD35FF3E031D79294D35BA3E8600CC
:100300008701403FCE00413FCF00423FD000433FF6
:10031000D1001030D136D00CCF0CCE0C890B8A29ED
:100320004E08D2005208F50055088C3187248031E0
:100330000B302000CE006230CD00CD0B9D29CE0BBE
:100340009D29000002302000CD004D08F400550822
:10035000CE000130CE35FF3E031DAA294E35BA3EF0
:1003600086008701403FCF00413FD000423FD1008F
:10037000433FD2000830D236D10CD00CCF0C890BC1
:10038000BB294F08D3005308F50055088C3187244A
:1003900080310B302000CE006230CD00CD0BCE2955
:1003A000CE0BCE29000003302000CD004D08F40014
:1003B0005508CE000130CE35FF3E031DDB294E35FA
:1003C000BA3E860087010108CF004F08F5005508A6
:1003D0008C31872480310B302000CE006230CD007C
:1003E000CD0BF029CE0BF029000020005535203E22
:1003F0008600870155355D3E840001308500403F11
:10040000803F413F813F0130CD004D08D50703308B
:100410005502031CE6285408FF007E1009008231B3
:10042000112A20308400003085001B308A31EE22F2
:100430008231BA3084000030850016308A31EE22D5
:10044000823157308400013085000C308A31EE2231
:1004500082312100803102208231D000803103209E
:10046000D1007E1020008431272C2000CC008B315D
:100470000A238231F70100308B3146238231172C59
:10048000F70100308B31462382311030F400883080
:10049000F5008E3176268231F701F70A00308B3174
:1004A000462382310830F4008830F5008E317626FC
:1004B00008001E30F4008830F5008E317626823137
:1004C0007D2A1730F4008830F5008E31762682318F
:1004D0007D2A2430F4008830F5008E317626823172
:1004E0007D2A20004C08003A0319592A013A0319C1
:1004F000612A033A0319692A7D2AF701F70A0030B5
:100500008B3146238231E830F6000330F7002000BB
:100510004C35263E86008701403FF200413FF30004
:100520001030F0002730F1008E31482682317108FA
:10053000F901F9077008F801F8078E31A526823114
:100540007608303E8C31162482312E308C311624C0
:1005500082316430F6000030F70020004C35263E32
:1005600086008701403FF200413FF300E830F00091
:100570000330F1008E31482682317108F901F90704
:100580007008F801F8078E31A52682317608303ED2
:100590008C31162482310A30F6000030F70020003A
:1005A0004C35263E86008701403FF200413FF30074
:1005B0006430F0000030F1008E314826823171083D
:1005C000F901F9077008F801F8078E31A526823184
:1005D0007608303E8C31162482310A30F00000302B
:1005E000F10020004C35263E86008701403FF20096
:1005F000413FF3008E31482682317008303E8C3105
:100600001624823141308C31162408001E30F4004B
:100610008830F5008E31762682312A2B1730F4008F
:100620008830F5008E31762682312A2B2430F40072
:100630008830F5008E31762682312A2B20004C0836
:10064000003A0319062B013A03190E2B033A03193A
:10065000162B2A2BF701F70A00308B314623823103
:1006600000302000BE000030BD002730BC0010303C
:10067000BB004C35203E86008701403FCA00413F09
:10068000CB004A08F4004B08F500F601F7010030F2
:10069000F3000130F2008630F100A030F000873125
:1006A0009327823173082000C2007208C1007108CC
:1006B000C0007008BF0086319C26823120003B08B4
:1006C000303E8C3116248231E830F6000330F700DA
:1006D00020004C35203E86008701403FF200413F1C
:1006E000F3001030F0002730F1008E3148268231BF
:1006F0007108F901F9077008F801F8078E31A5268D
:1007000082317608303E8C31162482316430F60016
:100710000030F70020004C35203E86008701403F26
:10072000F200413FF300E830F0000330F1008E3179
:10073000482682317108F901F9077008F801F807B5
:100740008E31A52682317608303E8C3116248231D6
:100750000A30F6000030F70020004C35203E8600BD
:100760008701403FF200413FF3006430F000003069
:10077000F1008E31482682317108F901F9077008BD
:10078000F801F8078E31A52682317608303E8C318B
:10079000162482310A30F0000030F10020004C3580
:1007A000203E86008701403FF200413FF3008E313A
:1007B000482682317008303E8C311624823129302F
:1007C000F4008830F5008E31762608001E30F400E3
:1007D0008830F5008E31762682310A2C1730F400ED
:1007E0008830F5008E31762682310A2C2430F400D0
:1007F0008830F5008E31762682310A2C20004C0894
:10080000003A0319E62B013A0319EE2B033A0319B8
:10081000F62B0A2CF701F70A00308B314623823180
:100820000030F4008830F5008E3176260800200074
:100830004908003A0319402A013A0319712A033A78
:1008400003191E2B013A0319FE2B262C08008D31AB
:10085000072584312100A001A00A00308D31F02548
:1008600084312100A001A00A01308D31F0258431AE
:100870002100A001A00A02308D31F0258431210031
:10088000A001A00A00308D31742584312100A0011F
:10089000A00A01308D31742584312100A001A00A05
:1008A00002308D317425843120302100AC002C08B9
:1008B000A0003230AD002D08A100CC308B31FB23DD
:1008C00084312200D601033056020318072D21007F
:1008D000A601220056088E31DB2684312100AC00AF
:1008E0002C082200D2000B302100AD006230AC0099
:1008F000AC0B782CAD0B782C00002100A601A60AC9
:10090000220056088E31DB2684312100AC002C08F1
:100910002200D3000B302100AD006230AC00AC0BE4
:100920008F2CAD0B8F2C000002302100AC002C0866
:10093000A600220056088E31DB2684312100AD004E
:100940002D082200D4000B302100AD006230AC0035
:10095000AC0BA82CAD0BA82C000003302100AC0080
:100960002C08A600220056088E31DB268431210097
:10097000AD002D082200D5000B302100AD00623003
:10098000AC00AC0BC12CAD0BC12C000022005508F3
:100990002100AC00AD01AE01AF01220054082100DE
:1009A000B000B1013008B100B00100303005B30033
:1009B000FF303105B4003308B5003408B600B70184
:1009C000B8013508AC073608AD3D3708AE3D3808EC
:1009D000AF3D220056082100B9000130B935FF3E75
:1009E000031DEE2C3935BA3E860087012C08C03F26
:1009F0002D08C13F2E08C23F2F08C33F0130AC0075
:100A00002C082200D60703305602031C672C8B17D4
:100A1000D601033056020318082D10302100AC0017
:100A20002C08A000220056088C31C7248431003ADB
:100A30000319332D2100A001A00A220056088D3190
:100A4000F02584312100A001A00A220056088D3132
:100A50007425843122005635573E860001308700C8
:100A60000030C03FC13F10302100AC002C08A00076
:100A7000220056088C31C7248431003A0319632DB3
:100A8000220056082100AC002C082000B1003008DC
:100A9000023A031D4E2DB001B00A542D0130210041
:100AA000AC002C082000B0072100A001A00A220001
:100AB00056088D31742584312100A001220056088A
:100AC0008D312A25843140302100AC002C08A00053
:100AD000220056088C31C7248431003A0319872D2F
:100AE000220056082100AC002C082000B100B00103
:100AF0002100A001A00A220056088D3174258431FE
:100B00002100A001220056088D312A258431803031
:100B10002100AC002C08A000220056088C31C7240C
:100B20008431003A0319BE2D220056082100AC0082
:100B30000130AC35FF3E031D992D2C35BA3E8600A1
:100B400087010030C03F0030C13FC23FC33F033088
:100B5000AC002C082000B0002100A001A00A220057
:100B600056088D317425843108302100AC002C08E2
:100B7000A000220056088D312A258431083021003A
:100B8000AC002C08A000220056088C31C724843108
:100B9000003A0319DC2D2000B0012100A001A00AB9
:100BA000220056088D31742584312100A0012200D5
:100BB00056088D312A25843101302100AC002C08E3
:100BC0002200D607092DF300700803193E2E730882
:100BD00086008701403FF100413FF2000030720281
:100BE0009730031971020318FD2D730886008701E1
:100BF0000130810741310318810A7308860087019B
:100C0000403F963A031D062E413F003A031D0D2E2C
:100C10007308023E860087018117730886008701EA
:100C2000403F4B3A031D162E413F003A031D1D2E37
:100C30007308023E8600870101177308860087014A
:100C4000403F1E3A031D262E413F003A031D2D2E24
:100C50007308023E860087018116730886008701AB
:100C6000403F023A031D362E413F003A031D080063
:100C70007308023E8600870101160800730886008B
:100C80008701403FF100413FF20000307202963090
:100C900003197102031C522E7308023E860087015D
:100CA00081158D2E730886008701403FF100413F7A
:100CB000F200003072024B3003197102031C662EE1
:100CC0007308023E8600870101158D2E7308860089
:100CD0008701403FF100413FF200003072021E30B8
:100CE00003197102031C7A2E7308023E86008701E5
:100CF00081148D2E730886008701403FF100413F2B
:100D0000F20000307202023003197102031C8D2EB2
:100D10007308023E8600870101147308860087016C
:100D20000030C03FC13F0F30F1007308023E860023
:100D300087017108810508002000C401BE1FAD2E87
:100D4000BB09BC09BD09BE09BB0A0319BC0A0319CA
:100D5000BD0A0319BE0AC401C40AC21FBE2EBF09C0
:100D6000C009C109C209BF0A0319C00A0319C10A8F
:100D70000319C20A0130FB007B08C4060030C8001A
:100D80000030C7000030C6000030C5003E083D04FA
:100D90003C043B040319072FC301C30ABE1BDC2E0E
:100DA0000130BB35BC0DBD0DBE0D890BD12E013000
:100DB000FB007B08C307CE2E0130C535C60DC70D1D
:100DC000C80D890BDD2E3E084202031DF12E3D08A1
:100DD0004102031DF12E3C084002031DF12E3B0889
:100DE0003F02031CFC2E3B08BF023C08C03B3D08F1
:100DF000C13B3E08C23B45140130BE36BD0CBC0CA5
:100E0000BB0C890BFD2E0130C302031DDC2E4408F0
:100E10000319152FC509C609C709C809C50A031949
:100E2000C60A0319C70A0319C80A4808BE004708BA
:100E3000BD004608BC004508BB0008002000BF01FB
:100E400003303F02031808000130BB003F08C63ED4
:100E5000860087013B0881073F08C63E8600870160
:100E6000011C382FF0013F088D314E2587318D2F21
:100E70006430F6000030F70020003F35263E860043
:100E80008701403FF800413FF9008E31A5268731A8
:100E900076082000BB007708BC000230F00000306C
:100EA000F1003F08C63E860087010108BD00BE0173
:100EB0003D08F2003E08F3008F31AD2787317108FD
:100EC00020003C02031D662F70083B02031C722F9A
:100ED000F001F00A3F088D314E25873120003F0890
:100EE000C93E8A2F0130BB003F08C93E86008701FA
:100EF0003B088107F0013F088D314E2587312000E6
:100F00003F08C93E8600870102300102031C8D2F75
:100F10003F08C63E86008701810101302000BB00EA
:100F20003B08BF07202FFA01F71FA32FF409F5098B
:100F3000F609F709F40A0319F50A0319F60A031961
:100F4000F70AFA01FA0AF31FB02FF009F109F209C2
:100F5000F309F00A0319F10A0319F20A0319F30A53
:100F600073087204710470040319E92FF901F90A76
:100F7000F31BC62F0130F035F10DF20DF30D890B87
:100F8000BB2F0130F8007808F907B82F73087702F3
:100F9000031DD42F72087602031DD42F7108750229
:100FA000031DD42F70087402031CDE2F7008F40296
:100FB0007108F53B7208F63B7308F73B0130F336D6
:100FC000F20CF10CF00C890BDF2F0130F902031D3C
:100FD000C62F7A080319F72FF409F509F609F7095E
:100FE000F40A0319F50A0319F60A0319F70A770830
:100FF000F3007608F2007508F1007408F0000800AC
:101000005234653473346534743465346434003474
:10101000533474346134743469346F346E3400344E
:101020004334683461347234673465340034433493
:1010300065346E3474346534723400345234693437
:1010400067346834743400344C3465346634743432
:0A10500000346D344134683400347C
:1015C40005308A31F42224001615080005308B31C9
:1015D4001823240016150800640080010131890BCA
:1015E400EF2A0034F100710824001405F0001608F5
:1015F4001F39700403190800F52A80302400940070
:1016040028309500133092002000911192110800A7
:1016140001308C3132248B310C30F8006C30F700FF
:10162400F70B122BF80B122B000008002100A1006D
:101634002108240014052100A000240016081F39E5
:1016440021002004031908001A2B01308C31E724EF
:101654008B310C302100A8006C30A700A70B302B75
:10166400A80B302B00000800F20005308A31F42268
:101674008B31200091117208240091002000911DEB
:10168400402B240016080800FA0021005108F90133
:10169400F9075008F801F8077708783E86008701B3
:1016A40001087A0780388C31322408002100A20016
:1016B40005308B3118238B31200091112100220831
:1016C400240091002000911D642B240016080800BA
:1016D4002100A0009E171E088F3960389E001E113D
:1016E4001E082006FC3920069E002008033A031D2C
:1016F400080083302200970008002100A100A108FF
:10170400031D862B95158F2B9511FF302107A00003
:1017140015082006F83920069500951215128B1627
:101724000B1708002100A100200018143F30980571
:1017340021002108A000A00E200018082100200686
:10174400CF3920062000980097019601210011143A
:101754000B170800F30005308A31F4228B31240082
:10176400161405308A31F4228B312000911173351F
:101774007207240091002000911DBD2B2400160E39
:10178400890C890C0139080005308B3118238B3101
:101794002400961405308B3118238B3120009111CD
:1017A400210022352407240091002000911DD72B0D
:1017B4002400160E890C890C01390800F30021005D
:1017C4001D147308F200F20DF20D1D087206833920
:1017D40072069D003530F200F20BEE2B21009D14B1
:1017E4009D18F22B1C08F101F1071B08F001F0070A
:1017F40008002100A3002008A20023088600870116
:10180400220881002108A200230A860087012208F9
:1018140081002308023E8600870181012308033EDC
:101824008600870181010800F500F2013E308B310A
:10183400AC238C31F4007408F600F608031D2A2C3E
:10184400C0308B3136238C3175088B3136238C3183
:101854008A31E2228C314530F400F40B2F2C08003D
:10186400F500F2013E308B31AC238C31F400740866
:10187400F600F608031D462C80308B3136238C315C
:1018840075088B3136238C318A31E2228C31453014
:10189400F400F40B4B2C08002100A30005308B311D
:1018A40018238C312400161405308B3118238C3105
:1018B40020009111210023352207240091002000EB
:1018C400911D612C2400160E890C890C0139080025
:1018D400F801F901741C722C7608F8077708F93DB1
:1018E4000130F635F70D890B732C0130F536F40C05
:1018F400890B782C75087404031D6C2C7908F50188
:10190400F5077808F401F4070800F700F2015030F5
:101914008B31AC238C31F6007608F800F808031DEF
:101924009F2C77088B3136238C3174088B31362306
:101934008C3175088B3136238C318A31E2228C311B
:101944004530F600F60BA42C08002100A300053056
:101954008B3118238C312400961504308B311823D5
:101964008C31240011082100A2002208A4000530B3
:101974008B311823210023082400031D9616031914
:10198400961216162100240808002100A100DB2C61
:101994002000340821002005080020003708210019
:1019A4002005080020003A08210020050800003026
:1019B40008002108003A0319D42C013A0319CF2C4A
:1019C400033A0319CA2CD92C08002100A500A2014E
:1019D4003E308C314E248C312100A4002408A60012
:1019E400A608031DFE2C80308B3158238C31210036
:1019F40025088B3158238C318A31E8228C314530CB
:101A04002100A400A40B042D0800703021009900CB
:101A14003F308C0012308D00073023008C008D0184
:101A2400123024008D002100951303308B316A237A
:101A34008D3104308B317F238D3102308B319423EF
:101A44008D318A31FF228D318F3118270B17080011
:101A54002100A200412D2008A10021082000B40586
:101A6400080021002008A10021082000B705080073
:101A740021002008A10021082000BA050800210047
:101A84002208003A03193A2D013A0319332D033A77
:101A940003192D2D4D2D0800F100682D701C552DB6
:101AA40022008D16080022008D120800701C5D2D86
:101AB40022000C17080022000C130800701C652D6E
:101AC40022008C17080022008C1308007108003AC9
:101AD4000319502D013A0319582D033A0319602DA7
:101AE400732D08002100A1008F2D201C7C2D2200C5
:101AF4008D16080022008D120800201C842D22005F
:101B04000C17080022000C130800201C8C2D220046
:101B14008C17080022008C13080021002108003AC9
:101B24000319772D013A03197F2D033A0319872DE1
:101B34009B2D0800F100B92D70080319A42D220073
:101B44000D10080022000D14080070080319AD2DB3
:101B540022008D11080022008D1508007008031959
:101B6400B62D22000D13080022000D17080071087D
:101B7400003A03199E2D013A0319A72D033A0319BC
:101B8400B02DC42D0800F1007108023E86008701C3
:101B94007108033E8400850100080102031CDE2D48
:101BA4007108023E860087017108033E84008501A6
:101BB4000003FF3A010708007108023E860087010E
:101BC400710A840085010008F0007108033E840056
:101BD40085010003FF3A7007010708002100A100F6
:101BE4000E2E20080319F92D22000D1008002200E2
:101BF4000D14080020080319022E22008D1108007C
:101C040022008D150800200803190B2E22000D1345
:101C1400080022000D17080021002108003A0319CA
:101C2400F32D013A0319FC2D033A0319052E1A2E3C
:101C34000800F3007308860087017308033E8400DC
:101C4400850100080107F000700886000130870054
:101C54000108F1007108F2000130F0007308033E3E
:101C640086008701700881077308033E8600870198
:101C7400730A8400850100080102031C462E7308C0
:101C8400033E860087018101720808007108700410
:101C940003196F2EF501F50AF11B5A2E0130F035A8
:101CA400F10D890B512E0130F4007408F5074E2E06
:101CB40071087302031D602E70087202031C662EE5
:101CC4007008F2027108F33B0130F136F00C890B15
:101CD400672E0130F502031D5A2E7308F101F10736
:101CE4007208F001F0070800F2013E308B31AC239A
:101CF4008E31F600F7017608F8007708F9007908C4
:101D04007804031DA22E40308B3136238E317408A3
:101D1400840075088500000800380319A22E740891
:101D240084007508850000088B3136238E3101301C
:101D3400F4070030F53D4530F600F60B9F2E892E52
:101D44008A31E2220800FB01FC01770876040319BA
:101D5400D42EFD01FD0AF71BB92E0130F635F70D1F
:101D6400890BB02E0130FA007A08FD07AD2E013040
:101D7400FB35FC0D890BBA2E77087902031DC42E9E
:101D840076087802031CCB2E7608F8027708F93B14
:101D94007B140130F736F60C890BCC2E0130FD0292
:101DA400031DB92E7C08F701F7077B08F601F60737
:101DB40008002100A800A20150308C314E248E313D
:101DC4002100A7002708AA00AA08031DF22E28084C
:101DD4008B3158238E31210026088B3158238E31C4
:101DE40050302100A2000030A3000130A4000030D4
:101DF400A5008B31C6238E312100A7002708AA0035
:101E0400AA08031D0D2F01308C31A7248E31210027
:101E1400A7002708A9008A31E8228E314530210025
:101E2400A700A70B132F2100290808000230210066
:101E3400AB00A030AA009230A900A90B1F2FAA0B57
:101E44001F2FAB0B1F2F000038308C31E7248F314C
:101E540039308C31E7248F3114308C31E7248F31C1
:101E640070308C31E7248F3156308C31E7248F3138
:101E74006C308C31E7248F3109302100AB001E30E7
:101E8400AA00EB30A900A90B452FAA0B452FAB0BD9
:101E9400452F000038308C31E7248F310C308C31E1
:101EA400E7248F3106308C31E7248F318B3127239F
:101EB40008000030FC000030FB000030FA00003065
:101EC400F90073087204710470040319A42FFD014E
:101ED400FD0AF31B792F0130F035F10DF20DF30DEE
:101EE400890B6E2F0130F8007808FD076B2F013045
:101EF400F935FA0DFB0DFC0D890B7A2F7308770267
:101F0400031D8E2F72087602031D8E2F7108750231
:101F1400031D8E2F70087402031C992F7008F4029D
:101F24007108F53B7208F63B7308F73B79140130EE
:101F3400F336F20CF10CF00C890B9A2F0130FD02F0
:101F4400031D792F7C08F3007B08F2007A08F10066
:101F54007908F0000800F601F11FB72FF009F10924
:101F6400F00A0319F10AF601F60AF31FC22FF20967
:101F7400F309F20A0319F30A0130F4007408F606AF
:101F8400F701F801710870040319F12FF501F50A3E
:101F9400F11BD62F0130F035F10D890BCD2F013017
:101FA400F4007408F507CA2F0130F735F80D890BD2
:101FB400D72F71087302031DE12F70087202031CEE
:101FC400E82F7008F2027108F33B77140130F13600
:101FD400F00C890BE92F0130F502031DD62F76088A
:101FE4000319F92FF709F809F70A0319F80A780809
:0C1FF400F101F1077708F001F007080088
:020000040001F9
:04000E00A4C9FFDDA5
:00000001FF
