:020000040000fa
:080000000002040000000000f2
:020000040000fa
:100400008fbc21000eaf24000e0188000000000008
:1004100000012000200288000c000700a0b02c0082
:10042000010020000f000700000020000000e00095
:10043000020032000000020000000000c4ca0200f6
:10044000000000000040da000000fe0040c1200073
:100450000000e0000200320000202000900188002f
:1004600000000600a1028800800078000000eb0078
:100470001a003700e280400054a0b4009101ba0095
:10048000e280400054a0b4009102ba00e280400033
:1004900054a0b4000002eb00472bde00f507b200c9
:1004a000a6018800602ce10008003a000049eb003a
:1004b0000201e800020039003420ec0002f0a00044
:1004c0008301e900f9ff3e00040037006128e100e4
:1004d000010032000082eb00040007001101ba00a5
:1004e0000200e000e3ff3a000000060004d0a30091
:1004f000e20f49001c003900810278003549ba003a
:100500000201e800020039003420ec0002f0a000f3
:100510008301e9000f0032002549ba000201e8001a
:10052000020039003420ec0002f0a0008301e90051
:10053000080032000400e0000600320015c9ba00cd
:100540000201e800020039003420ec0002f0a000b3
:100550008301e9008180e80054a0b4000300e000ba
:10056000e2ff3a00000006009102ba000559780047
:100570008301e900f7ff3200c82ade000559780040
:100580008301e900f3ff32000400e000f1ff3200d4
:1005900011d9ba00eeff370082cf0400000000003e
:1005a00082b8040000000000acb7040000000000a6
:1005b00086b7040000000000cec704000000000061
:1005c0009cc7040000000000ea9c0400000000003a
:1005d000089c040000000000f8a2040000000000d5
:1005e00056a0040000000000a6a6040000000000c1
:1005f00068a3040000000000fca904000000000043
:10060000bebf04000000000082bf04000000000024
:10061000dcc5040000000000aac5040000000000c2
:10062000e6be0400000000004cbe04000000000014
:1006300044bd0400000000007cca0400000000006b
:100640006ec904000000000000a0fe003600f800a3
:10065000849fbe00869fbe003200f8000420200068
:10066000940188004458800055588000610242007f
:10067000e0824a0044588800555888000a21ef005b
:100680008500a9002cb10200000000003200f90032
:100690004f03be004f02be003600f9000080fe008e
:1006a000004006000a21ef00e439200074088800a9
:1006b0008500a9009500a80013e1a800000006002d
:1006c000d802a900c0a2a900dc02a800ed04a9007c
:1006d000e924a900e2a4a900f102a800e122a800ef
:1006e000c8a2a800c002a900c402a800e204a90090
:1006f000c802a900cc02a800d902a900dd02a90005
:10070000e224a900c822a900cc22a800c002a900a6
:10071000c402a8002e84020000000000c1c2a9008b
:10072000c5c2a800d902a900c822a900c802a80011
:10073000e204a900e224a900f40b2000153a80008d
:100740000502620065042000760520002774200061
:10075000854b7800864b7800844b780000fc2f0096
:100760001736800007026000b400b300143688001a
:10077000f40f2c00073680000702620007a020005b
:100780000702720004368800ac26b600143a8000d6
:100790000460a00027742000854b7800864b780009
:1007a000844b780080b0290058bc02000000000093
:1007b000bcff07008001eb0062ee2b00c1e42b00c0
:1007c00040d42b005ac50400000000000040da00ad
:1007d0000000fe00839f68000100e00002003d0071
:1007e00060001000e08018000300e00002003d00ff
:1007f00060011100e0811900050007004f00e000d2
:1008000002003b0060001000e080180000000600bd
:100810006022b800060220000000d0008180d200d3
:100820000482d2008582d2000000a00002025200a1
:1008300083825a00030031000202420083824a0090
:100840000000a1000603e900f3ff3a0000000600e3
:10085000020ab900001bb9000200b8008100420082
:100860008100430000000600e4874700889fbe0027
:100870008a9fbe008c9fbe008e1f7800e4c02000bf
:1008800075608000e08f52000b003a00e4024200e5
:1008900075608800c560880024029800b4608800f4
:1008a000a44290000504a00025429800e442900074
:1008b0000504a00065429800670440004244de0041
:1008c0004244dd00b260800084c2200089bc210067
:1008d0008484540025002000110009008504d800fc
:1008e00080bf9f00050744000e0747000003eb0090
:1008f000e4054400bcbc210004065600080646007e
:1009000002003700160020000d01780022429000fe
:1009100061026200020032000a0037001509780007
:10092000920278002542900061026200fbff3200d3
:1009300008024100848f520002003900e00f540089
:100940003f003d00920678000d00a100828f560006
:10095000edff3e00e10f5300eaff3a000fba9700a7
:10096000840f540002003600890f54001000390033
:100970006143b800614ab900b0ff2f0001002000b8
:100980000402500085825800840f5300858f5b005d
:10099000020035000b057800060037001100090041
:1009a0000986d8000982b9000405780001003700e3
:1009b0000e0578000a007800db030700e10f400015
:1009c00005003a000b0578000b007800d6030700fd
:1009d000e10f40002b003200c4608000000a780064
:1009e000c460800064034200a4429000860f50005f
:1009f000020032000504a000010037000504a10038
:100a000025429800640555000a0540000a08780050
:100a1000ca608800e4c02000040d7800c560800032
:100a2000254290000404a000a442980020429000b7
:100a30000404a100244098000003eb00b2ff37003b
:100a4000b4608800848f5200070036001403be0093
:100a5000d6608800e7608800120a78008042eb00c8
:100a6000b460800025429800b760800007097800d4
:100a7000224290000404a000244198006400410038
:100a8000010037000000eb004f0778004f06be0062
:100a90004f05be004f04be004f00b100000006002d
:100aa000e00f50000800320064005000b460800085
:100ab000840f500001003100b06088002042900097
:100ac0000404a1002440980000000600889fbe0096
:100ad0008a9fbe000004be00e08f540005003a006b
:100ae000e00f54003200320008007800ecff0700ed
:100af00030003700e00f540004003a00090078008d
:100b000059ff0700800478002a003700640254006f
:100b10009405780068fa97006102620002003200d2
:100b200008007800deff0700090078004eff07008c
:100b300080047800e08f54001e003200888f54003b
:100b40001b00320069bd97000905550042d5de0043
:100b500088855500c2ddde000a0178008b0f550044
:100b6000010036000b0178004211dd00880078009a
:100b70000900780013000700888f54000d00310031
:100b80004255dd000a854400880f550009003600f3
:100b90000804550042c4de004244dd0008844400dd
:100ba000d4608000e5608000048cbe000100370046
:100bb00088047800090078004f05be004f04be008d
:100bc000000006000002780002003700315a780069
:100bd0000201e900e00f5100fcff3a0000000600ae
:100be0000c00fa00889fbe0000047800f4ff270084
:100bf000d4bf9f008004eb0099bf9f0088bf9f0077
:100c0000a8bf9f00240c2000b4bf9f00788157002c
:100c1000cfb0970070805700070007000fba970009
:100c2000094a78000fba9700080052004f04be002e
:100c30000080fa00000006002f03b000889fbe006d
:100c40008a9fbe008c9fbe008e1f7800e0af9f0081
:100c5000c1af9f00b2b79f008006eb006e02370065
:100c6000cfa897008100e800c1af9f0054c2b30035
:100c7000844f500006003a00010278000006eb00a5
:100c800001c3b30000c2b300b7c2b300070037000e
:100c90000000fb00efa897006b020700e10f400087
:100ca0005d0232008d06e8005b02370084027800a6
:100cb00034437800d2c2b300824f5300090032009f
:100cc00005003c00804f530008003200874f53005e
:100cd0000c003a0007003700814f530009003a002a
:100ce000060037000c30a000f0ff37000c00a00019
:100cf000eeff37000c10a000ecff37000c20a00026
:100d0000eaff370062026600010032000c00a10019
:100d100068026600010032000c20a1000602fb0000
:100d20000403b100e90f52000c003e0005037800f7
:100d30000002eb006a22b900b603fb000703b10012
:100d400004824300860278009603fb000703b1008b
:100d5000e98f5300f7ff3600080037000002eb0070
:100d6000a7c2b300874f530004003a00bfb19700f9
:100d700043027800b3b79f008502e8000007eb004c
:100d8000e6c2b300954f13000a003a000ce0a00041
:100d900064435300d54f130002003200050378006e
:100da000080037003fb3970046077800b6b79f00aa
:100db0008502e80005037800080037006a70b90072
:100dc0000087430086027800b603fb000703b100ea
:100dd000e98f5300f9ff3600f6ff3700b64278007e
:100de000c6af9f00c0c6b30080cf520025003200be
:100df0000f003c0036c6b30086cf52006e003200b2
:100e000004003c00e0cf5200080232006b43530064
:100e10000f00370046c6b30086cf520017003200dd
:100e20006543430086cf520083003a001300370029
:100e300036c7b30086cf52001f00320007003c00c7
:100e40006443530086cf5200140032000643e8008a
:100e500086cf520078003a001300370056c7b3001f
:100e600086cf5200790032006343430086cf5200a0
:100e700071003a00a5c79f000d003700a5c79f006d
:100e800074003700f0036600050120000100320005
:100e90000500280005067600d0ff3700a5c79f0093
:100ea0000c60a0006b003700a5c79f000c50a0008d
:100eb0000c70a00067003700a5c79f00bfb0970067
:100ec000c1027800b1b79f0005047800e08f52009e
:100ed00001003a0008be2000080378008002eb0001
:100ee000010037008502e800e6c37a00e0cf530036
:100ef000fcff3a0085047800e00f57000300320041
:100f0000890f5700010031008e0478000007eb00c4
:100f1000890f52000100360009075200680666007a
:100f200014003a0007003700efa8970000022000e5
:100f3000c5010700e10f4000010032008d06e80006
:100f40000e07e900e00f5700f7ff3a000087eb00bb
:100f500008003700080278003400fb000404780021
:100f6000efa89700b8010700e10f40000100320030
:100f70008d06e800090278008404e900e00f5200c1
:100f8000f4ff3a00e00f5600a301320007003700db
:100f9000efa8970000022000ab010700e10f40001e
:100fa000010032008d06e8000e07e900e00f57004f
:100fb000f7ff3a00980137003fb19700c20278006e
:100fc000b2b79f0005007800cf80de0001017800f5
:100fd00082017800f0af9f0081b79f0092b79f0019
:100fe000a3b79f004800de00c80add000080720041
:100ff000a0c79f007003660009003200e04f500058
:1010000007003200e14f400005003200b0c79f00ea
:101010006fdb9700c6c79f00290020000300370040
:10102000efdb9700b7c79f001900200038fc2f00a6
:101030000f044400b0ff3700a5c79f0028fc2f0015
:101040000f04440019002000abff3700a5c79f0024
:101050000c0cb3008c027800050cb2002b003a0097
:10106000e00f560005003d003fb097004005be0070
:101070004004be00b0b79f0017003700f0026600c2
:101080000f003200bfb297004501be00b5b79f0008
:10109000c2a79f00d3a79f00050378009602900087
:1010a000cfaade00e5a79f00f5a79f004fa49700f9
:1010b000dfa497006fa59700ffa5970006003700f3
:1010c0003fb0970040047800b0b79f00cfc4de0067
:1010d000090578008a057800e00f5400e08f5c0075
:1010e000e00f5d00e08f5d0025003d003c00b30097
:1010f0006000b8006011b8000804500089845800ee
:101100000a0559008b8559001d003700e00f560075
:1011100005003d00bfb097004105be004104be0080
:10112000b1b79f0016003700f00266000e003200d3
:10113000bfb297004501be00b5b79f0082af9f00c8
:1011400093af9f000003eb00a6af9f008003eb006e
:10115000b7af9f000fac97009fac97002fad9700e3
:10116000bfad9700060037003fb0970040047800fd
:10117000b0b79f00090020000a0020000b002000eb
:10118000e00f570007003a001e002000e00f540057
:10119000e08f5c00e00f5d00e08f5d000100320039
:1011a0000007eb008c007800010cb200f1af9f004b
:1011b00005042000858f50002c00320003003c0005
:1011c000e08f5000080032003c0037000508200086
:1011d0007fa99700850f510010003200050c2000f8
:1011e000850f510035003a0066b2200015c0b300eb
:1011f0003600be003601be000040e10001c8e1003b
:1012000002d0e10003d8e1002b0039008542e8005c
:10121000f4cf5200f6ff3a002700370015c0b300a4
:1012200000012000010020006011b8000040e10032
:1012300001c8e10002d0e10003d8e1001e0039003e
:10124000460020000000d0008180d2000281d20040
:101250008381d2000603e900faff3a008542e800e4
:10126000f0cf5200f1ff3a001300370015c0b30071
:1012700080002000010020006011b8000040e10063
:1012800001c8e10002d0e10003d8e1000a00390002
:10129000370020000000d0008180d2000281d200ff
:1012a0008381d2008703e900faff3a008542e80013
:1012b000f5cf5200f1ff3a00a5c79f002fc097005d
:1012c0008002fb008e8f520002003d00aec79f00df
:1012d00003003700850f570001003d000507780027
:1012e000e00f520003003200e3026600010032000a
:1012f0000402e900050024008502660005003200b2
:101300008e0f5200020034000e025200010037001e
:101310000002eb002fc197008202fb008001eb006e
:10132000d3af9f00850f52000200340085025200a7
:10133000d5af9f00640266002c003200e202660016
:1013400061026600e08f520006003200b002200009
:10135000e00f5200010032000080e800efa8970083
:1013600004003700e00f520006003200efa897009b
:1013700000022000b4000700e10f4000010032002d
:101380008d06e8005faa9700e00f52008d00320042
:101390000802be000a03be00dfac9700efa897006a
:1013a00000032000c4b79f00d5b79f00e6b79f0099
:1013b000f7b79f00a40007004fb29700dfb2970075
:1013c0006fb39700ffb39700e10f400001003200b8
:1013d0008d06e8008904e900f0ff3a00d9af9f00cc
:1013e0000605be000404be0076003700dfaa9700a1
:1013f000e08f5200180032006802660016003a00c2
:101400000802be000a03be00dfac9700efa89700f9
:1014100000022000c4b79f00d5b79f00e6b79f0029
:10142000f7b79f00880007004fb29700dfb2970020
:101430006fb39700ffb39700e10f40000100320047
:101440008d06e8008904e900f0ff3a00d9af9f005b
:101450000605be000404be00e202660061026600ea
:10146000e08f520006003200b0022000e00f520070
:10147000010032000080e800efa897000400370068
:10148000e00f52004f003200efa89700000220004a
:101490006d000700e10f40004a0032008d06e800b1
:1014a000480037000e07e9007fab970007042000d3
:1014b000870f53002d00320003003c00e00f530063
:1014c0000800320037003700040820007fae970084
:1014d000840f560012003200040c2000840f5600c6
:1014e00030003a004372dd00e0b12000000242000b
:1014f0005403be004402be000800be000a01be0044
:10150000d6010700a4002000050020006033b800c9
:10151000d901070004c3b300044240002000370093
:10152000f4bc2000bfa29700e08f520001003200ff
:10153000e4bb2000c272dd000800be000a01be004c
:101540008502e900050033008301d1000281d30048
:101550008180d3000080d300f9ff37006f00600066
:1015600064407800a0c79f000e0037006372b90086
:101570000800be000a01be00040678000c06e9005f
:10158000050033008301d1000281d3008180d300a4
:101590000080d300f9ff3700674260000443b000c9
:1015a000a4c79f00afc097000100fb00efa8970001
:1015b00025000700e10f4000060032008d06e8001c
:1015c000040037000c0178000202b200b2a79f00ad
:1015d0008cbf9f00e00f5700b2ff3a000fbe97008c
:1015e000680666000c003200dfa99700e08f51000a
:1015f0000900340003067800efa8970000022000dd
:1016000011000700e10f4000010032008d06e800e4
:101610000c06e900f8ff3a004faa97001440780042
:10162000a0c79f00e04f50008dfd3a000d007800ec
:101630004f0778004f06be004f05be004f04be00a6
:101640002f03b10000000600889fbe00010478004f
:1016500038029000e20262008084eb003b0032001e
:10166000040378000620b2009802900002003a00bd
:10167000e08f520035003a000490a0003404980036
:1016800080047800f90fb200e08f520002003a00a7
:10169000a8029000050c7800ea8f540005003a007b
:1016a0000408b20003003a0088007800d00020004f
:1016b000e5ff070018029000d8029000850f520045
:1016c0000b0032000402e8001404980018027800ad
:1016d000094a7800040ce80015c0b300e4c12000fa
:1016e000054a7800ea8f540018003a0005003700d8
:1016f000880078000940780017000700800478000f
:1017000012003700380290000410b2000f003200bf
:1017100018019000a80090004800900052000700b7
:1017200018029000840f500004003200380290002c
:101730000403b300340498008084eb000002eb0043
:101740001404980028029000040c78000900780026
:101750004f04be00000006000200fa00889fbe0091
:10176000a0ff9f00010478003802900084027800f6
:101770000504b200020032000000fb003500370013
:10178000e202620005003a000403b300340498004a
:10179000150498000080eb002e003700d80490005c
:1017a000e08f540006003a0012002000e680570047
:1017b000480090002c00070019049800230037000f
:1017c000a8029000e08f520008003a0015c22000e5
:1017d00025049800050c7800250020005504980089
:1017e000150498000430a0003404980018019000fb
:1017f000a8009000480090001b00070028029000fd
:101800008082eb0015049800affa9700054a780033
:10181000040ce8002ffa9700ea4f52000b003a0040
:10182000380290000410b200080032001801900045
:10183000a8009000480090000b0007000002eb0099
:1018400014049800a8029000050c78002ffa970065
:101850000400fb004f04be000080fa0000000600f8
:1018600000c0da00000006000a00fa00e20f500093
:1018700022003e0024618000e10f52000600320089
:101880008723200046232000242320000523200056
:10189000e08f530004003a008722200046222000f7
:1018a00024222000052220000000280015006000ee
:1018b00003003a00800b780007002800958a730027
:1018c000054020009482620001003a0014a0a000ac
:1018d0008202780006003700940378000710b200f7
:1018e000fdff3200b103fb00070b78008502e90021
:1018f000e08f5200f8ff3a00080037003400200063
:10190000b4bf9f00c0bf9f00d1bf9f00e2bf9f0038
:101910006a805700d2ff07006fb997000200780075
:101920000080fa0000000600889fbe008004780056
:1019300030618000e00f500004003a000e00070004
:101940000084eb00e00f5000080035003861800093
:10195000e08f540005003200090044000600070033
:10196000e00f500001003d000084eb00080078000b
:101970004f04be0000000600e00f500004003a00d3
:1019800084c220003461880000027800060037001d
:101990000082eb0085bc2100850f500002003e0054
:1019a000306188000002eb000400780000000600af
:1019b000889fbe008a9fbe003004be002005be0086
:1019c0000404440085844c0006054d0087854d00c5
:1019d0000898be000a90be000440e10005c8e1007e
:1019e00006d0e10007d8e1000200310068004000a5
:1019f0001008e8004f05be004f04be0000000600be
:101a00001000fa00889fbe008a9fbe000605be0037
:101a10000404be003002be002003be00c4b79f0015
:101a2000d5b79f00e6b79f00f7b79f0008025200a6
:101a300089825a000a035b008b835b0084bf9f008e
:101a400095bf9f00a6bf9f00b7bf9f000498be0030
:101a50000698be00110020004fb29700dfb2970039
:101a60006fb39700ffb397000820e10009a8e100d9
:101a70000ab0e1000bb8e100010039008000eb0082
:101a8000108810004f05be004f04be000080fa0011
:101a9000000006001400fa00889fbe008a9fbe0066
:101aa0008c9fbe003f0007000605be000404be0078
:101ab0000006eb00ccb79f00bcb79f00acb79f00ff
:101ac0009cb79f008cb79f000d0420004fb3970078
:101ad000bfb29700860343002fb29700e00f530078
:101ae00004003d003d0007000f004000b0ff07006c
:101af00003003700390007000f004000c0ff070057
:101b0000cfb2970095bf9f00e08f520009003500cb
:101b10002b00070014002000050020006033b800ef
:101b200000007200818072000201730083817300e3
:101b30001c0007000c06e8008d0f5600e3ff3a007a
:101b40001fba9700e00f520005003d000802be00da
:101b50000a03be0000fe2f000f00400094ff0700a4
:101b60004faa9700e00f520008003a000fb4970008
:101b70009fb497002fb59700bfb59700d8b79f00c7
:101b8000e9b79f00fab79f008bbf9f000c000700ca
:101b90004f06be004f05be004f04be000080fa0095
:101ba00000000600010007000000060090b79f003b
:101bb000a1b79f00b2b79f00c3b79f000000060007
:101bc00001000700000006001fb09700afb09700ab
:101bd0003fb19700cfb19700000006004f2bde0009
:101be00087037300a7b79f004f23de008582420062
:101bf0008502730095b79f00ffaa97004f2bde0068
:101c0000040242000402730084b79f006faa970089
:101c10004f23de008582420085027300f5af9f00ee
:101c2000e9ff07004f18de000402420000027200c4
:101c3000e4af9f00e4ff07000000400081804800ff
:101c40000201490083814900d8ff07000802be0055
:101c50000a03be0000fe2f0000000600881f780067
:101c600018002000881f78008aff07008f87e9008e
:101c70004f04780000000600801feb0085ff07007e
:101c80008f87e90000000600889fbe008a9fbe0083
:101c9000e00f5000e08f5800e00f5900e08f59002e
:101ca0000c003d006044b8006055b80000005400ce
:101cb00081805c0002015d0083815d0018002000ce
:101cc0001500070008003d00180007000004eb00a5
:101cd000050037000004eb000f00070002003d0084
:101ce0001200070018002000dcff0700e00f54007e
:101cf000060032006022b8006033b80000005200d5
:101d000081805a0002015b0083815b004f05be00a9
:101d10004f04be0000000600e00f5200e08f5a00a2
:101d2000e00f5b00e08f5b00000006006044b8003d
:101d30006055b8000402540085825c0006035d0013
:101d400087835d0000000600889fbe008a9fbe005a
:101d50008c1f7800e00f5000e08f5800e00f590012
:101d6000e08f59000d003d006044b8006055b80098
:101d70000000540081805c0002015d0083815d00f1
:101d80001c0020000820e10009a8e1000ab0e100e1
:101d90000bb8e1000d003d00080037000006eb0025
:101da000e00f5200e08f5a00e00f5b00e08f5b0015
:101db00006003d006044b8006055b80004025400bd
:101dc00085825c0006035d0087835d00aaff070033
:101dd000e00f5600060032006022b8006033b80001
:101de0000000520081805a0002015b0083815b0089
:101df0004f0678004f05be004f04be0000000600ed
:020000040000fa
:10000800e6030000e6030000e6030000e603000044
:10001800e6030000e6030000e6030000e603000034
:10002800e6030000e6030000e6030000e603000024
:10003800e6030000e6030000e6030000e603000014
:1000480024030000e6030000e6030000e6030000c6
:10005800e6030000e6030000e6030000e6030000f4
:10006800e6030000e6030000e6030000e6030000e4
:10007800e6030000e6030000e6030000e6030000d4
:10008800e6030000e6030000e6030000e6030000c4
:10009800e6030000e6030000e6030000e6030000b4
:1000a800e6030000e6030000e6030000e6030000a4
:1000b800e6030000e6030000e6030000e603000094
:1000c800e6030000e6030000e6030000e603000084
:1000d800e6030000e6030000e6030000e603000074
:1000e800e6030000e6030000e6030000e603000064
:1000f800e6030000e6030000e6030000e603000054
:10010800e6030000e6030000e6030000e603000043
:10011800e6030000e6030000e6030000e603000033
:10012800e6030000e6030000e6030000e603000023
:10013800e6030000e6030000e6030000e603000013
:10014800e6030000e6030000e6030000e603000003
:10015800e6030000e6030000e6030000e6030000f3
:10016800e6030000e6030000e6030000e6030000e3
:10017800e6030000e6030000e6030000e6030000d3
:10018800e6030000e6030000e6030000e6030000c3
:10019800e6030000e6030000e6030000e6030000b3
:1001a800e6030000e6030000e6030000e6030000a3
:1001b80080850000e6030000e6030000e603000077
:1001c800e6030000e6030000e6030000e603000083
:1001d800e6030000e6030000e6030000e603000073
:1001e800e6030000e6030000e6030000e603000063
:0801f800e6030000e60300002d
:020000040000fa
:10020800e6030000e6030000e6030000e603000042
:10021800e6030000e6030000e6030000e603000032
:10022800e6030000e6030000e6030000e603000022
:10023800e6030000e6030000e6030000e603000012
:1002480024030000e6030000e6030000e6030000c4
:10025800e6030000e6030000e6030000e6030000f2
:10026800e6030000e6030000e6030000e6030000e2
:10027800e6030000e6030000e6030000e6030000d2
:10028800e6030000e6030000e6030000e6030000c2
:10029800e6030000e6030000e6030000e6030000b2
:1002a800e6030000e6030000e6030000e6030000a2
:1002b800e6030000e6030000e6030000e603000092
:1002c800e6030000e6030000e6030000e603000082
:1002d800e6030000e6030000e6030000e603000072
:1002e800e6030000e6030000e6030000e603000062
:1002f800e6030000e6030000e6030000e603000052
:10030800e6030000e6030000e6030000e603000041
:10031800e6030000e6030000e6030000e603000031
:10032800e6030000e6030000e6030000e603000021
:10033800e6030000e6030000e6030000e603000011
:10034800e6030000e6030000e6030000e603000001
:10035800e6030000e6030000e6030000e6030000f1
:10036800e6030000e6030000e6030000e6030000e1
:10037800e6030000e6030000e6030000e6030000d1
:10038800e6030000e6030000e6030000e6030000c1
:10039800e6030000e6030000e6030000e6030000b1
:1003a800e6030000e6030000e6030000e6030000a1
:1003b80080850000e6030000e6030000e603000075
:1003c800e6030000e6030000e6030000e603000081
:1003d800e6030000e6030000e6030000e603000071
:1003e800e6030000e6030000e6030000e603000061
:0803f800e6030000e60300002b
:020000040000fa
:020000040005f5
:0457fc007f3e0000ec
:020000040000fa
:020000040005f5
:0457f800ad1b0000e5
:020000040000fa
:020000040005f5
:0457f400ffef0000c3
:020000040000fa
:101e000000000000200000007e0000001100000023
:101e1000048400000100000004950000010000009f
:101e200006a600000100000009b700000100000044
:101e300008d90000010000000cea000001000000c9
:101e40000a0c000002000000032e00000200000047
:101e5000043f0000020000000450000002000000e7
:101e6000086100000200000008720000020000008b
:101e7000048300000200000005940000020000003e
:101e800004a500000200000005b6000002000000ea
:101e900008c700000200000008d80000020000008f
:101ea00008e900000200000008fa0000020000003b
:101eb000080b000003000000081c000003000000e5
:101ec000082d000003000000083e00000300000091
:101ed000084f00000300000008600000030000003d
:101ee00004710000030000000482000003000000f1
:101ef000089300000300000008a400000300000095
:101f000008b500000300000006c600000300000042
:101f10000cd700000300000009f9000003000000d6
:101f2000091b000004000000083d00000400000040
:101f30000a4e0000040000000770000004000000ca
:101f400007810000040000000a9200000400000065
:101f50000ab400000400000005d6000004000000e0
:101f600004e700000400000008f80000040000007e
:101f700007090000050000000c1a00000500000021
:101f80000a3c0000050000000b5e00000500000098
:101f900008800000050000000b9100000500000013
:101fa00008b300000500000007c4000005000000a1
:101fb00007d50000050000000ae60000050000004b
:101fc00008080000060000000d19000006000000cf
:101fd000083b000006000000074c0000060000005f
:101fe000085d000006000000046e0000060000000e
:101ff000057f0000060000000490000006000000bd
:1020000007a100000600000006b200000600000064
:1020100008c300000600000007d40000060000000e
:1020200008e500000600000007f6000006000000ba
:102030000807000007000000081800000700000063
:102040000529000007000000073a00000700000013
:10205000084b000007000000045c000007000000bf
:10206000046d000007000000077e0000070000006c
:10207000048f0000070000000da000000700000012
:1020800008c200000700000008d30000070000009d
:1020900008e400000700000008f500000700000049
:1020a00005060000080000000717000008000000f7
:1020b00005280000080000000839000008000000a2
:1020c000074a0000080000000a5b0000080000004a
:1020d000077d000008000000078e000008000000d7
:1020e000079f00000800000005b000000800000085
:1020f00007c100000800000005d200000800000031
:1021000008e30000080000000000000000000000dc
:1021100000000000000000000000000000000000bf
:1021200000000000000000000000000000000000af
:102130000202000002020000020200000200000091
:10214000020200000000000000000000000000008b
:102150000012000012120000120000000000000037
:10216000000000000000000000000000000000006f
:1021700000000000000000000048000000480000cf
:102180000048000000ff00000024000000240000c0
:1021900000ff00000012000000120000001200000a
:1021a000000000000000000000000000000000002f
:1021b0000000000000100000107c0000161200005b
:1021c0001c700000505000003e1000001000000085
:1021d00000000000000000000000000000000000ff
:1021e0000c0100009200000092000000520000006c
:1021f00052030000ac040000a004000090040000a2
:10220000900400000803000000000000000000002f
:1022100000000000000000000000000000000000be
:1022200000000000380000004400000044000000ee
:102230002c000000180000003c02000062010000b9
:10224000c2010000c60100003c03000000000000c5
:10225000000000000000000000000000000000007e
:102260000002000002020000020000000000000066
:10227000000000000000000000000000000000005e
:102280000000000008040000040600000202000034
:102290000202000006040000040800000000000024
:1022a000000000000001000002020000060400001f
:1022b0000404000004060000020200000100000007
:1022c0000000000000080000087e00000814000064
:1022d00014000000000000000000000000000000ea
:1022e00000000000000000000000000000080000e6
:1022f000080800007f080000080800000000000037
:1023000000000000000000000000000000000000cd
:1023100000000000000000000000000006060000b1
:1023200002000000000000000000000000000000ab
:102330000000000000000000000e0000000000008f
:10234000000000000000000000000000000000008d
:10235000000000000000000000000000000000007d
:102360000606000000000000000000000000000061
:1023700000100000080800000c0400000402000027
:102380000203000001000000000000000000000047
:10239000000000003c2400006242000042420000b5
:1023a00042660000243c0000000000000000000025
:1023b00000000000001000001814000010100000c1
:1023c00010100000101000001000000000000000bd
:1023d00000000000000000003c62000040400000df
:1023e00020300000180c0000067e000000000000f5
:1023f0000000000000000000003c000062400000ff
:10240000601c000060400000406000003e000000d2
:10241000000000000000000000000000203000006c
:10242000302800002424000022fe000020200000ac
:10243000000000000000000000000000003c000060
:1024400004060000023e0000604000004060000002
:102450003e0000000000000000000000000000003e
:10246000380c0000060200003a66000042420000fc
:1024700064380000000000000000000000000000c0
:10248000007e000040200000201000001018000016
:10249000080c000004000000000000000000000024
:1024a000000000003c660000426600001c240000a2
:1024b00042420000663c00000000000000000000f6
:1024c00000000000003c00002642000042660000c0
:1024d0005c400000603000001c00000000000000b4
:1024e00000000000000000000000000006060000e0
:1024f00000000000000000000606000000000000d0
:1025000000000000000000000000000000060000c5
:1025100006000000000000000006000006020000a7
:1025200000000000000000000000000000000000ab
:10253000403000000c0200000c30000040000000a1
:10254000000000000000000000000000000000008b
:10255000000000007e000000007e0000000000007f
:10256000000000000000000000000000000000006b
:1025700000000000020c000030400000300c0000a1
:102580000200000000000000000000000000000049
:10259000000f000019100000100800000c040000db
:1025a0000004000004000000000000000000000023
:1025b000000000000000000000f000000108000022
:1025c0000304000006e200000492000004920000f0
:1025d000049200000462000003040000000c0000ec
:1025e00000f00000010000000000000000000000fa
:1025f00000000000000000000000000000100000cb
:102600000028000000280000006c000000440000ca
:102610000044000000fe0000008200000083000073
:1026200001010000010000000000000000000000a7
:10263000000000000000000000000000000000009a
:10264000007e000000c200000082000000c2000006
:10265000003e000000c20000008200000082000076
:1026600000c20000007e000000000000000000002a
:10267000000000000000000000000000000000005a
:10268000f88c0000060200000202000002060000b2
:102690000cf8000000000000000000000000000036
:1026a00000000000000000003e000000c20000002a
:1026b000820100000201000002010000020100008e
:1026c0000201000082000000c20000003e00000085
:1026d00000000000000000000000000000000000fa
:1026e00000000000003e000002020000023e000068
:1026f00002020000020200003e0000000000000094
:1027000000000000000000007e0200000202000045
:102710007e02000002020000020200000000000031
:1027200000000000000000000000000000000000a9
:10273000f00100000c000000040000000200000096
:1027400002000000c20100000201000004010000bc
:102750000c010000f8010000000000000000000073
:102760000000000000000000000000000000000069
:102770000000000002010000020100000201000050
:1027800002010000fe010000020100000201000041
:102790000201000002010000020100000000000030
:1027a0000000000000000000000000000000000029
:1027b000000e0000040400000404000004040000f3
:1027c000040400000e0000000000000000000000f3
:1027d00000000000080800000808000008080000c9
:1027e00008080000080800000808000007000000b2
:1027f0000000000000c2000062220000120a000077
:102800001632000022420000c2000000000000005a
:1028100000000000000000000202000002020000b0
:102820000202000002020000027e00000000000020
:102830000000000000000000000000000000000098
:1028400006060000060600000a0500000a05000052
:102850009a04000092040000920400006204000048
:10286000620400006204000000000000000000009c
:102870000000000000000000000000000000000058
:102880000000000006010000060100000a0100002f
:102890001a01000012010000220100006201000084
:1028a00042010000820100008201000000000000df
:1028b0000000000000000000000000000000000018
:1028c0000000000000000000f80000008c01000083
:1028d00006030000020200000202000002020000e3
:1028e00002020000060300008c010000f800000056
:1028f00000000000000000000000000000000000d8
:1029000000000000003e0000624200004262000041
:102910003e02000002020000020000000000000071
:1029200000000000000000000000000000f80000af
:10293000008c0000010600000302000002020000fb
:10294000020200000202000002060000038c0000e8
:1029500001f8000000c0000000800000010000003d
:102960000100000000000000000000003e620000c6
:1029700042420000621e00001222000022420000bb
:10298000000000000000000000000000003c00000b
:1029900026020000060c0000182000002030000075
:1029a0001e00000000000000000000000000000009
:1029b0007f08000008080000080800000808000060
:1029c00008080000000000000000000000000000f7
:1029d00000000000000000000201000002010000f1
:1029e00002010000020100000201000002010000db
:1029f00002010000020100008400000078000000d5
:102a000000000000000000000000000000000000c6
:102a10000000000000810000c34200004266000088
:102a2000242400003c1800001800000000000000f2
:102a30000000000000000000000000000041000055
:102a400010a3000018a2000008a2000008a20000c5
:102a5000081600000d140000051400000514000005
:102a60000508000002000000000000000000000057
:102a70000000000000000000000000008142000093
:102a8000243c0000181800002466000042c1000029
:102a900000000000000000000000000000410000f5
:102aa000222200001414000008080000080800009a
:102ab000080000000000000000000000000000000e
:102ac0007e60000020300000100800000c040000b0
:102ad000067e000000000000000000000000000072
:102ae000000e0000020200000202000002020000cc
:102af00002020000020200000e00000000000000c0
:102b000000000000010300000202000004040000b5
:102b10000c08000018100000000000000000000079
:102b2000000000000007000004040000040400008e
:102b30000404000004040000040400000700000076
:102b40000000000000000000081400001422000033
:102b50002241000000000000000000000000000012
:102b60000000000000000000000000000000000065
:102b70000000000000000000000000000000000055
:102b80003f000000000000000018000030000000be
:102b90000000000000000000000000000000000035
:102ba0000000000000000000000000000000000025
:102bb000001c0000202000003c2600002232000003
:102bc0002c000000000000000000000000020000d7
:102bd000020200003a660000424200004242000049
:102be000663a000000000000000000000000000045
:102bf00000000000003c000004020000020200008f
:102c0000020400003c000000000000000000000082
:102c100000400000404000005c66000042420000ae
:102c200042420000665c000000000000000000005e
:102c30000000000000000000003c000064420000b2
:102c40007e02000002440000780000000000000046
:102c500000000000001c0000020200000f02000043
:102c60000202000002020000020200000000000058
:102c7000000000000000000000000000007c0000d8
:102c800022220000261c0000043c000046420000f6
:102c9000623c000000000000000200000202000090
:102ca0003a660000424200004242000042420000f8
:102cb0000000000000000000000000000202000010
:102cc00000020000020200000202000002020000f6
:102cd00002000000000000000000000000040000ee
:102ce00004000000040400000404000004040000c8
:102cf00004040000040400000700000000000000bd
:102d00000202000002620000321a00000a1e0000e7
:102d1000122200006200000000000000000000001d
:102d20000002000002020000020200000202000095
:102d3000020200000202000000000000000000008b
:102d40000000000000000000000000000000000083
:102d5000000000003a070000e60c000042080000f6
:102d6000420800004208000042080000420800003b
:102d70004208000000000000000000000000000009
:102d8000000000000000000000000000003a000009
:102d90006642000042420000424200004200000041
:102da0000000000000000000000000000000000023
:102db0003c2400004242000042420000243c00004b
:102dc0000000000000000000000000000000000003
:102dd000003a0000664200004242000042660000e5
:102de0003a020000020200000000000000000000a3
:102df000000000005c660000424200004242000009
:102e0000665c000040400000400000000000000040
:102e100000000000001a000006020000020200008c
:102e2000020200000200000000000000000000009c
:102e300000000000000000003c020000020c000046
:102e400038200000201e00000000000000000000ec
:102e50000000000000020000021f0000020200004b
:102e600002020000020200001c000000000000003e
:102e700000000000000000000000000042420000ce
:102e80004242000042420000665c00000000000078
:102e900000000000000000000000000000410000f1
:102ea0006322000022360000141400000800000015
:102eb0000000000000000000000000000000000012
:102ec000000000000000000000310000023100009e
:102ed00002330000034a0000014a0000014a0000da
:102ee000014a000001840000000000000000000012
:102ef00000000000000000000000000000000000d2
:102f00000000000063220000140800001c140000f0
:102f1000226300000000000000000000000000002c
:102f20000000000000410000632200002234000085
:102f300014140000080800000c0700000000000046
:102f400000000000000000003e30000010080000fb
:102f500008040000063e0000000000000000000021
:102f60000000000000180000040400000404000039
:102f70000304000004040000040400001800000022
:102f80000000000000080000080800000808000019
:102f900008080000080800000808000008080000f1
:102fa000080000000000000000030000040400000e
:102fb00004040000180400000404000004040000dd
:102fc00003000000000000000000000000000000fe
:102fd000000000000e700000000000000000000073
:102fe000000000000000000000000000c318000006
:102ff00024210000a631000028420000cb5a000026
:103000002c630000cf7b0000518c0000b2940000c4
:1030100034a50000b6b5000059ce0000bad60000b5
:103020007def0000ffff000000000000a210000084
:1030300045290000a631000028420000cb5a0000bc
:103040002c630000ae73000030840000b2940000d6
:1030500055ad0000f7bd000059ce0000bad6000003
:103060003ce70000ffff000000200000000000001f
:10307000141b000000010000500000004f00000081
:10308000f6030000000000005c0c000000000000df
:1030900004100000b47000000020000000000000d8
:1030a0000a1f000000010000500000004f00000057
:1030b00019020000000000005c0c0000000000008d
:1030c00004100000b47000000020000000000000a8
:1030d0002421000000010000bb0000008c00000063
:1030e000ae250000000000006c330000000000006e
:1030f00004100000b4700000002000000000000078
:10310000d246000000010000bb0000008c0000005f
:10311000441b0000000000006c33000000000000b1
:1031200004100000b5700000002000000000000046
:103130001662000000010000500000004f00000077
:1031400003040000000000005c0c00000000000010
:1031500004100000b5700000002000000000000016
:103160001a66000000010000500000004f0000003f
:10317000d2050000000000005c0c00000000000010
:1031800004100000b5700000000300000000000003
:10319000008f000000000000000000002000000080
:1031a0007e00000011000000000000000000000090
:1031b000000000000000000000040000000000000b
:1031c000f49700000000000010000000b470000040
:1031d00000000000000000000000000000000000ef
:1031e00000000000000000000004000000000000db
:1031f000149800000000000010000000b5700000ee
:1032000000000000000000000000000000000000be
:1032100000000000000000000001000000010000ac
:103220000001000000010000ff000000ff0000009e
:10323000ff000000fe000000fe000000fd00000096
:10324000fc000000fb000000fa000000f900000094
:10325000f8000000f7000000f6000000f500000094
:10326000f3000000f2000000f1000000ef00000099
:10327000ed000000ec000000ea000000e8000000a3
:10328000e6000000e4000000e2000000e0000000b2
:10329000de000000db000000d9000000d7000000c5
:1032a000d4000000d2000000cf000000cc000000dd
:1032b000ca000000c7000000c4000000c1000000f8
:1032c000be000000bb000000b8000000b500000018
:1032d000b2000000af000000ab000000a80000003a
:1032e000a5000000a10000009e0000009a00000060
:1032f00096000000930000008f0000008b0000008b
:103300008800000084000000800000007c000000b5
:103310007800000074000000700000006c000000e5
:103320006800000064000000600000005c00000015
:1033300058000000530000004f0000004b00000048
:1033400047000000420000003e0000003a0000007c
:1033500035000000310000002c00000028000000b3
:10336000240000001f0000001b00000016000000e9
:10337000120000000d000000090000000400000021
:1033800000000000707200006f6d0000707400009b
:103390002061000070700000656100007273000021
:1033a0002e000000756e0000746900006c200000a3
:1033b0007468000065200000636100006c69000013
:1033c0006272000061740000696f00006e0000000e
:1033d0007072000065730000736900006e67000082
:1033e000206f00006e20000074680000652000005f
:1033f0007363000072650000656500006e000000e8
:10340000726500007365000074200000746800009d
:1034100065200000626f00006172000064200000ff
:1034200077680000696c000065000000546f0000c0
:10343000205200004550000045410000542000008b
:10344000636100006c69000062720000617400003a
:10345000696f00006e2c0000006300006f6e0000ba
:10346000746900006e750000652e000000540000b5
:103470006f75000063680000207300006372000035
:10348000656500006e200000746f0000007300008e
:1034900063720000656500006e200000636100003b
:1034a0006c6900006272000061740000696f0000c6
:1034b0006e2e00000050000065720000666f000074
:1034c000726d0000696e000067200000746f0000dc
:1034d000756300006800000072610000775f000003
:1034e000783d0000256400002c200000726100007f
:1034f000775f0000793d0000256400000063000054
:10350000616c00005f7800003d250000642c000025
:1035100020630000616c00005f7900003d25000021
:10352000640000005f740000723a0000413d00003a
:10353000256400002c4200003d25000064000000ce
:103540005f740000723a0000433d000025640000f3
:103550002c4400003d2500006400000014f1000030
:103560005265000074720000790000005072000083
:1035700065730000732000002620000052650000e3
:103580006c65000061730000650000006369000065
:10359000726300006c650000006f00006e20000088
:1035a0007468000065200000666900006c6c000013
:1035b000656400000000000034200000425000005c
:1035c000502000002d200000436f00006d700000af
:1035d0007265000073730000656400000000000065
:1035e00000010000000100000000000001000000d8
:1035f000c4980000000b0000000000000000000064
:1036000000000000000000000000000001000000b9
:10361000020000000300000006000000000000009f
:0836200053000000000000004f
:020000040000fa
:10362800db520000c030000068800000a0a000004d
:103638002023000031ca000014950000948800007f
:1036480050280000a8680000646c0000ac2c000042
:1036580044480000a1800000a271000048680000f2
:10366800a88b0000b220000021e300008c4200007b
:10367800ca3a00002ad200004d950000f01b000055
:1036880028a0000018dc0000b6f20000f49e00003c
:10369800ce70000013fc0000362b00003a950000a5
:1036a800aebc0000f3ee0000ddde00004a3700008b
:1036b800bc3600000b180000854c0000bffd000060
:1036c8006ecf0000ed7700006b320000f01a0000aa
:1036d800a8e800005c760000eadd0000de9d00003e
:1036e800ab5f0000dfeb00000ac3000063a000002e
:1036f800a0510000ca8a000037f700003adf000036
:103708009c5b0000f97600006f860000294e0000df
:1037180003050000149d0000db6e0000bdeb0000f7
:10372800d9710000ef5d0000cfcd00007bb3000031
:10373800c37100001a08000032ee0000edb9000065
:103748008e3b000077ef00009e9d0000f1660000b0
:103758005f2500002e0300004161000072fb00009d
:103768005df5000089bb000067ef0000dced00009c
:1037780039f900006e760000b80a000076030000f0
:10378800058d00004a770000be5d0000d77e00006e
:10379800e76e0000d4d20000bb770000818e0000e5
:1037a800ac740000c51a0000d8400000e380000097
:1037b8006152000075e20000ee5a0000d1a000003e
:1037c8005b770000e7ee000078370000071800007c
:1037d800d8d800008c7300002add0000f96e0000c4
:1037e800ddf40000bb770000bd0400000597000071
:1037f800000d00007c7d0000ae0b00005b60000047
:103808000b280000864c00007f7d0000afea000016
:10381800e6dd00005e61000041410000c71b0000ba
:1038280020030000b1060000b6a2000073e9000002
:10383800c977000073a70000df3d00006b0100009e
:103848004ca7000082cd000077ef000076bd000095
:10385800ba870000c540000001a3000094e50000fd
:103868006fee000055de0000badb0000230c0000fc
:103878005267000008740000e68a0000b76b000079
:10388800310c000004050000f1a900007773000066
:1038980097df00003dab000021080000064d000046
:1038a80077ee000076df0000bad700008d1e00001a
:1038b8007be00000183b000057710000e76e000035
:1038c8008d100000449d0000e2710000606000005f
:1038d800bfdd00008b160000d8b0000018bb000048
:1038e800bb5700005d1000000a8a00006edf000070
:1038f800ed060000053600008a81000082460000bf
:10390800a93b0000deee0000030600007134000051
:103918004c990000a0e2000056480000ecb90000f5
:1039280022190000088f0000b1b50000a270000045
:1039380075820000c0c000009e73000002350000c0
:10394800f6a0000031760000f76e00009420000019
:1039580012c00000883d0000508c0000bd7e0000b1
:1039680057750000f2ee00005a110000647500005f
:103978008ee00000d85b0000838800003d900000c6
:1039880071ef0000d602000063cc00004a1000006e
:10399800052c0000b90300008abd00002ab8000009
:1039a8000b410000c6dd0000ab840000c418000015
:1039b80032300000bc0100000c6c0000a081000047
:1039c8005017000002a300006207000022c6000092
:1039d80090410000f31d000060ec00009d03000012
:1039e80086210000545d0000ebad00007b950000cf
:1039f800b7ef0000f6080000a1ab0000533c000040
:103a080071770000ef8a000077dd00006ec20000c9
:103a1800608b0000059d0000a7bd00005ebb000094
:103a2800e3ee00005975000074650000c0c0000096
:103a3800be73000077f60000ebb50000e1ca000095
:103a48008c100000e72d00007f3b00001b110000d8
:103a580063280000061e0000bf7b0000eed40000b3
:103a6800b908000098ba0000edf700004edf00002a
:103a7800c36600009ca0000062d100009d77000092
:103a880067df000066aa000040d500005d3f000027
:103a9800fbe600005e8d000012360000754600004f
:103aa800c7df0000ddbb00009ba300000237000059
:103ab800efcd000039730000656c0000f61a0000b5
:103ac80095bc0000b9f70000364a000005e6000082
:103ad8008fb7000067bb0000c2b10000a953000007
:103ae800326e0000dd790000f71c0000d41f0000d2
:103af80002460000a5370000dfdd0000ad31000000
:103b0800c1620000b1920000f3b10000b7ef0000fd
:103b18007adc000084a00000ea42000096bf0000a2
:103b280079570000874d00009d510000c8f3000040
:103b3800777b000033a00000110c000049a40000ae
:103b48007dae0000ca82000017ef0000ca02000024
:103b580011b20000f3800000ea10000049150000cf
:103b680098e8000077be00009b870000555d0000c4
:103b7800ca8b000073550000f0a400002f0000005d
:103b88000ae90000796e0000d8d40000a5be000044
:103b9800dc97000081480000a80200004ed3000016
:103ba8005e63000055e7000054fa0000121600009a
:103bb8006bd000009400000056a70000a824000065
:103bc8000444000048ea00009c4b00005fcd000060
:103bd800754300002a6400000c4b00005fad000034
:103be80003660000558c000060060000aa9b0000d8
:103bf800834500001ddc0000de83000077810000a3
:103c0800e02c00006175000017410000eaee00009a
:103c1800524100009dee000025620000d4c1000062
:103c2800c1a800003a5a0000a9bb0000b52e000048
:103c38001c9b0000bab20000573d00006648000017
:103c4800ea1400004b400000ea84000030d5000070
:103c5800b5bd0000ea360000455600009772000026
:103c6800731d0000b0dc000044570000a7140000da
:103c7800dcf600001a4d0000ddc900007d1d0000c3
:103c8800156900003060000076090000ac4e0000a5
:103c9800a9ac00007de60000eb2a000053a4000058
:103ca8000a44000031780000c7b90000991d0000df
:103cb800e5300000756e000097c10000ea8c000036
:103cc800cb670000ac7a00005b69000082a20000ac
:103cd8006ef90000db59000040850000501000001c
:103ce8007e050000acce0000a5630000e5ae000034
:103cf800bb1900002a480000ea400000196e0000c5
:103d0800f5cc0000ce0e000028c8000078f60000b0
:103d18000e040000d2660000ac3c0000bd0e00009e
:103d280029bb0000818b00009897000067570000ae
:103d3800c3d50000c1c00000cc5d0000777a000048
:103d4800dd9000002b38000001c50000941500002c
:103d5800efee00009dd900008d060000eebc0000cb
:103d6800bd970000618a000052f70000034300007d
:103d780074e70000db77000018e000001c7a000000
:103d8800b308000058320000b5cd0000dc85000003
:103d98006ede0000aace000074b400008a1a00008b
:103da8005866000085940000b5a30000bbaf000072
:103db8003ccd000015bd0000e2070000169d000084
:103dc8002ea10000e8c00000d5050000b3010000e6
:103dd8000a2c00005c8c000031000000b0b000002c
:103de8006140000007a00000f2440000090500003f
:103df80008e100006a2000000ba000001643000044
:103e0800c4b40000a2e9000000000000db5200007a
:103e1800c03000000aa800000d0c000098890000be
:103e280052a60000505e0000ce4400008cba00008c
:103e380066d10000400b0000229400003978000091
:103e480024a90000b5b0000010560000576a000011
:103e580074730000ae72000038410000650900006c
:103e6800ea8b0000efde0000b52a000062230000a4
:103e7800a04c0000a0dc0000e9d60000ddbb00007b
:103e88006b550000ca190000f1ab00002b5400006c
:103e98005f72000077ef0000edbb00005e45000098
:103ea800e2f800008d4b00000fba00007d370000db
:103eb8007aeb0000ddbd0000aa650000780d000067
:103ec8006c54000003aa0000110d000004aa0000b1
:103ed8004d920000c0a300004c21000032e9000010
:103ee800ee5d00002f410000c125000077ef0000c3
:103ef800aa4d0000c5130000d893000054b6000076
:103f0800df9d00002b2c00002868000078f30000db
:103f18006eb50000932600004e650000069e000066
:103f280045770000ef5a00000802000041f3000046
:103f3800ddbb0000ea53000070460000738b0000f0
:103f4800f28d0000bbbd000042200000758a000011
:103f580040860000910700000e6500000116000071
:103f68004d770000f7aa00000b82000041d1000045
:103f7800edbb00001acd0000acd80000d5950000bc
:103f880019dd0000ba5b00002d04000051a70000f5
:103f9800b8fd0000ee5a0000e5740000acca00004d
:103fa8000ad5000027c300008d0300001b6800002d
:103fb80089350000b081000031760000fb6e0000fa
:103fc800b62000001c6c0000bbbb0000176b000093
:103fd800ec1500008283000018a100000e1c0000f0
:103fe800d8980000060a000064800000624c0000b7
:103ff8001009000080620000af0d0000c3c000007f
:1040080026d500006d770000d78a000020ab00009d
:1040180073bc0000753700003b480000034d0000ea
:1040280019380000c6ac000004510000c06200004e
:104038002cb1000037590000f93a000038c60000da
:104048009001000030f600006a8d00002c5100003d
:1040580094810000634c0000431000000d34000000
:1040680061c400005e8b0000d24d00007810000093
:104078002300000030b00000e72a000021c700003c
:104088009e8300004533000052100000230000000a
:1040980030b000002d9a000091f200005e0b000085
:1040a800528c0000a1190000b856000019610000e8
:1040b800a0820000f9e20000bb7b0000d5300000c0
:1040c800950900000a260000ddbe00006b550000bf
:1040d8000cf7000072820000d8750000d4200000a0
:1040e80046800000ad7700006b130000e179000006
:1040f800d44100007ddb00005a510000ecea0000ca
:10410800026f000065170000211c0000589600008f
:10411800ea660000825d00005d5000004a18000059
:1041280052ea0000329800003ed300000bbb0000aa
:10413800ba450000332a00009103000050400000f7
:10414800d01d0000873a000041b400009400000030
:1041580052770000f1ae0000eea50000bbb20000ef
:10416800a8ea0000d0d20000c1800000aa530000d5
:104178005412000002220000c2ea0000b0f9000058
:1041880017af0000bd170000ef820000c0a00000bc
:104198005307000007a30000ea8600009f3a0000ca
:1041a800c75000003850000085aa00000b0d000021
:1041b80015c50000501700006e8800004d9d0000d6
:1041c80048330000baba0000124500006cea00004b
:1041d80084d20000d0d500002d10000034720000f9
:1041e80081010000158800003a45000017650000ad
:1041f800412900007475000005c8000005960000fc
:10420800222c0000d3050000b2a30000ab6300001d
:10421800d89e0000e1820000014a0000ab31000096
:104228009431000030240000976300000033000040
:104238002cca0000460100008d01000000000000ab
:10424800db520000c0200000a0040000054200006e
:104258008a4200004a4000000462000029810000f0
:1042680028410000414500001047000011210000ce
:104278006f6400006c0c00001466000064500000bd
:1042880074760000514b00000e710000616400005c
:10429800d872000077ef0000ee3d00007b3b000085
:1042a80066ac00003cbd0000bbaa0000c39800003b
:1042b80089410000800100000e0400001819000068
:1042c80018810000a4a0000012020000008d000068
:1042d8001502000053200000421000006aae0000e2
:1042e800911100005456000010640000ba620000ea
:1042f800b0300000a3420000b08b000072980000ac
:10430800500a0000a3e10000a9330000a7ef000055
:104318009c5e0000dd590000b1720000f5ea000063
:10432800d91d0000664200000c28000080510000e2
:104338005090000051500000d14800005949000039
:10434800c918000066bc0000a090000022dc000034
:10435800a93000003b610000a62b0000819c0000f2
:104368006e9800006a220000a46800006c620000d9
:1043780068aa00009422000054740000e7ce0000f0
:1043880099d300007bf60000aeea0000dcb900001b
:10439800aa6b000066bb00004aaa000088800000e3
:1043a8002083000020cc0000ed0c000040c300007a
:1043b80019040000158d000041000000628400000f
:1043c800a2a00000a0200000dc74000088b100005a
:1043d8004620000049b00000d14a000046260000ef
:1043e800c6ca00004a860000656e0000ca40000088
:1043f8002dce000026a9000016460000c7ef0000d9
:104408009edd00007de60000cce90000ddbb000079
:1044180056cd000098b100002334000075770000e5
:10442800579a0000a920000092e3000081e10000f3
:10443800043400000d66000080b10000b290000056
:1044480020d80000789000006f2000006e55000012
:1044580056060000dbad00000cf4000014d000008c
:1044680022170000a078000050470000b890000014
:1044780092b10000b39b00007349000054e20000b1
:104488009db30000bbf700009cd90000b367000093
:10449800d7ae00005db3000066ce00007069000072
:1044a8003b7500007a4f0000a708000030bc0000f0
:1044b80041a1000002b5000000e400005690000091
:1044c8007e67000065a00000a1400000d3e1000065
:1044d80081a100000c2200008d8c0000a14000008a
:1044e80049500000111c000084860000a51d000032
:1044f8001e8c00008ac60000c5e60000252b0000bf
:10450800a21700009f3d000003040000bb4f0000fd
:104518009f5e0000b57b000056570000a6f1000022
:10452800d2dd0000bb670000efb20000007a000097
:104538005a0000006cba00002023000003dc0000d1
:10454800ed400000371a0000011d000008090000b6
:1045580017650000908800009112000010190000f3
:104568008183000046d90000181c00006e2000005e
:10457800d39300003b660000aa330000281800000f
:10458800872800004d9d00002d7a000073f7000079
:10459800e93b000067cf0000ac5e0000717b0000c3
:1045a800cdee0000d9550000964e00003b66000095
:1045b8009fee0000bee500009d1a0000aa22000040
:1045c800c8280000008c00005145000090f1000050
:1045d80040d2000008120000abca0000a03400005e
:1045e800087600003cd0000018a000006b95000081
:1045f8009112000093220000504e0000c9490000ab
:1046080059c80000b16d0000652500003383000023
:1046180000300000564b0000d4120000f7ee0000f6
:104628003cb30000e7cc0000e9ee0000f6d3000040
:10463800ab57000056650000ba4f0000ee5c000062
:10464800b97b0000cfca0000ace9000095ae0000bd
:10465800c1c200008ae00000200600009aae0000f7
:10466800240800008b49000010030000910e000090
:10467800959400008c8d0000908c000007290000a4
:1046880077320000512a000099310000d31c000045
:10469800e8610000a7b40000b44e0000b56d00004a
:1046a800ddbb0000ceec00003eb30000a7aa00006e
:1046b80062e70000ae990000553300005c960000e8
:1046c800cc5a0000b1ea000064f70000ce95000063
:1046d8005d610000a122000082c00000c805000042
:1046e8006106000088a900008a820000605a000064
:1046f80011c900003cb00000dbe10000228200008c
:10470800824200008c4e0000c64e00006d3300004f
:1047180023980000809a000082ca00004b570000ce
:10472800a7dd0000de0500000c970000b37b000049
:10473800aa3b000056cd000098b50000b2cc00009e
:1047480064ea0000aa9900002b7700009d9e0000f3
:10475800bea600002b2d0000435800005011000099
:104768001aab0000e0c0000006da000023080000d1
:10477800068c000082c000007056000036860000db
:1047880024460000b0f70000e0a600003300000057
:104798004d07000086ba00002a280000a9950000ed
:1047a800864d0000ab9c00007af70000cc5d00004d
:1047b80050a40000ae9a0000b9730000d5ac000008
:1047c8009969000022cb000067760000ecac00007d
:1047d800dc55000079ba0000725a00001533000059
:1047e800244a000021a60000838c0000110000006c
:1047f800f943000000ec00007c7000008cc200004f
:104808000c070000395e000010c2000012700000a2
:10481800362e00002d7700000765000048c700000d
:10482800d0d2000095d300006fdf0000dd0b000040
:10483800347c0000d7e9000035bb00005775000044
:1048480076560000840b00004f9b0000d9d1000071
:104858003ef30000f48e000015990000d3dd00003f
:1048680099e00000491e000014630000428a00001d
:1048780010970000231700000a5000001160000084
:10488800fc0800004199000082ce000021a1000030
:10489800aec2000020570000383b0000a7ae000061
:1048a8002abb00000b4c0000eab300004fed0000eb
:1048b800da7d000066d50000eed500001d59000025
:1048c8006e42000053d3000066ec0000e8ea0000e6
:1048d8009c5e000091da0000a902000049ea00008d
:1048e800200f0000409300008412000024390000cb
:1048f800025300008b100000c860000098e100001f
:10490800200000000934000060d9000015120000e2
:104918006a2200000c8e0000abe00000d4f2000018
:10492800db370000efee000039bb0000bb7300006e
:10493800c6ea0000bbb3000076cd0000991900005c
:104948009e6a000022580000b6c60000b92a00007e
:104958007dc60000b6390000d33a0000408100004f
:1049680007540000ed2a0000040a000068680000ef
:104978002928000004c90000fcca00004a420000bf
:104988000883000019810000c1c70000280000004a
:10499800b641000040d1000028c4000044190000be
:1049a800c464000050080000490b0000dd760000d8
:1049b800f7ee00009d3d0000ab3b00003a77000099
:1049c800cd3a0000557d0000b3730000568a000000
:1049d8008860000070690000d7d40000e515000069
:1049e80073dc0000b6470000810200004fc00000e1
:1049f80028a5000053d500008809000058000000d1
:104a08000bc20000c218000096420000606100005e
:104a1800820c000080520000cec600002075000005
:104a280040d30000d3c200004a6f0000dd3d000003
:104a3800b3f70000cc9e0000ae8e00001db300004e
:104a480077ae00009e5500005916000021c20000f4
:104a5800b8cc00003ddd000034d80000ad250000d2
:104a68007c9a00001bc8000074c3000090d40000aa
:104a7800d0500000536600000645000041210000a8
:104a880070820000034700001cd400007ca80000ce
:104a9800c1420000288600001b8100008b1b00001b
:104aa800a0e900000ee90000c6d30000ee9c00005b
:104ab80039b30000f7f400009d3500001d3b0000ed
:104ac800f6ac00009cb90000b2aa0000d452000065
:104ad80088210000001800003c210000ae290000d9
:104ae800cee0000092580000c1b900006c460000fa
:104af8007a790000193b0000032200002e11000003
:104b0800ee070000a6230000581a0000859b00004d
:104b1800ae68000064a2000064040000363d000096
:104b2800293d000074fb0000de95000040c700002e
:104b38009f3e0000b37a0000e7ea0000193b00003e
:104b48002b3a0000dc5c0000191900000cca0000b8
:104b5800d2cd00008d940000448a00003384000008
:104b680081b50000885300005ad90000ca99000096
:104b7800b3a6000073330000805d00006b040000e2
:104b880029650000c12500003038000011420000ee
:104b9800c31d000014e60000e00a000007e800005a
:104ba8000f4300001325000063b00000e921000056
:104bb80069e5000027e70000acbc000073e70000cf
:104bc800ec1e000060f10000bb6b0000e58a0000ed
:104bd800aae90000aa4e0000c09000000e0a0000da
:104be800773500001614000068b500005064000016
:104bf80004860000cbf40000991500002b2b000060
:104c0800a773000032280000410b000071700000fb
:104c1800292c00000489000003600000090400003a
:104c28008e3f0000443d00002320000024e80000df
:104c380068620000640c00004a3b00000aa1000002
:104c480065330000efac0000da0d0000ca4a00002e
:104c5800a0cc0000b4ba000072650000998500007d
:104c680012300000fa8d00005c5200005419000058
:104c780005da0000d5140000815100009ada00001e
:104c8800beb2000073660000461a00002ba80000a0
:104c9800a001000045200000b0740000873a000021
:104ca800195400002d8100005ccd00002820000070
:104cb800002c0000eba000008946000050190000fd
:104cc80054cc0000008b00006846000006870000f6
:104cd8008ad2000053770000cfde000001e6000012
:104ce800d4dd0000c0d00000dfb30000b3b2000084
:104cf8002d3c00001c140000918a000046ce0000e4
:104d0800e6020000cee90000c24a0000c0800000b0
:104d1800294b00002f5d0000b97b0000761a0000c7
:104d280087000000a8a600008625000019410000a1
:104d380088eb000021850000255200008402000055
:104d4800e58d0000948200004dc000000c86000034
:104d580042f70000b6db000077f70000ec3d0000ea
:104d680073e70000ece90000bb6b000076ef000081
:104d7800da5100003ddd0000a3440000189c00004b
:104d88002f8d0000429d00004a55000084840000d9
:104d980080a60000a7ce00009cb900006a5500005c
:104da8004f2a00001ba20000490000004b910000a0
:104db800ca9000003a1500001c03000008e3000038
:104dc800159500005d4c00008c950000988000004f
:104dd800554f000071ea00000a600000f1b50000bc
:104de80067f50000aad30000c0800000d97d00004c
:104df8006a6500006745000045b0000010d000005b
:104e08008f400000c235000028040000949900007b
:104e1800158200005b770000edee00009ad90000d3
:104e28005dce00002e000000af9e0000059500003a
:104e380060b5000037c8000022440000a612000038
:104e48008084000097b30000ab890000b111000016
:104e5800c8f4000094a50000a7ee0000024300007b
:104e680065e60000cc950000674f0000038b00004a
:104e78008199000055610000a56e0000c010000077
:104e88001348000051510000543600005406000039
:104e980055d500008eed0000cb3b00003b3a0000ea
:104ea80066560000aee4000014800000955600002d
:104eb800203700002a430000aa500000445e00008a
:104ec800059a00002c000000315d00003028000029
:104ed800146800003ab000002410000008290000ff
:104ee800bf0b000034fd0000ceea0000953300003f
:104ef8008125000018b00000a9d10000599e0000cb
:104f0800120900000c4f0000c53400005760000073
:104f18007b050000dc100000089c0000d1d10000d7
:104f2800d1590000dae10000560600000c19000013
:104f38002146000001440000088300008a5e00004a
:104f4800d44c00000a8b000083e00000505300009e
:104f58001390000094420000da51000060720000d3
:104f6800b97b0000f6ee0000de1900003bd7000018
:104f78009e5a0000bbeb0000d4ea00008cb400008d
:104f880030210000c5600000253700005370000084
:104f980056010000a6cd0000e65d0000bb570000ea
:104fa80055b5000095870000014300000616000073
:104fb800b8c00000940300000b76000045210000f3
:104fc80058c90000885400009d84000086860000af
:104fd800aa820000926a000051e90000ad3d00007d
:104fe800b36e00009f050000561c0000ab4f000088
:104ff800dd59000073bb0000b7fb0000ec9c00000b
:105008008a520000d78c000050c5000060370000ad
:10501800a0010000a068000017d80000b67b0000bf
:1050280055650000c6f40000f4d400000e0e000020
:1050380001a4000012050000588c000081b2000095
:105048003b3800000e400000c5030000303500006a
:105058004132000032300000b3190000b98400006a
:10506800bab80000802a000082b000006d7b000002
:1050780067ae0000ba730000f7ce000099b30000d5
:1050880067ef0000ec390000b3f2000076cd0000b5
:10509800943300002b2a00006ecf0000ce090000d8
:1050a800090b000063040000162a0000a09200000b
:1050b800a2b300007c45000057fb0000caac00000a
:1050c80090320000764800003d2d000024040000c6
:1050d8004dea0000d0da00000eb90000a857000021
:1050e80006b700003d9c00005dd300004c8c00001a
:1050f8005d940000159300002a6e0000dddd0000bd
:105108007dfb0000ece900005d770000ef9e0000e9
:105118005d7d00007b4f0000d7ca0000ddd1000094
:105128003bce0000ded900001b1e00005992000093
:10513800166200000a6e0000b30800002ab60000dc
:10514800984e00005d9d0000312d0000322d0000ba
:105158009d1500009eca00006105000097900000a0
:10516800a2a2000012a200006d6a0000a40c0000b8
:10517800cdc60000c1400000d39500008dda0000c4
:10518800d2c300004bcf0000debd000077f700005f
:10519800ec5900005019000079660000f79e0000e5
:1051a800d3150000a7670000ced8000035ab00007b
:1051b800fca8000077860000698800002ba4000086
:1051c8001e320000743100002ead0000087500008a
:1051d800764e00004f6500008795000085c60000e8
:1051e800f0da0000086600002ec20000f5c00000da
:1051f800d01200000c3600000e050000badc0000da
:10520800a97c0000fa2d0000a0a30000cfdc00005c
:10521800dd7d00000b540000f1ed000059b50000e1
:1052280066f60000f4d300005de9000021ce00001e
:10523800abdc0000cacc000042540000c08500006e
:105248001fb00000204800002eab0000746500006d
:105258000e2c00004b630000039b00000724000095
:105268009c8d0000856000004947000009a90000e6
:105278002903000063290000ba3a0000014d00002c
:10528800573200006cbb0000731700000c6600006a
:105298009ddc00000b3200007df50000ea390000bb
:1052a800d3560000ecc9000098310000ad6600003c
:1052b800499a00009bb100000923000038850000ce
:1052c80038ce000068af0000a83400000d69000067
:1052d8009dd50000c90600004e28000040c200000d
:1052e800d958000059100000e60f0000a4ea000099
:1052f80055190000e20d0000232300005723000089
:1053080090e90000412700008026000003a3000068
:10531800f4ee0000ac53000067e700009c5e00005c
:10532800b56b0000efec0000dd330000cacf0000d1
:10533800ac5e000079670000d68c00003050000099
:10534800d5050000363d0000a9330000ad2200005d
:10535800bda300007dc60000e96e000036700000a5
:105368009c2a0000298200004d040000f60f00006e
:10537800509b000034080000e0e400000a0a000026
:1053880019a30000e2db000010a70000df5d0000a9
:105398000dac00009c560000ef5e0000b5670000f1
:1053a800d6aa00003d1d0000ed3b000057af0000ed
:1053b8009d5e0000696a00006c0200004cca000093
:1053c80020e3000083ca0000c35c00009d57000072
:1053d800cc5a000079260000931d0000622e0000c0
:1053e800cc500000a426000036d000003f8a000000
:1053f800905a00001148000032380000851900005a
:105408008582000062f50000f6dd00003b670000c1
:105418006fdf000001e50000d533000077d60000fb
:10542800ee5a0000ddb500007bd50000ed55000008
:10543800ab4e0000f774000056b800002bbb00000c
:1054480000bb00000f42000042c00000a23b000069
:1054580028ad0000aca300007dd50000aace000056
:10546800e9e100006c28000079060000e40900006a
:10547800483400008033000001b40000a06400003c
:1054880000e600003f27000057a700005413000063
:1054980065e7000069770000f7ec0000ba730000c8
:1054a8001ae20000fcb300007b760000edac0000bf
:1054b8005eb90000fbf60000e93500001566000043
:1054c80053320000559d00004c8100002d52000011
:1054d80060790000c3280000985c0000be620000ec
:1054e800f7aa000055b300002a5c000042580000eb
:1054f800614600001b4300009c0e00006e4800003f
:105508000a410000021f00005612000080aa000095
:105518008f600000e1a000003017000025e70000c0
:10552800e567000057ad0000da7d0000e62c0000ba
:10553800d0ec0000bd77000080050000e4ec00001e
:1055480095ab000057ce00006a0b00000f35000035
:105558004d09000053710000560100009b2e000009
:10556800c8a0000058560000ba6a0000d6ca000059
:105578005d3300003bcc00008bd900008450000054
:10558800daba0000428a0000484d00005658000070
:105598000a050000757f000042410000a60b0000cc
:1055a80001230000f5cc0000995500003bef0000f6
:1055b80000530000fb9e00003da70000818500000d
:1055c800c1ec00005bbb000077760000ae5800001d
:1055d8009d1900000acc000012c2000082020000df
:1055e8004a820000c0fa000026100000985500000a
:1055f80067ae0000583900006b550000653900009f
:105608003b240000b8110000e6830000db4c0000da
:1056180048a6000033820000b1a20000ab50000091
:1056280092ab0000ab70000012300000c4cf000045
:10563800ee5e0000757a00000fb00000ded80000b2
:10564800bbfa0000cedd0000336700004fed00001c
:10565800b9730000e7ee0000de8c00003260000045
:105668005e000000d5630000028a00008c02000082
:1056780049150000952b000066cf00009c790000ba
:105688006656000079050000bb200000ac990000b8
:10569800077700003ec40000f1420000e0d400009b
:1056a800c9080000eafb000080ea00005257000029
:1056b800e164000017570000e1450000e04c0000dd
:1056c800bafa0000f49e000053770000779d0000ae
:1056d8003ebb000067f70000ee3b000077e70000e4
:1056e800ee590000be330000ca240000c498000030
:1056f80009180000248c0000a0e200000f580000e8
:10570800edad000058b5000062e60000aaae00004a
:10571800951d00002b390000518a00005b450000f0
:1057280068fa000081d9000007eb0000fe080000bd
:10573800188400000a07000003330000fa7500000f
:10574800606200003f73000067ef0000ae330000a6
:10575800c0760000d8e90000ddbb0000cfde000005
:10576800e93a0000332700002d3d000058450000ad
:1057780019dc00005112000080380000d4b000008d
:1057880064060000b07c00005f190000e11a000008
:105798005aca0000aa0400006d260000c1030000d8
:1057a800191c00001ca0000036060000a85d0000bf
:1057b8000ce90000220a000000db0000012a0000ba
:1057c800ce210000a6860000b780000009e5000091
:1057d800f69d0000bdb70000810d0000d4bb00009d
:1057e80077770000017b0000ab6b000077ef0000cb
:1057f800b15100005132000014860000b47a000054
:10580800c129000041510000c83100007c79000026
:10581800676500006a690000fbac00004c0e0000e0
:1058280045e40000062900002cac0000616e000071
:105838000635000063c1000056190000a489000065
:1058480018850000884c0000be770000f72e000085
:10585800b0320000bdb9000067cf0000a9db00002e
:1058680027f60000ee5d00000d0c0000f7aa00000e
:105878008e10000063450000676100002170000081
:10588800c71a0000183f00004c400000dd0e000061
:1058980061e9000025d300003c9d00005d43000045
:1058a800c2580000c0610000014c000083d0000015
:1058b800d0170000406e0000c58000004d070000b2
:1058c800379600000cd20000549c00005d84000054
:1058d8008f020000dbbd0000c0160000fb9e000028
:1058e8005db70000819d0000d4590000b34e000050
:1058f800adde00003d6b000076e90000b4940000c6
:105908007493000090500000656000009e30000015
:1059180066040000e7100000c59200008ab6000087
:10592800f68e0000cef40000741500002566000015
:1059380045a40000bc2f0000086e00004ea3000024
:10594800f5c70000c1a40000619a00008ab10000f8
:105958008bd100001d50000033660000d79900006d
:10596800db670000779f0000bebd0000e6d40000a2
:10597800e9d5000067670000ee9a0000d5b900007d
:10598800674f0000848b0000ab320000d01100008c
:10599800024a00008c600000071a000096cd000043
:1059a80004560000b97b00002bd200005d8d00007a
:1059b80059c10000b16700000c2b0000670500000a
:1059c80005500000cd060000063c000023a800009a
:1059d8004169000098aa0000621c0000bae40000b7
:1059e800ced90000b3a000002eea0000e9bb0000f9
:1059f800ab7700009dde000075fa0000c699000034
:105a0800d3c0000056c700009b730000152e00008d
:105a180026ca0000e0d6000092100000386c000092
:105a2800040b0000cb3b0000ca810000457e00004b
:105a38006568000028b800000486000036c600002b
:105a4800a08e0000674000001aa9000080460000f0
:105a580035b0000033150000a26200009c760000fb
:105a6800fcec0000ddb30000ab4e00009fda000044
:105a7800bde60000f4ae0000ddbb0000f79c0000ae
