:041000007BEF08F08A
:101008005982FACF4BF0FBCF4CF0E9CF4DF0EACF45
:101018004EF0E1CF4FF0E2CF50F0D9CF51F0DACF18
:1010280052F0F3CF53F0F4CF54F0F6CF55F0F7CF9A
:1010380056F0F8CF57F0F5CF58F09DECB6F0F2B473
:10104800F2AA03D0F294E9ECB5F09EB09DA01ED0B0
:101058009E90C00ECF6E010E01011F6F0101175146
:10106800D8B404D0000E0101176F10D0010E010191
:10107800176F010E0101256F010E0101216F020E8C
:101088001F18D8A403D0010E0101206FA1B2A0A29D
:1010980010D0A192010E01011E6F01011651D8B4A2
:1010A80003D00101160705D0080E0101166F15ECD3
:1010B8009DF058C0F5FF57C0F8FF56C0F7FF55C060
:1010C800F6FF54C0F4FF53C0F3FF52C0DAFF51C01B
:1010D800D9FF50C0E2FF4FC0E1FF4EC0EAFF4DC04C
:1010E800E9FF4CC0FBFF4BC0FAFF599211005CEFBF
:0210F800ACF05A
:10FA500000010000000A00000064000000E803004C
:10FA60000010270000A086010040420F00809698F9
:10FA70000000E1F50500CA9A3BE2FB3CFB70FBF994
:10FA8000FA4C454654202020504F525400000000AC
:10FA9000000000000043454E54455220504F525440
:10FAA0000000000000000000005249474854202098
:10FAB000504F52540000000000000000004C6566EA
:10FAC00074202020506F72740000000000000000BD
:10FAD0000043656E74657220506F72740000000000
:10FAE000000000000052696768742020506F727433
:10FAF00000000000000000000009024300020100B5
:10FB0000C0320904000001020201000524001001B6
:10FB10000424020205240600010524010001070552
:10FB2000810308000209040100020A000000070521
:10FB300002024000000705820240000034034D002D
:10FB40006900630072006F00630068006900700064
:10FB5000200054006500630068006E006F006C00B8
:10FB60006F0067007900200049006E0063002E00DE
:10FB700034034300440043002000520053002D0092
:10FB8000320033003200200045006D0075006C002B
:10FB90006100740069006F006E0020004400650081
:10FBA0006D006F0053554E004D4F4E0054554500AB
:10FBB00057454400544855004652490053415400AB
:10FBC0001201000202000008D8040A00000101022C
:10FBD0000001204F464600204F4E20004C004300BD
:10FBE000520004030904092A2A2A2A2A2A2A2A2A2C
:10FBF0002A2A2A2A2A2A2A2A2A2A2A2A2A2A2A2A65
:10FC00002A2A2A2A0A092A2A2A2A2043686172678C
:10FC1000652053746174696F6E20362E3132202A4C
:10FC20002A2A2A0A092A2A2A2A204D616465206282
:10FC300079204052796F6B657269313420202A2A0D
:10FC40002A2A0A092A2A2A2A2A2A2A2A2A2A2A2A55
:10FC50002A2A2A2A2A2A2A2A2A2A2A2A2A2A2A2A04
:10FC60002A0A0A097072696E745F74696D65287476
:10FC7000290A0961646A7573745F74696D65286126
:10FC80007429205B68616E643A792C4D2C642C6871
:10FC90002C6D2C735D205B76616C756528646563E3
:10FCA000696D616C295D0A0973657474696E6773A7
:10FCB0002873657429205B706F72743A6C65667482
:10FCC000286C292C63656E7465722863292C72690F
:10FCD0006768742872295D0A09095B6175746F5F32
:10FCE00073746F70286173292C616C776179735F0D
:10FCF0006F6E28616F292C696E7465677261746913
:10FD00006E675F7265736574286972295D0A096F91
:10FD100075747075745F64617461286F6429203C28
:10FD20002D2073746F707065642062792070726525
:10FD30007373696E672074686520456E7465722000
:10FD40006B65790A09746F756368205B726573650A
:10FD5000742872292C696E697469616C697A6528E6
:10FD6000696E6974295D205B76616C75652825294B
:10FD70005D0A0A09666F7220446576656C6F707063
:10FD800065720A09524553455428293B0A09626F96
:10FD90006F746C6F61640A00093230253032642F51
:10FDA000253032642F2530326428257329253032DE
:10FDB000643A253032642D253032640A0009696EB8
:10FDC00076616C696420646174610A09696E6974A2
:10FDD00069616C697A696E67206661696C65640A3D
:10FDE000003230253032642F253032642F253032F6
:10FDF000642D253032643A253032642D253032644A
:10FE0000002530326C6464202530326C6468202513
:10FE100030326C646D202530326C64730009696E79
:10FE2000697469616C697A696E6720636F6D706C63
:10FE30006574650A002025733A253031642E25301B
:10FE40003364412C2530366C646D4168000973655C
:10FE500074696E6720636F6D706C6574650A003C31
:10FE60002D20202053656C6563742020202D3E00DA
:10FE7000546F67676C65204175746F2053746F70A1
:10FE8000004C6566742043656E7472205269676821
:10FE900074004368617267652053746174696F6EA2
:10FEA00020360041646A7573742074686520546953
:10FEB0006D6500546F67676C65204C4544204C614C
:10FEC0006D7000426F6F746C6F61646572206D6F4E
:10FED000646500496E74656772617420526573656C
:10FEE00074004368617267652053746174696F6E52
:10FEF0000057656C636F6D65206261636B21004D17
:10FF0000616465206279204B45524900534C454558
:10FF100050494E47204E4F570050494331384632E2
:10FF2000374A3533006F75747075745F646174613E
:10FF30000061646A7573745F74696D6500253031A2
:10FF4000642E253033644100696E697469616C699F
:10FF50007A65007072696E745F74696D65005365CF
:10FF60007474696E677300524553455428293B00E9
:10FF7000626F6F746C6F616400202020202020204D
:10FF80002000096572726F720A00286E756C6C2908
:10FF9000007365636F6E64006D696E757465002033
:10FFA0002030202000204F4E202000204F464620A9
:10FFB00000207965742000257320257300746F7507
:10FFC0006368007265736574006D6F6E74680068B5
:10FFD000656C7000696E6974007965617200686FA4
:10FFE00075720008200800646179006F6400617414
:10FFF000003F004D006D0028002D002F003A00004A
:020000040001F9
:10000000870E00019F6F000E0001A06F70D2250EB9
:100010000001A819D8B40AD083C0D9FF84C0DAFF80
:10002000A8C0DFFF0001834B842B61D2000E0001CA
:10003000AA6F000EA96F000E0001A76F05D0000186
:10004000A7850001854B862B85C0F6FF86C0F7FF8C
:10005000000EF86E0800F550300AD8B4F0D785C00D
:10006000F6FF86C0F7FF000EF86E0800F5505CEC56
:10007000B5F0D8A0E0D0000E0001AA6F000EA96F65
:10008000A9C076F0AAC077F0000E0001796F0A0EC1
:10009000786F71ECB4F076C0A9F077C0AAF0D00EFA
:1000A0000001976FFF0E0001986F85C0F6FF86C0B4
:1000B000F7FF000EF86E0800F5500001996F9A6B7B
:1000C00000019751000199270001985100019A23DE
:1000D000000199510001A92700019A510001AA23AA
:1000E0000001854B862B85C0F6FF86C0F7FF000E0A
:1000F000F86E0800F5505CECB5F0D8A09CD0C0D7E5
:100100000001A78998D09FC0D9FFA0C0DAFFDECF39
:100110009DF0DDCF9EF0020E00019F27000EA02370
:1001200000019D5100019E11D8A406D08A0E000145
:100130009D6FFF0E00019E6F000E0001A26F000E6A
:10014000A16F03D00001A14BA22B0001A15100011E
:100150009D250001976F0001A25100019E21000121
:10016000986F97C0F6FF98C0F7FF000EF86E0E0E5E
:10017000F76403D00800F55005D0F6CFE1FFF7CFC4
:10018000E2FFE7500009D8A4DDD70001A951000122
:10019000A15D0001AA510001A259D8B009D0000107
:1001A000A1510001A95F0001A2510001AA5B0FD07B
:1001B000000E0001AA6F000EA96F09D083C0D9FFFD
:1001C00084C0DAFF200EDF6E0001834B842B000118
:1001D000A907D8A0AA070001A929F0E10001AA29CE
:1001E000D8B41DD0EBD79DC0F6FF9EC0F7FF000E20
:1001F000F86E83C0D9FF84C0DAFF0E0EF76403D017
:100200000800F55005D0F6CFE1FFF7CFE2FFE75049
:10021000DF6E00019D4B9E2B0001834B842B000160
:10022000A107D8A0A2070001A129DDE10001A229B0
:10023000D8B45DD1D8D785C0F6FF86C0F7FF0001DE
:10024000854B862B000EF86E0800F5CFA8F0000154
:10025000A851000AD8B45BD1640AD8B40AD00D0AF8
:10026000D8B407D0050AD8B44BD71F0AD8B44BD797
:100270003ED10001A7A90ED09FC0D9FFA0C0DAFFD0
:10028000DECFA3F0DECFA4F0DECFA5F0DECFA6F068
:10029000040E0FD09FC0D9FFA0C0DAFFDECFA3F0BD
:1002A000DDCFA4F00001000EA4BFFF0EA56FA66F66
:1002B000020E00019F27000EA0230001A6AF0CD064
:1002C000030E0001A7130001A61FA51FA41FA36D05
:1002D000000EA423A523A623010E0001A86F0A0E79
:1002E0000001A819D8B421D00001A851040D510E65
:1002F000F324F66EFA0EF420F76EF86A000EF82278
:100300000900F5500001A35D0900F5500001A45952
:100310000900F5500001A5590900F5500001A65942
:10032000D8A003D00001A82BDAD70001A951000101
:10033000AA11D8B40BD0A7C097F0030E00019717ED
:10034000D8B404D00001A907D8A0AA07800E0001E4
:10035000A8BF7F0E0001976F0001A9510001A85DA1
:100360000001AA51800A00019759D8B00BD00001B2
:10037000A8510001A95F000E0001A8BFFF0E0001F7
:10038000AA5B05D0000E0001AA6F000EA96F000144
:10039000A7A524D0A7C097F0030E00019717D8B4E3
:1003A00009D083C0D9FF84C0DAFF2D0EDF6E0001B3
:1003B000834B842B0001A9510001AA11D8B437D076
:1003C00083C0D9FF84C0DAFF300EDF6E0001834B9B
:1003D000842B0001A907D8A0AA07ECD70001A951D6
:1003E0000001AA11D8B413D083C0D9FF84C0DAFFAA
:1003F000200EDF6E0001834B842B0001A907D8A0DB
:10040000AA070001A9510001AA11D8A4EDD7A7C0DD
:1004100097F0030E00019717D8B409D083C0D9FF15
:1004200084C0DAFF2D0EDF6E0001834B842B0001A8
:10043000A85100019B6F9C6B9BBF9C074DD09BC03C
:1004400097F09CC098F00001D8909737983700013A
:10045000D89097379837510E00019725F66EFA0E0F
:100460009821F76EF86A000EF8220900F5CF64F0C3
:100470000900F5CF65F00900F5CF66F00A00F5CF69
:1004800067F0A3C060F0A4C061F0A5C062F0A6C090
:1004900063F046ECAAF060C06DF061C06EF062C01F
:1004A0006FF063C070F00A0E0001716F000E726F82
:1004B000000E736F000E746FA9ECACF000016D516B
:1004C000300F0001A86F83C0D9FF84C0DAFFA8C035
:1004D000DFFF0001834B842B00019B07D8A09C0702
:1004E00000019B29ACE100019C29D8A4A8D785C0B4
:1004F000F6FF86C0F7FF0001854B862B000EF86ED5
:100500000800F5CFA8F00001A851D8A480D583C079
:10051000D9FF84C0DAFF000EDF6E120058ECB6F08F
:1005200051D2000E0001666F000EEEECB4F01A0E10
:100530000001646F020E0001656FCFECADF0010E9B
:100540000001666F000EEEECB4F02E0E0001646F39
:10055000020E0001656FCFECADF01200730E0001CA
:10056000B36F010E0001B46F920E0001B56F010E62
:100570000001B66FA60E0001B76F010E0001B86F43
:10058000DFEC89F0000E0001666F000EEEECB4F0B7
:10059000920E0001646F010E0001656FCFECADF0AB
:1005A000010E0001666F000EEEECB4F0A60E000125
:1005B000646F010E0001656FCFECADF01200BA0E52
:1005C0000001836F010E0001846FB70E0001856F7B
:1005D000FF0E0001866F0001FB51170D160EF3266A
:1005E000000EF4222E0EF324D96E010EF420DA6EE2
:1005F0000101DFA004D00001BA6BBA2B02D00001C8
:10060000BA6B0001BA513C0D810E0001BB6FFA0EAE
:100610000001BC6FF3500001BB27F4500001BC2364
:100620000001FB51140DF3500001BB250001876F41
:10063000F4500001BC210001886F0001FB51170D2F
:10064000060EF326000EF4222E0EF324D96E010EB0
:10065000F420DA6E010EDB5004E1650EDE5CD8A0FA
:1006600002D0010E01D0000E050DD20EF3240001C0
:10067000896FFB0EF42000018A6F00EC80F0000E01
:100680000001666F000EEEECB4F0BA0E0001646F6C
:10069000010E0001656FCFECADF07BD1BA0E000109
:1006A000836F010E0001846F3D0E0001856FFF0E08
:1006B0000001866F0001FB51170D060EF326000E98
:1006C000F4222E0EF324D96E010EF420DA6EDECF62
:1006D0007CF0DDCF7DF0030E00017F6FE80E7E6FB2
:1006E00026ECAFF07CC087F07DC088F00001FB51A4
:1006F000170D060EF326000EF4222E0EF324D96EEB
:10070000010EF420DA6EDECF60F0DDCF61F0030E73
:100710000001636FE80E626F7BECB1F060C089F09E
:1007200061C08AF000EC80F03ED1BA0E0001836F08
:10073000010E0001846F440E0001856FFE0E000162
:10074000866F0001FB51170D0C0EF326000EF422EC
:100750002E0EF324D96E010EF420DA6EDECF87F070
:10076000DECF88F0DECF89F0DECF8AF000EC80F0BB
:100770001AD1100E0001646F0E0E656F000E666FC9
:10078000000E676F0001FB51170D100EF326000ECF
:10079000F4222E0EF324D96E010EF420DA6EDECF91
:1007A00060F0DECF61F0DECF62F0DECF63F046ECCA
:1007B000AAF060C0CEF161C0CFF162C0D0F163C0D9
:1007C000D1F1CEC160F0CFC161F0D0C162F0D1C132
:1007D00063F0180E0001646F000E656F000E666F07
:1007E000000E676F46ECAAF060C0D2F161C0D3F191
:1007F00062C0D4F163C0D5F1100E0001646F0E0E1B
:10080000656F000E666F000E676F0001FB51170DDC
:10081000100EF326000EF4222E0EF324D96E010ED4
:10082000F420DA6EDECF60F0DECF61F0DECF62F072
:10083000DECF63F046ECAAF060C06DF061C06EF0F0
:1008400062C06FF063C070F0180E0001716F000E8F
:10085000726F000E736F000E746FA9ECACF06DC078
:10086000D6F16EC0D7F16FC0D8F170C0D9F13C0E8F
:100870000001646F000E656F000E666F000E676FFB
:100880000001FB51170D100EF326000EF4222E0E60
:10089000F324D96E010EF420DA6EDECF60F0DECFE5
:1008A00061F0DECF62F0DECF63F046ECAAF060C00C
:1008B0006DF061C06EF062C06FF063C070F03C0E0E
:1008C0000001716F000E726F000E736F000E746F77
:1008D000A9ECACF06DC0DAF16EC0DBF16FC0DCF1F9
:1008E00070C0DDF10001FB51170D100EF326000E54
:1008F000F4222E0EF324D96E010EF420DA6EDECF30
:100900006DF0DECF6EF0DECF6FF0DECF70F03C0E1C
:100910000001716F000E726F000E736F000E746F26
:10092000A9ECACF06DC0DEF16EC0DFF16FC0E0F19C
:1009300070C0E1F1BA0E0001836F010E0001846FF7
:10094000010E0001856FFE0E0001866FD2C187F097
:10095000D3C188F0D4C189F0D5C18AF0D6C18BF05B
:10096000D7C18CF0D8C18DF0D9C18EF0DAC18FF02B
:10097000DBC190F0DCC191F0DDC192F0DEC193F0FB
:10098000DFC194F0E0C195F0E1C196F000EC80F099
:100990000AD01D50000AD8B481D6010AD8B4C5D6F1
:1009A000030AD8B4E6D6010E0001666F000EEEEC25
:1009B000B4F0BA0E0001646F010E0001656FCFEC58
:1009C000ADF012001F50000AD8B4ABD5010AD8B45C
:1009D000C5D5030AD8B4F3D5010AD8A41200A1D50D
:1009E000D4C060F0D5C061F0530E0001626FFF0EFD
:1009F0000001636F0CECB2F0000160510001611165
:100A0000D8B412D0D4C060F0D5C061F0EF0E0001B0
:100A1000626FFF0E0001636F0CECB2F000016051D9
:100A200000016111D8A406D0D2C0ABF0D3C0ACF0A5
:100A30005DECAEF0D4C060F0D5C061F0EE0E000108
:100A4000626FFF0E0001636F0CECB2F000016051A9
:100A500000016111D8B412D0D4C060F0D5C061F0EB
:100A6000310E0001626FFF0E0001636F0CECB2F0FB
:100A70000001605100016111D8A41200D6C060F0DD
:100A8000D7C061F0E90E0001626FFF0E0001636FD5
:100A90000CECB2F00001605100016111D8B412D029
:100AA000D6C060F0D7C061F0D90E0001626FFF0EB2
:100AB0000001636F0CECB2F00001605100016111A4
:100AC000D8A41CD0D2C0CBF0D3C0CCF07D0E000196
:100AD000CD6F010E0001CE6F000E0001CF6F630ECF
:100AE0000001D06FD8C07CF0D9C07DF0AAECA0F096
:100AF00000017C510001D16FACECB1F0D6C060F0C8
:100B0000D7C061F0F30E0001626FFF0E0001636F4A
:100B10000CECB2F00001605100016111D8B412D0A8
:100B2000D6C060F0D7C061F0C90E0001626FFF0E41
:100B30000001636F0CECB2F0000160510001611123
:100B4000D8A41CD0D2C0CBF0D3C0CCF07C0E000116
:100B5000CD6F010E0001CE6F010E0001CF6F0C0EA4
:100B60000001D06FD8C07CF0D9C07DF0AAECA0F015
:100B700000017C510001D16FACECB1F0D6C060F047
:100B8000D7C061F0FF0E0001626FFD0E0001636FC0
:100B90000CECB2F00001605100016111D8B412D028
:100BA000D6C060F0D7C061F0E70E0001626FFF0EA3
:100BB0000001636F0CECB2F00001605100016111A3
:100BC000D8A423D07CC166F001017D51D7ECA3F0FD
:100BD0000001DA6FD2C0CBF0D3C0CCF07B0E0001A5
:100BE000CD6F010E0001CE6F010E0001CF6FDAC094
:100BF000D0F0D8C07CF0D9C07DF0AAECA0F0000104
:100C00007C510001D16FACECB1F0D6C060F0D7C020
:100C100061F04B0E0001626FFE0E0001636F0CEC81
:100C2000B2F00001605100016111D8B412D0D6C0F9
:100C300060F0D7C061F0DE0E0001626FFF0E0001B0
:100C4000636F0CECB2F00001605100016111D8A497
:100C50001CD0D2C0CBF0D3C0CCF0790E0001CD6F48
:100C6000010E0001CE6F000E0001CF6F170E0001C4
:100C7000D06FD8C07CF0D9C07DF0AAECA0F0000104
:100C80007C510001D16FACECB1F0D6C060F0D7C0A0
:100C900061F0F50E0001626FFF0E0001636F0CEC56
:100CA000B2F00001605100016111D8B412D0D6C079
:100CB00060F0D7C061F0980E0001626FFF0E000176
:100CC000636F0CECB2F00001605100016111D8A417
:100CD0001CD0D2C0CBF0D3C0CCF0780E0001CD6FC9
:100CE000010E0001CE6F000E0001CF6F3B0E000120
:100CF000D06FD8C07CF0D9C07DF0AAECA0F0000184
:100D00007C510001D16FACECB1F0D6C060F0D7C01F
:100D100061F0BB0E0001626FFF0E0001636F0CEC0F
:100D2000B2F00001605100016111D8B412D0D6C0F8
:100D300060F0D7C061F0910E0001626FFF0E0001FC
:100D4000636F0CECB2F00001605100016111D8A496
:100D50001200D2C0CBF0D3C0CCF0770E0001CD6F23
:100D6000010E0001CE6F000E0001CF6F3B0E00019F
:100D7000D06FD8C07CF0D9C07DF0AAECA0F0000103
:100D80007C510001D16FACECB1F0120001012D518A
:100D90000101D8A416D0010E01012D6F810E0001B2
:100DA000606F010E0001616F000E0001626F060EA0
:100DB0000001636F000E0001656F640E646FC1EC8B
:100DC000B2F094C160F095C161F09CECA1F000011B
:100DD000605100016111D8B4120094C168F095C14E
:100DE00069F0FCECA7F00601676F76D1810E000177
:100DF000686F010E0001696F000E00016A6FF2EC6E
:100E0000A5F092C168F093C169F0090E00016A6F04
:100E1000F2ECA5F0810E0001606F010E0001616F20
:100E20009CECA1F0FF0E000160250601646FFF0E2F
:100E3000000161210601656F92C183F093C184F0C6
:100E400064C685F065C686F0020E0001876FE5EC8A
:100E5000AEF092C168F093C169F00A0E00016A6FAA
:100E6000F2ECA5F0000E0601686F02D00601682BB7
:100E7000810E0001686F010E0001696FFCECA7F0A4
:100E80000101966F06016851010D420EF324D96EDF
:100E9000020EF420DA6E96C1DFFFDF50D8A4E6D749
:100EA00006016851010D420EF324D96E020EF420A2
:100EB000DA6E000EDF6E000E0601686F02D00601CA
:100EC000682B810E0001686F010E0001696FFCEC58
:100ED000A7F00101966F06016851010D5B0EF32426
:100EE000D96E020EF420DA6E96C1DFFFDF50D8A46F
:100EF000E6D706016851010D5B0EF324D96E020E90
:100F0000F420DA6E000EDF6E000E0601686F02D06C
:100F10000601682B810E0001686F010E0001696FE8
:100F2000FCECA7F00101966F06016851010D740EEB
:100F3000F324D96E020EF420DA6E96C1DFFFDF5083
:100F4000D8A4E6D706016851010D740EF324D96EBA
:100F5000020EF420DA6E000EDF6E000E0601686FDE
:100F600002D00601682B810E0001686F010E00019E
:100F7000696FFCECA7F00101966F06016851010D45
:100F80008D0EF324D96E020EF420DA6E96C1DFFFC7
:100F9000DF50D8A4E6D706016851010D8D0EF32469
:100FA000D96E020EF420DA6E000EDF6E92C1DBF015
:100FB00093C1DCF0420E0001DD6F020E0001DE6F16
:100FC0005B0E0001DF6F020E0001E06F740E000186
:100FD000E16F020E0001E26F8D0E0001E36F020E61
:100FE0000001E46F62EC90F01200810E0001686F66
:100FF000010E0001696F000E00016A6FF2ECA5F0AE
:1010000092C168F093C169F0200E00016A6FF2ECA2
:10101000A5F01200810E0001686F010E0001696FDA
:1010200088ECADF092C16FF093C170F0E30E000157
:10103000716FFF0E0001726FE6ECB0F01200000E4F
:101040000601666F0ED092C16FF093C170F0E30E8F
:101050000001716FFF0E0001726FE6ECB0F0060147
:10106000662B810E0001606F010E0001616F9CEC28
:10107000A1F0060166510101966F976B0001605166
:101080000101965D0001615101019759D8A0DBD79C
:10109000810E0001606F010E0001616FD6ECB5F0AA
:1010A00012001F0E0601676512007F0E06016761C0
:1010B0001200810E0001686F010E0001696F67C6A2
:1010C0006AF0F2ECA5F092C168F093C169F067C6CE
:1010D0006AF0F2ECA5F0120006016751080AD8B4D4
:1010E00099D7050AD8B482D62D0AD8B47ED75F0A1C
:1010F000D8B4A5D7D6D7000185510001D8B4A8D05F
:1011000083C0D9FF84C0DAFF840EDE180DE1030E20
:10111000DE18D8A409D0000120EE03F08351D926AF
:101120008451DA220001DF8E83C0D9FF84C0DAFF48
:10113000BC0EDE180DE1020EDE18D8A409D00001A5
:1011400020EE03F08351D9268451DA220001DF8C8E
:1011500083C0D9FF84C0DAFFF40EDE180CE1DE0490
:10116000D8A409D0000120EE03F08351D926845180
:10117000DA220001DF8A83C0D9FF84C0DAFF2C0E97
:10118000DE180CE1DE04D8A409D0000120EE03F043
:101190008351D9268451DA220001DF8883C0D9FF28
:1011A00084C0DAFF960EDE18DE10D8A409D0000144
:1011B00020EE03F08351D9268451DA220001DF8624
:1011C00083C0D9FF84C0DAFF3C0EDE18DE10D8A43D
:1011D00009D0000120EE03F08351D9268451DA2290
:1011E0000001DF8483C0D9FF84C0DAFF100EDE184F
:1011F000DE10D8A409D0000120EE03F08351D926D7
:101200008451DA220001DF8283C0D9FF84C0DAFF73
:10121000020EDE18DE10D8A409D0000120EE03F083
:101220008351D9268451DA220001DF8083C0D9FF9F
:1012300084C0DAFF850EDE5C030EDE58D8B01200E3
:1012400083C0D9FF84C0DAFFDE2A000EDD2212003F
:1012500083C0D9FF84C0DAFF840EDE5C030EDE5843
:10126000D8A00AD0000120EE02F08351D926845183
:10127000DA220001DF8E8FD083C0D9FF84C0DAFF6D
:10128000BC0EDE5C020EDE58D8A00AD0000120EEB3
:1012900002F08351D9268451DA220001DF8C7BD001
:1012A00083C0D9FF84C0DAFFF40EDE5C010EDE5885
:1012B000D8A00AD0000120EE02F08351D926845133
:1012C000DA220001DF8A67D083C0D9FF84C0DAFF49
:1012D0002C0EDE5C010EDE58D8A00AD0000120EEF4
:1012E00002F08351D9268451DA220001DF8853D0DD
:1012F00083C0D9FF84C0DAFF010EDB5004E1960EF3
:10130000DE5CD8A00AD0000120EE02F08351D9267D
:101310008451DA220001DF863ED083C0D9FF84C029
:10132000DAFF010EDB5004E13C0EDE5CD8A00AD0EF
:10133000000120EE02F08351D9268451DA22000107
:10134000DF8429D083C0D9FF84C0DAFF010EDB50CF
:1013500004E1100EDE5CD8A00AD0000120EE02F0FD
:101360008351D9268451DA220001DF8214D083C050
:10137000D9FF84C0DAFF010EDB5004E1020EDE5C0F
:10138000D8A009D0000120EE02F08351D926845163
:10139000DA220001DF8083C0D9FF84C0DAFF000EAB
:1013A000DE6E000EDD6E000120EE02F08351D926C4
:1013B0008451DA22FF0EDE16000EDD161200730EC7
:1013C0000001866F010E0001876F65ECB6F0B5C0B5
:1013D00060F0B6C061F0E60E0001626FFF0E000122
:1013E000636F1DECB4F0B5C0ABF0B6C0ACF0140E3A
:1013F0000001AD6F000120EE0DF0B351D926B451BC
:10140000DA22000EDFBA010E0001AE6F7CECB0F004
:10141000B5C0ABF0B6C0ACF0000120EE0AF0B3519D
:10142000D926B451DA22DF500001AD6F000120EE61
:101430000DF0B351D926B451DA22000EDFBA010EF5
:101440000001AE6F7CECB0F0B5C060F0B6C061F0EA
:10145000FB0E0001626FFF0E0001636FDCECB1F068
:10146000B5C0ABF0B6C0ACF0000120EE09F0B3514E
:10147000D926B451DA22DF500001AD6F000120EE11
:101480000DF0B351D926B451DA22000EDFB8010EA7
:101490000001AE6F7CECB0F0B5C060F0B6C061F09A
:1014A000FB0E0001626FFF0E0001636FDCECB1F018
:1014B000B5C0ABF0B6C0ACF0000120EE08F0B351FF
:1014C000D926B451DA22DF500001AD6F000120EEC1
:1014D0000DF0B351D926B451DA22000EDFB6010E59
:1014E0000001AE6F7CECB0F0B5C060F0B6C061F04A
:1014F000F70E0001626FFF0E0001636FDCECB1F0CC
:10150000B5C060F0B6C061F0000120EE07F0B35145
:10151000D926B451DA22DF500001B96F0001B95168
:10152000040DA40EF3240001626FFB0EF4200001F1
:10153000636FDCECB1F0B5C060F0B6C061F08F0E47
:101540000001626FFF0E0001636FDCECB1F0B7C009
:1015500060F0B8C061F0790E0001626FFF0E00010B
:10156000636F1DECB4F0B7C0ABF0B8C0ACF00001D5
:1015700020EE06F0B351D926B451DA22DF50000133
:10158000AD6F000120EE0DF0B351D926B451DA222F
:10159000000EDFB4010E0001AE6F7CECB0F0000174
:1015A00020EE0BF0B351D926B451DA22DF50D8B473
:1015B0000DD0B7C060F0B8C061F0FD0E0001626FE1
:1015C000FF0E0001636FDCECB1F00CD0B7C060F02F
:1015D000B8C061F0800E0001626FFF0E0001636F02
:1015E000DCECB1F0B7C0ABF0B8C0ACF0000120EE5D
:1015F00005F0B351D926B451DA22DF500001AD6FA6
:10160000000120EE0DF0B351D926B451DA22000EBC
:10161000DFB2010E0001AE6F7CECB0F0B7C060F03D
:10162000B8C061F0F90E0001626FFF0E0001636F38
:10163000DCECB1F0B7C0ABF0B8C0ACF0000120EE0C
:1016400004F0B351D926B451DA22DF500001AD6F56
:10165000000120EE0DF0B351D926B451DA22000E6C
:10166000DFB0010E0001AE6F7CECB0F0120091C053
:1016700086F092C087F065ECB6F0000120EE0DF028
:101680009151D9269251DA220001DFA009D091C0F0
:10169000D9FF92C0DAFFDE2A000EDE22DE22DE2231
:1016A000000120EE0DF09151D9269251DA2200016D
:1016B000DFA20AD03C0E91C0D9FF92C0DAFFDE262D
:1016C000000EDE22DE22DE22000120EE0DF091511E
:1016D000D9269251DA220001DFA40CD091C0D9FFA3
:1016E00092C0DAFF100EDE260E0EDE22000EDE2283
:1016F000000EDE22000120EE0DF09151D92692510C
:10170000DA220001DFA60CD091C0D9FF92C0DAFF27
:10171000800EDE26510EDE22010EDE22000EDE22BB
:10172000000120EE0DF09151D9269251DA220001EC
:10173000DFA838D0000120EE09F09151D92692514E
:10174000DA22DF500001666F000120EE0AF09151AD
:10175000D9269251DA22DF50D7ECA3F00001936F23
:101760000001935100016D6F6E6B6F6B706B800E9B
:101770000001716F510E726F010E736F000E746F66
:1017800062ECAFF091C0D9FF92C0DAFF00016D5159
:10179000DE2600016E51DE2200016F51DE220001C3
:1017A0007051DE22000120EE0DF09151D9269251A8
:1017B000DA220001DFAA88D0000120EE09F0915161
:1017C000D9269251DA22DF500001986F0C0E0001E9
:1017D000986501D033D098C066F0000120EE0AF081
:1017E0009151D9269251DA22DF50D7ECA3F00001B3
:1017F000936F0001935100016D6F6E6B6F6B706B97
:10180000800E0001716F510E726F010E736F000E2A
:10181000746F62ECAFF091C0D9FF92C0DAFF0001A3
:101820006D51DE2600016E51DE2200016F51DE2275
:1018300000017051DE220001982BC8D7010E000173
:10184000976F36D097C066F0000120EE0AF09151F4
:10185000D9269251DA22DF500001936F00019329BB
:10186000D7ECA3F00001946F0001945100016D6F5B
:101870006E6B6F6B706B800E0001716F510E726F2B
:10188000010E736F000E746F62ECAFF091C0D9FF60
:1018900092C0DAFF00016D51DE2600016E51DE229A
:1018A00000016F51DE2200017051DE220001972BF2
:1018B000000120EE09F09151D9269251DA22DE5032
:1018C0000001975DD8A0BED791C0D9FF92C0DAFFC2
:1018D000800EDE5C130EDE58190EDE58BC0EDE588C
:1018E000D8A00CD091C0D9FF92C0DAFF800EDE5E86
:1018F000130EDE5A190EDE5ABC0EDE5A730E0001AC
:101900008F6F010E0001906F4BECB6F0010E226E4E
:10191000120091C086F092C087F065ECB6F000012D
:1019200020EE0DF09151D9269251DA220001DFA06C
:1019300009D091C0D9FF92C0DAFFDE06000EDE5A50
:10194000DE5ADE5A000120EE0DF09151D926925157
:10195000DA220001DFA20AD03C0E91C0D9FF92C06A
:10196000DAFFDE5E000EDE5ADE5ADE5A000120EE9D
:101970000DF09151D9269251DA220001DFA40CD04A
:1019800091C0D9FF92C0DAFF100EDE5E0E0EDE5A55
:10199000000EDE5A000EDE5A000120EE0DF09151CD
:1019A000D9269251DA220001DFA60CD091C0D9FFCE
:1019B00092C0DAFF800EDE5E510EDE5A010EDE5A54
:1019C000000EDE5A000120EE0DF09151D926925101
:1019D000DA220001DFA838D0000120EE09F0915191
:1019E000D9269251DA22DF500001666F000120EE05
:1019F0000AF09151D9269251DA22DF50D7ECA3F0A8
:101A00000001936F0001935100016D6F6E6B6F6B5E
:101A1000706B800E0001716F510E726F010E736F4B
:101A2000000E746F62ECAFF091C0D9FF92C0DAFF84
:101A300000016D51DE5E00016E51DE5A00016F51F2
:101A4000DE5A00017051DE5A000120EE0DF0915176
:101A5000D9269251DA220001DFAA88D0000120EEB7
:101A600009F09151D9269251DA22DF500001986F86
:101A7000000198510001D8B433D098C066F000013D
:101A800020EE0AF09151D9269251DA22DF50D7EC9C
:101A9000A3F00001936F0001935100016D6F6E6B15
:101AA0006F6B706B800E0001716F510E726F010EC3
:101AB000736F000E746F62ECAFF091C0D9FF92C0EB
:101AC000DAFF00016D51DE5E00016E51DE5A000149
:101AD0006F51DE5A00017051DE5A00019807C8D7D5
:101AE0000C0E0001976F36D097C066F0000120EE13
:101AF0000AF09151D9269251DA22DF500001936FFA
:101B000000019305D7ECA3F00001946F00019451FC
:101B100000016D6F6E6B6F6B706B800E0001716FEB
:101B2000510E726F010E736F000E746F62ECAFF0A6
:101B300091C0D9FF92C0DAFF00016D51DE5E000155
:101B40006E51DE5A00016F51DE5A00017051DE5AAB
:101B500000019707000120EE09F09151D92692511A
:101B6000DA2200019751DE5CD8A0BED791C0D9FF20
:101B700092C0DAFF800EDE5C130EDE58190EDE58BE
:101B8000BC0EDE58D8A00CD091C0D9FF92C0DAFFAD
:101B9000800EDE26130EDE22190EDE22BC0EDE22A1
:101BA000730E00018F6F010E0001906F4BECB6F0C9
:101BB000010E226E1200000E0001816F000E826F76
:101BC000000E836F000E846F000E00017F6F37D010
:101BD000010E0001856F0C0E0001856501D02DD02E
:101BE00085C066F000017F51D7ECA3F000017B6F48
:101BF00000017B5100016D6F6E6B6F6B706B800E1F
:101C00000001716F510E726F010E736F000E746FD1
:101C100062ECAFF000016D510001812700016E51AF
:101C20000001822300016F510001832300017051E4
:101C3000000184230001852BCED700017F2B0001FA
:101C400020EE0AF07951D9267A51DA22DE500001CD
:101C50007F5DD8A0BDD7010E0001806F32D080C05B
:101C600066F0000120EE0AF07951D9267A51DA2285
:101C7000DF50D7ECA3F000017B6F00017B51000126
:101C80006D6F6E6B6F6B706B800E0001716F510E1C
:101C9000726F010E736F000E746F62ECAFF0000193
:101CA0006D510001812700016E5100018223000166
:101CB0006F51000183230001705100018423000152
:101CC000802B000120EE09F07951D9267A51DA22D1
:101CD000DE500001805DD8A0C2D7FF0E00017B6FEF
:101CE000FF0E00017C6F000120EE08F07951D9262B
:101CF0007A51DA22DF5000017D6F7E6B00017B514B
:101D000000017D2700017C5100017E237DC06DF024
:101D10007EC06EF00001000E6EBFFF0E6F6F706F21
:101D2000800E0001716F510E726F010E736F000E05
:101D3000746F62ECAFF000016D510001812700016A
:101D40006E510001822300016F51000183230001C5
:101D5000705100018423000120EE06F07951D9264C
:101D60007A51DA22DF5000017B6F00017B510001C4
:101D70006D6F6E6B6F6B706B100E0001716F0E0EDE
:101D8000726F000E736F000E746F62ECAFF00001A3
:101D90006D510001812700016E5100018223000175
:101DA0006F51000183230001705100018423000161
:101DB00020EE05F07951D9267A51DA22DF50000160
:101DC0007B6F00017B5100016D6F6E6B6F6B706BF1
:101DD0003C0E0001716F000E726F000E736F000EEB
:101DE000746F62ECAFF000016D51000181270001BA
:101DF0006E510001822300016F5100018323000115
:101E0000705100018423000120EE04F07951D9269D
:101E10007A51DA22DF5000017B6F00017B51000113
:101E20008127000E82238323842379C0D9FF7AC0BF
:101E3000DAFF81C0DEFF82C0DEFF83C0DEFF84C028
:101E4000DEFF12000D013205D8A411D00D01305172
:101E50001F0B0009D8A40BD00001F28F030E0D0157
:101E60003119D8A402D0010E01D0000E0F6E0D0161
:101E70003251D8A412000D0130511F0B020AD8A410
:101E800012000D0134510F0B0009D8B412000D01DE
:101E900034510F0B416E030E41601200200E1318D7
:101EA000D8A412000001F28F0D0134BF1BD00D0128
:101EB00034510F0B416E4150020D000EF324D96EC8
:101EC000010EF420DA6EDECF45F0DDCF46F00D01D5
:101ED00034510F0B416E4150010D040EF324D96EA5
:101EE000000E1AD00D0134510F0B416E4150020DFE
:101EF000F50EF324D96E000EF420DA6EDECF45F035
:101F0000DDCF46F00D0134510F0B416E4150010DF4
:101F1000010EF324D96E000EF420DA6EDF50446E09
:101F200044B002D0459401D045840D0134BF0BD09C
:101F30000D0134510F0B416E4150020D000EF32480
:101F4000D96E010E0AD00D0134510F0B416E415074
:101F5000020DF50EF324D96E000EF420DA6E45C0A2
:101F6000DEFF46C0DDFF030E0D013119D8A42ED0CF
:101F700045C0D9FF46C0DAFFDFAE1BD00D0134BF2C
:101F80000BD00D0134510F0B416E4150010D040E69
:101F9000F324D96E000E0AD00D0134510F0B416E9F
:101FA0004150010D010EF324D96E000EF420DA6EBB
:101FB000DF8245C0D9FF46C0DAFF000EDB8445C092
:101FC000D9FF46C0DAFF000EDB8E1200040E451A60
:101FD00045C0D9FF46C0DAFFDFAE1BD045C0D9FFF0
:101FE00046C0DAFF7F0EDF1645C0D9FF46C0DAFFD4
:101FF000000EDB8C000E3A6E050E396E45C03BF0CC
:1020000046C03CF0000E3E6E020E3D6E3AECB2F061
:1020100006D045C0D9FF46C0DAFF000EDB8C040EA7
:10202000451A44B206D045C0D9FF46C0DAFFDFAE3C
:1020300030D00D0134BF0BD00D0134510F0B416E68
:102040004150010D040EF324D96E000E0AD00D018B
:1020500034510F0B416E4150010D010EF324D96E26
:10206000000EF420DA6EDF9245C0D9FF46C0DAFFD9
:102070003B0EDF16000E3A6E050E396E45C03BF082
:1020800046C03CF0000E3E6E020E3D6E3AECB2F0E1
:1020900006D045C0D9FF46C0DAFF3B0EDF160D0162
:1020A00034510F0B416E4150010D260EF324426E48
:1020B0000F0EF420436E42C0D9FF43C0DAFFFE0E7C
:1020C000DF161200DDC060F0DEC061F0CF0E00014F
:1020D000626FFF0E0001636F0CECB2F00001605103
:1020E00000016111D8B412D0DDC060F0DEC061F033
:1020F000F10E0001626FFF0E0001636F0CECB2F095
:102100000001605100016111D8A40CD0DBC06FF058
:10211000DCC070F0E60E0001716FFB0E0001726F03
:10212000E6ECB0F0DBC0D2F0DCC0D3F0DDC0D4F020
:10213000DEC0D5F0DFC0D6F0E0C0D7F0E1C0D8F007
:10214000E2C0D9F0F0EC84F0DDC060F0DEC061F0F8
:10215000670E0001626FFF0E0001636F0CECB2F0BE
:102160000001605100016111D8B4FF00DDC060F0D2
:10217000DEC061F0700E0001626FFF0E0001636F40
:102180000CECB2F00001605100016111D8B486EC92
:10219000B3F0DDC060F0DEC061F0EB0E0001626FF5
:1021A000FF0E0001636F0CECB2F000016051000102
:1021B0006111D8B412D0DDC060F0DEC061F0250E30
:1021C0000001626FFF0E0001636F0CECB2F00001C2
:1021D000605100016111D8A403D0010E0101246FE8
:1021E000DDC060F0DEC061F0E60E0001626FFF0E40
:1021F0000001636F0CECB2F000016051000161114D
:10220000D8A403D0000E0101246FDDC060F0DEC051
:1022100061F0BD0E0001626FFF0E0001636F0CECF8
:10222000B2F00001605100016111D8A41200DFC0BA
:1022300060F0E0C061F0480E0001626FFF0E000127
:10224000636F0CECB2F00001605100016111D8B471
:1022500012D0DFC060F0E0C061F0D40E0001626F08
:10226000FF0E0001636F0CECB2F000016051000141
:102270006111D8A42CD0E1C07CF0E2C07DF0AAECC2
:10228000A0F000017C510001E56F650E0001E561E1
:1022900012D0E5C01CF01C5013ECA2F0DBC06FF0B4
:1022A000DCC070F01D0E0001716FFE0E0001726F38
:1022B000E6ECB0F00CD0DBC06FF0DCC070F0BD0E0F
:1022C0000001716FFD0E0001726FE6ECB0F0DFC02F
:1022D00060F0E0C061F0C30E0001626FFF0E00010C
:1022E000636F0CECB2F00001605100016111D8B4D1
:1022F00012D0DFC060F0E0C061F0DC0E0001626F60
:10230000FF0E0001636F0CECB2F0000160510001A0
:102310006111D8A412001C5013ECA2F0DBC06FF0C6
:10232000DCC070F04D0E0001716FFE0E0001726F87
:10233000E6ECB0F0120005D16A0E0001926F000EBB
:102340000001936F000E0001966F020E000196656A
:1023500001D034D000019651170D0C0EF326000E5B
:10236000F4222E0EF324D96E010EF420DA6EDE5024
:10237000DE10DE10DE10D8B40DD092C060F093C035
:1023800061F0B10E0001626FFF0E0001636F1DEC82
:10239000B4F00CD092C060F093C061F09F0E0001C9
:1023A000626FFF0E0001636F1DECB4F0050E0001BB
:1023B0009227000E93230001962BC7D7810E0001B0
:1023C000606FFE0E0001616F6A0E0001626F000E09
:1023D0000001636F030EE0EC9BF0010E0101296F19
:1023E000B8D0000E0001986F020E0001986501D070
:1023F000B0D000019851170D020EF326000EF42202
:102400002E0EF324D96E010EF420DA6E0101DFA046
:1024100095D000019851170D020EF326000EF422FC
:102420002E0EF324D96E010EF420DA6E000EDE6E4D
:10243000000EDD6E00019851170D080EF326000EF8
:10244000F4222E0EF324D96E010EF420DA6EDE6A29
:10245000DE6ADE6ADD6A00019851170D0C0EF32664
:10246000000EF4222E0EF324D96E010EF420DA6E43
:10247000DE6ADE6ADE6ADD6A00019851170D100E11
:10248000F326000EF4222E0EF324D96E010EF42052
:10249000DA6EDE6ADE6ADE6ADD6A7E0E0001946F45
:1024A000000E0001956F000E0001976F020E0001F3
:1024B000976501D034D000019751170D0C0EF3260B
:1024C000000EF4222E0EF324D96E010EF420DA6EE3
:1024D000DE50DE10DE10DE10D8B40DD094C060F0F7
:1024E00095C061F0B10E0001626FFF0E0001636FD5
:1024F0001DECB4F00CD094C060F095C061F09F0E5C
:102500000001626FFF0E0001636F1DECB4F0050E59
:1025100000019427000E95230001972BC7D7E60EE4
:102520000001606FFF0E0001616F7E0E0001626F9F
:10253000000E0001636F030EE0EC9BF00001982B8E
:1025400053D701012951000AD8B4F6D6010AD8B4EC
:1025500048D70001FEA11CD0000E0001FF6F000E45
:10256000FE6F000E0101296F000E0101226FE60EC1
:102570000001606FFF0E0001616FE60E0001626FE7
:10258000FF0E0001636F010EE0EC9BF0010E1200E4
:10259000000E120000D1670E00018F6F000E0001C7
:1025A000906F000E0001936F020E0001936501D041
:1025B00031D000019351170D160EF326000EF422B0
:1025C0002E0EF324D96E010EF420DA6E0101DFA283
:1025D0000DD08FC060F090C061F0A50E0001626F59
:1025E000FF0E0001636F1DECB4F00CD08FC060F0E3
:1025F00090C061F0AB0E0001626FFF0E0001636FCF
:102600001DECB4F0050E00018F27000E9023000191
:10261000932BCAD7810E0001606FFE0E0001616F1F
:10262000670E0001626F000E0001636F030EE0ECA5
:102630009BF0010E01012A6FB6D0000E0001956FCC
:10264000020E0001956501D0AED000019551170D25
:10265000020EF326000EF4222E0EF324D96E010E84
:10266000F420DA6E0101DFA093D000019551170D1F
:10267000020EF326000EF4222E0EF324D96E010E64
:10268000F420DA6E000EDE6E000EDD6E0001955154
:10269000170D160EF326000EF4222E0EF324D96E1B
:1026A000010EF420DA6E0101DFB204D00001666B86
:1026B000662B02D00001666B00019551170D160EB6
:1026C000F326000EF4222E0EF324D96E010EF42010
:1026D000DA6E000166470101DF5000016619FD0B4B
:1026E00066190101DF6E000E0001606F0001955157
:1026F0009DECAFF07B0E0001916F000E0001926F18
:10270000000E0001946F020E0001946501D031D0DB
:1027100000019451170D160EF326000EF4222E0E12
:10272000F324D96E010EF420DA6E0101DFA20DD080
:1027300091C060F092C061F0A50E0001626FFF0EC3
:102740000001636F1DECB4F00CD091C060F092C03A
:1027500061F0AB0E0001626FFF0E0001636F1DECB4
:10276000B4F0050E00019127000E92230001942B76
:10277000CAD7E60E0001606FFF0E0001616F7B0E8D
:102780000001626F000E0001636F030EE0EC9BF02E
:102790000001952B55D701012A51000AD8B4FBD668
:1027A000010AD8B44AD70001FEA11CD0000E0001D6
:1027B000FF6F000EFE6F000E01012A6F000E010177
:1027C000226FE60E0001606FFF0E0001616FE60EE2
:1027D0000001626FFF0E0001636F010EE0EC9BF0E1
:1027E000010E1200000E1200F7D0670E00018F6F6D
:1027F000000E0001906F000E0001936F020E0001A9
:10280000936501D031D000019351170D160EF326B8
:10281000000EF4222E0EF324D96E010EF420DA6E8F
:102820000101DFA00DD08FC060F090C061F0A50E57
:102830000001626FFF0E0001636F1DECB4F00CD05D
:102840008FC060F090C061F0AB0E0001626FFF0EB0
:102850000001636F1DECB4F0050E00018F27000E20
:1028600090230001932BCAD7810E0001606FFE0EEA
:102870000001616F670E0001626F000E0001636F5F
:10288000030EE0EC9BF0010E0101286FADD0000EAD
:102890000001956F020E0001956501D0A5D00001E1
:1028A0009551170D020EF326000EF4222E0EF3247E
:1028B000D96E010EF420DA6E0101DFA08AD000018A
:1028C0009551170D020EF326000EF4222E0EF3245E
:1028D000D96E010EF420DA6E000EDE6E000EDD6E93
:1028E00000019551170D160EF326000EF4222E0E40
:1028F000F324D96E010EF420DA6E0101DFB004D0AA
:102900000001666B662B02D00001666B00019551D9
:10291000170D160EF326000EF4222E0EF324D96E98
:10292000010EF420DA6E0101DF5000016619FE0B82
:1029300066190101DF6E7B0E0001916F000E000130
:10294000926F000E0001946F020E0001946501D099
:1029500031D000019451170D160EF326000EF4220B
:102960002E0EF324D96E010EF420DA6E0101DFA0E1
:102970000DD091C060F092C061F0A50E0001626FB1
:10298000FF0E0001636F1DECB4F00CD091C060F03D
:1029900092C061F0AB0E0001626FFF0E0001636F29
:1029A0001DECB4F0050E00019127000E92230001EA
:1029B000942BCAD7E60E0001606FFF0E0001616F15
:1029C0007B0E0001626F000E0001636F030EE0ECEE
:1029D0009BF00001952B5ED701012851000AD8B465
:1029E00004D7010AD8B453D70001FEA11CD0000EB1
:1029F0000001FF6F000EFE6F000E0101286F000E38
:102A00000101226FE60E0001606FFF0E0001616F91
:102A1000E60E0001626FFF0E0001636F010EE0EC35
:102A20009BF0010E1200000E120003D1000E206E6A
:102A30005E0E0001606FFF0E0001616F5F0E00010E
:102A4000626FFE0E0001636F030EE0EC9BF001016C
:102A50002B2B1200000E0001996F01015EA110D016
:102A6000000E01015F6F000E5E6F040E2018D8A4E7
:102A700003D0000E206E01D0202A010E0001996FB4
:102A8000010130A10FD0000E0101316F000E306F37
:102A90002050D8A403D0040E206E01D02006010ED1
:102AA0000001996F000199510001D8A451D060D064
:102AB0005E0E0001606FFF0E0001616F5F0E00018E
:102AC000626FFE0E0001636F030EE0EC9BF050D0CE
:102AD0005E0E0001606FFF0E0001616FA30E00012A
:102AE000626FFE0E0001636F030EE0EC9BF040D0BE
:102AF0005E0E0001606FFF0E0001616F700E00013D
:102B0000626FFE0E0001636F030EE0EC9BF030D0AD
:102B10005E0E0001606FFF0E0001616FB30E0001D9
:102B2000626FFE0E0001636F030EE0EC9BF020D09D
:102B30005E0E0001606FFF0E0001616FD30E000199
:102B4000626FFE0E0001636F030EE0EC9BF010D08D
:102B50002050000AD8B4ACD7010AD8B4B9D7030AB8
:102B6000D8B4C6D7010AD8B4D3D7070AD8B4E0D7A7
:102B7000010147A107D0000E0101486F000E476F09
:102B800001012B2B0001FEA11200000E0001FF6FBE
:102B9000000EFE6F000E01012B6F000E0101226F6F
:102BA000E60E0001606FFF0E0001616FE60E00018E
:102BB000626FFF0E0001636F010EE0EC9BF01200EC
:102BC000010E01012B6F1200F7ECA2F00009D8B43E
:102BD0001200000E01012B6F1200F4EC93F00009BB
:102BE000D8B41200000E01012B6F1200CAEC92F053
:102BF0000009D8B41200000E01012B6F12009BECEB
:102C000091F00009D8B41200000E01012B6F1200E0
:102C10002050000AD8B4D4D7010AD8B4D5D7030AB3
:102C2000D8B4DBD7010AD8B4E1D7070AD8A4120078
:102C3000E6D701012B51000AD8B4F8D6010AD8B45E
:102C400009D7030AD8A41200E3D7000E0001896F48
:102C5000010E00018A6F81C0D9FF82C0DAFFDECF8A
:102C60008BF0DECF8CF0DECF8DF0DECF8EF08B0ED2
:102C70000001796F000E00017A6F3C0E00017B6F3E
:102C800088ECA5F0000120EE04F08151D926825194
:102C9000DA22000179C0DFFF8B0E0001796F000E90
:102CA00000017A6F3C0E00017B6F88ECA5F00001FB
:102CB00020EE05F08151D9268251DA22000179C037
:102CC000DFFF8B0E0001796F000E00017A6F180E86
:102CD00000017B6F88ECA5F0000120EE06F0815129
:102CE000D9268251DA22000179C0DFFF8BC087F03C
:102CF0008CC088F087C085F088C086F0060E000181
:102D00008B27000E8C238D238E238B0E0001796F71
:102D1000000E00017A6F070E00017B6F88ECA5F0B2
:102D2000000120EE07F08151D9268251DA220001FC
:102D300079C0DFFF3FD08A848AC066F000018951E4
:102D4000D7ECA3F00001836F846B0001831F841F05
:102D5000834B842B00018751000183250001876F7D
:102D600000018851000184210001886F0C0E0001D0
:102D70008A19D8A419D0010E00018A6F0001892B8D
:102D8000630E0001896512D081C0D9FF82C0DAFFCD
:102D9000800EDE5E130EDE5A190EDE5ABC0EDE5AAF
:102DA000000E0001896F02D000018A2B8AC0E6F173
:102DB00089C026F18AC066F000018951D7ECA3F0E2
:102DC0000001836F000183510001875D000E885967
:102DD000D8B0B1D787C083F088C084F00001831FCA
:102DE000841F834B842B0001855100018325020140
:102DF000186F00018651000184210201196F000142
:102E0000874B882B000120EE0AF08151D926825190
:102E1000DA2289C0DFFF000120EE09F08151D926B6
:102E20008251DA228AC0DFFF000120EE08F08151D2
:102E3000D9268251DA2287C0DFFF1200AD0E0001D1
:102E4000836F000E0001846FE10E0001856FFD0E9F
:102E50000001866F7DC187F00001886B7CC189F01D
:102E600000018A6B7BC18BF000018C6B79C18DF006
:102E700000018E6B78C18FF00001906B77C191F0EB
:102E80000001926B00EC80F0ABC06FF0ACC070F052
:102E9000AD0E0001716F000E0001726FE6ECB0F034
:102EA000000E0001CB6F020E0001CB6501D075D082
:102EB000AD0E0001836F000E0001846F350E00011E
:102EC000856FFE0E0001866F0001CB51020DDC0EF6
:102ED000F3240001876FFB0EF4200001886F0001CE
:102EE000CB51170D060EF326000EF4222E0EF324FE
:102EF000D96E010EF420DA6EDECF7CF0DDCF7DF0EE
:102F0000030E00017F6FE80E7E6F26ECAFF07CC0F1
:102F100089F07DC08AF00001CB51170D060EF32613
:102F2000000EF4222E0EF324D96E010EF420DA6E78
:102F3000DECF60F0DDCF61F0030E0001636FE80EBD
:102F4000626F7BECB1F060C08BF061C08CF000016F
:102F5000CB51170D0C0EF326000EF4222E0EF32487
:102F6000D96E010EF420DA6EDECF8DF0DECF8EF05A
:102F7000DECF8FF0DECF90F000EC80F0ABC06FF0D2
:102F8000ACC070F0AD0E0001716F000E0001726FE9
:102F9000E6ECB0F00001CB2B86D7ABC06FF0ACC035
:102FA00070F0BB0E0001716FFD0E0001726FE6EC58
:102FB000B0F01200A09801010E5101010F11D8B418
:102FC00013D00EC1D9FF0FC1DAFF0101DFAE04D06B
:102FD0000001676B672B02D00001676B000167512E
:102FE0000001686F696B05D0000E0001696F000E6B
:102FF000686F0001685100016911D8B402D0A0883F
:103000001200030E1918D8A402D0000E196E195020
:10301000D8A402D0A0881200020E1918D8A416D085
:10302000010E0001606F000E0001616F000E0001D3
:10303000626F000E0001636F020E46ECA4F060C0E8
:103040000EF161C00FF1030E196E6AD01904D8A4F5
:1030500067D0400E1A6404D0400E00016B6F02D09E
:103060001AC06BF000016B5100081A241A6E400E52
:103070000101066F030E0101076F6BC06AF0175064
:10308000D8B413D02AD009C1D9FF0AC1DAFF06C1CA
:10309000E1FF07C1E2FFDFCFE7FF0101064B072B8E
:1030A0000101094B0A2B00016A0700016A51000166
:1030B000D8B418D0E8D709C1D9FF0AC1DAFF06C1D0
:1030C000E1FF07C1E2FFDFCFE7FF0101064B072B5E
:1030D0000101094B0A2B00016A0700016A51000136
:1030E000D8A4E9D71A50D8A409D0400E00016B1912
:1030F000D8A402D0020E01D0030E196E010E0001F9
:10310000606F400E0001616F030E0001626F6BC0C3
:1031100063F0020E46ECA4F060C00EF161C00FF146
:10312000A0881200000E0001666F020E00016665A5
:1031300001D0120000016651170D030EF326000E98
:10314000F4222E0EF324D96E010EF420DA6E010162
:10315000DFA008D0010E0001606F000166519DECF8
:10316000AFF027D000016651170D160EF326000EA2
:10317000F4222E0EF324D96E010EF420DA6E010132
:10318000DFB217D000016651170D160EF326000EA0
:10319000F4222E0EF324D96E010EF420DA6E010112
:1031A000DFA607D0000E0001606F000166519DECA4
:1031B000AFF000016651170D020EF326000EF42247
:1031C0002E0EF324D96E010EF420DA6E0101DFA079
:1031D00058D000016651170D020EF326000EF4229E
:1031E0002E0EF324D96E010EF420DA6E000EDE6E80
:1031F000000EDD6E000E0001606F000166519DEC57
:10320000AFF0000166510001FB19D8B408D010D00E
:10321000010E03D0020E01D0000E1D6E0BD01D500A
:10322000000AD8B4F5D7010AD8B4F4D7030AF4D702
:1032300066C0FBF0E60E0001606FFF0E0001616FDB
:10324000E60E0001626FFF0E0001636F020EE0ECFC
:103250009BF0010E0001606F00016651D6ECAFF0EB
:1032600000016651170D140EF326000EF4222E0EE7
:10327000F324D96E010EF420DA6E000EDE6E000E1D
:10328000DD6E0001662B51D7A098000E636E000E14
:10329000626E000E0F01266F270E0001606F0F0E89
:1032A0000001616F000E0001636F000E626F000E7F
:1032B0000001656F020E646F8CECB4F0160E0F0106
:1032C000396F9F0E0F01376F7B0E0F01366F000EA7
:1032D0000001686F0B0E0001686501D010D000017D
:1032E0006851040D000EF324D96E0D0EF420DA6E31
:1032F000DE6ADE6ADE6ADD6A0001682BEBD7658C68
:10330000000E0F01386F6598659C0CD06296000E18
:103310000001F26F000E0001E96F000E0001EB6F7B
:10332000000EEA6F62B6F2D7010E146E010E156E32
:10333000000E106E000E116E000E01011C6F000ECB
:103340000001686F020E0001686501D033D00001F2
:103350006851020DF50EF324D96E000EF420DA6EDA
:10336000000EDE6E000EDD6E00016851020D000ED3
:10337000F324D96E010EF420DA6E000EDE6E000E1C
:10338000DD6E00016851010D010EF324D96E000EAF
:10339000F420DA6E000EDF6E00016851010D040E9C
:1033A000F324D96E000EF420DA6E000EDF6E0001F9
:1033B000682BC8D7080E0001F56F0D0E0001F66FDF
:1033C000160E0F01266F0D0E0D01036F300E026FEA
:1033D000080E0D01016F040E0D01006F0D01008F2D
:1033E000000E2B6E000E136E1200800E0D013019B0
:1033F000D8A41200C00E0001F26F92D0C00E0001DE
:10340000EF6FFB0E0001F06F000E0001F46F120E63
:10341000F36F12000D013251D8A449D00D01325181
:10342000020D7F0EF324F66EFA0EF420F76EF86AA2
:10343000000EF8220900F5CFEFF00A00F5CFF0F00A
:10344000020E0001EF252D6E000E0001F0212E6E00
:103450002DC0F6FF2EC0F7FF000EF86E0E0EF764BB
:1034600003D00800F55005D0F6CFE1FFF7CFE2FF1B
:10347000E7500001F36F030E0001EF252D6E000EE3
:103480000001F0212E6E2DC0F6FF2EC0F7FF000EBA
:10349000F86E0E0EF76403D00800F55005D0F6CF95
:1034A000E1FFF7CFE2FFE7500001F46F1200000EDA
:1034B0000001F26F1200030E0D01326129D00D01DF
:1034C0003251020D790EF324F66EFA0EF420F76EE7
:1034D000F86A000EF8220900F5CFEFF00A00F5CFE8
:1034E000F0F0EFC0F6FFF0C0F7FF000EF86E0E0E22
:1034F000F76403D00800F55005D0F6CFE1FFF7CF11
:10350000E2FFE7502D6E2D500001F36FF46B1200B7
:10351000000E0001F26F1200000E0001F26F1200A7
:103520000D013351010AD8B469D7030AD8B472D750
:10353000010AD8B4C0D7F0D71304D8B465BA08D0FC
:10354000000E626E0F0136810F013689020E136E76
:1035500062A406D00F0136A503D06294A6ECB4F0A5
:1035600065A202D0A198120062A009D00F0136A175
:1035700006D03EEC9BF0A088040E136E629062A809
:1035800006D00F0136A903D030ECB5F0629862ACDA
:1035900019D00F0136AD0ED0000E3A6E730E396E93
:1035A000000E3B6E000E3C6E000E3E6E010E3D6E38
:1035B0003AECB2F0629C1650D8A416061650D8B455
:1035C00062ECA8F062AA04D00F0136BB63ECB3F042
:1035D00062A212D00F0136A30FD07F0E3A6E396867
:1035E000000E3B6E000E3C6E000E3E6E010E3D6EF8
:1035F0003AECB2F0000E636E040E136002D0A19894
:1036000012000F0136A738D0000E4A6E030E4A642E
:1036100001D032D062A630D064CF2CF02C30E8320A
:10362000E8320F0B1E6E62962CB407D01E50010DAF
:10363000040EF324D96E000E06D01E50010D010EAB
:10364000F324D96E000EF420DA6EDF701E50D8A479
:1036500003D095ECA7F00ED0000E3A6E720E396EC4
:103660002C0E3B6E000E3C6E000E3E6E000E3D6E4C
:103670003AECB2F04A2ACAD7A1981200A098000EDC
:10368000636E000E626E000E0F01266F270E2D6E08
:103690000F0E2E6E000E306E000E2F6E000E326E6C
:1036A000020E316E46ECB5F0160E0F01396F9F0E0B
:1036B0000F01376F7B0E0F01366F000E356E0B0E4C
:1036C000356401D00ED03550040D000EF324D96EB0
:1036D0000D0EF420DA6EDE6ADE6ADE6ADD6A352AF5
:1036E000EED7658C000E0F01386F6598659C0CD085
:1036F0006296000E0001F26F000E0001E96F000EED
:103700000001EB6F000EEA6F62B6F2D7010E146E85
:10371000010E156E000E106E000E116E000E0101EE
:103720001C6F000E356E020E356401D02ED0355060
:10373000020DF50EF324D96E000EF420DA6E000EA1
:10374000DE6E000EDD6E3550020D000EF324D96ED4
:10375000010EF420DA6E000EDE6E000EDD6E3550C6
:10376000010D010EF324D96E000EF420DA6E000E66
:10377000DF6E3550010D040EF324D96E000EF420D7
:10378000DA6E000EDF6E352ACED7080E0001F56F17
:103790000D0E0001F66F160E0F01266F0D0E0D01B6
:1037A000036F300E026F080E0D01016F040E0D0144
:1037B000006F0D01008F000E2B6E000E136E1200B5
:1037C0000001646F64C01FF060C0F6FF61C0F7FFC6
:1037D000000EF86E0800F5500009D8B431D0000E84
:1037E0000001656F17D060C0F6FF61C0F7FF000EE3
:1037F000F86E00016551010D1A0EF324D96E020E08
:10380000F420DA6E0800F5CFDFFF0001604B612B7A
:103810000001652B60C0F6FF61C0F7FF000EF86E77
:103820000800F5500009D8A4DED700016551010D4C
:103830001A0EF324D96E020EF420DA6E000EDF6E3B
:1038400062C0F6FF63C0F7FF000EF86E0E0EF7645D
:1038500003D00800F55005D0F6CFE1FFF7CFE2FF27
:10386000E7500009D8B443D0000E0001656F20D0A6
:1038700062C0F6FF63C0F7FF000EF86E00016551ED
:10388000010D2E0EF324D96E020EF420DA6E0E0E08
:10389000F76403D00800F55005D0F6CFE1FFF7CF6D
:1038A000E2FFE750DF6E0001624B632B0001652BE6
:1038B00062C0F6FF63C0F7FF000EF86E0E0EF764ED
:1038C00003D00800F55005D0F6CFE1FFF7CFE2FFB7
:1038D000E7500009D8A4CCD700016551010D2E0E88
:1038E000F324D96E020EF420DA6E000EDF6E010EA4
:1038F0000101206F1200000E00017E6F020E000118
:103900007E6501D0120000017E5104ECB5F0D7ECC9
:10391000B4F060C076F061C077F0000E0001796FFE
:103920000D0E786F71ECB4F0040E00017C6F000195
:10393000D8907733763300017C2FF9D700017E5180
:10394000170D060EF326000EF4222E0EF324D96E68
:10395000010EF420DA6E000176C0DEFF000177C0B0
:10396000DDFF00017E51170D160EF326000EF42226
:103970002E0EF324D96E010EF420DA6E0101DFA0C1
:1039800051D000017E51170D060EF326000EF422D1
:103990002E0EF324D96E010EF420DA6E010EDB50E8
:1039A00030E1640EDE5CD8B02CD000017E51170DE2
:1039B000140EF326000EF4222E0EF324D96E010EFF
:1039C000F420DA6EDE2A000EDD2200017E51170D92
:1039D000140EF326000EF4222E0EF324D96E010EDF
:1039E000F420DA6E010EDB5004E1070EDE5CD8A095
:1039F00019D0000E0001606F00017E51D6ECAFF0CF
:103A000011D000017E51170D140EF326000EF42282
:103A10002E0EF324D96E010EF420DA6E000EDE6E47
:103A2000000EDD6E00017E2B69D7000E386E020E8F
:103A3000386401D012003850170D160EF326000E10
:103A4000F4222E0EF324D96E010EF420DA6E010159
:103A5000DFA27CD03850010D120EF324D96E020E75
:103A6000F420DA6EDF2A3850010D120EF324D96EDD
:103A7000020EF420DA6E0201DFA006D0000E2D6ED9
:103A8000385018ECB1F062D03850170D060EF326FE
:103A9000000EF4222E0EF324D96E010EF420DA6EFD
:103AA000DECF2DF0DDCF2EF0000E306E640E2F6EC7
:103AB000EBECB2F02DC035F02EC036F03850010DD1
:103AC000120EF324D96E020EF420DA6EDF50376E38
:103AD00037502D6E2E6A000E306E020E2F6EA3EC44
:103AE000AEF02D50355C2E503658D8A00CD0010EBB
:103AF0002D6E385018ECB1F03850010D150EF3242E
:103B0000D96E020E1FD03850010D150EF324D96E58
:103B1000020EF420DA6EDF2A000E2D6E385018ECFB
:103B2000B1F03850010D150EF324D96E020EF420B9
:103B3000DA6E010EDF640AD03850010D120EF32444
:103B4000D96E020EF420DA6E000EDF6E382A6FD7BF
:103B500020EE01F00950D9260A50DA22DF502E6EED
:103B60002E500001EA5D000EEB59D8A0EAC02EF0FD
:103B70002E500001EA5F000EEB5B000E2D6E12D09E
:103B80002D50010D380EF324D96E0D0EF420DA6E8F
:103B9000E6C0E1FFE7C0E2FFDFCFE7FF0001E64B51
:103BA000E72B2D2A2E502D5CD8A0EAD70001EA5130
:103BB0000001EB11D8B432D020EE01F00B50D92621
:103BC0000C50DA22080EDF6E20EE02F00B50D926E0
:103BD0000C50DA22380EDE6E0D0EDD6E09C0D9FFF4
:103BE0000AC0DAFFDFBC0DD00BC0D9FF0CC0DAFF72
:103BF000480EDF6E0BC0D9FF0CC0DAFF000EDB8E63
:103C000012000BC0D9FF0CC0DAFF080EDF6E0BC02C
:103C1000D9FF0CC0DAFF000EDB8E120020EE01F09F
:103C20000B50D9260C50DA22080EDF6E20EE02F07F
:103C30000B50D9260C50DA22300EDE6E0D0EDD6EE2
:103C40000BC0D9FF0CC0DAFF040EDF6E0BC0D9FF2A
:103C50000CC0DAFF000EDB8E0001E99F1250D8A4E1
:103C6000120062ECA8F01200000120EE0DF060518D
:103C7000D9266151DA220001DFA00AD0000120EE2E
:103C80000DF06051D9266151DA22020EDF6E12006A
:103C9000000120EE0DF06051D9266151DA220001B9
:103CA000DFA20AD0000120EE0DF06051D92661514B
:103CB000DA22040EDF6E1200000120EE0DF06051DA
:103CC000D9266151DA220001DFA40AD0000120EEDA
:103CD0000DF06051D9266151DA22080EDF6E120014
:103CE000000120EE0DF06051D9266151DA22000169
:103CF000DFA60AD0000120EE0DF06051D9266151F7
:103D0000DA22100EDF6E1200000120EE0DF060517D
:103D1000D9266151DA220001DFA80AD0000120EE85
:103D20000DF06051D9266151DA22200EDF6E1200AB
:103D3000000120EE0DF06051D9266151DA22000118
:103D4000DFAA0AD0000120EE0DF06051D9266151A2
:103D5000DA22010EDF6E1200000120EE0DF060513C
:103D6000D9266151DA22000EDF6E12002E0E0001FC
:103D7000836F010E0001846F000E26ECA9F06DC068
:103D80007CF06EC07DF032C17EF033C17FF026EC56
:103D9000AFF000017C5100017D11D8A402D0010ECA
:103DA00001D0000E0001856F7BEC88F0450E00010C
:103DB000836F010E0001846F010E26ECA9F06DC027
:103DC0007CF06EC07DF049C17EF04AC17FF026ECE8
:103DD000AFF000017C5100017D11D8A402D0010E8A
:103DE00001D0000E0001856F7BEC88F05C0E0001B5
:103DF000836F010E0001846F020E26ECA9F06DC0E6
:103E00007CF06EC07DF060C17EF061C17FF026EC79
:103E1000AFF000017C5100017D11D8A402D0010E49
:103E200001D0000E0001856F7BEC88F0FC0E0001D4
:103E3000836F000E0001846F030E26ECA9F06DC0A5
:103E40007CF06EC07DF010C17EF011C17FF026ECD9
:103E5000AFF000017C5100017D11D8A402D0010E09
:103E600001D0000E0001856F7BEC88F01200000E7F
:103E700000016F6F020E00016F6501D0120000019A
:103E80006F51170D060EF326000EF4222E0EF324AA
:103E9000D96E010EF420DA6E010EDB5004E1650EDE
:103EA000DE5CD8A05FD000016F51170D060EF3261F
:103EB000000EF4222E0EF324D96E010EF420DA6ED9
:103EC000DECF6DF0DDCF6EF000016F51170D080EE3
:103ED000F326000EF4222E0EF324D96E010EF420E8
:103EE000DA6E00016D51DE266E51DE22000EDE22FA
:103EF000DE2200016F51170D080EF326000EF4228A
:103F00002E0EF324D96E010EF420DA6EDECF60F0AF
:103F1000DECF61F0DECF62F0DECF63F0100E000185
:103F2000646F0E0E656F000E666F000E676F46ECD5
:103F3000AAF000016F51170D0C0EF326000EF422AB
:103F40002E0EF324D96E010EF420DA6E000160C04B
:103F5000DEFF000161C0DEFF000162C0DEFF000184
:103F600063C0DEFF00016F2B85D7200E136001D0E8
:103F7000120065B21200000E0001736F000E726F26
:103F80001FD0C60E0001686F020E0001696FFCECC5
:103F9000A7F000016F6FC00E00017225D96E030EED
:103FA00000017321DA6E6FC0DFFF0001724B732BCB
:103FB0000001735113E1400E0001725DD8B00ED0C4
:103FC000C60E0001606F020E0001616F9CECA1F053
:103FD0000001605100016111D8A4D3D700017251D2
:103FE00000017311D8B406D072C06CF073C06DF0CC
:103FF0000CECB6F071ECB5F000016F6F00016F5181
:104000000001726F736B0001725100017311D8B41B
:104010001200000E0001716F000E706F16D0BE0E00
:104020000001686F020E0001696F800E00017025AB
:10403000D96E030E00017121DA6EDF5000016A6F44
:10404000F2ECA5F00001704B712B000172510001E0
:10405000705D0001735100017159D8B01200DFD7B3
:1040600065980001F2BF39D00001E9AF0BD0020E14
:104070001B6E1150D8B40DECACF0000E156E000E96
:10408000146E120020EE01F00B50D9260C50DA22EB
:10409000080EDF6E20EE02F00B50D9260C50DA220B
:1040A000300EDE6E0D0EDD6E0BC0D9FF0CC0DAFFD8
:1040B0000C0EDF6E0BC0D9FF0CC0DAFF000EDB8EDA
:1040C000F5C0D9FFF6C0DAFF040EDF6EF5C0D9FFE8
:1040D000F6C0DAFF000EDB8E12000D0130AF10D0FB
:1040E000010E1B6E1050D8B40DECACF0000E156E26
:1040F000000E146E1250D8A4120062ECA8F0120048
:10410000020E1B6E20EE01F00B50D9260C50DA2265
:10411000080EDF6E20EE02F00B50D9260C50DA228A
:10412000300EDE6E0D0EDD6E0BC0D9FF0CC0DAFF57
:10413000040EDF6E0BC0D9FF0CC0DAFF000EDB8E61
:10414000000E156E000E146E1250D8A4120062EC10
:10415000A8F0120003D000017C4B7D2B7CC0D9FF5E
:104160007DC0DAFF200EDE18D8B4F5D77CC0D9FFA9
:104170007DC0DAFF090EDE18D8B4EDD7000E0001BD
:10418000826F000E816F000E0001806F7CC0D9FF2E
:104190007DC0DAFF2D0EDE18D8A403D00001802BDD
:1041A0002ED07CC0D9FF7DC0DAFF2B0EDE18D8A43C
:1041B00029D025D081C076F082C077F0000E0001B2
:1041C000796F0A0E786F71ECB4F07CC0D9FF7DC0B6
:1041D000DAFFDF5000017E6F7F6B00017651000136
:1041E0007E270001775100017F23D00E00017E253C
:1041F0000001816FFF0E00017F210001826F00012D
:104200007C4B7D2B7CC0D9FF7DC0DAFFDF505CEC9E
:10421000B5F0D8B0CFD7000180510001D8B40ED08E
:1042200081C07EF082C07FF000017E1F7F1F7E4B29
:104230007F2B7EC07CF07FC07DF0120081C07CF0BF
:1042400082C07DF012000D013039E832030B000905
:10425000D8A412004FD00001F28F080E136E120086
:10426000F5EC99F0120086ECA2F012002B0E000182
:10427000EF6F000E0001F06F0001F281010E0001EE
:10428000F36F0001F28F120002ECABF0120022EC8F
:104290008FF012000D013451010D900EF324000136
:1042A000EF6F010EF4200001F06F0001F281010EAA
:1042B0000001F36F0001F28F12000001F28F0D0177
:1042C0003451010D900EF324D96E010EF420DA6EF4
:1042D00032CDDFFF1200000E3A6E020E396E000E74
:1042E0003B6E000E3C6E000E3E6E000E3D6E3AECD4
:1042F000B2F012000D013151000AD8B4C5D7010A3D
:10430000D8B4C5D7020AD8B4C2D7060AD8B4A3D73E
:10431000030AD8B4A5D7010AD8B4DDD70F0AD8B498
:10432000A5D7010AD8B49FD7030AD8B4B3D7010AD6
:10433000D8B4C3D7070A1200000120EE06F060517E
:10434000D9266151DA22000110EE04F06051E12615
:104350006151E222DE50E65CDE50E658D8A028D05B
:10436000000120EE04F06051D9266151DA22DECF3F
:1043700062F0DDCF63F0000120EE06F06051D92637
:104380006151DA22DECF64F0DDCF65F00001641FF9
:10439000651F644B652B000162510001642500011B
:1043A000606F00016351000165210001616F12001F
:1043B000000120EE04F06051D9266151DA22DECFEF
:1043C00062F0DDCF63F0000120EE02F06051D926EB
:1043D0006151DA22DECF64F0DDCF65F0000120EE1E
:1043E00006F06051D9266151DA22DECF66F0DDCFCA
:1043F00067F00001661F671F664B672B0001645161
:104400000001662700016551000167230001625128
:10441000000166250001606F000163510001672102
:104420000001616F12000001836F83C076F000010C
:10443000776B000E26ECA9F06DC078F06EC079F0B5
:1044400071ECB4F076C07CF077C07DF0000E000116
:104450007F6F640E7E6F26ECAFF07CC032F17DC0C2
:1044600033F183C076F00001776B010E26ECA9F0E2
:104470006DC078F06EC079F071ECB4F076C07CF06D
:1044800077C07DF0000E00017F6F640E7E6F26EC1A
:10449000AFF07CC049F17DC04AF183C076F00001E5
:1044A000776B020E26ECA9F06DC078F06EC079F043
:1044B00071ECB4F076C07CF077C07DF0000E0001A6
:1044C0007F6F640E7E6F26ECAFF07CC060F17DC024
:1044D00061F183C076F00001776B030E26ECA9F042
:1044E0006DC078F06EC079F071ECB4F076C07CF0FD
:1044F00077C07DF0000E00017F6F640E7E6F26ECAA
:10450000AFF07CC010F17DC011F112000001F28FFC
:10451000270E2D6E0F0E2E6E000E306E000E2F6EBB
:10452000000E326E020E316E46ECB5F0000E2D6EAE
:104530000D0E2E6E000E306E000E2F6E000E326EBF
:10454000300E316E46ECB5F0658C000E416E020EF9
:10455000416401D016D04150010D010EF324D96EF3
:10456000000EF420DA6E000EDF6E4150010D040ED5
:10457000F324D96E000EF420DA6E000EDF6E412AAD
:10458000E6D7900E2D6E010E2E6E000E306E000ED0
:104590002F6E000E326E020E316E46ECB5F0659C49
:1045A000080E0001F56F0D0E0001F66F000E096E8A
:1045B0000D0E0A6E09C00BF00AC00CF032CD2BF0C4
:1045C0002B50D8A403D0100E136E1200000E3A6EBA
:1045D000010E396E2B0E3B6E000E3C6E000E3E6ED1
:1045E000010E3D6E3AECB2F0200E136E120043D075
:1045F000E60E0001606FFF0E0001616FE60E000124
:10460000626FFF0E0001636F010EE0EC9BF0730E12
:104610000001606F010E0001616FA7ECB3F0010EA5
:104620000101276F30D0010147A10AD00101479154
:10463000730E0001606F010E0001616F34EC9EF09B
:1046400001015EA10AD001015E91730E0001916F1C
:10465000010E0001926F37EC8BF0010130A113D0F5
:1046600001013091730E0001916F010E0001926FF4
:1046700089EC8CF008D001012751000AD8B4B8D7D2
:10468000010AD8B4D0D70001FEA11FD0000E00014E
:10469000FF6F000EFE6F000E0101806F000E010122
:1046A000276F000E0101226FE60E0001606FFF0E02
:1046B0000001616FE60E0001626FFF0E0001636F83
:1046C000010EE0EC9BF0010E1200000E1200080E2D
:1046D0002D6E0001F45111E1080E0001F35DD8B018
:1046E0000CD0F3C02DF02150D8A402D0010E04D07C
:1046F0002104D8A402D0020E216E2D500001F35FD8
:10470000000EF45B000120EE01F0F551D926F651C0
:10471000DA222DC0DFFF380E0101126F0D0E0101EC
:10472000136F0001F2A11ED03ED0EFC0F6FFF0C023
:10473000F7FF000EF86E12C1D9FF13C1DAFF0E0E9B
:10474000F76403D00800F55005D0F6CFE1FFF7CFAE
:10475000E2FFE750DF6E0001EF4BF02B0101124B3F
:10476000132B2D062D50D8B41200DFD7EFC0F6FF63
:10477000F0C0F7FF000EF86E12C1D9FF13C1DAFFC7
:104780000E0EF76403D00800F55005D0F6CFE1FF18
:10479000F7CFE2FFE750DF6E0001EF4BF02B010196
:1047A000124B132B2D062D50D8B41200DFD7000169
:1047B0006B6F020E00016619D8A43ED06BC060F08A
:1047C0000001616B000E0001636F640E626FBCEC50
:1047D000ABF00001605100016111D8A402D0010EBC
:1047E00001D0000E00080001676F6BC060F000018F
:1047F000616B010E0001636F900E626FBCECABF059
:104800000001605100016111D8A404D00001686B5F
:10481000682B02D00001686B6BC069F0030E0001C9
:104820006917D8A402D0010E01D0000E000168253E
:10483000000167251C0F120000016651010B0001E9
:10484000676F686B0001671F681F674B682B00016B
:1048500066510001696F6A6B000167510001691BB5
:104860000001685100016A1B0D0E00016917000E5E
:104870006A17040E0001691900016A11D8A402D058
:10488000010E01D0000E00081F0F12000001646F1E
:10489000000160510001D8B408D000016451020D3C
:1048A000F50EF324D96E000E07D000016451020DFD
:1048B000000EF324D96E010EF420DA6EDECF65F01F
:1048C000DDCF66F00001655100016611D8A407D064
:1048D000000E0001606F000E0001616F1200000108
:1048E00020EE02F06551D9266651DA2261C0DEFF62
:1048F00062C0DDFF000120EE01F06551D92666514E
:10490000DA2263C0DFFF65C0D9FF66C0DAFF400E60
:10491000DF1665C0D9FF66C0DAFF000EDB8665C012
:10492000D9FF66C0DAFF000EDB8E00016051000186
:10493000D8B408D000016451020DF50EF324D96EED
:10494000000E07D000016451020D000EF324D96E51
:10495000010EF420DA6E040EDF1A65C060F066C046
:1049600061F012000F013FB9FDD70F013F810F0128
:104970003F83000120EE0AF06951D9266A51DA22FC
:10498000DF509BECB5F00F013A6F000E0F013B6F4B
:104990000F013F910F013F83000120EE08F06951A4
:1049A000D9266A51DA22DF509BECB5F00F013A6F3D
:1049B000000120EE09F06951D9266A51DA22DF5050
:1049C0009BECB5F00F013B6F0F013F810F013F934F
:1049D000000120EE06F06951D9266A51DA22DF5033
:1049E0009BECB5F00F013A6F000120EE07F0695122
:1049F000D9266A51DA22DF509BECB5F00F013B6FEC
:104A00000F013F910F013F93000120EE04F0695127
:104A1000D9266A51DA22DF509BECB5F00F013A6FCC
:104A2000000120EE05F06951D9266A51DA22DF50E3
:104A30009BECB5F00F013B6F12000D0130511F0BC5
:104A4000E806D8A412000D013039E832030BE8065D
:104A5000D8A412000D013451D8B448D00D0134054A
:104A6000D8A4120043D0A60E0001EF6F020E000181
:104A7000F06F000E0001F46F080EF36F0001F28179
:104A80000001F28F1200A60E0001EF6F020E00016E
:104A9000F06F0001F28F120036CDEAF037CDEBF067
:104AA000890E0001E66F010E0001E76F000E0001A4
:104AB000EC6F000E0001ED6F000E0001EE6F0001C3
:104AC000E98F1200890E0001EF6F010E0001F06FF7
:104AD000000E0001F46F070EF36FC10E0001F26FBC
:104AE000120032CD1DF10001F28F12000D01315183
:104AF000000AD8B4B8D7010AD8B4C5D7210AD8B4A7
:104B0000CBD7010AD8B4DED7030AD8A41200E9D75C
:104B100079C0D9FF7AC0DAFFDECF7DF0DECF7EF03C
:104B2000DECF7FF0DECF80F000017B510001646FAB
:104B3000656B666B676B7DC060F07EC061F07FC0A7
:104B400062F080C063F046ECAAF079C0D9FF7AC069
:104B5000DAFF000160C0DEFF000161C0DEFF00017E
:104B600062C0DEFF000163C0DDFFDD52DD52DECF3B
:104B70006DF0DECF6EF0DECF6FF0DECF70F00001B3
:104B80007B510001716F726B736B746B62ECAFF0F1
:104B900000016D1F00016E1F00016F1F0001701FDB
:104BA00000016D2B000E00016E2300016F23000138
:104BB000702300017D5100016D250001796F000116
:104BC0007E5100016E2100017A6F00017F510001CA
:104BD0006F2100017B6F00018051000170210001F5
:104BE0007C6F120068C060F069C061F09CECA1F0BD
:104BF000000120EE02F06851D9266951DA22DE5018
:104C00000001605DDE5000016159D8B01200000162
:104C100020EE04F06851D9266951DA22DECF6BF01C
:104C2000DDCF6CF068C0D9FF69C0DAFFDECF6DF070
:104C3000DDCF6EF000016B5100016D25D96E0001D2
:104C40006C5100016E21DA6E6AC0DFFF000120EEB8
:104C500002F06851D9266951DA22000110EE04F001
:104C60006851E1266951E222E6CF6DF0E5CF6EF0A2
:104C7000010E00016D27000E6E23DE5000016D5DF8
:104C8000DE5000016E59D8B00BD0000120EE04F0C8
:104C90006851D9266951DA22DE2A000EDD2212007F
:104CA000000120EE04F06851D9266951DA22000E85
:104CB000DE6E000EDD6E12000C0ED7ECB4F0080EA6
:104CC0000001615DD8B05BD0010E01012C6FF29E36
:104CD000000E00016A6F020E00016A6501D011D05A
:104CE000000E0001606F00016A51D6ECAFF0000EBB
:104CF0000001606F00016A519DECAFF000016A2B6A
:104D0000EAD758ECB6F0000E0001666F000EEEEC2C
:104D1000B4F0920E0001646FFE0E0001656FCFECDF
:104D2000ADF0010E0001666F000EEEECB4F00C0E5B
:104D30000001646FFF0E0001656FCFECADF01FD076
:104D40000C0ED7ECB4F000016005080E00016159AB
:104D5000D8A013D0000E01012C6FE20E0001606F8D
:104D6000FE0E0001616FF10E0001626FFE0E000188
:104D7000636F000EE0EC9BF01200030000F00101F5
:104D80002C510101D8B41200DBD7000E186E075069
:104D90000810D8B412D007C0D9FF08C0DAFFDFAEC0
:104DA00004D000016A6B6A2B02D000016A6B00011B
:104DB0006A5100016B6F6C6B05D0000E00016C6FC7
:104DC000000E6B6F00016B5100016C11D8A444D030
:104DD00020EE01F00750D9260850DA22000169516F
:104DE000DE5CD8B009D020EE01F00750D92608507B
:104DF000DA22DF500001696F000E186E15D01850CE
:104E0000010D000EF324D96E030EF420DA6E185053
:104E1000010DF35000016725E16EF4500001682197
:104E2000E26EDFCFE7FF182A00016951185CD8A0B5
:104E3000E6D7000E0001606F000E0001616F030EE7
:104E40000001626F400E0001636F020E46ECA4F099
:104E500060C007F061C008F0185012000101225133
:104E6000D8B403D015EC95F024D00001FEA114D0E5
:104E7000000E0001FF6F000EFE6FE60E0001606F76
:104E8000FF0E0001616FE60E0001626FFF0E000170
:104E9000636F010EE0EC9BF00001FFA508D0000E4F
:104EA0000001FF6F000EFE6F010E0101226F92ECF8
:104EB00098F001011F51D8B405D0000E01011F6FF9
:104EC0007BEC9CF001012151D8B407D0000E010108
:104ED000216F37EC9FF04AECB1F02250D8B408D0E3
:104EE000000E226E1F04D8A403D0010E0101206F12
:104EF00001012051D8B405D0000E0101206F8EECC5
:104F000082F001012451D8B4120001012551D8B416
:104F10001200000E0101256FC60E0001AB6F020EDC
:104F20000001AC6F1EEC97F012002D0E166E2CC017
:104F300047F0FD0E4716D8A457D02CC047F0D890A4
:104F400047323F0E47164750040D000EF324096EFA
:104F50000D0EF4200A6E09C00BF00AC00CF0040E0E
:104F60000B1A09C0D9FF0AC0DAFFDF30E8320F0B95
:104F70000D0AD8A436D0000E496E070E496401D040
:104F800023D020EE02F00950D9260A50DA22DECFD3
:104F900047F0DDCF48F047C0D9FF48C0DAFF49509D
:104FA000010D300EF324E16E0D0EF420E26EDFCF22
:104FB000E7FF20EE02F00950D9260A50DA22DE2A55
:104FC000000EDD22492AD9D720EE02F00950D92659
:104FD0000A50DA22300EDE6E0D0EDD6E16ECAEF0EB
:104FE000120068ECB2F012002C50FD0B040AD8A499
:104FF0001200C4ECA8F0120068C060F069C061F053
:105000009CECA1F00001605100016111D8B458D0AE
:10501000000120EE06F06851D9266951DA22DECF70
:105020006AF0DDCF6BF068C0D9FF69C0DAFFDECF70
:105030006CF0DDCF6DF000016A5100016C25D96E76
:1050400000016B5100016D21DA6EDF5000016E6FBF
:10505000000120EE02F06851D9266951DA220001E0
:1050600010EE06F06851E1266951E222E6CF6CF0BD
:10507000E5CF6DF0010E00016C27000E6D23DE50B0
:1050800000016C5DDE5000016D59D8B00BD00001FD
:1050900020EE06F06851D9266951DA22DE2A000E88
:1050A000DD220BD0000120EE06F06851D9266951AF
:1050B000DA22000EDE6E000EDD6E00016E5112006F
:1050C000000E12001450D8A41200010E146E1550D8
:1050D000D8A41200010E156E020E1B18D8A416D00B
:1050E000000120EE01F0F551D926F651DA22000E2A
:1050F000DF6EF5C0D9FFF6C0DAFF480EDF6EF5C0EF
:10510000D9FFF6C0DAFF000EDB8E12001B04D8A414
:105110001200000E0D6E20EE01F00950D9260A5043
:10512000DA22080EDF6E20EE02F00950D9260A506E
:10513000DA22300EDE6E0D0EDD6E09C0D9FF0AC018
:10514000DAFF040EDF6E09C0D9FF0AC0DAFF000ED5
:10515000DB8E010E0D6E20EE01F00B50D9260C50A7
:10516000DA22080EDF6E20EE02F00B50D9260C502A
:10517000DA22300EDE6E0D0EDD6E0BC0D9FF0CC0D4
:10518000DAFF800EDF6E1200F5C0D9FFF6C0DAFF3D
:10519000000EDFBC010E2E6E040E0001F51B080E82
:1051A0001318D8A40DD00D0132517F0B0F01386FA9
:1051B0000F013851D8B402D0100E01D0040E136E76
:1051C0001B04D8A43BD0000120EE02F0F551D926F3
:1051D000F651DA22380EDE6E0D0EDD6E67ECA3F0AE
:1051E000020E2118D8A40DD0F5C0D9FFF6C0DAFF01
:1051F000040EDF6EF5C0D9FFF6C0DAFF000EDB8EBD
:1052000012002E50D8A40DD0F5C0D9FFF6C0DAFF99
:10521000480EDF6EF5C0D9FFF6C0DAFF000EDB8E58
:105220001200F5C0D9FFF6C0DAFF080EDF6EF5C038
:10523000D9FFF6C0DAFF000EDB8E12000001E9AFE5
:1052400002D00001E99F000E1B6E12000001706F7A
:10525000000E0001716F000E726F000E736F000E72
:10526000746F000E0001756F090E0001756501D0A5
:105270002BD070C06FF000016F476F47C250000124
:105280006F19C30B6F19C26EB38EB290B292B38214
:10529000500EE82EFED7B392B280140EE82EFED741
:1052A000B2909E9CC2829EACFED7C3500001712773
:1052B000C45000017223000E00017323000E000190
:1052C00074230001752BD0D771C060F072C061F0FB
:1052D00073C062F074C063F00A0E0001646F000EC8
:1052E000656F000E666F000E676F46ECAAF0030E46
:1052F00007D00001D890633362330001613360331B
:10530000E82EF7D760C06DF061C06EF012005A0E43
:105310001C6E1C5013ECA2F0E20E0001606FFE0E3A
:105320000001616FFF0E0001626FFE0E0001636FEE
:10533000000EE0EC9BF0000E0001846F020E0001F5
:10534000846501D040D0000E0001606F00018451DF
:10535000D6ECAFF0000E0001606F000184519DECAF
:10536000AFF000018451170D140EF326000EF42245
:105370002E0EF324D96E010EF420DA6E000EDE6ECE
:10538000000EDD6E00018451170D160EF326000E7F
:10539000F4222E0EF324D96E010EF420DA6E0101F0
:1053A000DF8000018451170D160EF326000EF42243
:1053B0002E0EF324D96E010EF420DA6E0101DF8285
:1053C0000001842BBBD7000E0101226F1200000EDA
:1053D0000001656F000163AF08D00001626D631FBB
:1053E000D8B0632B010E0001656F000161AF08D0DA
:1053F0000001606D611FD8B0612B010E0001651BBB
:10540000000E0001676F000E666F0001625100011F
:105410006311D8B42CD0010E0001646F06D00001D6
:10542000D890623763370001642B000163AFF7D770
