:040000007FEF00F09E
:100008004082FACF12F0FBCF13F0E9CF14F0EACF19
:1000180015F0E1CF16F0E2CF17F0D9CF18F0DACF0C
:1000280019F0F3CF1AF0F4CF1BF0F6CF1CF0F7CF8E
:100038001DF0F8CF1EF0F5CF1FF011EC97F0F2B4D9
:10004800F2949EA010D09E90800ECF6E8ABA03D0F4
:10005800116A112A01D0116A113A11468A501118F1
:10006800DF0B11188A6EA1A228D0A192840E016E0E
:10007800010E026E80BA02D0010E01D0000E036E8E
:100088008BEC89F0800E016E010E026E80BC02D0EE
:10009800010E01D0000E036E8BEC89F07C0E016E10
:1000A800010E026E80BE02D0010E01D0000E036E5A
:1000B8008BEC89F0010E0101306F1FC0F5FF1EC0E7
:1000C800F8FF1DC0F7FF1CC0F6FF1BC0F4FF1AC0E5
:1000D800F3FF19C0DAFF18C0D9FF17C0E2FF16C036
:1000E800E1FF15C0EAFF14C0E9FF13C0FBFF12C00F
:0A00F800FAFF409211009DEF94F012
:10FCF8000001000A006400E8031027E4FD4EFD82BD
:10FD0800FD0BFD09024300020100C0320904000096
:10FD18000102020100052400100104240202052446
:10FD280006000105240100010705810308000209F6
:10FD3800040100020A000000070502024000000753
:10FD480005820240000034034D0069006300720020
:10FD58006F006300680069007000200054006500AF
:10FD6800630068006E006F006C006F006700790028
:10FD7800200049006E0063002E0034034300440055
:10FD880043002000520053002D003200330032009F
:10FD9800200045006D0075006C006100740069006A
:10FDA8006F006E002000440065006D006F00535521
:10FDB8004E004D4F4E005455450057454400544899
:10FDC80055004652490053415400120100020200F6
:10FDD8000008D8040A000001010200010403090414
:10FDE800092A2A2A2A2A2A2A2A2A2A2A2A2A2A2A8C
:10FDF8002A2A2A2A2A2A2A2A2A2A2A0A092A2A2A9C
:10FE08002A204B696C6C6966697368204C6967685D
:10FE18007420202A2A2A2A0A092A2A2A2A204D61F5
:10FE28006465206279204052796F6B657269202A77
:10FE38002A2A2A0A092A2A2A2A2A2A2A2A2A2A2A5B
:10FE48002A2A2A2A2A2A2A2A2A2A2A2A2A2A2A0A2A
:10FE58000A09636F6D6D616E6420096F70656C616E
:10FE68006E6431096F70656C616E64320A0A0970DC
:10FE780072696E745F74696D652874290A09616412
:10FE88006A7573745F74696D6528617429205B688D
:10FE9800616E643A792C4D2C642C682C6D2C735D42
:10FEA800205B76616C756528646563696D616C2992
:10FEB8005D0A0970776D205B636F6C6F723A522C24
:10FEC800472C422C575D205B76616C756528252987
:10FED8003A307E3130305D0A0970776D20636C6589
:10FEE80061720A097365742074696D655F73796E50
:10FEF800635F6D6F64652873796E63290A0973659A
:10FF080074204144435F6D6F646528616463290A06
:10FF180009524553455428293B0A000932302530F7
:10FF280032642F253032642F253032642825732916
:10FF3800253032643A253032642D253032640A0087
:10FF48005752454E3D25642C454E3D25640A0061B7
:10FF5800646A7573745F74696D65007072696E7434
:10FF68005F74696D6500524553455428293B00204C
:10FF78002020202020202000096572726F720A005C
:10FF8800286E756C6C29007365636F6E64006D690B
:10FF98006E75746500636C656172006D6F6E746870
:10FFA8000073796E630068656C7000796561720032
:10FFB800686F757200253032640041444300505721
:10FFC8004D006164630070776D00736574000820EC
:10FFD800080064617900656E006174003F004200AA
:10FFE800470052005700620067007700730028003E
:08FFF8002D002F003A0000006B
:020000040001F9
:10000000C6C060F0C7C061F0AE0E0001626FFF0EA7
:100010000001636F94EC96F00001605100016111E2
:10002000D8B412D0C6C060F0C7C061F0E40E0001C1
:10003000626FFF0E0001636F94EC96F00001605157
:1000400000016111D8A40CD0C4C06FF0C5C070F01D
:10005000E80E0001716FFD0E0001726F03EC96F067
:10006000C4C0BBF0C5C0BCF0C6C0BDF0C7C0BEF0C8
:10007000C8C0BFF0C9C0C0F0CAC0C1F0CBC0C2F098
:10008000B9EC84F0C6C060F0C7C061F06E0E00012C
:10009000626FFF0E0001636F94EC96F000016051F7
:1000A00000016111D8B4FF00C6C060F0C7C061F0A4
:1000B000DE0E0001626FFF0E0001636F94EC96F09C
:1000C0000001605100016111D8A436D08A0E0001F0
:1000D000716F010E0001726F480E0001736FFF0E09
:1000E0000001746F0F013FAB04D00001CE6BCE2B2B
:1000F00002D00001CE6B0001CE510001756F766B0E
:100100000F013FAF04D00001CF6BCF2B02D0000115
:10011000CF6B0001CF510001776F786B8CEC82F0D0
:10012000C4C06FF0C5C070F08A0E0001716F010E7F
:100130000001726F03EC96F0C6C060F0C7C061F0BA
:10014000D20E0001626FFF0E0001636F94EC96F017
:100150000001605100016111D8A43CD0C8C060F01A
:10016000C9C061F0A90E0001626FFF0E0001636F4C
:1001700094EC96F00001605100016111D8A403D005
:10018000000E0001E76FC8C060F0C9C061F0CA0E80
:100190000001626FFF0E0001636F94EC96F00001A6
:1001A000605100016111D8B412D0C8C060F0C9C05C
:1001B00061F0C20E0001626FFF0E0001636F94ECEC
:1001C00096F00001605100016111D8A403D0010E26
:1001D0000001E76FC6C060F0C7C061F0CE0E00013D
:1001E000626FFF0E0001636F94EC96F000016051A6
:1001F00000016111D8B412D0C6C060F0C7C061F070
:10020000C60E0001626FFF0E0001636F94EC96F062
:100210000001605100016111D8A41200C8C060F053
:10022000C9C061F0A10E0001626FFF0E0001636F93
:1002300094EC96F00001605100016111D8B412D025
:10024000C8C060F0C9C061F0EA0E0001626FFF0E25
:100250000001636F94EC96F00001605100016111A0
:10026000D8A42ED0020E0001E76FCAC066F0CBC042
:1002700067F0A5EC8DF066C0A8F167C0A9F1A8C130
:1002800060F0A9C161F0000E0001636FFA0E626FA9
:100290006FEC97F060C06DF061C06EF0000E000171
:1002A000706F640E6F6FA4EC90F06DC0AAF16EC019
:1002B000ABF1AAC175F0ABC176F0000ED1EC8CF0B9
:1002C000C8C060F0C9C061F0F00E0001626FFF0E9F
:1002D0000001636F94EC96F0000160510001611120
:1002E000D8B412D0C8C060F0C9C061F0E80E0001F7
:1002F000626FFF0E0001636F94EC96F00001605195
:1003000000016111D8A42ED0020E0001E76FCAC00F
:1003100066F0CBC067F0A5EC8DF066C0A8F167C0B1
:10032000A9F1A8C160F0A9C161F0000E0001636FDE
:10033000FA0E626F6FEC97F060C06DF061C06EF006
:10034000000E0001706F640E6F6FA4EC90F06DC032
:10035000AAF16EC0ABF1AAC175F0ABC176F0010E87
:10036000D1EC8CF0C8C060F0C9C061F0EE0E0001A5
:10037000626FFF0E0001636F94EC96F00001605114
:1003800000016111D8B412D0C8C060F0C9C061F0DA
:10039000E60E0001626FFF0E0001636F94EC96F0B1
:1003A0000001605100016111D8A42ED0020E00019D
:1003B000E76FCAC066F0CBC067F0A5EC8DF066C0F1
:1003C000A8F167C0A9F1A8C160F0A9C161F0000E51
:1003D0000001636FFA0E626F6FEC97F060C06DF012
:1003E00061C06EF0000E0001706F640E6F6FA4ECC0
:1003F00090F06DC0AAF16EC0ABF1AAC175F0ABC1AF
:1004000076F0020ED1EC8CF0C8C060F0C9C061F08B
:10041000F20E0001626FFF0E0001636F94EC96F024
:100420000001605100016111D8B412D0C8C060F061
:10043000C9C061F0EC0E0001626FFF0E0001636F36
:1004400094EC96F00001605100016111D8A42ED007
:10045000020E0001E76FCAC066F0CBC067F0A5ECE2
:100460008DF066C0A8F167C0A9F1A8C160F0A9C16C
:1004700061F0000E0001636FFA0E626F6FEC97F08F
:1004800060C06DF061C06EF0000E0001706F640E10
:100490006F6FA4EC90F06DC0AAF16EC0ABF1AAC171
:1004A00075F0ABC176F0030ED1EC8CF0C8C060F0F3
:1004B000C9C061F09D0E0001626FFF0E0001636F05
:1004C00094EC96F00001605100016111D8A4120073
:1004D000020E0001E76F000E0001766F000E756FCF
:1004E000000ED1EC8CF0000E0001766F000E756FDF
:1004F000010ED1EC8CF0000E0001766F000E756FCE
:10050000020ED1EC8CF0000E0001766F000E756FBC
:10051000030ED1EC8CF01200750E0001886F000EF6
:100520000001896F0FD2250E00019119D8B40AD0AD
:1005300071C0D9FF72C0DAFF91C0DFFF0001714BBB
:10054000722B00D2000E0001936F000E926F000E0E
:100550000001906F05D0000190850001734B742B52
:1005600073C0F6FF74C0F7FF000EF86E0800F55078
:10057000300AD8B4F0D773C0F6FF74C0F7FF000E8E
:10058000F86E0800F5508AEC97F0D8A0CBD0000E9A
:100590000001936F000E926F92C060F093C061F003
:1005A000000E0001636F0A0E626F6FEC97F060C07F
:1005B00092F061C093F0D00E0001836FFF0E000136
:1005C000846F73C0F6FF74C0F7FF000EF86E08006A
:1005D000F5500001856F866B00018351000185276E
:1005E00000018451000186230001855100019227FA
:1005F00000018651000193230001734B742B73C0DB
:10060000F6FF74C0F7FF000EF86E0800F5508AEC94
:1006100097F0D8A087D0C0D788C0D9FF89C0DAFFAB
:10062000DECF8AF0DDCF8BF0020E00018827000EAE
:10063000892300018A5100018B11D8A406D0880EAD
:1006400000018A6FFF0E00018B6F000E00018F6F9B
:10065000000E8E6F03D000018E4B8F2B00018E5148
:1006600000018A250001836F00018F5100018B2159
:100670000001846F83C0F6FF84C0F7FF000EF86EA0
:100680000800F5500009D8A4E6D7000192510001F6
:100690008E5D0001935100018F59D8B009D000013F
:1006A0008E510001925F00018F510001935B0FD0CA
:1006B000000E0001936F000E926F09D071C0D9FF38
:1006C00072C0DAFF200EDF6E0001714B722B000149
:1006D0009207D8A0930700019229F0E10001932925
:1006E000D8B414D0EBD78AC0F6FF8BC0F7FF000E4A
:1006F000F86E71C0D9FF72C0DAFF0800F5CFDFFFD6
:1007000000018A4B8B2B0001714B722B00018E076D
:10071000D8A08F0700018E29E6E100018F29D8B407
:1007200011D1E1D773C0F6FF74C0F7FF0001734B1E
:10073000742B000EF86E0800F5CF91F00001915176
:10074000000AD8B40FD1640AD8B407D00D0AD8B4BF
:1007500004D01A0AD8B460D7F5D088C0D9FF89C0B0
:10076000DAFFDECF8CF0DDCF8DF0020E000188279E
:10077000000E892300018DAF08D0030E00019013F5
:1007800000018C6D8D1FD8B08D2B010E0001916F73
:10079000050E00019119D8B419D000019151020D34
:1007A000F90EF324F66EFC0EF420F76EF86A000ED4
:1007B000F8220900F55000018C5D0900F550000198
:1007C0008D59D8A003D00001912BE2D7000192519E
:1007D00000019311D8B40BD090C083F0030E000138
:1007E0008317D8B404D000019207D8A09307800ED5
:1007F000000191BF7F0E0001836F00019251000143
:10080000915D00019351800A00018359D8B00BD04B
:10081000000191510001925F000E000191BFFF0E97
:100820000001935B05D0000E0001936F000E926FE4
:10083000000190A524D090C083F0030E000183171F
:10084000D8B409D071C0D9FF72C0DAFF2D0EDF6EA7
:100850000001714B722B0001925100019311D8B429
:1008600037D071C0D9FF72C0DAFF300EDF6E0001E1
:10087000714B722B00019207D8A09307ECD70001AF
:10088000925100019311D8B413D071C0D9FF72C036
:10089000DAFF200EDF6E0001714B722B0001920710
:1008A000D8A093070001925100019311D8A4EDD76D
:1008B00090C083F0030E00018317D8B409D071C033
:1008C000D9FF72C0DAFF2D0EDF6E0001714B722B63
:1008D00091C087F031D000018751020DF90EF32449
:1008E000F66EFC0EF420F76EF86A000EF82209008E
:1008F000F5CF68F00A00F5CF69F08CC066F08DC0C6
:1009000067F021EC95F066C06DF067C06EF0000EE8
:100910000001706F0A0E6F6F66EC96F000016D516A
:10092000300F0001916F71C0D9FF72C0DAFF91C022
:10093000DFFF0001714B722B00018707000187293F
:10094000D8A4C9D773C0F6FF74C0F7FF0001734B7A
:10095000742B000EF86E0800F5CF91F00001915154
:10096000D8A4E1D571C0D9FF72C0DAFF000EDF6EE6
:100970001200BDC060F0BEC061F0630E0001626F86
:10098000FF0E0001636F94EC96F0000160510001CE
:100990006111D8B412D0BDC060F0BEC061F0E20EEB
:1009A0000001626FFF0E0001636F94EC96F000018E
:1009B000605100016111D8A406D0BBC094F0BCC046
:1009C00095F057EC94F0BDC060F0BEC061F0E10E50
:1009D0000001626FFF0E0001636F94EC96F000015E
:1009E000605100016111D8B412D0BDC060F0BEC02A
:1009F00061F0570E0001626FFF0E0001636F94EC0F
:100A000096F00001605100016111D8A41200BFC02E
:100A100060F0C0C061F0DC0E0001626FFF0E0001EB
:100A2000636F94EC96F00001605100016111D8B43D
:100A300012D0BFC060F0C0C061F0B30E0001626FA1
:100A4000FF0E0001636F94EC96F00001605100010D
:100A50006111D8A41CD0BBC0B4F0BCC0B5F0410E2D
:100A60000001B66F010E0001B76F000E0001B86FF4
:100A7000630E0001B96FC1C066F0C2C067F0A5EC9B
:100A80008DF0000166510001BA6F35EC96F0BFC0E1
:100A900060F0C0C061F0C80E0001626FFF0E00017F
:100AA000636F94EC96F00001605100016111D8B4BD
:100AB00012D0BFC060F0C0C061F0A30E0001626F31
:100AC000FF0E0001636F94EC96F00001605100018D
:100AD0006111D8A41CD0BBC0B4F0BCC0B5F0400EAE
:100AE0000001B66F010E0001B76F010E0001B86F73
:100AF0000C0E0001B96FC1C066F0C2C067F0A5EC72
:100B00008DF0000166510001BA6F35EC96F0BFC060
:100B100060F0C0C061F0C00E0001626FFF0E000106
:100B2000636F94EC96F00001605100016111D8B43C
:100B300012D0BFC060F0C0C061F0DA0E0001626F79
:100B4000FF0E0001636F94EC96F00001605100010C
:100B50006111D8A423D040C120F00101415195EC8E
:100B60008EF00001C36FBBC0B4F0BCC0B5F03F0E47
:100B70000001B66F010E0001B76F010E0001B86FE2
:100B8000C3C0B9F0C1C066F0C2C067F0A5EC8DF07B
:100B9000000166510001BA6F35EC96F0BFC060F0FD
:100BA000C0C061F0A70E0001626FFF0E0001636F0D
:100BB00094EC96F00001605100016111D8B412D09C
:100BC000BFC060F0C0C061F0B80E0001626FFF0EE0
:100BD0000001636F94EC96F0000160510001611117
:100BE000D8A41CD0BBC0B4F0BCC0B5F03D0E000111
:100BF000B66F010E0001B76F000E0001B86F170E3F
:100C00000001B96FC1C066F0C2C067F0A5EC8DF0FD
:100C1000000166510001BA6F35EC96F0BFC060F07C
:100C2000C0C061F0D00E0001626FFF0E0001636F63
:100C300094EC96F00001605100016111D8B412D01B
:100C4000BFC060F0C0C061F0960E0001626FFF0E81
:100C50000001636F94EC96F0000160510001611196
:100C6000D8A41CD0BBC0B4F0BCC0B5F03C0E000191
:100C7000B66F010E0001B76F000E0001B86F3B0E9A
:100C80000001B96FC1C066F0C2C067F0A5EC8DF07D
:100C9000000166510001BA6F35EC96F0BFC060F0FC
:100CA000C0C061F0F40E0001626FFF0E0001636FBF
:100CB00094EC96F00001605100016111D8B412D09B
:100CC000BFC060F0C0C061F08F0E0001626FFF0E08
:100CD0000001636F94EC96F0000160510001611116
:100CE000D8A41200BBC0B4F0BCC0B5F03B0E0001EC
:100CF000B66F010E0001B76F000E0001B86F3B0E1A
:100D00000001B96FC1C066F0C2C067F0A5EC8DF0FC
:100D1000000166510001BA6F35EC96F01200000137
:100D2000E9510001D8A416D0010E0001E96F6D0E43
:100D30000001606F010E0001616F000E0001626F23
:100D4000050E0001636F000E0001656F640E646F95
:100D5000C0EC96F0D2C060F0D3C061F01EEC8EF013
:100D60000001605100016111D8B41200D2C068F0D6
:100D7000D3C069F040EC90F00501676F76D16D0E3D
:100D80000001686F010E0001696F000E00016A6FBB
:100D90006CEC8FF0D0C068F0D1C069F0090E000192
:100DA0006A6F6CEC8FF06D0E0001606F010E000138
:100DB000616F1EEC8EF0FF0E000160250501646F6F
:100DC000FF0E000161210501656FD0C071F0D1C037
:100DD00072F064C573F065C574F0020E0001756FA2
:100DE000E0EC94F0D0C068F0D1C069F00A0E0001C8
:100DF0006A6F6CEC8FF0000E0501686F02D0050180
:100E0000682B6D0E0001686F010E0001696F40ECE8
:100E100090F00001D46F05016851010D800EF3249C
:100E2000D96E020EF420DA6ED4C0DFFFDF50D8A4F2
:100E3000E6D705016851010D800EF324D96E020E2C
:100E4000F420DA6E000EDF6E000E0501686F02D02E
:100E50000501682B6D0E0001686F010E0001696FBE
:100E600040EC90F00001D46F05016851010D990E1E
:100E7000F324D96E020EF420DA6ED4C0DFFFDF5007
:100E8000D8A4E6D705016851010D990EF324D96E57
:100E9000020EF420DA6E000EDF6E000E0501686FA0
:100EA00002D00501682B6D0E0001686F010E000174
:100EB000696F40EC90F00001D46F05016851010D9D
:100EC000B20EF324D96E020EF420DA6ED4C0DFFF26
:100ED000DF50D8A4E6D705016851010DB20EF32406
:100EE000D96E020EF420DA6E000EDF6E000E0501E0
:100EF000686F02D00501682B6D0E0001686F010E4E
:100F00000001696F40EC90F00001D46F0501685159
:100F1000010DCB0EF324D96E020EF420DA6ED4C08C
:100F2000DFFFDF50D8A4E6D705016851010DCB0ED5
:100F3000F324D96E020EF420DA6E000EDF6ED0C0FC
:100F4000C4F0D1C0C5F0800E0001C66F020E0001D2
:100F5000C76F990E0001C86F020E0001C96FB20E73
:100F60000001CA6F020E0001CB6FCB0E0001CC6FE7
:100F7000020E0001CD6F00EC80F012006D0E00013A
:100F8000686F010E0001696F000E00016A6F6CEC62
:100F90008FF0D0C068F0D1C069F0200E00016A6FF8
:100FA0006CEC8FF012006D0E0001686F010E0001F5
:100FB000696F10EC94F0D0C06FF0D1C070F0D60E15
:100FC0000001716FFF0E0001726F03EC96F01200CA
:100FD000000E0501666F0ED0D0C06FF0D1C070F06A
:100FE000D60E0001716FFF0E0001726F03EC96F0D8
:100FF0000501662B6D0E0001606F010E0001616F2F
:101000001EEC8EF0050166510001D46FD56B000116
:1010100060510001D45D000161510001D559D8A093
:10102000DBD76D0E0001606F010E0001616FD9EC1E
:1010300097F012001F0E0501676512007F0E050173
:10104000676112006D0E0001686F010E0001696F8B
:1010500067C56AF06CEC8FF0D0C068F0D1C069F061
:1010600067C56AF06CEC8FF0120005016751080A41
:10107000D8B499D7050AD8B482D62D0AD8B47ED769
:101080005F0AD8B4A5D7D6D7000E0001816F000E35
:10109000826F000E836F000E846F000E00017F6F61
:1010A00037D0010E0001856F0C0E0001856501D05F
:1010B0002DD085C020F000017F5195EC8EF000010D
:1010C0007B6F00017B5100016D6F6E6B6F6B706BFE
:1010D000800E0001716F510E726F010E736F000E62
:1010E000746F5DEC95F000016D51000181270001E6
:1010F0006E510001822300016F5100018323000122
:101100007051000184230001852BCED700017F2B75
:10111000000120EE0AF07951D9267A51DA22DE5008
:1011200000017F5DD8A0BDD7010E0001806F32D0D5
:1011300080C020F0000120EE0AF07951D9267A51C2
:10114000DA22DF5095EC8EF000017B6F00017B51BD
:1011500000016D6F6E6B6F6B706B800E0001716FB5
:10116000510E726F010E736F000E746F5DEC95F08F
:1011700000016D510001812700016E5100018223A1
:1011800000016F510001832300017051000184238D
:101190000001802B000120EE09F07951D9267A5107
:1011A000DA22DE500001805DD8A0C2D7FF0E000118
:1011B0007B6FFF0E00017C6F000120EE08F079517B
:1011C000D9267A51DA22DF5000017D6F7E6B000153
:1011D0007B5100017D2700017C5100017E237DC0F1
:1011E0006DF07EC06EF00001000E6EBFFF0E6F6FDF
:1011F000706F800E0001716F510E726F010E736F70
:10120000000E746F5DEC95F000016D5100018127B7
:1012100000016E510001822300016F510001832300
:101220000001705100018423000120EE06F0795185
:10123000D9267A51DA22DF5000017B6F00017B5101
:1012400000016D6F6E6B6F6B706B100E0001716F34
:101250000E0E726F000E736F000E746F5DEC95F0E2
:1012600000016D510001812700016E5100018223B0
:1012700000016F510001832300017051000184239C
:10128000000120EE05F07951D9267A51DA22DF509B
:1012900000017B6F00017B5100016D6F6E6B6F6B06
:1012A000706B3C0E0001716F000E726F000E736F59
:1012B000000E746F5DEC95F000016D510001812707
:1012C00000016E510001822300016F510001832350
:1012D0000001705100018423000120EE04F07951D7
:1012E000D9267A51DA22DF5000017B6F00017B5151
:1012F00000018127000E82238323842379C0D9FF34
:101300007AC0DAFF81C0DEFF82C0DEFF83C0DEFF6D
:1013100084C0DEFF12000350D8B498D001C0D9FFBA
:1013200002C0DAFF840EDE180BE1030EDE18D8A42B
:1013300007D020EE03F00150D9260250DA22DF8ECA
:1013400001C0D9FF02C0DAFFBC0EDE180BE1020EAD
:10135000DE18D8A407D020EE03F00150D9260250A1
:10136000DA22DF8C01C0D9FF02C0DAFFF40EDE18EA
:101370000AE1DE04D8A407D020EE03F00150D926FC
:101380000250DA22DF8A01C0D9FF02C0DAFF2C0E38
:10139000DE180AE1DE04D8A407D020EE03F00150E5
:1013A000D9260250DA22DF8801C0D9FF02C0DAFF55
:1013B000960EDE18DE10D8A407D020EE03F0015000
:1013C000D9260250DA22DF8601C0D9FF02C0DAFF37
:1013D0003C0EDE18DE10D8A407D020EE03F001503A
:1013E000D9260250DA22DF8401C0D9FF02C0DAFF19
:1013F000100EDE18DE10D8A407D020EE03F0015046
:10140000D9260250DA22DF8201C0D9FF02C0DAFFFA
:10141000020EDE18DE10D8A407D020EE03F0015033
:10142000D9260250DA22DF8001C0D9FF02C0DAFFDC
:10143000850EDE5C030EDE58D8B0120001C0D9FF65
:1014400002C0DAFFDE2A000EDD22120001C0D9FF41
:1014500002C0DAFF840EDE5C030EDE58D8A008D08E
:1014600020EE02F00150D9260250DA22DF8E81D020
:1014700001C0D9FF02C0DAFFBC0EDE5C020EDE58EE
:10148000D8A008D020EE02F00150D9260250DA226E
:10149000DF8C6FD001C0D9FF02C0DAFFF40EDE5C32
:1014A000010EDE58D8A008D020EE02F00150D92657
:1014B0000250DA22DF8A5DD001C0D9FF02C0DAFF14
:1014C0002C0EDE5C010EDE58D8A008D020EE02F013
:1014D0000150D9260250DA22DF884BD001C0D9FF53
:1014E00002C0DAFF010EDB5004E1960EDE5CD8A0EC
:1014F00008D020EE02F00150D9260250DA22DF8611
:1015000038D001C0D9FF02C0DAFF010EDB5004E180
:101510003C0EDE5CD8A008D020EE02F00150D926A7
:101520000250DA22DF8425D001C0D9FF02C0DAFFE1
:10153000010EDB5004E1100EDE5CD8A008D020EED6
:1015400002F00150D9260250DA22DF8212D001C007
:10155000D9FF02C0DAFF010EDB5004E1020EDE5CAF
:10156000D8A007D020EE02F00150D9260250DA228E
:10157000DF8001C0D9FF02C0DAFF000EDE6E000E70
:10158000DD6E20EE02F00150D9260250DA22FF0E65
:10159000DE16000EDD1612000001E851D8B4AED000
:1015A000000E0001E86F370E0001866F010E00018A
:1015B000876F36EC98F00001E751D8A49FD037C16F
:1015C00060F038C161F039C162F03AC163F0800E59
:1015D0000001646F510E656F010E666F000E676F3C
:1015E000C6EC93F060C08EF061C08FF062C090F0E6
:1015F00063C091F0000191510001901108E1C10E0A
:1016000000018E5DA80E00018F59D8A026D08EC093
:1016100088F08FC089F090C08AF091C08BF00001F3
:10162000881F891F8A1F8B1F882B000E89238A23FE
:101630008B23800E0001882500018E6F510E000162
:10164000892100018F6F010E00018A210001906F36
:10165000000E00018B210001916FD89000018E35A2
:1016600000016D6F00018F3500016E6F0001903534
:1016700000016F6F000191350001706FFA0E0001DB
:10168000716F000E726F000E736F000E746F5DEC61
:1016900095F06DC060F06EC061F06FC062F070C018
:1016A00063F0800E0001646F510E656F010E666F6E
:1016B000000E676F03EC91F060C08EF061C08FF098
:1016C00062C090F063C091F08EC075F08FC076F06C
:1016D000030ED1EC8CF0000E0001926F020E00019F
:1016E000926501D00BD08EC075F08FC076F00001EE
:1016F0009251D1EC8CF00001922BF0D7010182A124
:101700002AD0000E0101836F000E826F020E0001CD
:10171000E76F020E0001F36504D0000E0001F36FC5
:1017200002D00001F32B0001F351530DF3CF8CF0E5
:10173000000E0001926F020E0001926501D00BD0E5
:101740008CC075F00001766B00019251D1EC8CF0E9
:101750000001922BF0D701017EA11ED0000E0101E5
:101760007F6F000E7E6F020E0001E76F020E000118
:10177000F26504D0000E0001F26F02D00001F22BDE
:101780000001F251530DF3CF8DF08DC075F00001C3
:10179000766B030ED1EC8CF0010186A11200000ED5
:1017A0000101876F000E866F000E0001E76F1200C7
:1017B000000E0001896F010E00018A6F81C0D9FF00
:1017C00082C0DAFFDECF8BF0DECF8CF0DECF8DF083
:1017D000DECF8EF08B0E0001796F000E00017A6F64
:1017E0003C0E00017B6FD6EC8FF0000120EE04F080
:1017F0008151D9268251DA22000179C0DFFF8B0E98
:101800000001796F000E00017A6F3C0E00017B6FC2
:10181000D6EC8FF0000120EE05F08151D9268251DF
:10182000DA22000179C0DFFF8B0E0001796F000E14
:1018300000017A6F180E00017B6FD6EC8FF000016B
:1018400020EE06F08151D9268251DA22000179C0BA
:10185000DFFF8BC087F08CC088F087C085F088C020
:1018600086F0060E00018B27000E8C238D238E231D
:101870008B0E0001796F000E00017A6F070E0001D8
:101880007B6FD6EC8FF0000120EE07F08151D92656
:101890008251DA22000179C0DFFF3FD08A848AC0FA
:1018A00020F00001895195EC8EF00001836F846B6C
:1018B0000001831F841F834B842B0001875100018B
:1018C00083250001876F00018851000184210001F8
:1018D000886F0C0E00018A19D8A419D0010E0001DE
:1018E0008A6F0001892B630E0001896512D081C0C7
:1018F000D9FF82C0DAFF800EDE5E130EDE5A190EAB
:10190000DE5ABC0EDE5A000E0001896F02D00001C3
:101910008A2B8AC0B0F189C036F18AC020F000015C
:10192000895195EC8EF00001836F00018351000115
:10193000875D000E8859D8B0B1D787C083F088C0C2
:1019400084F00001831F841F834B842B0001855189
:101950000001832501012C6F0001865100018421C3
:1019600001012D6F0001874B882B000120EE0AF04A
:101970008151D9268251DA2289C0DFFF000120EE91
:1019800009F08151D9268251DA228AC0DFFF000195
:1019900020EE08F08151D9268251DA2287C0DFFF7C
:1019A00012000001796F75C060F076C061F075C0FB
:1019B00062F076C063F06FEC97F060C066F061C0D3
:1019C00067F0000E0001696FFA0E686F21EC95F068
:1019D00066C075F067C076F075C060F076C061F0E3
:1019E00075C062F076C063F06FEC97F060C066F08F
:1019F00061C067F0000E0001696FFA0E686F21EC9C
:101A000095F066C075F067C076F075C060F076C07E
:101A100061F0000E0001636F030E626F6FEC97F0D0
:101A20000001D890613360330001D8906133603396
:101A300060C075F061C076F056D00001765105E1C6
:101A40003E0E0001755DD8A071D075C077F076C0EC
:101A500078F0D890000177377837840E0001772529
:101A60000001666FFF0E000178210001676F000E14
:101A70000001696F030E686F21EC95F03E0E0001C6
:101A800066250001756F000E0001672129D0000155
:101A9000765105E13E0E0001755DD8A047D0C20E1B
:101AA000000175250001606FFF0E00017621000125
:101AB000616F000E0001636F030E626F6FEC97F0B1
:101AC0000001D890613360330001D89061336033F6
:101AD0003E0E000160250001756F000E00016121BE
:101AE0000001766F23D000017951000AD8B4A5D740
:101AF000010AD8B41BD0030AD8B4C9D7010A16D03A
:101B0000CF0EBA1675C0BBFF1200CF0EB41675C04B
:101B1000B5FF1200CF0E0F01151775C016FF12008A
:101B2000CF0E0F01121775C013FF1200000179517B
:101B3000000AD8B4E5D7010AD8B4E7D7030AD8B465
:101B4000E9D7010AD8A41200EBD703D00001664BF5
:101B5000672B66C0D9FF67C0DAFF200EDE18D8B445
:101B6000F5D766C0D9FF67C0DAFF090EDE18D8B412
:101B7000EDD7000E00016C6F000E6B6F000E0001C0
:101B80006A6F66C0D9FF67C0DAFF2D0EDE18D8A4D1
:101B900003D000016A2B2ED066C0D9FF67C0DAFFE0
:101BA0002B0EDE18D8A429D025D06BC060F06CC0F5
:101BB00061F0000E0001636F0A0E626F6FEC97F028
:101BC00066C0D9FF67C0DAFFDF500001686F696B3C
:101BD0000001605100016827000161510001692383
:101BE000D00E0001682500016B6FFF0E0001692116
:101BF00000016C6F0001664B672B66C0D9FF67C0A0
:101C0000DAFFDF508AEC97F0D8B0CFD700016A51E5
:101C10000001D8B40ED06BC068F06CC069F0000150
:101C2000681F691F684B692B68C066F069C067F060
:101C300012006BC066F06CC067F01200000120EE6D
:101C400006F06051D9266151DA22000110EE04F04D
:101C50006051E1266151E222DE50E65CDE50E6583A
:101C6000D8A028D0000120EE04F06051D92661519F
:101C7000DA22DECF62F0DDCF63F0000120EE06F065
:101C80006051D9266151DA22DECF64F0DDCF65F0F4
:101C90000001641F651F644B652B00016251000148
:101CA00064250001606F000163510001652100019E
:101CB000616F1200000120EE04F06051D9266151DD
:101CC000DA22DECF62F0DDCF63F0000120EE02F019
:101CD0006051D9266151DA22DECF64F0DDCF65F0A4
:101CE000000120EE06F06051D9266151DA22DECFE4
:101CF00066F0DDCF67F00001661F671F664B672B3C
:101D0000000164510001662700016551000167234D
:101D100000016251000166250001606F00016351FE
:101D2000000167210001616F120000016A6F020E5D
:101D30002018D8A43ED06AC060F00001616B000E8C
:101D40000001636F640E626F2AEC93F00001605132
:101D500000016111D8A402D0010E01D0000E0008CC
:101D60000001666F6AC060F00001616B010E000146
:101D7000636F900E626F2AEC93F0000160510001D6
:101D80006111D8A404D00001676B672B02D0000159
:101D9000676B6AC068F0030E00016817D8A402D010
:101DA000010E01D0000E00016725000166251C0F01
:101DB00012002050010B0001666F676B0001661F67
:101DC000671F664B672B20500001686F696B00012D
:101DD00066510001681B000167510001691B0D0E6F
:101DE00000016817000E6917040E00016819000150
:101DF0006911D8A402D0010E01D0000E00081F0FF7
:101E000012000F013FB9FDD70F013F810F013F8342
:101E1000000120EE0AF07651D9267751DA22DF5000
:101E2000B2EC97F00F013A6F000E0F013B6F0F01FC
:101E30003F910F013F83000120EE08F07651D92633
:101E40007751DA22DF50B2EC97F00F013A6F0001C0
:101E500020EE09F07651D9267751DA22DF50B2EC24
:101E600097F00F013B6F0F013F810F013F9300017E
:101E700020EE06F07651D9267751DA22DF50B2EC07
:101E800097F00F013A6F000120EE07F07651D92646
:101E90007751DA22DF50B2EC97F00F013B6F0F0160
:101EA0003F910F013F93000120EE04F07651D926B7
:101EB0007751DA22DF50B2EC97F00F013A6F000150
:101EC00020EE05F07651D9267751DA22DF50B2ECB8
:101ED00097F00F013B6F120068C060F069C061F0BD
:101EE0001EEC8EF0000120EE02F06851D9266951F7
:101EF000DA22DE500001605DDE5000016159D8B089
:101F00001200000120EE04F06851D9266951DA224E
:101F1000DECF6BF0DDCF6CF068C0D9FF69C0DAFFAF
:101F2000DECF6DF0DDCF6EF000016B5100016D254D
:101F3000D96E00016C5100016E21DA6E6AC0DFFFBC
:101F4000000120EE02F06851D9266951DA22000121
:101F500010EE04F06851E1266951E222E6CF6DF0FF
:101F6000E5CF6EF0010E00016D27000E6E23DE50EE
:101F700000016D5DDE5000016E59D8B00BD000013C
:101F800020EE04F06851D9266951DA22DE2A000ECB
:101F9000DD221200000120EE04F06851D9266951BB
:101FA000DA22000EDE6E000EDD6E120079C0D9FF5F
:101FB0007AC0DAFFDECF7DF0DECF7EF0DECF7FF0BD
:101FC000DECF80F000017B510001646F656B666BB2
:101FD000676B7DC060F07EC061F07FC062F080C042
:101FE00063F003EC91F079C0D9FF7AC0DAFF000109
:101FF00060C0DEFF000161C0DEFF000162C0DEFFE5
:10200000000163C0DDFFDD52DD52DECF6DF0DECFBB
:102010006EF0DECF6FF0DECF70F000017B5100017B
:10202000716F726B736B746B5DEC95F000016D1FDB
:1020300000016E1F00016F1F0001701F00016D2B5A
:10204000000E00016E2300016F23000170230001C8
:102050007D5100016D250001796F00017E51000165
:102060006E2100017A6F00017F5100016F21000194
:102070007B6F000180510001702100017C6F120014
:1020800068C060F069C061F01EEC8EF00001605124
:1020900000016111D8B456D0000120EE06F068515D
:1020A000D9266951DA22DECF6AF0DDCF6BF068C045
:1020B000D9FF69C0DAFFDECF6CF0DDCF6DF0000133
:1020C0006A5100016C25D96E00016B5100016D2130
:1020D000DA6EDF50206E000120EE02F06851D92642
:1020E0006951DA22000110EE06F06851E1266951CB
:1020F000E222E6CF6CF0E5CF6DF0010E00016C2717
:10210000000E6D23DE5000016C5DDE5000016D5944
:10211000D8B00BD0000120EE06F06851D9266951E5
:10212000DA22DE2A000EDD220BD0000120EE06F0BE
:102130006851D9266951DA22000EDE6E000EDD6E7E
:1021400020501200000E1200000E0001726F0001FC
:1021500070AF08D000016F6D701FD8B0702B010EEA
:102160000001726F00016EAF08D000016D6D6E1F2F
:10217000D8B06E2B010E0001721B000E0001746FAF
:10218000000E736F00016F5100017011D8B42CD094
:10219000010E0001716F06D00001D8906F377037C3
:1021A0000001712B000170AFF7D70001D890733791
:1021B000743700016F5100016D5D00017051000125
:1021C0006E59D8A00AD000016F5100016D5F000167
:1021D000705100016E5B000173810001D890703373
:1021E0006F330001712FE1D7000172510001D8B4A3
:1021F00005D00001736D741FD8B0742B73C06DF0DF
:1022000074C06EF01200000E0001686F000E696F5E
:10221000000E6A6F000E6B6F0001645100016511C2
:102220000001661100016711D8B442D0010E00010F
:102230006C6F08D00001D890643765376637673710
:1022400000016C2B000167AFF5D70001D89068370B
:1022500069376A376B37000164510001605D000126
:102260006551000161590001665100016259000188
:10227000675100016359D8A012D0000164510001D8
:10228000605F000165510001615B00016651000162
:10229000625B000167510001635B0001688100011E
:1022A000D890673366336533643300016C2FCDD724
:1022B00068C060F069C061F06AC062F06BC063F032
:1022C00012000F013FB9FDD70F013F810F013F837E
:1022D000000120EE0AF06151D9266251DA220F0185
:1022E0003A511BEC98F0DF6E3BCF63F0000120EE1B
:1022F00008F06151D9266251DA220F013A511BECE4
:1023000098F0DF6E000120EE09F06151D92662518C
:10231000DA220F013B511BEC98F0DF6E000120EE3A
:1023200006F06151D9266251DA220F013A511BECB5
:1023300098F0DF6E000120EE07F06151D92662515E
:10234000DA220F013B511BEC98F0DF6E000120EE0A
:1023500004F06151D9266251DA220F013A511BEC87
:1023600098F0DF6E000120EE05F06151D926625130
:10237000DA220F013B511BEC98F0DF6E120020EEC9
:1023800006F00150D9260250DA2210EE04F0015076
:10239000E1260250E222DE50E65CDE50E658D8A08C
:1023A0001FD020EE04F00150D9260250DA22DECFF1
:1023B00003F0DDCF04F020EE06F00150D9260250E4
:1023C000DA22DECF05F0DDCF06F0051E061E054A37
:1023D000062A03500524016E04500620026E1200E6
:1023E00020EE04F00150D9260250DA22DECF03F0AD
:1023F000DDCF04F020EE02F00150D9260250DA229F
:10240000DECF05F0DDCF06F020EE06F00150D92634
:102410000250DA22DECF07F0DDCF08F0071E081EDB
:10242000074A082A055007260650082203500724A9
:10243000016E04500820026E1200206E0E01BF9142
:102440000E01BFA106D0550EA76EAA0EA76E0E01F3
:10245000BF910E0E0E01C36F120E0E01C46F160E49
:102460000E01C56FBA50F00B0C09BA6E3F0EBA16CA
:102470000F01529152935295000EBB6ECF0EBA16B9
:10248000B450F00B0C09B46E3F0EB4160F01529706
:102490005299529B000EB56ECF0EB4160F01155116
:1024A000F00B0C09156F3F0E0F0115173F0E0F01B2
:1024B0005217000E0F01166FCF0E0F0115170F01E7
:1024C0001251F00B0C09126FFC0E0F015117000E88
:1024D0000F01136FCF0E0F011217CA96CA98CA9A2E
:1024E000CA9CCA50FC0B0209CA6E2004CB6ECA8477
:1024F000120009C001F00AC002F0BFEC91F020EE1A
:1025000002F00950D9260A50DA22DE50015CDE5072
:102510000258D8B0120020EE04F00950D9260A5013
:10252000DA22DECF0CF0DDCF0DF009C0D9FF0AC0F2
:10253000DAFFDECF0EF0DDCF0FF00C500E24D96E97
:102540000D500F20DA6E0BC0DFFF20EE02F00950B5
:10255000D9260A50DA2210EE04F00950E1260A507A
:10256000E222E6CF0EF0E5CF0FF0010E0E26000EB0
:102570000F22DE500E5CDE500F58D8B00AD020EE8D
:1025800004F00950D9260A50DA22DE2A000EDD2294
:10259000120020EE04F00950D9260A50DA22000E6B
:1025A000DE6E000EDD6E120009C001F00AC002F0FE
:1025B000BFEC91F001500210D8B44AD020EE06F0E2
:1025C0000950D9260A50DA22DECF0BF0DDCF0CF00D
:1025D00009C0D9FF0AC0DAFFDECF0DF0DDCF0EF063
:1025E0000B500D24D96E0C500E20DA6EDF500F6E9A
:1025F00020EE02F00950D9260A50DA2210EE06F039
:102600000950E1260A50E222E6CF0DF0E5CF0EF0A8
:10261000010E0D26000E0E22DE500D5CDE500E580F
:10262000D8B00AD020EE06F00950D9260A50DA2296
:10263000DE2A000EDD220AD020EE06F00950D9264F
:102640000A50DA22000EDE6E000EDD6E0F50120010
:10265000000E1200000E0001656F000161AF08D08E
:102660000001606D611FD8B0612B010E0001656F24
:10267000000163AF05D00001626D631FD8B0632B0A
:102680000001625100016311D8B426D0010E00018F
:10269000646F06D00001D890623763370001642B65
:1026A000000163AFF7D7000162510001605D0001D6
:1026B000635100016159D8A008D0000162510001A6
:1026C000605F000163510001615B0001D8906333DA
:1026D00062330001642FE7D7000165510001D8B4CF
:1026E00005D00001606D611FD8B0612B60C060F043
:1026F00061C061F0120043EC98F0E70E926E000E9C
:10270000936EBA0E946EF80E0F01486F1F0E0F01F4
:10271000496FF19E080E54EC97F0020E206E000EE9
:10272000EAEC96F0020E9EEC97F0000E0DEC98F09D
:10273000CEEC95F0FA0E1DEC92F0ECEC97F0550E05
:102740000001606F010E0001616F690E0001626F90
:10275000050E0001636F030E0001656FE80E646FE4
:10276000C0EC96F04D0E0001606F010E0001616F2C
:10277000000E0001626F040E0001636F000E000185
:10278000656FFA0E646FC0EC96F0120000016451A0
:10279000000165110001661100016711D8B437D03E
:1027A000010E206E07D00001D89064376537663778
:1027B0006737202A000167AFF6D700016451000196
:1027C000605D000165510001615900016651000121
:1027D00062590001675100016359D8A010D000016F
:1027E00064510001605F000165510001615B0001FF
:1027F00066510001625B000167510001635B0001EB
:10280000D8906733663365336433202ED6D760C0E3
:1028100060F061C061F062C062F063C063F01200FA
:1028200068C060F069C061F01EEC8EF0000160517C
:1028300000016111D8B41200000120EE04F06851CB
:10284000D9266951DA22DE50DE10D8B40BD000014F
:1028500020EE04F06851D9266951DA22DE06000E16
:10286000DD5A1200FF0E00016A6FFF0E00016B6F50
:10287000000120EE02F06851D9266951DA22DECF3C
:102880006CF0DDCF6DF000016A5100016C27000192
:102890006B5100016D23000120EE04F06851D92630
:1028A0006951DA226CC0DEFF6DC0DDFF1200370E09
:1028B0000001866F010E0001876F36EC98F0960ECE
:1028C0000001716F000E0001726F230E0001736F23
:1028D000FF0E0001746F41C175F00001766B40C1BD
:1028E00077F00001786B3FC179F000017A6B01014C
:1028F0003E51040DB60EF32400017B6FFD0EF42053
:1029000000017C6F3DC17DF000017E6B3CC17FF01A
:102910000001806B3BC181F00001826B8CEC82F086
:1029200094C06FF095C070F0960E0001716F000EAC
:102930000001726F03EC96F0120005EE69F013EEE1
:10294000E8F0EE6AE550E150FCE1E250FAE104EE15
:1029500000F0FA0EEE6AE806FDE103EE00F0C80EA4
:10296000EE6AE806FDE102EE00F0E40EEE6AE8062B
:10297000FDE101EE00F08A0EEE6AE806FDE100EEF0
:10298000D6F01E0EEE6AE806FDE100EE21F01F0E05
:10299000EE6AE806FDE1940EF66E300EF76E010E5B
:1029A000F86E01EEACF010EE05F00900F5CFEEFF89
:1029B000E550E150FAE140904092000198EF95F027
:1029C00039D073C077F074C078F0000E0001766FD4
:1029D00011D077C066F078C067F0000E0001696F13
:1029E0000A0E686F21EC95F066C077F067C078F04A
:1029F0000001762B000175510001765DD8A0E9D762
:102A000077C06DF078C06EF0000E0001706F0A0E96
:102A10006F6F66EC96F06DC077F06EC078F071C0A5
:102A200068F072C069F000017751300F00016A6FE1
:102A30006CEC8FF00001750700017529D8B4120005
:102A4000C0D7000E00016C6F000E6B6F0001685163
:102A500000016911D8B42CD0010E00016A6F06D0B4
:102A60000001D8906837693700016A2B000169AF0F
:102A7000F7D70001D8906B376C370001685100011F
:102A8000665D0001695100016759D8A00AD00001B4
:102A900068510001665F000169510001675B000138
:102AA0006B810001D8906933683300016A2FE1D748
:102AB0006BC066F06CC067F01200000E0001756F0D
:102AC000000E766F000E776F000E786F00016DA11B
:102AD00010D00001715100017527000172510001F1
:102AE0007623000173510001772300017451000126
:102AF00078230001D890713772377337743700012B
:102B0000D89070336F336E336D3300016D51000117
:102B10006E1100016F1100017011D8A4D7D775C0D4
:102B20006DF076C06EF077C06FF078C070F0120074
:102B30007BEC93F0370E0001866F010E0001876F6A
:102B400036EC98F001013F51D8A411D0000E0101DC
:102B5000376F000E386F000E396F000E3A6F370E68
:102B600000018F6F010E0001906F29EC98F0F29E2A
:102B700036EC97F0550E0001D06F010E0001D16FB9
:102B80004D0E0001D26F010E0001D36F8FEC86F065
:102B9000FDEC97F0CCEC8AF0F28EE9D70F013F8B79
:102BA0000F013FBB06D0550EA76EAA0EA76E0F01F0
:102BB0003F8B0F013F8F0F013F950F013C830F01AA
:102BC0003C85000E0F013E6FCD86370E0001866FEB
:102BD000010E0001876F36EC98F001013F51D8A437
:102BE0001200000E0101376F000E386F000E396FB2
:102BF000000E3A6F370E00018F6F010E0001906FCB
:102C000029EC98F012001CD06FC068F070C069F019
:102C100071C0F6FF72C0F7FF000EF86E0E0EF7647B
:102C200003D00800F55005D0F6CFE9FFF7CFEAFF53
:102C3000EF5000016A6F6CEC8FF00001714B722B4A
:102C400071C0F6FF72C0F7FF000EF86E0E0EF7644B
:102C500003D00800F55005D0F6CFE9FFF7CFEAFF23
:102C6000EF500009D8B41200CFD70001B8510001CD
:102C7000BA5DD8A01ED00001BA510001B95DD8A03C
:102C800018D0B6C0D9FFB7C0DAFFBAC0DFFF370E21
:102C900000018F6F010E0001906FC6EC97F0010EDE
:102CA0000001E86FB4C094F0B5C095F057EC94F013
:102CB0001200B4C06FF0B5C070F0800E0001716FEB
:102CC000FF0E0001726F03EC96F0120000016F51CD
:102CD00000017011D8B423D0010E206E05D0000180
:102CE000D8906F377037202A000170AFF8D70001F5
:102CF0006F5100016D5D0001705100016E59D8A047
:102D000008D000016F5100016D5F0001705100019A
:102D10006E5B0001D89070336F33202EE8D76DC002
:102D20006DF06EC06EF0120006D00001604B612B9A
:102D30000001624B632B60C0D9FF61C0DAFFDF5036
:102D4000206E62C0F6FF63C0F7FF000EF86E080049
:102D5000F550000820240001646F00016451D8A4DC
:102D600007D060C0D9FF61C0DAFFDF50D8A4DDD73B
:102D7000000164510001606F616B60BF6107120068
:102D800060C0D9FF61C0DAFF62C0DEFF63C0DDFF53
:102D9000000120EE02F06051D9266151DA2264C0B0
:102DA000DEFF65C0DDFF000120EE04F06051D92692
:102DB0006151DA22000EDE6E000EDD6E000120EEA3
:102DC00006F06051D9266151DA22000EDE6E000E47
:102DD000DD6E12000001616F20C060F00001603BF9
:102DE00060476047CD50000160193F0B6019CD6E00
:102DF000020E2018D8A402D0CD8601D0CD9661C095
:102E000060F00001603BCD5000016019CF0B6019EC
:102E1000CD6ECD84CD92CD809F909E909D80F28C82
:102E200012009DB89EA813D0550E016E010E026EC1
:102E3000BFEC91F001500210D8B408D0550E096EC5
:102E4000010E0A6ED4EC92F0AE6E01D09D989DAA50
:102E500012009EAA1200AFCF10F04D0E096E010EA7
:102E60000A6E10C00BF079EC92F012000F013FB91E
:102E70001200000E3FB7010E0101436F0001DF5148
:102E800001014319D8B4120043C1DFF043C142F13C
:102E9000010E0001E86F370E0001866F010E000180
:102EA000876F36EC98F012000001606FD58ED58CDC
:102EB000D59A000160510001D8A402D0D5860AD06D
:102EC000D59660C020F0FF0E2026D5502018F80BB4
:102ED0002018D56EF28AF294F194F28C120000015F
:102EE000605100016203F3CF64F0F4CF65F000019C
:102EF000605100016303F350000165270001615137
:102F000000016203F3500001652764C060F065C0F2
:102F100061F012000001616F000E0001606F3A0E57
:102F20000001616107D02F0E0001616503D0010E21
:102F30000001606F60C020F0203012000001606F5F
:102F40003F0E7916799660C020F0203A795020180B
:102F5000CF0B2018796E799E7980A292A192A082DF
:102F6000F28C12000001756F75C06DF000016E6B80
:102F7000000E0001706F0A0E6F6FA4EC90F000015C
:102F80006D51060DF3500001752512008FC079F0C8
:102F900090C07AF044EC88F08FC081F090C082F04D
:102FA000D8EC8BF08FC076F090C077F001EC8FF00A
:102FB0001200000120EE06F06051D9266151DA229C
:102FC000000110EE04F06051E1266151E222DECFF3
:102FD000E6FFDDCFE5FF1200AD9CAD8AAD98AD9464
:102FE000AC8EAC9CAC887E86190EB06E000E7F6EE7
:102FF0009F9A9F989D8AF28C1200550E0001606F77
:10300000010E0001616F1EEC8EF0000160510001A5
:103010006111D8B412009D881200206EC29E20B0AB
:1030200002D0C29C01D0C28CC18EC19CC150F80B91
:103030000609C16E12000001606F60C020F00F0E23
:103040002016000160390F0B0F0B0A0DF3502024DE
:1030500012008FC081F090C082F0D8EC8BF08FC04E
:1030600076F090C077F001EC8FF0120086C061F02E
:1030700087C062F061EC91F086C079F087C07AF089
:1030800044EC88F01200D388D38AD38C9B8CFC0E3E
:0A309000D3161200004000400100BA
:08FFF8008CF70AFAF2F8FFFB96
:00000001FF
