:040000008031DF2844
:100008007E14803120007F08FC00111C7828111014
:10001800FD0104307D02031837287D088131B421A1
:1000280080317D35283E860087017008C03F710801
:10003800C13F7D35283E86008701403FF800413F9B
:10004800F900F835F90D7D35303E860087017808CE
:10005800C03F7908C13F0130F8007808FD07043037
:100068007D02031C1128FD0104307D020318782845
:100078007D35303E86008701403FF800413FF9005A
:10008800003079024B3003197802031869287D354E
:10009800203E860087010130810741310318810A1B
:1000A8007D35203E86008701403FF800413FF9003A
:1000B800003079020A3003197802031C7028F00115
:1000C8007D0881317B21803170287D35203E860076
:1000D80087010030C03FC13F0130F8007808FD07B4
:1000E80004307D02031C3C280B1DDA280B1101305B
:1000F8002000C2070030C33D90304206031DDA28B5
:100108004303031DDA28C201C3010130C0070030D0
:10011800C13D283040064104031D9428C001C10197
:10012800FD0104307D020318DA286430F000003045
:10013800F1007D35303E86008701403FF200413FA7
:10014800F3008131262180317008F8007D083C3E9B
:1001580086008701780881002000401CCD284008CF
:10016800013EF8000030413DF900F936F80C7D08F1
:100178003C3E860087010108FA00FB0179087B02F2
:10018800031DC82878087A02031CD228F001F00A57
:10019800CE28F0017D0881315A2180310130F800E4
:1001A8007808FD0704307D02031C99287C0820008C
:1001B800FF007E1009008031E128203084000030E3
:1001C800850026308131E4217E1020008031EC2822
:1001D800703021009900FF308C008D010F30230012
:1001E8008C008D01933021009E00833022009700FF
:1001F800F03020008D009330210095008B162130BF
:100208002000980097019601210011140B178B17F5
:100218002000CA0104304A0203180C294A08813117
:10022800CD218031003A031920292000C601C60AD1
:100238004A0881319821803101302000C9004908DD
:10024800CA070E29F501F60170087104031955292A
:10025800F701F70AF11B3A290130F035F10D890B46
:1002680031290130F4007408F7072E290130F535DB
:10027800F60D890B3B2971087302031D4529700887
:100288007202031C4C297008F2027108F33B7514C2
:100298000130F136F00C890B4D290130F702031DAE
:1002A8003A297608F1007508F0000800F20070039A
:1002B800031D6C290130F1007208043E890A652982
:1002C800F135890B6429710820000D048D000800A0
:1002D8000130F1007208043E890A7329F135890B4F
:1002E80072297108FF3A20000D058D000800F20000
:1002F8007008031D8B290130F100720A8429F13539
:10030800890B8329710820000D048D000800013035
:10031800F100720A9029F135890B8F297108FF3A8B
:1003280020000D058D0008002000C8004608031DA8
:10033800A8290130C700480AA229C735890BA12975
:1003480047080D048D0008000130C700480AAD2990
:10035800C735890BAC294708FF3A0D058D00080001
:10036800F30021001D147308F200F20DF20D1D08B0
:100378007206833972069D003530F200F20BC229ED
:1003880021009D149D18C6291C08F1001B08F000C7
:1003980008002000C7000C08C6004608C800013045
:1003A800C6004708043E890ADA29C635890BD929C7
:1003B800460848050319E229003008000130080002
:0C03C800640080010131890BE52900343C
:020000040001F9
:04000E00A4C9FFDDA5
:00000001FF
