:0400000080316B28B8
:100008007E14803120007F08F600111C642811102E
:10001800F7010430770203186428770881313D21FD
:1000280080317008F4007108F500F435F50D773566
:10003800283E860087017408C03F7508C13F7735A0
:10004800283E86008701403FF400413FF50000301C
:1000580075024B3003197402031855287735203E72
:10006800860087010130810741310318810A7735FD
:10007800203E86008701403FF400413FF5000030F4
:100088007502323003197402031C5C28F0017708EA
:10009800813104218031F00177088031C12080311D
:1000A8005C287735203E860087010030C03FC13F7D
:1000B8000130F4007408F70704307702031C112894
:1000C8000B190B1176082000FF007E100900803103
:1000D8006D282030840000308500103081316F2178
:1000E8007E10200080317828703021009900FF3080
:1000F8008C008D010F3023008C008D01933021007E
:100108009E00833022009700F03020008D0093304D
:10011800210095008B162130200098009701960148
:10012800210011140B178B172000B401043034027E
:10013800031898283408813158218031003A03196E
:10014800BB282000B001B00A340881312121803158
:100158002000B001B00A34088031E320803120004B
:100168003435203E860087010030C03FC13F013052
:100178002000B3003308B4079A28F2007008013A47
:10018800031DD4280130F1007208043E890ACD28E5
:10019800F135890BCC28710820000D048D0008006A
:1001A8000130F1007208043E890ADB28F135890B19
:1001B800DA287108FF3A20000D058D00080020009C
:1001C800B2003008013A031DF6280130B1003208A8
:1001D800043E890AF028B135890BEF2831080D044F
:1001E8008D0008000130B1003208043E890AFD285C
:1001F800B135890BFC283108FF3A0D058D00080040
:10020800F200F008031D14290130F100720A0D29CB
:10021800F135890B0C29710820000D048D000800A8
:100228000130F100720A1929F135890B1829710872
:10023800FF3A20000D058D0008002000B200B0082C
:10024800031D31290130B100320A2B29B135890B40
:100258002A2931080D048D0008000130B100320A46
:100268003629B135890B35293108FF3A0D058D003E
:100278000800F30021001D147308F200F20DF20DBE
:100288001D087206833972069D003530F200F20BA4
:100298004B2921009D149D184F291C08F101F107D5
:1002A8001B08F001F00708002000B1000C08B0009E
:1002B8003008B2000130B0003108043E890A6529CF
:1002C800B035890B64293008320503196D290030CF
:1002D800080001300800640080010131890B702991
:0202E8000034E0
:020000040001F9
:04000E00A4C9FFDDA5
:00000001FF
