:0410000080EF08F085
:10100800FACF4BF0FBCF4CF0E9CF4DF0EACF4EF0E2
:10101800E1CF4FF0E2CF50F0D9CF51F0DACF52F014
:10102800F3CF53F0F4CF54F0F6CF55F0F7CF56F096
:10103800F8CF57F0F5CF58F019ECB2F0F2B4F2AAA5
:1010480014D0F2940001875100018811D8B405D05A
:1010580000018707D8A0880708D0000E0001886F14
:10106800780E876F08EC9BF000D09EB09DA019D039
:101078009E90C00ECF6E010E00019C6F000193512F
:10108800D8B404D0000E0001936F0BD0010E0001FC
:10109800936F9EECA7F0F7ECADF0010E00019D6F89
:1010A80000D0A1B2A0A20BD0A192010E00019B6FAB
:1010B800280E2D6E000E2E6E70ECAEF000D058C0CB
:1010C800F5FF57C0F8FF56C0F7FF55C0F6FF54C0EC
:1010D800F4FF53C0F3FF52C0DAFF51C0D9FF50C02C
:1010E800E2FF4FC0E1FF4EC0EAFF4DC0E9FF4CC030
:0C10F800FBFF4BC0FAFF110040EFA8F016
:10FB4E000030FC9AFBCEFB57FB090243000201007A
:10FB5E00C032090400000102020100052400100158
:10FB6E0004240202052406000105240100010705F4
:10FB7E00810308000209040100020A0000000705C3
:10FB8E0002024000000705820240000034034D00CF
:10FB9E006900630072006F00630068006900700006
:10FBAE00200054006500630068006E006F006C005A
:10FBBE006F0067007900200049006E0063002E0080
:10FBCE0034034300440043002000520053002D0034
:10FBDE00320033003200200045006D0075006C00CD
:10FBEE006100740069006F006E0020004400650023
:10FBFE006D006F0053554E004D4F4E00545545004D
:10FC0E00574544005448550046524900534154004C
:10FC1E001201000202000008D8040A0000010102CD
:10FC2E00000104030904092A2A2A2A2A2A2A2A2A2E
:10FC3E002A2A2A2A2A2A2A2A2A2A2A2A2A2A2A2A16
:10FC4E002A0A092A2A2A2A204368617267652053E4
:10FC5E00746174696F6E2036202A2A2A2A0A092AAC
:10FC6E002A2A2A204D616465206279204052796FDC
:10FC7E006B657269202A2A2A2A0A092A2A2A2A2A1E
:10FC8E002A2A2A2A2A2A2A2A2A2A2A2A2A2A2A2AC6
:10FC9E002A2A2A2A2A0A0A09636F6D6D616E642068
:10FCAE00096F70656C616E6431096F70656C616EA1
:10FCBE0064320A0A097072696E745F74696D652820
:10FCCE0074290A0961646A7573745F74696D6528B5
:10FCDE00617429205B68616E643A792C4D2C642C1A
:10FCEE00682C6D2C735D205B76616C756528646580
:10FCFE0063696D616C295D0A0973657474696E6759
:10FD0E00732873657429205B706F72743A6C656624
:10FD1E0074286C292C63656E7465722863292C72A5
:10FD2E00696768742872295D0A09095B6175746FC9
:10FD3E005F73746F70286173292C616C77617973AE
:10FD4E005F6F6E28616F292C696E746567726174BE
:10FD5E00696E675F7265736574286972295D0A0939
:10FD6E00646973706C6179286429205B706F72749A
:10FD7E003A6C656674286C292C63656E74657228FE
:10FD8E0063292C72696768742872295D0A09095BF8
:10FD9E00636F6E74656E743A63757272656E7428F5
:10FDAE0063292C696E74656772617465645F63752F
:10FDBE007272656E74286963292C696E7465677238
:10FDCE00617465645F74696D65286974295D0A09DB
:10FDDE00746F756368205B72657365742872292C65
:10FDEE00696E697469616C697A6528696E697429CE
:10FDFE005D205B76616C75652825295D0A000969B1
:10FE0E006E76616C696420646174610A09696E6959
:10FE1E007469616C697A696E67206661696C656484
:10FE2E000A0009696E697469616C697A696E672086
:10FE3E00636F6D706C6574650A00696E74656772C8
:10FE4E00617465645F63757272656E7400097365C3
:10FE5E0074696E6720636F6D706C6574650A00431C
:10FE6E0068617267652053746174696F6E20360025
:10FE7E00546F67676C65204175746F53746F703F74
:10FE8E0000496E746567726174205265736574659E
:10FE9E006400496E7465677261742052657365748F
:10FEAE003F00696E74656772617465645F74696D35
:10FEBE006500416C77617973204368617267696E82
:10FECE0067005374617274204368617267696E676C
:10FEDE00004E6F7468696E6720646F6E652E004DFC
:10FEEE00616465206279204B455249004175746FFB
:10FEFE002053746F70204F4E0043454E5445522090
:10FF0E00504F52540061646A7573745F74696D6505
:10FF1E000043656E74657220506F727400524947CB
:10FF2E00485420504F5254007072696E745F746959
:10FF3E006D6500696E697469616C697A65005269F4
:10FF4E0067687420506F7274004C45465420504FB1
:10FF5E005254006175746F5F73746F70004C6566F8
:10FF6E007420506F727400524553455428293B003B
:10FF7E00534C454550494E470073657474696E671E
:10FF8E007300096572726F720A00646973706C6136
:10FF9E00790063656E74657200746F7563680072C4
:10FFAE0065736574007269676874006D41680A0054
:10FFBE0068656C70006C65667400696E6974000823
:10FFCE002008006D4168000A0A00410A0020200046
:10FFDE002920006420006820006D20002028006980
:10FFEE00630061740009002D002F004D006C006D40
:02FFFE00000001
:020000040001F9
:10000000F2C0B6F0F3C0B7F0BE0E0001B86FFF0E3D
:100010000001B96F51ECA6F00009D8B40FD0F2C0BE
:10002000B6F0F3C0B7F08D0E0001B86FFE0E000100
:10003000B96F51ECA6F00009D8A409D0340E000124
:10004000C56FFC0E0001C66FC5ECABF000D0F2C06E
:10005000B6F0F3C0B7F0870E0001B86FFF0E0001D5
:10006000B96F51ECA6F00009D8B40FD0F2C0B6F0C9
:10007000F3C0B7F0AF0E0001B86FFF0E0001B96F0B
:1000800051ECA6F00009D8A40DD0F4C0B6F0F5C02C
:10009000B7F0610E0001B86FFF0E0001B96F51ECAF
:1000A000A6F000D0F2C0B6F0F3C0B7F0750E0001B4
:1000B000B86FFF0E0001B96F51ECA6F00009D8A48B
:1000C00002D0FF0000D0F2C0B6F0F3C0B7F0F00EDF
:1000D0000001B86FFF0E0001B96F51ECA6F00009E6
:1000E000D8B40FD0F2C0B6F0F3C0B7F0130E0001D1
:1000F000B86FFF0E0001B96F51ECA6F00009D8A44B
:10010000F7D0F4C0B6F0F5C0B7F09E0E0001B86F9E
:10011000FF0E0001B96F51ECA6F00009D8A419D068
:10012000AB0E0001ED6F000E0001EE6F000E00013E
:10013000EF6F630E0001F06FF6C0D2F0F7C0D3F09E
:10014000FAECA6F00001D2510001F16F31ECACF0F5
:1001500000D0F4C0B6F0F5C0B7F0F90E0001B86FEA
:10016000FF0E0001B96F51ECA6F00009D8A419D018
:10017000AA0E0001ED6F000E0001EE6F010E0001EE
:10018000EF6F0C0E0001F06FF6C0D2F0F7C0D3F0A5
:10019000FAECA6F00001D2510001F16F31ECACF0A5
:1001A00000D0F4C0B6F0F5C0B7F09E0E0001B86FF5
:1001B000FE0E0001B96F51ECA6F00009D8A420D0C2
:1001C000AAC0BCF00001AB51C9EC9EF00001FA6F6F
:1001D000A90E0001ED6F000E0001EE6F010E00018F
:1001E000EF6FFAC0F0F0F6C0D2F0F7C0D3F0FAEC3F
:1001F000A6F00001D2510001F16F31ECACF000D05B
:10020000F4C0B6F0F5C0B7F0D30E0001B86FFF0E22
:100210000001B96F51ECA6F00009D8A419D0A70EBF
:100220000001ED6F000E0001EE6F000E0001EF6F98
:10023000170E0001F06FF6C0D2F0F7C0D3F0FAEC61
:10024000A6F00001D2510001F16F31ECACF000D00A
:10025000F4C0B6F0F5C0B7F0FD0E0001B86FFF0EA8
:100260000001B96F51ECA6F00009D8A419D0A60E70
:100270000001ED6F000E0001EE6F000E0001EF6F48
:100280003B0E0001F06FF6C0D2F0F7C0D3F0FAECED
:10029000A6F00001D2510001F16F31ECACF000D0BA
:1002A000F4C0B6F0F5C0B7F08E0E0001B86FFF0EC7
:1002B0000001B96F51ECA6F00009D8A419D0A50E21
:1002C0000001ED6F000E0001EE6F000E0001EF6FF8
:1002D0003B0E0001F06FF6C0D2F0F7C0D3F0FAEC9D
:1002E000A6F00001D2510001F16F31ECACF000D06A
:1002F000F2C0B6F0F3C0B7F0A70E0001B86FFF0E62
:100300000001B96F51ECA6F00009D8A46FD0F4C079
:10031000B6F0F5C0B7F0410E0001B86FFF0E000156
:10032000B96F51ECA6F00009D8B40FD0F4C0B6F004
:10033000F5C0B7F0C80E0001B86FFF0E0001B96F2D
:1003400051ECA6F00009D8A426D0F6C0D2F0F7C030
:10035000D3F0FAECA6F00001D2510001FB6F650E5C
:100360000001FB610FD0FBC0FDF00001FD5174ECFA
:100370009DF0300E0001C56FFE0E0001C66FC5EC8A
:10038000ABF009D00C0E0001C56FFE0E0001C66F68
:10039000C5ECABF000D0F4C0B6F0F5C0B7F0AD0ED0
:1003A0000001B86FFF0E0001B96F51ECA6F0000913
:1003B000D8B40FD0F4C0B6F0F5C0B7F0A50E000168
:1003C000B86FFF0E0001B96F51ECA6F00009D8A478
:1003D0000DD00001FD5174EC9DF05B0E0001C56F66
:1003E000FE0E0001C66FC5ECABF000D0F2C0B6F057
:1003F000F3C0B7F0980E0001B86FFF0E0001B96F9F
:1004000051ECA6F00009D8B40FD0F2C0B6F0F3C09A
:10041000B7F09E0E0001B86FFE0E0001B96F51ECEF
:10042000A6F00009D8A4A7D1F4C0B6F0F5C0B7F083
:10043000C30E0001B86FFF0E0001B96F51ECA6F0BA
:100440000009D8B40FD0F4C0B6F0F5C0B7F0FB0E79
:100450000001B86FFF0E0001B96F51ECA6F0000962
:10046000D8A46FD0F6C0B6F0F7C0B7F0530E0001B5
:10047000B86FFE0E0001B96F51ECA6F00009D8B4B8
:100480000FD0F6C0B6F0F7C0B7F0EE0E0001B86FAF
:10049000FF0E0001B96F51ECA6F00009D8A407D0F7
:1004A000000E0001E16F000E9DEC86F000D0F6C05A
:1004B000B6F0F7C0B7F0480E0001B86FFE0E0001AD
:1004C000B96F51ECA6F00009D8B40FD0F6C0B6F061
:1004D000F7C0B7F0ED0E0001B86FFF0E0001B96F65
:1004E00051ECA6F00009D8A407D0000E0001E16F7E
:1004F000010E9DEC86F000D0F6C0B6F0F7C0B7F064
:10050000B00E0001B86FFE0E0001B96F51ECA6F0FD
:100510000009D8B40FD0F6C0B6F0F7C0B7F0CA0ED5
:100520000001B86FFF0E0001B96F51ECA6F0000991
:10053000D8A407D0000E0001E16F020E9DEC86F0FA
:1005400000D0F4C0B6F0F5C0B7F0A00E0001B86F4F
:10055000FF0E0001B96F51ECA6F00009D8B40FD01E
:10056000F4C0B6F0F5C0B7F0EE0E0001B86FFF0EA4
:100570000001B96F51ECA6F00009D8A46FD0F6C005
:10058000B6F0F7C0B7F0530E0001B86FFE0E0001D1
:10059000B96F51ECA6F00009D8B40FD0F6C0B6F090
:1005A000F7C0B7F0EE0E0001B86FFF0E0001B96F93
:1005B00051ECA6F00009D8A407D0010E0001E16FAC
:1005C000000E9DEC86F000D0F6C0B6F0F7C0B7F094
:1005D000480E0001B86FFE0E0001B96F51ECA6F095
:1005E0000009D8B40FD0F6C0B6F0F7C0B7F0ED0EE2
:1005F0000001B86FFF0E0001B96F51ECA6F00009C1
:10060000D8A407D0010E0001E16F010E9DEC86F029
:1006100000D0F6C0B6F0F7C0B7F0B00E0001B86F6A
:10062000FE0E0001B96F51ECA6F00009D8B40FD04E
:10063000F6C0B6F0F7C0B7F0CA0E0001B86FFF0EF3
:100640000001B96F51ECA6F00009D8A407D0010E43
:100650000001E16F020E9DEC86F000D0F4C0B6F010
:10066000F5C0B7F0B30E0001B86FFF0E0001B96F0F
:1006700051ECA6F00009D8B40FD0F4C0B6F0F5C024
:10068000B7F0A50E0001B86FFF0E0001B96F51EC75
:10069000A6F00009D8A46FD0F6C0B6F0F7C0B7F046
:1006A000530E0001B86FFE0E0001B96F51ECA6F0B9
:1006B0000009D8B40FD0F6C0B6F0F7C0B7F0EE0E10
:1006C0000001B86FFF0E0001B96F51ECA6F00009F0
:1006D000D8A407D0020E0001E16F000E9DEC86F059
:1006E00000D0F6C0B6F0F7C0B7F0480E0001B86F02
:1006F000FE0E0001B96F51ECA6F00009D8B40FD07E
:10070000F6C0B6F0F7C0B7F0ED0E0001B86FFF0EFF
:100710000001B96F51ECA6F00009D8A407D0020E71
:100720000001E16F010E9DEC86F000D0F6C0B6F03E
:10073000F7C0B7F0B00E0001B86FFE0E0001B96F40
:1007400051ECA6F00009D8B40FD0F6C0B6F0F7C04F
:10075000B7F0CA0E0001B86FFF0E0001B96F51EC7F
:10076000A6F00009D8A407D0020E0001E16F020E26
:100770009DEC86F000D0F2C0B6F0F3C0B7F0360EB4
:100780000001B86FFF0E0001B96F51ECA6F000092F
:10079000D8B40FD0F2C0B6F0F3C0B7F0F10E00013C
:1007A000B86FFF0E0001B96F51ECA6F00009D8A494
:1007B0001200DFEC98F012001200EDECB1F095D2CF
:1007C000000E0001BC6F000ECBECB0F06D0E00010E
:1007D000BA6FFE0E0001BB6F73ECA9F0010E0001B1
:1007E000BC6F000ECBECB0F0ED0E0001BA6FFE0E48
:1007F0000001BB6F73ECA9F01200A50E0001ED6FB4
:10080000000E0001EE6FB00E0001EF6F000E000150
:10081000F06FD5EC95F01200EDECA0F0010E0001A8
:10082000BC6F000ECBECB0F0D00E0001BA6FFE0E24
:100830000001BB6F73ECA9F01200EDECA0F0010E0B
:100840000001BC6F000ECBECB0F0270E0001B96FB9
:10085000100EB86F2050020D6C0EF324D96E000EEE
:10086000F420DA6EDECFB6F0DDCFB7F0FBECABF004
:10087000B6C0D2F0B7C0D3F0030E0001D56FE80EBA
:10088000D46F91ECAAF00001D251300F7EECAFF0A2
:100890002E0E7EECAFF0030E0001B96FE80EB86FBC
:1008A0002050020D6C0EF324D96E000EF420DA6E87
:1008B000DECFB6F0DDCFB7F0FBECABF0B6C0D2F0D8
:1008C000B7C0D3F0000E0001D56F640ED46F91EC69
:1008D000AAF00001D251300F7EECAFF0000E000103
:1008E000B96F640EB86F2050020D6C0EF324D96EF0
:1008F000000EF420DA6EDECFB6F0DDCFB7F0FBEC01
:10090000ABF0B6C0D2F0B7C0D3F0000E0001D56F87
:100910000A0ED46F91ECAAF00001D251300F7EEC98
:10092000AFF02050020D6C0EF324D96E000EF420AF
:10093000DA6EDECFB6F0DDCFB7F0000E0001B96F92
:100940000A0EB86FFBECABF00001B651300F7EEC35
:10095000AFF0410E7EECAFF01200EDECA0F0010E16
:100960000001BC6F000ECBECB0F0000E0001D96F9F
:10097000010E0001DA6F2050040DCA0EF324D96E67
:10098000020EF420DA6EDECFDBF0DDCFDCF0050EF8
:100990000001DD6F05ECAAF0000E0001BA6F010E38
:1009A0000001BB6F73ECA9F0D10E0001BA6FFF0E0E
:1009B0000001BB6F73ECA9F01200EDECA0F0010E8A
:1009C0000001BC6F000ECBECB0F0100E0001BA6F4E
:1009D0000E0EBB6F000EBC6F000EBD6F2050040DDD
:1009E000600EF324D96E000EF420DA6EDECFB6F07E
:1009F000DECFB7F0DECFB8F0DECFB9F05BECA3F01E
:100A0000B6C00AF1B7C00BF1B8C00CF1B9C00DF116
:100A1000000E0001D96F010E0001DA6F0AC1B6F0B5
:100A20000BC1B7F00CC1B8F00DC1B9F0180E000140
:100A3000BA6F000EBB6F000EBC6F000EBD6F5BEC9B
:100A4000A3F0B6C0DBF0B7C0DCF0020E0001DD6F32
:100A500005ECAAF0000E0001BA6F010E0001BB6F99
:100A600073ECA9F0E10E0001BA6FFF0E0001BB6F3D
:100A700073ECA9F0000E0001D96F010E0001DA6FCE
:100A8000100E0001BA6F0E0EBB6F000EBC6F000E91
:100A9000BD6F2050040D600EF324D96E000EF420BB
:100AA000DA6EDECFB6F0DECFB7F0DECFB8F0DECF55
:100AB000B9F05BECA3F0B6C0C3F0B7C0C4F0B8C0E7
:100AC000C5F0B9C0C6F0180E0001C76F000EC86FA0
:100AD000000EC96F000ECA6F4CECA7F0C3C0DBF06C
:100AE000C4C0DCF0020E0001DD6F05ECAAF0000EC0
:100AF0000001BA6F010E0001BB6F73ECA9F0E40EA8
:100B00000001BA6FFF0E0001BB6F73ECA9F0000E7D
:100B10000001D96F010E0001DA6F3C0E0001BA6FBF
:100B2000000EBB6F000EBC6F000EBD6F2050040D99
:100B3000600EF324D96E000EF420DA6EDECFB6F02C
:100B4000DECFB7F0DECFB8F0DECFB9F05BECA3F0CC
:100B5000B6C0C3F0B7C0C4F0B8C0C5F0B9C0C6F0E5
:100B60003C0E0001C76F000EC86F000EC96F000E6B
:100B7000CA6F4CECA7F0C3C0DBF0C4C0DCF0020EBF
:100B80000001DD6F05ECAAF0000E0001BA6F010E46
:100B90000001BB6F73ECA9F0E70E0001BA6FFF0E06
:100BA0000001BB6F73ECA9F0000E0001D96F010EBC
:100BB0000001DA6F2050040D600EF324D96E000E90
:100BC000F420DA6EDECFC3F0DECFC4F0DECFC5F0A6
:100BD000DECFC6F03C0E0001C76F000EC86F000EDE
:100BE000C96F000ECA6F4CECA7F0C3C0DBF0C4C0E5
:100BF000DCF0020E0001DD6F05ECAAF0000E000132
:100C0000BA6F010E0001BB6F73ECA9F08E0E0001EC
:100C1000BA6FFF0E0001BB6F73ECA9F01200EDEC90
:100C2000A0F0010E0001BC6F000ECBECB0F0A00EE6
:100C30000001BA6FFE0E0001BB6F73ECA9F0120049
:100C4000EDECA0F0010E0001BC6F000ECBECB0F09B
:100C50008F0E0001BA6FFE0E0001BB6F73ECA9F09E
:100C60001200EDECA0F0010E0001BC6F000ECBEC09
:100C7000B0F07E0E0001BA6FFE0E0001BB6F73EC88
:100C8000A9F01200EDECA0F0010E0001BC6F000E07
:100C9000CBECB0F0C00E0001BA6FFE0E0001BB6FCE
:100CA00073ECA9F01200EDECA0F0010E0001BC6F96
:100CB000000ECBECB0F0FA0E0001BA6FFE0E000190
:100CC000BB6F73ECA9F000D0EDECA0F0010E0001B9
:100CD000BC6F000ECBECB0F0DF0E0001BA6FFE0E61
:100CE0000001BB6F73ECA9F012000001A151000AD2
:100CF000D8B466D5010AD8B480D5030AD8B48CD547
:100D0000010AD8B49AD5070AD8B427D6010AD8B4AC
:100D100054D6030AD8B483D7010AD8B491D70F0A9E
:100D2000D8B49FD7010AD8B4ADD7030AD8B4BBD77B
:100D3000010AD8A41200C8D712000001F06FF2D146
:100D4000F30E0001C56FFF0E0001C66FC5ECABF0DE
:100D5000270E0001B96F100EB86F0001E151020DAE
:100D60006C0EF324D96E000EF420DA6EDECFB6F0EE
:100D7000DDCFB7F0FBECABF0B6C0D2F0B7C0D3F02C
:100D8000030E0001D56FE80ED46F91ECAAF00001BC
:100D9000D251300FD1ECB1F02E0ED1ECB1F0030EE8
:100DA0000001B96FE80EB86F0001E151020D6C0E41
:100DB000F324D96E000EF420DA6EDECFB6F0DDCF6C
:100DC000B7F0FBECABF0B6C0D2F0B7C0D3F0000E7A
:100DD0000001D56F640ED46F91ECAAF00001D251DE
:100DE000300FD1ECB1F0000E0001B96F640EB86F96
:100DF0000001E151020D6C0EF324D96E000EF420B7
:100E0000DA6EDECFB6F0DDCFB7F0FBECABF0B6C0FC
:100E1000D2F0B7C0D3F0000E0001D56F0A0ED46F28
:100E200091ECAAF00001D251300FD1ECB1F00001E9
:100E3000E151020D6C0EF324D96E000EF420DA6E2F
:100E4000DECFB6F0DDCFB7F0000E0001B96F0A0EAD
:100E5000B86FFBECABF00001B651300FD1ECB1F044
:100E6000D80E0001C56FFF0E0001C66FC5ECABF0D8
:100E70001200F30E0001C56FFF0E0001C66FC5EC36
:100E8000ABF00001E151040DCA0EF324D96E020E3D
:100E9000F420DA6EDECFD9F0DDCFDAF0050E0001F6
:100EA000DB6F13ECABF0B90E0001C56FFF0E000154
:100EB000C66FC5ECABF01200F30E0001C56FFF0E5C
:100EC0000001C66FC5ECABF0100E0001BA6F0E0E3C
:100ED000BB6F000EBC6F000EBD6F0001E151040D31
:100EE000600EF324D96E000EF420DA6EDECFB6F079
:100EF000DECFB7F0DECFB8F0DECFB9F05BECA3F019
:100F0000B6C0ECF0B7C0EDF0B8C0EEF0B9C0EFF08D
:100F1000E20E0001D96F000E0001DA6FECC0B6F0EE
:100F2000EDC0B7F0EEC0B8F0EFC0B9F0180E000198
:100F3000BA6F000EBB6F000EBC6F000EBD6F5BEC96
:100F4000A3F0B6C0DBF0B7C0DCF0020E0001DD6F2D
:100F500005ECAAF0E20E0001C56F000E0001C66F9D
:100F6000C5ECABF0E10E0001C56FFF0E0001C66FCE
:100F7000C5ECABF0E20E0001D96F000E0001DA6F94
:100F8000100E0001BA6F0E0EBB6F000EBC6F000E8C
:100F9000BD6F0001E151040D600EF324D96E000E07
:100FA000F420DA6EDECFB6F0DECFB7F0DECFB8F0E9
:100FB000DECFB9F05BECA3F0B6C0C3F0B7C0C4F0AD
:100FC000B8C0C5F0B9C0C6F0180E0001C76F000E5A
:100FD000C86F000EC96F000ECA6F4CECA7F0C3C0FB
:100FE000DBF0C4C0DCF0020E0001DD6F05ECAAF0FE
:100FF000E20E0001C56F000E0001C66FC5ECABF03C
:10100000E40E0001C56FFF0E0001C66FC5ECABF02A
:10101000E20E0001D96F000E0001DA6F3C0E0001F4
:10102000BA6F000EBB6F000EBC6F000EBD6F0001EB
:10103000E151040D600EF324D96E000EF420DA6E37
:10104000DECFB6F0DECFB7F0DECFB8F0DECFB9F04E
:101050005BECA3F0B6C0C3F0B7C0C4F0B8C0C5F035
:10106000B9C0C6F03C0E0001C76F000EC86F000E7D
:10107000C96F000ECA6F4CECA7F0C3C0DBF0C4C050
:10108000DCF0020E0001DD6F05ECAAF0E20E0001BB
:10109000C56F000E0001C66FC5ECABF0E70E000196
:1010A000C56FFF0E0001C66FC5ECABF0E20E00018C
:1010B000D96F000E0001DA6F0001E151040D600EDE
:1010C000F324D96E000EF420DA6EDECFC3F0DECF4B
:1010D000C4F0DECFC5F0DECFC6F03C0E0001C76F16
:1010E000000EC86F000EC96F000ECA6F4CECA7F05F
:1010F000C3C0DBF0C4C0DCF0020E0001DD6F05EC04
:10110000AAF0E20E0001C56F000E0001C66FC5EC2B
:10111000ABF08E0E0001C56FFF0E0001C66FC5EC6F
:10112000ABF012000001F051000AD8B409D6010A50
:10113000D8B49FD6030AD8A41200BED61200000E5F
:101140000001BA6F020E0001BA6502D0120012004F
:101150000001BA51040D030EF326000EF422E10E35
:10116000F324D96E010EF420DA6E0101DFA008D05D
:10117000010E0001B66F0001BA5196ECAEF000D03E
:101180000001BA51040D020EF326000EF422E10E06
:10119000F324D96E010EF420DA6E0101DFA06CD0C9
:1011A0000001BA51040D020EF326000EF422E10EE6
:1011B000F324D96E010EF420DA6E000EDE6E000EFE
:1011C000DD6E0001BA512018D8B40DD017D00BD065
:1011D000040E03D0050E01D003D00001A16F11D081
:1011E000030EFBD70ED00001A151030AD8B4F0D7EB
:1011F000070AD8B4EFD7010AF3D703D0BAC020F05A
:1012000000D00001BA51010DD60EF324D96E010EA3
:10121000F420DA6EDF50D8A417D0020E0001A16FBF
:10122000030E0001A06F280E0001B66F000E000132
:10123000B76F000E0001B96F200EB86F5DECB1F012
:10124000010E00019D6F00D0010E0001B66F00017C
:10125000BA5161ECACF00001BA51020DD00EF3248A
:10126000D96E010EF420DA6E000EDE6E000EDD6E19
:10127000010E00019D6F00D00001BA51040D030E54
:10128000F326000EF422E10EF324D96E010EF420B1
:10129000DA6E0101DFA417D00001BA51040D020E6D
:1012A000F326000EF422E10EF324D96E010EF42091
:1012B000DA6E000EDE6E000EDD6E060E0001A16F0E
:1012C000010E00019D6F0001BA51040D020EF326BC
:1012D000000EF422E10EF324D96E010EF420DA6E32
:1012E0000101DFA44FD00001BA51040D020EF32614
:1012F000000EF422E10EF324D96E010EF420DA6E12
:10130000000EDE6E000EDD6E0001BA51040DCA0E35
:10131000F324D96E020EF420DA6EDE6ADE6ADE6A2B
:10132000DD6A0001BA51040DD60EF324D96E020E07
:10133000F420DA6EDE6ADE6ADE6ADD6A0001BA5126
:10134000040D600EF324D96E000EF420DA6EDE6A0E
:10135000DE6ADE6ADD6A070E0001A16F040E00017D
:10136000A06F280E0001B66F000E0001B76F000ECF
:101370000001B96F400EB86F5DECB1F0010E0001D5
:101380009D6F00D00001BA51040D030EF326000E2C
:10139000F422E10EF324D96E010EF420DA6E01017D
:1013A000DFA617D00001BA51040D020EF326000E7D
:1013B000F422E10EF324D96E010EF420DA6E000E51
:1013C000DE6E000EDD6E080E0001A16F010E000141
:1013D0009D6F0001BA51040D020EF326000EF42297
:1013E000E10EF324D96E010EF420DA6E0101DFA6BE
:1013F00065D00001BA51040D020EF326000EF4224E
:10140000E10EF324D96E010EF420DA6E000EDE6ECA
:10141000000EDD6E0001BA51010D780EF324D96E75
:10142000000EF420DA6EDF50D8B426D00001BA5195
:10143000010D780EF324D96E000EF420DA6E000E42
:10144000DF6E010E0001B66F0001BA5161ECACF025
:10145000090E0001A16F010E0001A06F280E00010E
:10146000B66F000E0001B76F000E0001B96F640E79
:10147000B86F5DECB1F01ED00001BA51010D780ECD
:10148000F324D96E000EF420DA6E010EDF6E0A0E20
:101490000001A16F010E0001A06F280E0001B66FC0
:1014A000000E0001B76F000E0001B96F640EB86F37
:1014B0005DECB1F0010E00019D6F00D00001BA514A
:1014C000040D030EF326000EF422E10EF324D96E70
:1014D000010EF420DA6E0101DFA828D00001BA5114
:1014E000040D020EF326000EF422E10EF324D96E51
:1014F000010EF420DA6E000EDE6E000EDD6E0B0EB5
:101500000001A16F030E0001A06F280E0001B66F4D
:10151000000E0001B76F000E0001B96F400EB86FEA
:101520005DECB1F0010E00019D6F00D00001BA2BFF
:10153000020E0001BA650CD6120012000101FF5123
:101540000101D8B417D0000E0101FF6FF50E0001A4
:10155000B66F010E0001B76F020E0001B86F010EE9
:101560000001B96F000E0001BB6F640EBA6FA3ECEF
:10157000ADF000D0F10E0001B66F020E0001B76FA2
:1015800085EC9CF00001B6510001B711D8B41200EF
:10159000F10E0001BE6F020E0001BF6F28ECA2F039
:1015A0000301EE6F5AD1F50E0001BE6F010E00016E
:1015B000BF6F000E0001C06F82ECA0F0090ED1ECED
:1015C000B1F0F50E0001B66F010E0001B76F85ECAA
:1015D0009CF0FF0E0001B6250201C86FFF0E00014E
:1015E000B7210201C96FC8C2D9F0C9C2DAF0020E30
:1015F0000001DB6F13ECABF0D50E0001C56FFF0EE1
:101600000001C66FC5ECABF0000E0301EF6F03D015
:101610000301EF2B00D0F50E0001BE6F010E00019B
:10162000BF6F28ECA2F00101006F0301EF51010D23
:10163000660EF324D96E010EF420DA6E00C1DFFFCE
:10164000DF50D8A4E5D70301EF51010D660EF32456
:10165000D96E010EF420DA6E000EDF6E000E03016B
:10166000EF6F03D00301EF2B00D0F50E0001BE6F2A
:10167000010E0001BF6F28ECA2F00101006F030111
:10168000EF51010D640EF324D96E020EF420DA6ED0
:1016900000C1DFFFDF50D8A4E5D70301EF51010DF2
:1016A000640EF324D96E020EF420DA6E000EDF6EA3
:1016B000000E0301EF6F03D00301EF2B00D0F50EF6
:1016C0000001BE6F010E0001BF6F28ECA2F0010106
:1016D000006F0301EF51010D8A0EF324D96E030E42
:1016E000F420DA6E00C1DFFFDF50D8A4E5D7030194
:1016F000EF51010D8A0EF324D96E030EF420DA6E39
:10170000000EDF6E000E0301EF6F03D00301EF2B1D
:1017100000D0F50E0001BE6F010E0001BF6F28EC76
:10172000A2F00101006F0301EF51010D000EF3243F
:10173000D96E020EF420DA6E00C1DFFFDF50D8A4AC
:10174000E5D70301EF51010D000EF324D96E020E0F
:10175000F420DA6E000EDF6E660E0001F26F010EED
:101760000001F36F640E0001F46F020E0001F56FCB
:101770008A0E0001F66F030E0001F76F000E0001E4
:10178000F86F020E0001F96F00EC80F01200F50E08
:101790000001BE6F010E0001BF6F000E0001C06F9F
:1017A00082ECA0F0200ED1ECB1F01200F50E000199
:1017B000BE6F010E0001BF6FBDECA9F0CD0E0001A0
:1017C000C56FFF0E0001C66FC5ECABF01200000E36
:1017D0000001FC6F0BD0CD0E0001C56FFF0E0001A4
:1017E000C66FC5ECABF00001FC2B00D0F50E00017C
:1017F000B66F010E0001B76F85EC9CF00001FC5143
:101800000101006F016B0001B6510101005D000193
:10181000B75101010159D8A0DED7F50E0001B66F0E
:10182000010E0001B76F4AECB1F012001F0E030168
:10183000EE6512007F0E0301EE611200F50E00014D
:10184000BE6F010E0001BF6FEEC3C0F082ECA0F0CE
:101850000301EE51D1ECB1F012000301EE51080A80
:10186000D8B4A4D7050AD8B49ED62D0AD8B48FD739
:101870005F0AD8B4ACD7DAD7120012000001DB51EE
:101880000001D8B4A8D0D9C0D9FFDAC0DAFF840EDD
:10189000DE180DE1030EDE18D8A409D0000120EEF9
:1018A00003F0D951D926DA51DA220001DF8ED9C0EE
:1018B000D9FFDAC0DAFFBC0EDE180DE1020EDE1829
:1018C000D8A409D0000120EE03F0D951D926DA516D
:1018D000DA220001DF8CD9C0D9FFDAC0DAFFF40EBA
:1018E000DE180CE1DE04D8A409D0000120EE03F0DC
:1018F000D951D926DA51DA220001DF8AD9C0D9FFBD
:10190000DAC0DAFF2C0EDE180CE1DE04D8A409D010
:10191000000120EE03F0D951D926DA51DA22000174
:10192000DF88D9C0D9FFDAC0DAFF960EDE18DE10E4
:10193000D8A409D0000120EE03F0D951D926DA51FC
:10194000DA220001DF86D9C0D9FFDAC0DAFF3C0E07
:10195000DE18DE10D8A409D0000120EE03F0D95122
:10196000D926DA51DA220001DF84D9C0D9FFDAC0E2
:10197000DAFF100EDE18DE10D8A409D0000120EE28
:1019800003F0D951D926DA51DA220001DF82D9C019
:10199000D9FFDAC0DAFF020EDE18DE10D8A409D0B3
:1019A000000120EE03F0D951D926DA51DA220001E4
:1019B000DF80D9C0D9FFDAC0DAFF850EDE5C030E06
:1019C000DE58D8B01200D9C0D9FFDAC0DAFFDE2A5B
:1019D000000EDD221200D9C0D9FFDAC0DAFF840E72
:1019E000DE5C030EDE58D8A00AD0000120EE02F023
:1019F000D951D926DA51DA220001DF8E90D0D9C030
:101A0000D9FFDAC0DAFFBC0EDE5C020EDE58D8A0C9
:101A10000AD0000120EE02F0D951D926DA51DA229B
:101A20000001DF8C7CD0D9C0D9FFDAC0DAFFF40E18
:101A3000DE5C010EDE58D8A00AD0000120EE02F0D4
:101A4000D951D926DA51DA220001DF8A68D0D9C00B
:101A5000D9FFDAC0DAFF2C0EDE5C010EDE58D8A00A
:101A60000AD0000120EE02F0D951D926DA51DA224B
:101A70000001DF8854D0D9C0D9FFDAC0DAFF010EE7
:101A8000DB5004E1960EDE5CD8A00AD0000120EE07
:101A900002F0D951D926DA51DA220001DF863FD08F
:101AA000D9C0D9FFDAC0DAFF010EDB5004E13C0EE9
:101AB000DE5CD8A00AD0000120EE02F0D951D92670
:101AC000DA51DA220001DF842AD0D9C0D9FFDAC086
:101AD000DAFF010EDB5004E1100EDE5CD8A00AD064
:101AE000000120EE02F0D951D926DA51DA220001A4
:101AF000DF8215D0D9C0D9FFDAC0DAFF010EDB5082
:101B000004E1020EDE5CD8A00AD0000120EE02F053
:101B1000D951D926DA51DA220001DF8000D0D9C0AC
:101B2000D9FFDAC0DAFF000EDE6E000EDD6E0001B6
:101B300020EE02F0D951D926DA51DA22FF0EDE1654
:101B4000000EDD16120012000D013205D8A411D0CE
:101B50000D0130511F0B0009D8A40BD0258E030EA8
:101B60000D013119D8A402D0010E01D0000E166E5D
:101B700000D00D013251D8A412000D0130511F0BBD
:101B8000020AD8A412000D0134510F0B0009D8B479
:101B900012000D0134510F0B416E030E4160120013
:101BA000200E1A18D8A41200258E0D0134BF1BD0A8
:101BB0000D0134510F0B416E4150020D720EF32492
:101BC000D96E000EF420DA6EDECF45F0DDCF46F0A0
:101BD0000D0134510F0B416E4150010D7E0EF32467
:101BE000D96E000E1AD00D0134510F0B416E4150C9
:101BF000020D0A0EF324D96E000EF420DA6EDECF49
:101C000045F0DDCF46F00D0134510F0B416E4150D0
:101C1000010D7B0EF324D96E000EF420DA6EDF5036
:101C2000446E00D044B002D0459402D0458400D028
:101C30000D0134BF0BD00D0134510F0B416E4150DB
:101C4000020D720EF324D96E000E0AD00D0134512C
:101C50000F0B416E4150020D0A0EF324D96E000E97
:101C6000F420DA6E45C0DEFF46C0DDFF00D0030E73
:101C70000D013119D8A430D045C0D9FF46C0DAFFD4
:101C8000DFAE1DD00D0134BF0BD00D0134510F0B51
:101C9000416E4150010D7E0EF324D96E000E0AD024
:101CA0000D0134510F0B416E4150010D7B0EF32499
:101CB000D96E000EF420DA6E0001DF8200D045C03C
:101CC000D9FF46C0DAFF000EDB8445C0D9FF46C00D
:101CD000DAFF000EDB8E1200040E451A45C0D9FF54
:101CE00046C0DAFFDFAE1BD045C0D9FF46C0DAFFE1
:101CF0007F0EDF1645C0D9FF46C0DAFF000EDB8C31
:101D0000000E3A6E050E396E45C03BF046C03CF001
:101D1000000E3E6E020E3D6E85ECB0F007D045C061
:101D2000D9FF46C0DAFF000EDB8C00D0040E451A46
:101D300044B206D045C0D9FF46C0DAFFDFAE32D08C
:101D40000D0134BF0BD00D0134510F0B416E4150CA
:101D5000010D7E0EF324D96E000E0AD00D01345110
:101D60000F0B416E4150010D7B0EF324D96E000E16
:101D7000F420DA6E0001DF9200D045C0D9FF46C0E2
:101D8000DAFF3B0EDF16000E3A6E050E396E45C0C7
:101D90003BF046C03CF0000E3E6E020E3D6E85EC00
:101DA000B0F007D045C0D9FF46C0DAFF3B0EDF16C2
:101DB00000D00D0134510F0B416E4150010D260E24
:101DC000F324426E0F0EF420436E42C0D9FF43C08D
:101DD000DAFFFE0EDF1612001200000E0001D96FAE
:101DE000000EDA6F000EDB6F000EDC6F000E0001DC
:101DF000D76F38D0010E0001DD6F0C0E0001DD65DC
:101E000001D02DD0DDC0BCF00001D751C9EC9EF04F
:101E10000001D36F0001D3510001C36FC46BC56BC8
:101E2000C66B800E0001C76F510EC86F010EC96FDF
:101E3000000ECA6F50ECABF00001C3510001D9276E
:101E40000001C4510001DA230001C5510001DB2368
:101E50000001C6510001DC230001DD2BCED70001BB
:101E6000D72B00D0000120EE06F0CF51D926D0515B
:101E7000DA22DE500001D75DD8A0BCD7010E0001E8
:101E8000D86F33D0D8C0BCF0000120EE06F0CF519F
:101E9000D926D051DA22DF50C9EC9EF00001D36F71
:101EA0000001D3510001C36FC46BC56BC66B800EBC
:101EB0000001C76F510EC86F010EC96F000ECA6FC7
:101EC00050ECABF00001C3510001D9270001C4510F
:101ED0000001DA230001C5510001DB230001C651D6
:101EE0000001DC230001D82B00D0000120EE05F01A
:101EF000CF51D926D051DA22DE500001D85DD8A0CA
:101F0000C1D7FF0E0001D36FFF0E0001D46F000197
:101F100020EE04F0CF51D926D051DA22DF50000153
:101F2000D56FD66B0001D3510001D5270001D451E4
:101F30000001D623D5C0C3F0D6C0C4F00001000E06
:101F4000C4BFFF0EC56FC66F800E0001C76F510E74
:101F5000C86F010EC96F000ECA6F50ECABF00001E4
:101F6000C3510001D9270001C4510001DA23000147
:101F7000C5510001DB230001C6510001DC23000133
:101F800020EE02F0CF51D926D051DA22DF500001E5
:101F9000D36F0001D3510001C36FC46BC56BC66B17
:101FA000100E0001C76F0E0EC86F000EC96F000E35
:101FB000CA6F50ECABF00001C3510001D9270001FA
:101FC000C4510001DA230001C5510001DB230001E7
:101FD000C6510001DC23000120EE01F0CF51D926CB
:101FE000D051DA22DF500001D36F0001D35100013C
:101FF000C36FC46BC56BC66B3C0E0001C76F000E90
:10200000C86F000EC96F000ECA6F50ECABF0000134
:10201000C3510001D9270001C4510001DA23000196
:10202000C5510001DB230001C6510001DC23CFC0F4
:10203000D9FFD0C0DAFFDF500001D36F0001D351C8
:102040000001D927000EDA23DB23DC23D1C0D9FF1E
:10205000D2C0DAFFD9C0DEFFDAC0DEFFDBC0DEFFB0
:10206000DCC0DEFF1200EBC0DEF0ECC0DFF0EDC044
:10207000E0F0EEC0E1F080ECB1F000019EA10AD0EA
:10208000EDC0D9FFEEC0DAFFDE06000EDE5ADE5AE2
:10209000DE5A00D000019EA30BD03C0EEDC0D9FF4C
:1020A000EEC0DAFFDE5E000EDE5ADE5ADE5A00D0E7
:1020B00000019EA50DD0EDC0D9FFEEC0DAFF100ED5
:1020C000DE5E0E0EDE5A000EDE5A000EDE5A00D024
:1020D00000019EA70DD0EDC0D9FFEEC0DAFF800E43
:1020E000DE5E510EDE5A010EDE5A000EDE5A00D0C0
:1020F00000019EA939D0000120EE05F0EB51D92650
:10210000EC51DA22DF500001BC6F000120EE06F036
:10211000EB51D926EC51DA22DF50C9EC9EF00001D8
:10212000EF6F0001EF510001C36FC46BC56BC66B4D
:10213000800E0001C76F510EC86F010EC96F000EEF
:10214000CA6F50ECABF0EDC0D9FFEEC0DAFF000172
:10215000C351DE5E0001C451DE5A0001C551DE5A92
:102160000001C651DE5A00D000019EAB8DD00001A7
:1021700020EE05F0EB51D926EC51DA22DF500001B8
:10218000F46F0001F4510001D8B435D001D033D040
:10219000F4C0BCF0000120EE06F0EB51D926EC5162
:1021A000DA22DF50C9EC9EF00001EF6F0001EF5121
:1021B0000001C36FC46BC56BC66B800E0001C76F97
:1021C000510EC86F010EC96F000ECA6F50ECABF014
:1021D000EDC0D9FFEEC0DAFF0001C351DE5E0001A1
:1021E000C451DE5A0001C551DE5A0001C651DE5A03
:1021F0000001F407C6D70C0E0001F36F37D0F3C00F
:10220000BCF0000120EE06F0EB51D926EC51DA22A9
:10221000DF500001EF6F0001EF05C9EC9EF00001F7
:10222000F06F0001F0510001C36FC46BC56BC66B4A
:10223000800E0001C76F510EC86F010EC96F000EEE
:10224000CA6F50ECABF0EDC0D9FFEEC0DAFF000171
:10225000C351DE5E0001C451DE5A0001C551DE5A91
:102260000001C651DE5A0001F30700D0000120EE44
:1022700005F0EB51D926EC51DA220001F351DE5C76
:10228000D8B002D0BCD700D0EDC0D9FFEEC0DAFF85
:10229000800EDE5C130EDE58190EDE58BC0EDE58C2
:1022A000D8A00DD0EDC0D9FFEEC0DAFF800EDE263B
:1022B000130EDE22190EDE22BC0EDE2200D0A50E89
:1022C0000001E76F000E0001E86FB00E0001E96F3A
:1022D000000E0001EA6F6FECB1F0010E0001A36F78
:1022E0001200EBC0DEF0ECC0DFF0EDC0E0F0EEC0BD
:1022F000E1F080ECB1F000019EA10AD0EDC0D9FF61
:10230000EEC0DAFFDE2A000EDE22DE22DE2200D060
:1023100000019EA30BD03C0EEDC0D9FFEEC0DAFF4A
:10232000DE26000EDE22DE22DE2200D000019EA587
:102330000DD0EDC0D9FFEEC0DAFF100EDE260E0E76
:10234000DE22000EDE22000EDE2200D000019EA75B
:102350000DD0EDC0D9FFEEC0DAFF800EDE26510EA3
:10236000DE22010EDE22000EDE2200D000019EA938
:1023700039D0000120EE05F0EB51D926EC51DA22DC
:10238000DF500001BC6F000120EE06F0EB51D926B2
:10239000EC51DA22DF50C9EC9EF00001EF6F000132
:1023A000EF510001C36FC46BC56BC66B800E00019B
:1023B000C76F510EC86F010EC96F000ECA6F50EC87
:1023C000ABF0EDC0D9FFEEC0DAFF0001C351DE264D
:1023D0000001C451DE220001C551DE220001C651B8
:1023E000DE2200D000019EAB8BD0000120EE05F074
:1023F000EB51D926EC51DA22DF500001F46F0C0EBC
:102400000001F46501D033D0F4C0BCF0000120EE2F
:1024100006F0EB51D926EC51DA22DF50C9EC9EF0E0
:102420000001EF6F0001EF510001C36FC46BC56B7A
:10243000C66B800E0001C76F510EC86F010EC96FC9
:10244000000ECA6F50ECABF0EDC0D9FFEEC0DAFF62
:102450000001C351DE260001C451DE220001C55136
:10246000DE220001C651DE220001F42BC8D7010E86
:102470000001F36F37D0F3C0BCF0000120EE06F08E
:10248000EB51D926EC51DA22DF500001EF6F000149
:10249000EF29C9EC9EF00001F06F0001F05100013E
:1024A000C36FC46BC56BC66B800E0001C76F510E46
:1024B000C86F010EC96F000ECA6F50ECABF0EDC0D3
:1024C000D9FFEEC0DAFF0001C351DE260001C4517E
:1024D000DE220001C551DE220001C651DE220001CC
:1024E000F32B00D0000120EE05F0EB51D926EC5182
:1024F000DA22DE500001F35DD8B002D0BCD700D0A4
:10250000EDC0D9FFEEC0DAFF800EDE5C130EDE58A0
:10251000190EDE58BC0EDE58D8A00DD0EDC0D9FF84
:10252000EEC0DAFF800EDE5E130EDE5A190EDE5AA2
:10253000BC0EDE5A00D0A50E0001E76F000E0001B0
:10254000E86FB00E0001E96F000E0001EA6F6FEC5A
:10255000B1F0010E0001A36F1200000E0001E16F47
:10256000010E0001E26FD9C0D9FFDAC0DAFFDECF79
:10257000E3F0DECFE4F0DECFE5F0DECFE6F0E30E11
:102580000001CF6F000E0001D06F3C0E0001D16F33
:1025900017ECA0F00001CF51D7C0D9FFD8C0DAFFA7
:1025A000DF6EE30E0001CF6F000E0001D06F3C0E16
:1025B0000001D16F17ECA0F0000120EE01F0D7511F
:1025C000D926D851DA220001CFC0DFFFE30E000187
:1025D000CF6F000E0001D06F180E0001D16F17EC05
:1025E000A0F0000120EE02F0D751D926D851DA220E
:1025F0000001CFC0DFFFE3C0DFF0E4C0E0F0DFC0E8
:10260000DDF0E0C0DEF0060E0001E327000EE4235B
:10261000E523E623E30E0001CF6F000E0001D06F2B
:10262000070E0001D16F17ECA0F0000120EE03F0BF
:10263000D751D926D851DA220001CFC0DFFF41D0CF
:102640008A84E2C0BCF00001E151C9EC9EF00001B7
:10265000DB6FDC6B0001DB1FDC1FDB4BDC2B0001C5
:10266000DF510001DB250001DF6F0001E0510001B7
:10267000DC210001E06F0C0E0001E219D8A419D092
:10268000010E0001E26F0001E12B630E0001E16524
:1026900013D0D9C0D9FFDAC0DAFF800EDE5E130E88
:1026A000DE5A190EDE5ABC0EDE5A000E0001E16F32
:1026B00003D00001E22B00D0E2C0FEF0E1C0A4F0A4
:1026C00000D0E2C0BCF00001E151C9EC9EF0000175
:1026D000DB6F0001DB510001DF5D000EE059D8B077
:1026E000AFD7DFC0DBF0E0C0DCF00001DB1FDC1F98
:1026F000DB4BDC2B0001DD510001DB250101DF6F2D
:102700000001DE510001DC210101E06F0001DF4B1F
:10271000E02B000120EE06F0D751D926D851DA225D
:10272000E1C0DFFF000120EE05F0D751D926D851D6
:10273000DA22E2C0DFFF000120EE04F0D751D926F3
:10274000D851DA22DFC0DFFF1200A09800018B51C0
:1027500000018C11D8B413D08BC0D9FF8CC0DAFF24
:102760000001DFAE04D00001BD6BBD2B02D0000123
:10277000BD6B0001BD510001BE6FBF6B06D0000EE6
:102780000001BF6F000EBE6F00D00001BE510001FE
:10279000BF11D8B402D0A0881200030E000197190F
:1027A000D8A403D0000E0001976F00019751D8A460
:1027B00002D0A0881200020E00019719D8A417D0E9
:1027C000010E0001B66F000E0001B76F000E000190
:1027D000B86F000E0001B96F020E39EC9FF0B6C061
:1027E0008BF0B7C08CF0030E0001976F7DD0000115
:1027F0009705D8A479D0400E0001986504D0400E0A
:102800000001C16F03D098C0C1F000D00001C151D8
:102810000008000198250001986F4A0E0001816FA1
:10282000030E0001826FC1C0C0F00001955100018C
:10283000D8B415D02FD013D084C0D9FF85C0DAFF0B
:1028400081C0E1FF82C0E2FFDFCFE7FF0001814BE3
:10285000822B0001844B852B0001C00700D00001B2
:10286000C0510001D8B41DD0E7D71BD013D084C00D
:10287000D9FF85C0DAFF81C0E1FF82C0E2FFDFCF70
:10288000E7FF0001814B822B0001844B852B000167
:10289000C00700D00001C0510001D8B402D0E7D772
:1028A00000D0000198510001D8A40BD0400E0001C7
:1028B000C119D8A402D0020E01D0030E0001976FF7
:1028C00000D0010E0001B66F4A0E0001B76F030E73
:1028D0000001B86FC1C0B9F0020E39EC9FF0B6C06C
:1028E0008BF0B7C08CF000D0A08812001A04D8B4C6
:1028F00065BA09D0000E626E0F0136810F0136896C
:10290000020E1A6E00D062A407D00F0136A504D0C3
:10291000629422ECB0F000D065A202D0A19812001F
:1029200062A00AD00F0136A107D07DEC96F0A088F6
:10293000040E1A6E629000D062A807D00F0136A96B
:1029400004D0F7ECB0F0629800D062AC1ED00F015A
:1029500036AD0FD0000E3A6E730E396E000E3B6E20
:10296000000E3C6E000E3E6E010E3D6E85ECB0F02A
:1029700000D0629C1D50D8B402D01D0600D01D505E
:10298000D8A403D0BEECA3F000D062AA06D00F01F9
:1029900036AB03D0DFECAEF000D062A213D00F0153
:1029A00036A310D07F0E3A6E3968000E3B6E000ED3
:1029B0003C6E000E3E6E010E3D6E85ECB0F0000EDA
:1029C000636E00D0040E1A6002D0A19812000F01AD
:1029D00036A73CD0000E4A6E030E4A6401D036D0B2
:1029E00062A634D064CF2CF02C30E832E8320F0BE2
:1029F0001F6E62962CB407D01F50010D7E0EF3247B
:102A0000D96E000E06D01F50010D7B0EF324D96E37
:102A1000000EF420DA6E0001DF7000D01F50D8A441
:102A200003D090ECA2F010D0000E3A6E720E396E08
:102A30002C0E3B6E000E3C6E000E3E6E000E3D6E88
:102A400085ECB0F001D002D04A2AC6D7A198120076
:102A5000A098000E636E000E626E000E0F01266FCE
:102A6000270E0001B66F0F0E0001B76F000E0001B8
:102A7000B96F000EB86F000E0001BB6F020EBA6F87
:102A8000EDECAFF0160E0F01396F9F0E0F01376F8F
:102A90007B0E0F01366F000E0001BE6F10D013D0F9
:102AA0000001BE51040D000EF324D96E0D0EF4206A
:102AB000DA6EDE6ADE6ADE6ADD6A0001BE2B0B0EAC
:102AC0000001BE65EDD7658C000E0F01386F65986B
:102AD000659C0AD06296000E256E000E046E000EF4
:102AE000066E000E056E00D062B6F4D7010E1B6EA6
:102AF000010E1C6E000E176E000E186E000E000107
:102B0000946F000E0001BE6F020E0001BE6501D081
:102B100033D00001BE51020D0A0EF324D96E000E0F
:102B2000F420DA6E000EDE6E000EDD6E0001BE5186
:102B3000020D720EF324D96E000EF420DA6E000E30
:102B4000DE6E000EDD6E0001BE51010D7B0EF32422
:102B5000D96E000EF420DA6E000EDF6E0001BE5159
:102B6000010D7E0EF324D96E000EF420DA6E000EF5
:102B7000DF6E0001BE2BC8D7080E0A6E0D0E0B6E5D
:102B8000160E0F01266F0D0E0D01036F300E026F32
:102B9000080E0D01016F040E0D01006F0D01008F75
:102BA000000E2B6E000E1A6E1200EDC0DEF0EEC0AD
:102BB000DFF0EFC0E0F0F0C0E1F080ECB1F0000E2B
:102BC0000001BC6F000ECBECB0F0000E9EBB010EFE
:102BD0000001E16F140E4AECADF0000E9EBB010E39
:102BE0000001E16F000120EE06F0ED51D926EE5113
:102BF000DA22DF504AECADF02F0E7EECAFF0000E83
:102C00009EB9010E0001E16F000120EE05F0ED51CB
:102C1000D926EE51DA22DF504AECADF02F0E7EECD1
:102C2000AFF0000E9EB7010E0001E16F000120EE33
:102C300004F0ED51D926EE51DA22DF504AECADF026
:102C4000280E7EECAFF0000120EE03F0ED51D92606
:102C5000EE51DA22DF500001F16F0001F151040D55
:102C6000020EF3240001BA6FFC0EF4200001BB6FCA
:102C700073ECA9F0290E7EECAFF0010E0001BC6FE1
:102C8000080ECBECB0F0000E9EB5010E0001E16F16
:102C9000000120EE02F0ED51D926EE51DA22DF508C
:102CA0004AECADF000019951D8B404D03A0E7EEC54
:102CB000AFF004D0200E7EECAFF000D0000E9EB33B
:102CC000010E0001E16F000120EE01F0ED51D92667
:102CD000EE51DA22DF504AECADF02D0E7EECAFF073
:102CE000000E9EB1010E0001E16FEDC0D9FFEEC0F4
:102CF000DAFFDF504AECADF01200A098000E636ED0
:102D0000000E626E000E0F01266F270E2D6E0F0E45
:102D10002E6E000E306E000E2F6E000E326E020E02
:102D2000316EB4ECB0F0160E0F01396F9F0E0F012B
:102D3000376F7B0E0F01366F000E356E0ED010D040
:102D40003550040D000EF324D96E0D0EF420DA6E0A
:102D5000DE6ADE6ADE6ADD6A352A0B0E3564F0D77C
:102D6000658C000E0F01386F6598659C0AD06296DD
:102D7000000E256E000E046E000E066E000E056E2F
:102D800000D062B6F4D7010E1B6E010E1C6E000E51
:102D9000176E000E186E000E0001946F000E356E57
:102DA000020E356401D02ED03550020D0A0EF324E8
:102DB000D96E000EF420DA6E000EDE6E000EDD6EAF
:102DC0003550020D720EF324D96E000EF420DA6E27
:102DD000000EDE6E000EDD6E3550010D7B0EF3240D
:102DE000D96E000EF420DA6E000EDF6E3550010D44
:102DF0007E0EF324D96E000EF420DA6E000EDF6E24
:102E0000352ACED7080E0A6E0D0E0B6E160E0F0168
:102E1000266F0D0E0D01036F300E026F080E0D01AF
:102E2000016F040E0D01006F0D01008F000E2B6E5F
:102E3000000E1A6E1200800E0D013019D8A4120077
:102E4000C00E256E85D01E0E226EFC0E236E000E67
:102E5000276E120E266E12000D013251D8A443D0F7
:102E60000D013251020D550EF324F66EFB0EF420C7
:102E7000F76EF86A000EF8220900F5CF22F00A007A
:102E8000F5CF23F0020E22242D6E000E23202E6E8D
:102E90002DC0F6FF2EC0F7FF000EF86E0E0EF76481
:102EA00003D00800F55005D0F6CFE1FFF7CFE2FFE1
:102EB000E750266E030E22242D6E000E23202E6E68
:102EC0002DC0F6FF2EC0F7FF000EF86E0E0EF76451
:102ED00003D00800F55005D0F6CFE1FFF7CFE2FFB1
:102EE000E750276E1200000E256E1200030E0D0132
:102EF000326128D00D013251020D4F0EF324F66ECF
:102F0000FB0EF420F76EF86A000EF8220900F5CFE8
:102F100022F00A00F5CF23F022C0F6FF23C0F7FF0E
:102F2000000EF86E0E0EF76403D00800F55005D0C1
:102F3000F6CFE1FFF7CFE2FFE7502D6E2D50266E62
:102F4000276A1200000E256E1200000E256E120078
:102F50000D013351010AD8B476D7030AD8B47CD70F
:102F6000010AD8B4C3D7F1D712001200000120EE35
:102F700003F0F551D926F651DA220001DFA62DD053
:102F8000000120EE03F0F551D926F651DA220001B6
:102F9000DF96FAECB1F0000120EE02F0F551D926EF
:102FA000F651DA22000EDE6E000EDD6E000120EE1C
:102FB00002F0F751D926F851DA22000EDE6E000E2B
:102FC000DD6E000120EE02F0F951D926FA51DA2225
:102FD000000EDE6E000EDD6E00D000019E51D8B4F2
:102FE0001200000120EE02F0F551D926F651DA2246
:102FF0000001DFA00CD0000120EE02F0F551D9262F
:10300000F651DA220001DF9091ECACF000D0000123
:1030100020EE02F0F751D926F851DA220001DFA0A4
:1030200018D0000120EE02F0F751D926F851DA222B
:103030000001DF90A50E0001EB6F000E0001EC6FA8
:10304000B00E0001ED6F000E0001EE6F71EC91F01B
:1030500000D0000120EE02F0F951D926FA51DA220F
:103060000001DFA01200000120EE02F0F951D92684
:10307000FA51DA220001DF90A50E0001EB6F000E7D
:103080000001EC6FB00E0001ED6F000E0001EE6F5D
:1030900033EC90F012001200A7ECA6F00001FD51F5
:1030A00074EC9DF0A50E0001DE6F000E0001DF6FD5
:1030B000B00E0001E06F000E0001E16F80ECB1F096
:1030C0000001A951D8A418D0000E0001B06F000E65
:1030D000B16F000EB26F000EB36FA50E0001E76F67
:1030E000000E0001E86FB00E0001E96F000E000154
:1030F000EA6F6FECB1F000D0000E0001A16F010E7D
:103100000001A06F280E0001B66F000E0001B76F1E
:10311000000E0001B96F780EB86F5DECB1F0000ED3
:103120000301F06F29D02CD0010E0001B66F03010E
:10313000F05161ECACF0010E0001B66F0301F051EB
:1031400096ECAEF00301F051020DD00EF324D96ECF
:10315000010EF420DA6E000EDE6E000EDD6E03014D
:10316000F051010D780EF324D96E000EF420DA6EC2
:10317000010EDF6E0301F02B020E0301F065D4D7C0
:10318000F28EF29E0001A251D8A415D0F28EF29ECA
:10319000F0ECA7F0F28EF29E9EEC8AF0F28EF29E98
:1031A000FDEC9CF0F28EF29E4AECAEF0F28EF29EB6
:1031B0007FEC9AF000D0F28EE4D780EF08F0F29E18
:1031C000F30E0001C56FFF0E0001C66FC5ECABF03A
:1031D000000E9EBB010E0001E16F140E1DECADF060
:1031E000000E9EBB010E0001E16F0001AB511DEC12
:1031F000ADF0F70E0001C56FFF0E0001C66FC5EC04
:10320000ABF0000E9EB9010E0001E16F0001AA5162
:103210001DECADF0F70E0001C56FFF0E0001C66F8B
:10322000C5ECABF0000E9EB7010E0001E16F00018E
:10323000A9511DECADF0EA0E0001C56FFF0E0001B3
:10324000C66FC5ECABF00001A851040D020EF324CB
:103250000001C56FFC0EF4200001C66FC5ECABF099
:10326000DE0E0001C56FFF0E0001C66FC5ECABF0AE
:10327000000E9EB5010E0001E16F0001A7511DEC8B
:10328000ADF000019951D8B404D03A0ED1ECB1F0B0
:1032900004D0200ED1ECB1F000D0000E9EB3010E90
:1032A0000001E16F0001A6511DECADF0F50E00012B
:1032B000C56FFF0E0001C66FC5ECABF0000E9EB1EE
:1032C000010E0001E16F0001A5511DECADF00A0EE9
:1032D000D1ECB1F0F28E120020EE01F01050D926A0
:1032E0001150DA22DF502E6E2E50055C000E06586B
:1032F000D8B003D005C02EF000D02E50055E000ED1
:10330000065A000E2D6E12D02D50010D380EF324EA
:10331000D96E0D0EF420DA6E01C0E1FF02C0E2FFAB
:10332000DFCFE7FF014A022A2D2A00D02E502D5C64
:10333000D8A0EAD705500610D8B432D020EE01F05C
:103340001250D9261350DA22080EDF6E20EE02F05A
:103350001250D9261350DA22380EDE6E0D0EDD6EB5
:1033600010C0D9FF11C0DAFFDFBC0DD012C0D9FFE9
:1033700013C0DAFF480EDF6E12C0D9FF13C0DAFFA8
:10338000000EDB8E120012C0D9FF13C0DAFF080E48
:10339000DF6E12C0D9FF13C0DAFF000EDB8E120001
:1033A00020EE01F01250D9261350DA22080EDF6EFB
:1033B00020EE02F01250D9261350DA22300EDE6EC3
:1033C0000D0EDD6E12C0D9FF13C0DAFF040EDF6EE2
:1033D00012C0D9FF13C0DAFF000EDB8E049E195015
:1033E000D8A41200BEECA3F012001200000E0001DF
:1033F000D46F020E0001D46502D012001200000149
:10340000D4513CECB0F055ECB0F0B6C0CCF0B7C045
:10341000CDF0000E0001CF6F0D0ECE6F9AECAFF025
:10342000040E0001D26F0001D890CD33CC330001DF
:10343000D22FF9D70001D451020D6C0EF324D96EAE
:10344000000EF420DA6E0001CCC0DEFF0001CDC01A
:10345000DDFF0001D451010D780EF324D96E000E6A
:10346000F420DA6EDF50D8B442D00001D451020DFE
:103470006C0EF324D96E000EF420DA6E010EDB50D0
:1034800028E1640EDE5CD8B024D00001D451020DD6
:10349000D00EF324D96E010EF420DA6EDE2A000E6F
:1034A000DD220001D451020DD00EF324D96E010E9D
:1034B000F420DA6E010EDB5004E1070EDE5CD8A0CA
:1034C00016D0000E0001B66F0001D45161ECACF0D3
:1034D0000ED00001D451020DD00EF324D96E010E8E
:1034E000F420DA6E000EDE6E000EDD6E00D00001FC
:1034F000D42B020E0001D46582D712001200000105
:103500009B51D8B41200000E00019B6FE10E000128
:10351000D96F010E0001DA6F000EF8ECA2F0C3C003
:10352000D2F0C4C0D3F0CAC1D4F0CBC1D5F091EC75
:10353000AAF00001D2510001D311D8A402D0010E8B
:1035400001D0000E0001DB6F3EEC8CF0E50E0001B7
:10355000D96F010E0001DA6F010EF8ECA2F0C3C0C2
:10356000D2F0C4C0D3F0CCC1D4F0CDC1D5F091EC31
:10357000AAF00001D2510001D311D8A402D0010E4B
:1035800001D0000E0001DB6F3EEC8CF0E90E000173
:10359000D96F010E0001DA6F020EF8ECA2F0C3C081
:1035A000D2F0C4C0D3F0CEC1D4F0CFC1D5F091ECED
:1035B000AAF00001D2510001D311D8A402D0010E0B
:1035C00001D0000E0001DB6F3EEC8CF0AC0E000170
:1035D000D96F000E0001DA6F030EF8ECA2F0C3C041
:1035E000D2F0C4C0D3F08FC0D4F090C0D5F091EC2D
:1035F000AAF00001D2510001D311D8A402D0010ECB
:1036000001D0000E0001DB6F3EEC8CF012001200C6
:10361000000E386E020E386402D0120012003850CC
:10362000010DD90EF324D96E010EF420DA6EDF2AD3
:103630003850010DD90EF324D96E010EF420DA6E44
:103640000101DFA006D0000E2D6E385003ECAFF064
:103650005FD03850020D6C0EF324D96E000EF420AA
:10366000DA6EDECF2DF0DDCF2EF0000E306E640E60
:103670002F6EEFECACF02DC035F02EC036F0385088
:10368000010DD90EF324D96E010EF420DA6EDF504D
:10369000376E37502D6E2E6A000E306E020E2F6E72
:1036A000DDECA8F02D50355C2E503658D8A00CD04B
:1036B000010E2D6E385003ECAFF03850010DDC0ECA
:1036C000F324D96E010E1FD03850010DDC0EF32407
:1036D000D96E010EF420DA6EDF2A000E2D6E3850FE
:1036E00003ECAFF03850010DDC0EF324D96E010E5F
:1036F000F420DA6E010EDF640BD03850010DD90EC4
:10370000F324D96E010EF420DA6E000EDF6E00D0C5
:10371000382A020E386483D712001200659825BE3D
:103720003AD004AE0DD0020E1E6E1850D8A403D0AD
:103730008FECA8F000D0000E1C6E000E1B6E120065
:1037400020EE01F01250D9261350DA22080EDF6E57
:1037500020EE02F01250D9261350DA22300EDE6E1F
:103760000D0EDD6E12C0D9FF13C0DAFF0C0EDF6E36
:1037700012C0D9FF13C0DAFF000EDB8E0AC0D9FFDA
:103780000BC0DAFF040EDF6E0AC0D9FF0BC0DAFFF0
:10379000000EDB8E12000D0130AF12D0010E1E6E36
:1037A0001750D8A403D08FECA8F000D0000E1C6EE8
:1037B000000E1B6E1950D8A41200BEECA3F012002C
:1037C000020E1E6E20EE01F01250D9261350DA229E
:1037D000080EDF6E20EE02F01250D9261350DA22C6
:1037E000300EDE6E0D0EDD6E12C0D9FF13C0DAFF93
:1037F000040EDF6E12C0D9FF13C0DAFF000EDB8E9D
:10380000000E1C6E000E1B6E1950D8A41200BEECE8
:10381000A3F012001200000E0001966F00018D51FE
:1038200000018E11D8B413D08DC0D9FF8EC0DAFF3D
:103830000001DFAE04D00001C06BC02B02D000013C
:10384000C06B0001C0510001C16FC26B06D0000EF9
:103850000001C26F000EC16F00D00001C151000114
:10386000C211D8A44ED0000120EE01F08D51D9260E
:103870008E51DA220001BF51DE5CD8B00BD00001BE
:1038800020EE01F08D51D9268E51DA22DF50000151
:10389000BF6F00D0000E0001966F19D00001965145
:1038A000010D0A0EF324D96E030EF420DA6E000126
:1038B0009651010DF3500001BD25E16EF450000159
:1038C000BE21E26EDFCFE7FF0001962B00D00001A2
:1038D000BF510001965DD8A0E1D7000E0001B66F80
:1038E0000A0E0001B76F030E0001B86F400E000111
:1038F000B96F020E39EC9FF0B6C08DF0B7C08EF0F4
:1039000000D00001965112001200000120EE06F0D6
:10391000B651D926B751DA22000110EE04F0B651A3
:10392000E126B751E222DE50E65CDE50E658D8A030
:1039300028D0000120EE04F0B651D926B751DA2282
:10394000DECFB8F0DDCFB9F0000120EE06F0B651C1
:10395000D926B751DA22DECFBAF0DDCFBBF00001B5
:10396000BA1FBB1FBA4BBB2B0001B8510001BA25CF
:103970000001B66F0001B9510001BB210001B76F12
:103980001200000120EE04F0B651D926B751DA2218
:10399000DECFB8F0DDCFB9F0000120EE02F0B65175
:1039A000D926B751DA22DECFBAF0DDCFBBF0000165
:1039B00020EE06F0B651D926B751DA22DECFBCF0A0
:1039C000DDCFBDF00001BC1FBD1FBC4BBD2B0001F6
:1039D000BA510001BC270001BB510001BD23000109
:1039E000B8510001BC250001B66F0001B9510001BA
:1039F000BD210001B76F12001200F29E00019E511E
:103A0000D8A430D09FEC88F00001AEA12BD0000EDE
:103A10000001AF6F000EAE6F010E00019D6F0FD061
:103A2000040E07D0050E05D0010E03D0000E01D004
:103A300003D00001A16F16D0030EFBD713D00001F5
:103A4000A151000AD8B4F8D7010AD8B4EFD7020AB6
:103A5000D8B4E6D7070AD8B4E5D7010AD8B4E4D772
:103A6000EBD700D00001A105D8A415D0AC0E000101
:103A7000F56F000E0001F66FE10E0001F76F010E09
:103A80000001F86FE50E0001F96F010E0001FA6FF9
:103A9000B6EC97F000D000019C51D8B406D0000ECF
:103AA00000019C6FF6EC99F000D00001A351D8B44E
:103AB00006D0000E0001A36F010E00019D6F28507B
:103AC000D8B407D0000E286EA0C0A1F0010E0001EE
:103AD0009D6F00019D51D8B41200000E00019D6F32
:103AE000DDEC83F0120012000001D96FD9C0CCF0D8
:103AF0000001CD6B000EF8ECA2F0C3C0CEF0C4C044
:103B0000CFF09AECAFF0CCC0D2F0CDC0D3F0000E25
:103B10000001D56F640ED46F91ECAAF0D2C0CAF147
:103B2000D3C0CBF1D9C0CCF00001CD6B010EF8ECC5
:103B3000A2F0C3C0CEF0C4C0CFF09AECAFF0CCC0BE
:103B4000D2F0CDC0D3F0000E0001D56F640ED46F5B
:103B500091ECAAF0D2C0CCF1D3C0CDF1D9C0CCF059
:103B60000001CD6B020EF8ECA2F0C3C0CEF0C4C0D1
:103B7000CFF09AECAFF0CCC0D2F0CDC0D3F0000EB5
:103B80000001D56F640ED46F91ECAAF0D2C0CEF1D3
:103B9000D3C0CFF1D9C0CCF00001CD6B030EF8EC4F
:103BA000A2F0C3C0CEF0C4C0CFF09AECAFF0CCC04E
:103BB000D2F0CDC0D3F0000E0001D56F640ED46FEB
:103BC00091ECAAF0D2C08FF0D3C090F012000D019A
:103BD0003039E832030B0009D8A4120046D0120095
:103BE00044D0258E080E1A6E12001BEC97F01200BE
:103BF000A8EC9FF012002B0E226E000E236E258083
:103C0000010E266E258E12009CECA5F0120000D04D
:103C1000A4EC8DF012000D013451010DB40EF3240B
:103C2000226E000EF420236E2580010E266E258E56
:103C30001200258E0D013451010DB40EF324D96EFE
:103C4000000EF420DA6E32CDDFFF1200000E3A6E65
:103C5000020E396E000E3B6E000E3C6E000E3E6E84
:103C6000000E3D6E85ECB0F012000D013151000ADE
:103C7000D8B4CAD7010AD8B4CBD7020AD8B4C8D7A7
:103C8000060AD8B4AED7030AD8B4AFD7010AD8B45D
:103C9000DDD70F0AD8B4AFD7010AD8B4A9D7030A21
:103CA000D8B4B9D7010AD8B4C4D7070A1200120091
:103CB000080E2D6E275011E1080E265CD8B00DD0ED
:103CC00026C02DF02150D8A402D0010E04D021042A
:103CD000D8A403D0020E216E00D02D50265E000E17
:103CE000275A20EE01F00A50D9260B50DA222DC0B7
:103CF000DFFF380E0001916F0D0E0001926F25A0BD
:103D00001FD041D01DD022C0F6FF23C0F7FF000E08
:103D1000F86E91C0D9FF92C0DAFF0E0EF76403D09F
:103D20000800F55005D0F6CFE1FFF7CFE2FFE750EE
:103D3000DF6E224A232A0001914B922B2D0600D0E0
:103D40002D50D8B41200DFD712001DD022C0F6FFCC
:103D500023C0F7FF000EF86E91C0D9FF92C0DAFFC2
:103D60000E0EF76403D00800F55005D0F6CFE1FF42
:103D7000F7CFE2FFE750DF6E224A232A0001914B82
:103D8000922B2D0600D02D50D8B41200DFD7120090
:103D900012000001C16F020E0001BC19D8A43ED070
:103DA000C1C0B6F00001B76B000E0001B96F640E20
:103DB000B86FF7ECA5F00001B6510001B711D8A417
:103DC00002D0010E01D0000E00080001BD6FC1C07D
:103DD000B6F00001B76B010E0001B96F900EB86F1D
:103DE000F7ECA5F00001B6510001B711D8A404D03A
:103DF0000001BE6BBE2B02D00001BE6BC1C0BFF084
:103E0000030E0001BF17D8A402D0010E01D0000E8E
:103E10000001BE250001BD251C0F12000001BC5190
:103E2000010B0001BD6FBE6B0001BD1FBE1FBD4B6E
:103E3000BE2B0001BC510001BF6FC06B0001BD5122
:103E40000001BF1B0001BE510001C01B0D0E00018F
:103E5000BF17000EC017040E0001BF190001C011EA
:103E6000D8A402D0010E01D0000E00081F0F1200CE
:103E700012000001BA6F0001B6510001D8B408D099
:103E80000001BA51020D0A0EF324D96E000E07D0BC
:103E90000001BA51020D720EF324D96E000EF42007
:103EA000DA6EDECFBBF0DDCFBCF000D00001BB513D
:103EB0000001BC11D8A407D0000E0001B66F000E9F
:103EC0000001B76F1200000120EE02F0BB51D926AD
:103ED000BC51DA22B7C0DEFFB8C0DDFF000120EE22
:103EE00001F0BB51D926BC51DA22B9C0DFFFBBC0FB
:103EF000D9FFBCC0DAFF400EDF16BBC0D9FFBCC083
:103F0000DAFF000EDB86BBC0D9FFBCC0DAFF000EB3
:103F1000DB8E0001B6510001D8B408D00001BA51BF
:103F2000020D0A0EF324D96E000E07D00001BA511B
:103F3000020D720EF324D96E000EF420DA6E040E18
:103F4000DF1A00D0BBC0B6F0BCC0B7F01200120040
:103F5000258E270E2D6E0F0E2E6E000E306E000E6B
:103F60002F6E000E326E020E316EB4ECB0F0000E09
:103F70002D6E0D0E2E6E000E306E000E2F6E000E8A
:103F8000326E300E316EB4ECB0F0658C000E416EC6
:103F9000020E416401D016D04150010D7B0EF32476
:103FA000D96E000EF420DA6E000EDF6E4150010D66
:103FB0007E0EF324D96E000EF420DA6E000EDF6E52
:103FC000412AE6D7B40E2D6E000E2E6E000E306E16
:103FD000000E2F6E000E326E020E316EB4ECB0F099
:103FE000659C080E0A6E0D0E0B6E000E106E0D0E07
:103FF000116E10C012F011C013F032CD2BF02B5007
:10400000D8A403D0100E1A6E1200000E3A6E010EE4
:10401000396E2B0E3B6E000E3C6E000E3E6E010E96
:104020003D6E85ECB0F0200E1A6E12001200CFC06B
:10403000D9FFD0C0DAFFDECFD3F0DECFD4F0DECFB1
:10404000D5F0DECFD6F00001D1510001BA6FBB6BC5
:10405000BC6BBD6BD3C0B6F0D4C0B7F0D5C0B8F060
:10406000D6C0B9F05BECA3F0CFC0D9FFD0C0DAFF67
:104070000001B6C0DEFF0001B7C0DEFF0001B8C01E
:10408000DEFF0001B9C0DDFFDD52DD52DECFC3F03F
:10409000DECFC4F0DECFC5F0DECFC6F00001D151D7
:1040A0000001C76FC86BC96BCA6B50ECABF0000165
:1040B000C31F0001C41F0001C51F0001C61F00016E
:1040C000C32B000E0001C4230001C5230001C62339
:1040D0000001D3510001C3250001CF6F0001D4516D
:1040E0000001C4210001D06F0001D5510001C5219C
:1040F0000001D16F0001D6510001C6210001D26F2D
:1041000012001200BEC0B6F0BFC0B7F085EC9CF044
:10411000000120EE02F0BE51D926BF51DA22DE5056
:104120000001B65DDE500001B759D8B012000001A1
:1041300020EE04F0BE51D926BF51DA22DECFC1F005
:10414000DDCFC2F0BEC0D9FFBFC0DAFFDECFC3F003
:10415000DDCFC4F00001C1510001C325D96E0001BB
:10416000C2510001C421DA6EC0C0DFFF000120EEA1
:1041700002F0BE51D926BF51DA22000110EE04F040
:10418000BE51E126BF51E222E6CFC3F0E5CFC4F035
:10419000010E0001C327000EC423DE500001C35DE1
:1041A000DE500001C459D8B00BD0000120EE04F05D
:1041B000BE51D926BF51DA22DE2A000EDD221200BE
:1041C000000120EE04F0BE51D926BF51DA22000EC4
:1041D000DE6E000EDD6E12001200000E0001BC6FDC
:1041E000000ECBECB0F057D02050010D780EF32428
:1041F000D96E000EF420DA6EDF50D8B409D06B0E01
:104200000001BA6FFF0E0001BB6F73ECA9F0120042
:10421000570E0001BA6FFF0E0001BB6F73ECA9F0DF
:1042200012002050010D780EF324D96E000EF420F8
:10423000DA6EDF50D8B409D01F0E0001BA6FFF0E3E
:104240000001BB6F73ECA9F01200070E0001BA6FFA
:10425000FF0E0001BB6F73ECA9F012002050010D9E
:10426000780EF324D96E000EF420DA6EDF50D8B445
:1042700009D04C0E0001BA6FFF0E0001BB6F73EC4A
:10428000A9F012002B0E0001BA6FFF0E0001BB6FE8
:1042900073ECA9F012002050000AD8B4A5D7010A87
:1042A000D8B4BFD7030AD8A41200D8D7120000D0C0
:1042B0000F013FB9FDD70F013F810F013F8300017F
:1042C00020EE06F0BF51D926C051DA22DF500DECA6
:1042D000B1F00F013A6F000E0F013B6F0F013F91DC
:1042E0000F013F83000120EE04F0BF51D926C051D9
:1042F000DA22DF500DECB1F00F013A6F000120EE31
:1043000005F0BF51D926C051DA22DF500DECB1F0D3
:104310000F013B6F0F013F810F013F93000120EE22
:1043200002F0BF51D926C051DA22DF500DECB1F0B6
:104330000F013A6F000120EE03F0BF51D926C051A2
:10434000DA22DF500DECB1F00F013B6F0F013F910E
:104350000F013F93BFC0D9FFC0C0DAFFDF500DECA3
:10436000B1F00F013A6F000120EE01F0BF51D926E4
:10437000C051DA22DF500DECB1F00F013B6F12009B
:10438000000E0001BB6F0001B9AF09D00001B86D8C
:10439000B91FD8B0B92B010E0001BB6F00D00001CE
:1043A000B7AF09D00001B66DB71FD8B0B72B010E5B
:1043B0000001BB1B00D0000E0001BD6F000EBC6FE2
:1043C0000001B8510001B911D8B431D0010E00017B
:1043D000BA6F07D00001D890B837B9370001BA2BAF
:1043E00000D00001B9BF02D0F5D700D00001D890AD
:1043F000BC37BD370001B8510001B65D0001B951AD
:104400000001B759D8A00BD00001B8510001B65F28
:104410000001B9510001B75B0001BC8100D000016F
:10442000D890B933B8330001BA2FE0D700D00001DB
:10443000BB510001D8B406D00001BC6DBD1FD8B07F
:10444000BD2B00D0BCC0B6F0BDC0B7F0120012004A
:10445000BEC0B6F0BFC0B7F085EC9CF00001B6510D
:104460000001B711D8B459D0000120EE06F0BE51BA
:10447000D926BF51DA22DECFC0F0DDCFC1F0BEC0F9
:10448000D9FFBFC0DAFFDECFC2F0DDCFC3F000013D
:10449000C0510001C225D96E0001C1510001C321E4
:1044A000DA6EDF500001C46F000120EE02F0BE5151
:1044B000D926BF51DA22000110EE06F0BE51E126E6
:1044C000BF51E222E6CFC2F0E5CFC3F0010E0001FA
:1044D000C227000EC323DE500001C25DDE50000182
:1044E000C359D8B00BD0000120EE06F0BE51D9263A
:1044F000BF51DA22DE2A000EDD220CD0000120EEB0
:1045000006F0BE51D926BF51DA22000EDE6E000E33
:10451000DD6E00D00001C4511200000E1200120026
:104520002D0E1D6E2CC047F0FD0E4716D8A457D097
:104530002CC047F0D89047323F0E47164750040D25
:10454000000EF324106E0D0EF420116E10C012F048
:1045500011C013F0040E121A10C0D9FF11C0DAFFF7
:10456000DF30E8320F0B0D0AD8A436D0000E496EAA
:10457000070E496401D023D020EE02F01050D92656
:104580001150DA22DECF47F0DDCF48F047C0D9FF27
:1045900048C0DAFF4950010D300EF324E16E0D0ED4
:1045A000F420E26EDFCFE7FF20EE02F01050D926B4
:1045B0001150DA22DE2A000EDD22492AD9D720EE58
:1045C00002F01050D9261150DA22300EDE6E0D0E98
:1045D000DD6ED2ECAAF01200C0ECACF012002C5050
:1045E000FD0B040AD8A4120020ECA4F01200120063
:1045F0000001C66F000E0001C76F000EC86F000EED
:10460000C96F000ECA6F000E0001CB6F090E0001CA
:10461000CB6501D02CD0C6C0C5F00001C547C54749
:10462000C2500001C519C30BC519C26EB38EB2903A
:10463000B292B382500EE82EFED7B392B280140E1F
:10464000E82EFED7B2909E9CC28200D09EACFED7D0
:10465000C3500001C727C4500001C823000E000149
:10466000C923000E0001CA230001CB2BCFD7C7C03E
:10467000B6F0C8C0B7F0C9C0B8F0CAC0B9F00A0EE9
:104680000001BA6F000EBB6F000EBC6F000EBD6F55
:104690005BECA3F0030E07D00001D890B933B83318
:1046A0000001B733B633E82EF7D7B6C0C3F0B7C0B2
:1046B000C4F012001200000E0001BE6F000EBF6FAA
:1046C000000EC06F000EC16F0001BA510001BB1196
:1046D0000001BC110001BD11D8B447D0010E00018A
:1046E000C26F09D00001D890BA37BB37BC37BD378D
:1046F0000001C22B00D00001BDBF02D0F3D700D013
:104700000001D890BE37BF37C037C1370001BA515A
:104710000001B65D0001BB510001B7590001BC5159
:104720000001B8590001BD510001B959D8A013D0FA
:104730000001BA510001B65F0001BB510001B75B37
:104740000001BC510001B85B0001BD510001B95B23
:104750000001BE8100D00001D890BD33BC33BB3313
:10476000BA330001C22FCCD700D0BEC0B6F0BFC054
:10477000B7F0C0C0B8F0C1C0B9F012001B50D8A447
:104780001200010E1B6E1C50D8A41200010E1C6EEC
:10479000020E1E18D8A415D020EE01F00A50D9261A
:1047A0000B50DA22000EDF6E0AC0D9FF0BC0DAFF11
:1047B000480EDF6E0AC0D9FF0BC0DAFF000EDB8E99
:1047C00012001E04D8A41200000E156E20EE01F097
:1047D0001050D9261150DA22080EDF6E20EE02F0BA
:1047E0001050D9261150DA22300EDE6E0D0EDD6E1D
:1047F00010C0D9FF11C0DAFF040EDF6E10C0D9FF60
:1048000011C0DAFF000EDB8E010E156E20EE01F0F6
:104810001250D9261350DA22080EDF6E20EE02F075
:104820001250D9261350DA22300EDE6E0D0EDD6ED8
:1048300012C0D9FF13C0DAFF800EDF6E1200120023
:104840000AC0D9FF0BC0DAFF000EDFBC010E2E6ECE
:10485000040E0A1A080E1A18D8A40ED00D013251EF
:104860007F0B0F01386F0F013851D8B402D0100EF2
:1048700001D0040E1A6E00D01E04D8A43AD020EE47
:1048800002F00A50D9260B50DA22380EDE6E0D0ED9
:10489000DD6E58EC9EF0020E2118D8A40DD00AC08F
:1048A000D9FF0BC0DAFF040EDF6E0AC0D9FF0BC0C0
:1048B000DAFF000EDB8E12002E50D8A40DD00AC0F5
:1048C000D9FF0BC0DAFF480EDF6E0AC0D9FF0BC05C
:1048D000DAFF000EDB8E12000AC0D9FF0BC0DAFF30
:1048E000080EDF6E0AC0D9FF0BC0DAFF000EDB8EA8
:1048F000120004AE02D0049E00D0000E1E6E120004
:104900001200316E2D50D8B407D03150020D0A0E6E
:10491000F324D96E000E06D03150020D720EF3242E
:10492000D96E000EF420DA6EDECF32F0DDCF33F038
:1049300000D032503310D8A405D0000E2D6E000EDA
:104940002E6E120020EE02F03250D9263350DA22B9
:104950002EC0DEFF2FC0DDFF20EE01F03250D92641
:104960003350DA2230C0DFFF32C0D9FF33C0DAFF64
:10497000400EDF1632C0D9FF33C0DAFF000EDB86EF
:1049800032C0D9FF33C0DAFF000EDB8E2D50D8B411
:1049900007D03150020D0A0EF324D96E000E06D056
:1049A0003150020D720EF324D96E000EF420DA6E2F
:1049B000040EDF1A00D032C02DF033C02EF01200EA
:1049C00012000D0130511F0BE806D8A4120001D0CF
:1049D00012000D013039E832030BE806D8A41200AA
:1049E00001D012000D013451D8B437D00D01340577
:1049F000D8A4120032D0120030D0E90E226E020E7E
:104A0000236E000E276E080E266E2580258E12005E
:104A1000E90E226E020E236E258E120036CD05F0B1
:104A200037CD06F0F90E016E020E026E000E076E13
:104A3000000E086E000E096E048E1200F90E226E32
:104A4000020E236E000E276E070E266EC10E256E17
:104A5000120032CD9AF0258E12000D013151000A5C
:104A6000D8B4CBD7010AD8B4D3D7210AD8B4D6D773
:104A7000010AD8B4E3D7030AD8A41200EAD7120077
:104A800000D00F013FB9FDD70F013F810F013F83D8
:104A9000000120EE06F0B851D926B951DA220F01F3
:104AA0003A5191ECB1F0DF6E3BCFBAF0000120EE4D
:104AB00004F0B851D926B951DA220F013A5191ECDC
:104AC000B1F0DF6E000120EE05F0B851D926B951E2
:104AD000DA220F013B5191ECB1F0DF6E000120EEC4
:104AE00002F0B851D926B951DA220F013A5191ECAE
:104AF000B1F0DF6E000120EE03F0B851D926B951B4
:104B0000DA220F013B5191ECB1F0DF6E0F013A5107
:104B100091ECB1F0B8C0D9FFB9C0DAFFDF6E000187
:104B200020EE01F0B851D926B951DA220F013B51DC
:104B300091ECB1F0DF6E1200000E0D01386F000E27
:104B40000D01396F3DD0258E03D00D01388100D085
:104B50001604D8A441D00D0138833ED0258E3CD018
:104B6000258E0D0134BF0BD00D0134510F0B2D6E6E
:104B70002D50020D720EF324D96E000E0AD00D01D5
:104B800034510F0B2D6E2D50020D0A0EF324D96EE9
:104B9000000EF420DA6EDECF2EF0DDCF2FF000D045
:104BA0002EC0D9FF2FC0DAFFDFAE16D02EC0D9FF3E
:104BB0002FC0DAFFDFA410D0010E0D01386F0CD02A
:104BC0000D0130511F0B000AD8B4BDD7010AD8B46B
:104BD000C5D7030AD8B4C4D725AE1200380E226E4A
:104BE0000D0E236E2580020E266E12001200000E9E
:104BF0000001BB6F0001B7AF09D00001B66DB71F50
:104C0000D8B0B72B010E0001BB6F00D00001B9AFC7
:104C100006D00001B86DB91FD8B0B92B00D0000183
:104C2000B8510001B911D8B42BD0010E0001BA6FF0
:104C300007D00001D890B837B9370001BA2B00D09F
:104C40000001B9BF02D0F5D700D00001B851000172
:104C5000B65D0001B9510001B759D8A009D00001D3
:104C6000B8510001B65F0001B9510001B75B00D037
:104C70000001D890B933B8330001BA2FE6D700D07D
:104C80000001BB510001D8B406D00001B66DB71FBA
:104C9000D8B0B72B00D0B6C0B6F0B7C0B7F012008E
:104CA00012002DD0B6C0D9FFB7C0DAFFDF50000127
:104CB000BA6FB8C0F6FFB9C0F7FF000EF86E080073
:104CC000F5500001BA19D8B413D0B6C0D9FFB7C097
:104CD000DAFFDF500001BA6FB8C0F6FFB9C0F7FFC6
:104CE000000EF86E0800F55000080001BA25120009
:104CF0000001B64BB72B0001B84BB92B00D0B6C0A2
:104D0000D9FFB7C0DAFFDF50D8B40DD0B8C0F6FF76
:104D1000B9C0F7FF000EF86E0800F5500009D8B4CE
:104D200002D0C0D700D0B6C0D9FFB7C0DAFFDF507D
:104D30000001BA6FB8C0F6FFB9C0F7FF000EF86EF9
:104D40000800F55000080001BA2512001200D388AF
:104D5000D38AD38C9B8CFC0ED3161F0E926E3F0E03
:104D6000936EBA0E946EF00E0F01486F180E0F017D
:104D7000496FF19E060E43ECAFF0020E0001B66FD4
:104D8000000E21ECAEF0020EE1ECB0F006ECB2F059
:104D900077ECADF06DECB0F0000EB2ECB1F022ECBF
:104DA000B1F00FECB2F0ED0E0001B66F010E000194
:104DB000B76F640E0001B86F040E0001B96F070EE3
:104DC0000001BB6FD00EBA6FA3ECADF0F10E000185
:104DD000B66F020E0001B76F000E0001B86F040E2F
:104DE0000001B96F000E0001BB6F640EBA6FA3EC37
:104DF000ADF01200000E0001D96F000ED86F40D048
:104E0000D2C0D9FFD3C0DAFF2F0EDF6435D0D2C0B5
:104E1000D9FFD3C0DAFF3A0EDF602ED0D8C0CCF075
:104E2000D9C0CDF0000E0001CF6F0A0ECE6F9AEC04
:104E3000AFF0CCC0D8F0CDC0D9F0D00E0001D46F07
:104E4000FF0E0001D56FD2C0D9FFD3C0DAFFDF500B
:104E50000001D66FD76B0001D4510001D6270001A5
:104E6000D5510001D7230001D6510001D8270001F8
:104E7000D7510001D92300D00001D24BD32B00D051
:104E8000D2C0D9FFD3C0DAFFDF50D8A4B9D7D8C079
:104E9000D2F0D9C0D3F012000001C7510001C811EF
:104EA0000001C9110001CA11D8B43FD0010E0001A0
:104EB000CB6F09D00001D890C737C837C937CA3778
:104EC0000001CB2B00D00001CABF02D0F3D700D025
:104ED0000001C7510001C35D0001C8510001C45960
:104EE0000001C9510001C5590001CA510001C6594C
:104EF000D8A011D00001C7510001C35F0001C85103
:104F00000001C45B0001C9510001C55B0001CA5129
:104F10000001C65B00D00001D890CA33C933C83342
:104F2000C7330001CB2FD4D700D0C3C0C3F0C4C057
:104F3000C4F0C5C0C5F0C6C0C6F01200000E3C6E7D
:104F4000020E3C6402D0120012003C50020D6C0EA6
:104F5000F324D96E000EF420DA6EDECF3AF0DDCF06
:104F60003BF03C50040DD60EF324D96E020EF42013
:104F7000DA6E3A50DE263B50DE22000EDE22DE22C2
:104F80003C50040DD60EF324D96E020EF420DA6ED6
:104F9000DECF2DF0DECF2EF0DECF2FF0DECF30F0E3
:104FA000100E316E0E0E326E000E336E000E346E29
:104FB0004BECAAF03C50040DCA0EF324D96E020E3D
:104FC000F420DA6E2DC0DEFF2EC0DEFF2FC0DEFF24
:104FD00030C0DEFF3C2A020E3C64B7D7120012003C
:104FE000CC0E0001C36F000E0001C46F000E000163
:104FF000C66F010EC56FCDECADF0C3C0CAF0C4C022
:10500000CBF00001CA510001CB11D8B40AD0F10E87
:105010000001BE6F020E0001BF6FCCC0C0F082EC79
:10502000A0F0ED0E0001B66F010E0001B76F85EC28
:105030009CF00001B6510001B711D8B41200ED0E7A
:105040000001BE6F010E0001BF6F28ECA2F000014D
:10505000CC6F00D0CC0E0001C26F000E0001C36FF8
:10506000000E0001C56F010EC46FBBECAEF0000175
:10507000C2510001C311D8B41200ECD712001200C3
:1050800004EE64F017EED0F0EE6AE550E150FCE17A
:10509000E250FAE104EE00F0640EEE6AE806FDE18B
:1050A00003EE00F08A0EEE6AE806FDE102EECAF0B9
:1050B000360EEE6AE806FDE101EECAF0330EEE6A46
:1050C000E806FDE100EE60F0560EEE6AE806FDE14E
:1050D00000EE01F02C0EEE6AE806FDE13B0EF66EE6
:1050E000640EF76E010EF86E0900F5CFFDF10900B0
:1050F000F5CFFEF10900F5CFFFF1380EF66E640E24
:10510000F76E010EF86E0900F5CFFDF00900F5CF3E
:10511000FEF00900F5CFFFF000014CEF98F0000E13
:10512000176E000E186E020E1E18D8A41FD020EEA7
:1051300001F01250D9261350DA22080EDF6E20EE4D
:1051400002F01250D9261350DA22380EDE6E0D0E00
:10515000DD6E12C0D9FF13C0DAFF480EDF6E12C039
:10516000D9FF13C0DAFF000EDB8E120026500D01AE
:10517000365D27500D013759D8B005D036CD26F011
:1051800037CD27F000D058EC9EF020EE02F00A5008
:10519000D9260B50DA22380EDE6E0D0EDD6E0AC0F7
:1051A000D9FF0BC0DAFF480EDF6E0AC0D9FF0BC073
:1051B000DAFF000EDB8E12001200000E326E30AEEF
:1051C00007D02F6C301ED8B0302A010E326E00D0BE
:1051D0002EAE07D02D6C2E1ED8B02E2A010E321AFC
:1051E00000D0000E346E000E336E2F503010D8B445
:1051F00021D0010E316E05D0D8902F363036312AAD
:1052000000D030BE02D0F8D700D0D8903336343634
:105210002F502D5C30502E58D8A006D02F502D5E28
:1052200030502E5A338000D0D89030322F32312E69
:10523000ECD700D03250D8B405D0336C341ED8B07F
:10524000342A00D033C02DF034C02EF012001200EA
:10525000326E000E336E0D0E346E2D502E6E2F6A90
:10526000D8902E362F363250306E316AD890303684
:105270003136D890303631362E5030262F503122EC
:10528000D89030363136D8903036313630503326DB
:105290003150342233C0D9FF34C0DAFFDF9E2D50A5
:1052A000D8A407D03250020D720EF324D96E000E2E
:1052B00006D03250020D0A0EF324D96E000EF420EF
:1052C000DA6E33C0DEFF34C0DDFF00D033C0D9FF5B
:1052D00034C0DAFFDF9C20EE04F03350D92634507E
:1052E000DA22DF8C1200000E0001B86F3E0E08ECCF
:1052F000B0F00001BC6F0001BC510001BD6FBE6B7E
:105300000001BD510001BE11D8A434D0400EDFEC25
:10531000B1F01AD0BAC0F6FFBBC0F7FF000EF86EAE
:105320000E0EF76403D00800F55005D0F6CFE1FF6C
:10533000F7CFE2FFE750DFECB1F00001BA4BBB2B37
:10534000680EE82EFED700D0BAC0F6FFBBC0F7FF4C
:10535000000EF86E0E0EF76403D00800F55005D06D
:10536000F6CFE1FFF7CFE2FFE7500009D8B402D053
:10537000D1D700D014ECB2F01200BEC0B6F0BFC05E
:10538000B7F085EC9CF00001B6510001B711D8B41C
:105390001200000120EE04F0BE51D926BF51DA22DE
:1053A000DE50DE10D8B40BD0000120EE04F0BE5168
:1053B000D926BF51DA22DE06000EDD5A1200FF0E9A
:1053C0000001C06FFF0E0001C16F000120EE02F06E
:1053D000BE51D926BF51DA22DECFC2F0DDCFC3F0F5
:1053E0000001C0510001C2270001C1510001C323C7
:1053F000000120EE04F0BE51D926BF51DA22C2C00E
:10540000DEFFC3C0DDFF1200120038D0DBC0DFF0CA
:10541000DCC0E0F0DDC0DEF010D0DFC0D2F0E0C0D4
:10542000D3F0000E0001D56F0A0ED46F91ECAAF0F4
:10543000D2C0DFF0D3C0E0F000D00001DE070001F1
:10544000DE29D8A4EAD7DFC0B6F0E0C0B7F0000E7E
:105450000001B96F0A0EB86FFBECABF0B6C0DFF01D
:10546000B7C0E0F00001DF51300FD9C0D9FFDAC07A
:10547000DAFFDF6E0001D94BDA2B00D00001DD0727
:105480000001DD29D8A4C2D7D9C0D9FFDAC0DAFF1C
:10549000000EDF6E1200000E356E000E366E000E2E
:1054A000376E000E386E3150321033103410D8B4CD
:1054B0002FD0010E396E07D0D890313632363336C0
:1054C0003436392A00D034BE02D0F6D700D0D89076
:1054D000353636363736383631502D5C32502E5808
:1054E00033502F5834503058D8A00AD031502D5E48
:1054F00032502E5A33502F5A3450305A358000D003
:10550000D8903432333232323132392EE0D700D0B3
:1055100035C02DF036C02EF037C02FF038C030F037
