:040000007DEF00F0A0
:100008004B82FACF07F0FBCF08F0E9CF09F0EACF2F
:100018000AF0E1CF0BF0E2CF0CF0D9CF0DF0DACF38
:100028000EF0F3CF0FF0F4CF10F0F6CF11F0F7CFBA
:1000380012F0F8CF13F0F5CF14F09DB09EA001D0C8
:100048009E90A0B2A1A230D0A19289B003D0066A36
:10005800062A01D0066A89500618FE0B0618896E12
:10006800460E016E000E026E81B002D0010E01D064
:10007800000E036EC3EC09F0420E016E000E026E14
:1000880081B202D0010E01D0000E036EC3EC09F05C
:100098003E0E016E000E026E81B402D0010E01D038
:1000A800000E036EC3EC09F09EBA9DAA04D09EA868
:1000B800FED7AFCFAEFF14C0F5FF13C0F8FF12C0D4
:1000C800F7FF11C0F6FF10C0F4FF0FC0F3FF0EC01A
:1000D800DAFF0DC0D9FF0CC0E2FF0BC0E1FF0AC078
:1000E800EAFF09C0E9FF08C0FBFF07C0FAFF4B920F
:0600F8001100BBEF13F044
:100F00000001000A006400E803102753554E004D0D
:100F10004F4E00545545005745440054485500462F
:100F200052490053415400093230253032642F2594
:100F30003032642F253032642825732925303264FD
:100F40003A253032642D253032640A0020202020DA
:100F50002020202000286E756C6C2900253032641A
:100F60000028002D002F003A0000250E0001616FBF
:100F7000000E0001626FF1D1250E00016A19D8B48C
:100F800009D021C0D9FF22C0DAFF6AC0DFFF214AA1
:100F9000222AE3D1000E00016C6F000E6B6F000E71
:100FA0000001696F04D000016985234A242A23C007
:100FB000F6FF24C0F7FF000EF86E0800F550300A67
:100FC000D8B4F1D723C0F6FF24C0F7FF000EF86EA7
:100FD0000800F5501AEC14F0D8A0BCD0000E0001A7
:100FE0006C6F000E6B6F6BC015F06CC016F0000ECE
:100FF000186E0A0E176E07EC14F015C06BF016C0D1
:101000006CF0D00E336EFF0E346E23C0F6FF24C09A
:10101000F7FF000EF86E0800F550356E366A335053
:10102000352634503622355000016B2736500001EA
:101030006C23234A242A23C0F6FF24C0F7FF000EA6
:10104000F86E0800F5501AEC14F0D8A083D0CBD776
:1010500061C0D9FF62C0DAFFDECF63F0DDCF64F09C
:10106000020E00016127000E62230001635100019E
:101070006411D8A406D0550E0001636F0F0E000155
:10108000646F000E0001686F000E676F03D00001EF
:10109000674B682B0001675100016325336E000127
:1010A000685100016421346E33C0F6FF34C0F7FF8D
:1010B000000EF86E0800F5500009D8A4E8D700012A
:1010C0006B510001675D00016C5100016859D8B097
:1010D00009D00001675100016B5F000168510001F8
:1010E0006C5B0ED0000E00016C6F000E6B6F08D0B1
:1010F00021C0D9FF22C0DAFF200EDF6E214A222A4A
:1011000000016B07D8A06C0700016B29F1E1000119
:101110006C29D8B413D0ECD763C0F6FF64C0F7FFD6
:10112000000EF86E21C0D9FF22C0DAFF0800F5CF0B
:10113000DFFF0001634B642B214A222A000167076D
:10114000D8A0680700016729E7E100016829D8B441
:1011500004D1E2D723C0F6FF24C0F7FF234A242A94
:10116000000EF86E0800F5CF6AF000016A51000A1F
:10117000D8B402D1640AD8B407D00D0AD8B404D0C8
:101180001A0AD8B465D7E9D061C0D9FF62C0DAFFC6
:10119000DECF65F0DDCF66F0020E00016127000EA4
:1011A0006223000166AF08D0030E0001691300013D
:1011B000656D661FD8B0662B010E00016A6F050EC3
:1011C00000016A19D8B419D000016A51020D010E4C
:1011D000F324F66E0F0EF420F76EF86A000EF82274
:1011E0000900F5500001655D0900F55000016659E0
:1011F000D8A003D000016A2BE2D700016B51000197
:101200006C11D8B40AD069C033F0030E3316D8B4C9
:1012100004D000016B07D8A06C07800E00016ABFE4
:101220007F0E336E00016B5100016A5D00016C514D
:10123000800A3358D8B00BD000016A5100016B5FAF
:10124000000E00016ABFFF0E00016C5B05D0000EAE
:1012500000016C6F000E6B6F000169A521D069C0A1
:1012600033F0030E3316D8B408D021C0D9FF22C002
:10127000DAFF2D0EDF6E214A222A00016B51000198
:101280006C11D8B433D021C0D9FF22C0DAFF300EA0
:10129000DF6E214A222A00016B07D8A06C07EDD728
:1012A00000016B5100016C11D8B412D021C0D9FFDC
:1012B00022C0DAFF200EDF6E214A222A00016B07CE
:1012C000D8A06C0700016B5100016C11D8A4EED7B7
:1012D00069C033F0030E3316D8B408D021C0D9FF4B
:1012E00022C0DAFF2D0EDF6E214A222A6AC060F08A
:1012F0002ED000016051020D010EF324F66E0F0E88
:10130000F420F76EF86A000EF8220900F5CF17F006
:101310000A00F5CF18F065C015F066C016F056EC5F
:1013200013F015C01CF016C01DF0000E1F6E0A0E43
:101330001E6E7FEC13F01C50300F00016A6F21C04D
:10134000D9FF22C0DAFF6AC0DFFF214A222A00014A
:10135000600700016029D8A4CCD723C0F6FF24C0C1
:10136000F7FF234A242A000EF86E0800F5CF6AF032
:1013700000016A51D8A400D621C0D9FF22C0DAFFEB
:10138000000EDF6E12000350D8B498D001C0D9FF10
:1013900002C0DAFF840EDE180BE1030EDE18D8A4BB
:1013A00007D020EE03F00150D9260250DA22DF8E5A
:1013B00001C0D9FF02C0DAFFBC0EDE180BE1020E3D
:1013C000DE18D8A407D020EE03F00150D926025031
:1013D000DA22DF8C01C0D9FF02C0DAFFF40EDE187A
:1013E0000AE1DE04D8A407D020EE03F00150D9268C
:1013F0000250DA22DF8A01C0D9FF02C0DAFF2C0EC8
:10140000DE180AE1DE04D8A407D020EE03F0015074
:10141000D9260250DA22DF8801C0D9FF02C0DAFFE4
:10142000960EDE18DE10D8A407D020EE03F001508F
:10143000D9260250DA22DF8601C0D9FF02C0DAFFC6
:101440003C0EDE18DE10D8A407D020EE03F00150C9
:10145000D9260250DA22DF8401C0D9FF02C0DAFFA8
:10146000100EDE18DE10D8A407D020EE03F00150D5
:10147000D9260250DA22DF8201C0D9FF02C0DAFF8A
:10148000020EDE18DE10D8A407D020EE03F00150C3
:10149000D9260250DA22DF8001C0D9FF02C0DAFF6C
:1014A000850EDE5C030EDE58D8B0120001C0D9FFF5
:1014B00002C0DAFFDE2A000EDD22120001C0D9FFD1
:1014C00002C0DAFF840EDE5C030EDE58D8A008D01E
:1014D00020EE02F00150D9260250DA22DF8E81D0B0
:1014E00001C0D9FF02C0DAFFBC0EDE5C020EDE587E
:1014F000D8A008D020EE02F00150D9260250DA22FE
:10150000DF8C6FD001C0D9FF02C0DAFFF40EDE5CC1
:10151000010EDE58D8A008D020EE02F00150D926E6
:101520000250DA22DF8A5DD001C0D9FF02C0DAFFA3
:101530002C0EDE5C010EDE58D8A008D020EE02F0A2
:101540000150D9260250DA22DF884BD001C0D9FFE2
:1015500002C0DAFF010EDB5004E1960EDE5CD8A07B
:1015600008D020EE02F00150D9260250DA22DF86A0
:1015700038D001C0D9FF02C0DAFF010EDB5004E110
:101580003C0EDE5CD8A008D020EE02F00150D92637
:101590000250DA22DF8425D001C0D9FF02C0DAFF71
:1015A000010EDB5004E1100EDE5CD8A008D020EE66
:1015B00002F00150D9260250DA22DF8212D001C097
:1015C000D9FF02C0DAFF010EDB5004E1020EDE5C3F
:1015D000D8A007D020EE02F00150D9260250DA221E
:1015E000DF8001C0D9FF02C0DAFF000EDE6E000E00
:1015F000DD6E20EE02F00150D9260250DA22FF0EF5
:10160000DE16000EDD1612006CC034F06DC035F031
:1016100045EC14F0000120EE0DF06C51D9266D510F
:10162000DA220001DFA009D06CC0D9FF6DC0DAFF5B
:10163000DE2A000EDE22DE22DE22000120EE0DF088
:101640006C51D9266D51DA220001DFA20AD03C0E7E
:101650006CC0D9FF6DC0DAFFDE26000EDE22DE226E
:10166000DE22000120EE0DF06C51D9266D51DA22F8
:101670000001DFA40CD06CC0D9FF6DC0DAFF100EE2
:10168000DE260E0EDE22000EDE22000EDE2200011D
:1016900020EE0DF06C51D9266D51DA220001DFA643
:1016A0000CD06CC0D9FF6DC0DAFF800EDE26510E63
:1016B000DE22010EDE22000EDE22000120EE0DF001
:1016C0006C51D9266D51DA220001DFA831D000011A
:1016D00020EE09F06C51D9266D51DA22DF501B6ED5
:1016E000000120EE0AF06C51D9266D51DA22DF504C
:1016F00091EC11F000016E6F00016E51226E236AB1
:10170000246A256A800E266E510E276E010E286E01
:10171000000E296E2BEC13F06CC0D9FF6DC0DAFF00
:101720002250DE262350DE222450DE222550DE22E7
:10173000000120EE0DF06C51D9266D51DA22000126
:10174000DFAA7CD0000120EE09F06C51D9266D5142
:10175000DA22DF500001736F0C0E0001736501D0B7
:101760002DD073C01BF0000120EE0AF06C51D92679
:101770006D51DA22DF5091EC11F000016E6F000123
:101780006E51226E236A246A256A800E266E510EDF
:10179000276E010E286E000E296E2BEC13F06CC024
:1017A000D9FF6DC0DAFF2250DE262350DE222450FE
:1017B000DE222550DE220001732BCED7010E000160
:1017C000726F30D072C01BF0000120EE0AF06C5135
:1017D000D9266D51DA22DF5000016E6F00016E29AB
:1017E00091EC11F000016F6F00016F51226E236ABE
:1017F000246A256A800E266E510E276E010E286E11
:10180000000E296E2BEC13F06CC0D9FF6DC0DAFF0F
:101810002250DE262350DE222450DE222550DE22F6
:101820000001722B000120EE09F06C51D9266D5198
:10183000DA22DE500001725DD8A0C4D76CC0D9FF97
:101840006DC0DAFF800EDE5C130EDE58190EDE5816
:10185000BC0EDE58D8A00CD06CC0D9FF6DC0DAFF2A
:10186000800EDE5E130EDE5A190EDE5ABC0EDE5AF4
:101870009C0E00016A6F000E00016B6F38EC14F0D3
:10188000010E00019B6F12006CC034F06DC035F08A
:1018900045EC14F0000120EE0DF06C51D9266D518D
:1018A000DA220001DFA009D06CC0D9FF6DC0DAFFD9
:1018B000DE06000EDE5ADE5ADE5A000120EE0DF082
:1018C0006C51D9266D51DA220001DFA20AD03C0EFC
:1018D0006CC0D9FF6DC0DAFFDE5E000EDE5ADE5A44
:1018E000DE5A000120EE0DF06C51D9266D51DA223E
:1018F0000001DFA40CD06CC0D9FF6DC0DAFF100E60
:10190000DE5E0E0EDE5A000EDE5A000EDE5A0001BA
:1019100020EE0DF06C51D9266D51DA220001DFA6C0
:101920000CD06CC0D9FF6DC0DAFF800EDE5E510EA8
:10193000DE5A010EDE5A000EDE5A000120EE0DF0D6
:101940006C51D9266D51DA220001DFA831D0000197
:1019500020EE09F06C51D9266D51DA22DF501B6E52
:10196000000120EE0AF06C51D9266D51DA22DF50C9
:1019700091EC11F000016E6F00016E51226E236A2E
:10198000246A256A800E266E510E276E010E286E7F
:10199000000E296E2BEC13F06CC0D9FF6DC0DAFF7E
:1019A0002250DE5E2350DE5A2450DE5A2550DE5A85
:1019B000000120EE0DF06C51D9266D51DA220001A4
:1019C000DFAA7CD0000120EE09F06C51D9266D51C0
:1019D000DA22DF500001736F000173510001D8B4A7
:1019E0002DD073C01BF0000120EE0AF06C51D926F7
:1019F0006D51DA22DF5091EC11F000016E6F0001A1
:101A00006E51226E236A246A256A800E266E510E5C
:101A1000276E010E286E000E296E2BEC13F06CC0A1
:101A2000D9FF6DC0DAFF2250DE5E2350DE5A24500B
:101A3000DE5A2550DE5A00017307CED70C0E000186
:101A4000726F30D072C01BF0000120EE0AF06C51B2
:101A5000D9266D51DA22DF5000016E6F00016E054C
:101A600091EC11F000016F6F00016F51226E236A3B
:101A7000246A256A800E266E510E276E010E286E8E
:101A8000000E296E2BEC13F06CC0D9FF6DC0DAFF8D
:101A90002250DE5E2350DE5A2450DE5A2550DE5A94
:101AA00000017207000120EE09F06C51D9266D513A
:101AB000DA2200017251DE5CD8A0C4D76CC0D9FF15
:101AC0006DC0DAFF800EDE5C130EDE58190EDE5894
:101AD000BC0EDE58D8A00CD06CC0D9FF6DC0DAFFA8
:101AE000800EDE26130EDE22190EDE22BC0EDE2252
:101AF0009C0E00016A6F000E00016B6F38EC14F051
:101B0000010E00019B6F1200000E0001626F000EBB
:101B1000636F000E646F000E656F000E0001606F52
:101B20002FD0010E0001666F0C0E0001666501D01A
:101B300025D066C01BF00001605191EC11F0306EB1
:101B40003050226E236A246A256A800E266E510E5A
:101B5000276E010E286E000E296E2BEC13F022501A
:101B600000016227235000016323245000016423F5
:101B70002550000165230001662BD6D70001602B9C
:101B800020EE0AF02E50D9262F50DA22DE50000126
:101B9000605DD8A0C6D7010E0001616F29D061C079
:101BA0001BF020EE0AF02E50D9262F50DA22DF50FB
:101BB00091EC11F0306E3050226E236A246A256A4F
:101BC000800E266E510E276E010E286E000E296EB5
:101BD0002BEC13F0225000016227235000016323F5
:101BE0002450000164232550000165230001612B6E
:101BF00020EE09F02E50D9262F50DA22DE500001B7
:101C0000615DD8A0CCD7FF0E306EFF0E316E20EE96
:101C100008F02E50D9262F50DA22DF50326E336A68
:101C2000305032263150332232C022F033C023F0FC
:101C3000000E23BEFF0E246E256E800E266E510E02
:101C4000276E010E286E000E296E2BEC13F0225029
:101C50000001622723500001632324500001642304
:101C600025500001652320EE06F02E50D9262F5076
:101C7000DA22DF50306E3050226E236A246A256AE1
:101C8000100E266E0E0E276E000E286E000E296EA8
:101C90002BEC13F022500001622723500001632334
:101CA00024500001642325500001652320EE05F037
:101CB0002E50D9262F50DA22DF50306E3050226E4F
:101CC000236A246A256A3C0E266E000E276E000EDB
:101CD000286E000E296E2BEC13F0225000016227B3
:101CE0002350000163232450000164232550000188
:101CF000652320EE04F02E50D9262F50DA22DF5033
:101D0000306E305000016227000E63236423652388
:101D10002EC0D9FF2FC0DAFF62C0DEFF63C0DEFF36
:101D200064C0DEFF65C0DEFF1200000E0001646FBC
:101D3000010E0001656F36C0D9FF37C0DAFFDECF74
:101D400066F0DECF67F0DECF68F0DECF69F0660EBA
:101D50002E6E000E2F6E3C0E306EE4EC11F020EE75
:101D600004F03650D9263750DA222EC0DFFF660E37
:101D70002E6E000E2F6E3C0E306EE4EC11F020EE55
:101D800005F03650D9263750DA222EC0DFFF660E16
:101D90002E6E000E2F6E180E306EE4EC11F020EE59
:101DA00006F03650D9263750DA222EC0DFFF66C043
:101DB00062F067C063F062C060F063C061F0060E5D
:101DC00000016627000E672368236923660E2E6EC6
:101DD000000E2F6E070E306EE4EC11F020EE07F0CF
:101DE0003650D9263750DA222EC0DFFF3BD08A8406
:101DF00065C01BF00001645191EC11F0386E396A36
:101E0000381E391E384A392A00016251382400012F
:101E1000626F0001635139200001636F0C0E0001F5
:101E20006519D8A419D0010E0001656F0001642B5B
:101E3000630E0001646512D036C0D9FF37C0DAFFE7
:101E4000800EDE5E130EDE5A190EDE5ABC0EDE5A0E
:101E5000000E0001646F02D00001652B65C04AF0DE
:101E600064C03DF065C01BF00001645191EC11F0BD
:101E7000386E38500001625D000E6359D8B0B7D794
:101E800062C038F063C039F0381E391E384A392A2A
:101E90000001605138243A6E0001615139203B6ED7
:101EA0000001624B632B20EE0AF03650D9263750E2
:101EB000DA2264C0DFFF20EE09F03650D926375011
:101EC000DA2265C0DFFF20EE08F03650D926375001
:101ED000DA2262C0DFFF1200000120EE03F076512B
:101EE000D9267751DA220001DFA630D0000120EE9A
:101EF00003F07651D9267751DA220001DF9674C0BB
:101F000015F075C016F0D5EC13F0000120EE02F0CC
:101F10007651D9267751DA22000EDE6E000EDD6E84
:101F2000000120EE02F07851D9267951DA22000E14
:101F3000DE6E000EDD6E000120EE02F07A51D92631
:101F40007B51DA22000EDE6E000EDD6E000120EE07
:101F50000DF07451D9267551DA22DF50D8B4120031
:101F6000000120EE02F07651D9267751DA220001E5
:101F7000DFA00FD0000120EE02F07651D926775174
:101F8000DA220001DF9074C015F075C016F0FCEC89
:101F90000FF0000120EE02F07851D9267951DA22B3
:101FA0000001DFA00FD0000120EE02F07851D92609
:101FB0007951DA220001DF9074C06CF075C06DF0C9
:101FC00004EC0BF0000120EE02F07A51D9267B518F
:101FD000DA220001DFA01200000120EE02F07A51A7
:101FE000D9267B51DA220001DF9074C06CF075C0F5
:101FF0006DF044EC0CF0120020EE0DF01550D926D7
:102000001650DA22DFA009D020EE0DF01550D926A7
:102010001650DA22020EDF6E120020EE0DF015507F
:10202000D9261650DA22DFA209D020EE0DF0155085
:10203000D9261650DA22040EDF6E120020EE0DF0C3
:102040001550D9261650DA22DFA409D020EE0DF063
:102050001550D9261650DA22080EDF6E120020EE37
:102060000DF01550D9261650DA22DFA609D020EE41
:102070000DF01550D9261650DA22100EDF6E120020
:1020800020EE0DF01550D9261650DA22DFA809D01F
:1020900020EE0DF01550D9261650DA22200EDF6EF4
:1020A000120020EE0DF01550D9261650DA22DFAAC4
:1020B00009D020EE0DF01550D9261650DA22010E67
:1020C000DF6E120020EE0DF01550D9261650DA22E0
:1020D000000EDF6E1200B5EC12F0F28EA0EC13F0E1
:1020E0009C0E0001746F000E0001756F460E00011A
:1020F000766F000E0001776F420E0001786F000EC0
:102100000001796F3E0E00017A6F000E00017B6FB7
:102110006CEC0FF000019B51D8B4E0D7000E000129
:102120009B6F7C0E216E000E226E270E236E0F0E0B
:10213000246EA6C025F0266AA5C027F0286AA4C090
:1021400029F02A6A0001A351040D0B0EF3242B6E13
:102150000F0EF4202C6EA2C02DF02E6AA1C02FF01D
:10216000306AA0C031F0326AB5EC07F0000E000111
:102170009A6F0FD09EA8FED700019A51010D7C0ED8
:10218000F324D96E000EF420DA6EDF50AE6E00013B
:102190009A2B00019A51010D7C0EF324D96E000E8A
:1021A000F420DA6EDF50D8B499D7E4D70F013FB9E5
:1021B000FDD70F013F810F013F8320EE0AF01E5033
:1021C000D9261F50DA22DF5029EC14F00F013A6FA4
:1021D000000E0F013B6F0F013F910F013F8320EE77
:1021E00008F01E50D9261F50DA22DF5029EC14F0D7
:1021F0000F013A6F20EE09F01E50D9261F50DA2247
:10220000DF5029EC14F00F013B6F0F013F810F01EC
:102210003F9320EE06F01E50D9261F50DA22DF50E1
:1022200029EC14F00F013A6F20EE07F01E50D9266A
:102230001F50DA22DF5029EC14F00F013B6F0F0121
:102240003F910F013F9320EE04F01E50D9261F50FE
:10225000DA22DF5029EC14F00F013A6F20EE05F07E
:102260001E50D9261F50DA22DF5029EC14F00F013E
:102270003B6F12000F013FB9FDD70F013F810F01E6
:102280003F8320EE0AF01750D9261850DA220F01AA
:102290003A5152EC14F0DF6E3BCF19F020EE08F00B
:1022A0001750D9261850DA220F013A5152EC14F087
:1022B000DF6E20EE09F01750D9261850DA220F01F0
:1022C0003B5152EC14F0DF6E20EE06F01750D92689
:1022D0001850DA220F013A5152EC14F0DF6E20EE62
:1022E00007F01750D9261850DA220F013B5152EC53
:1022F00014F0DF6E20EE04F01750D9261850DA22C1
:102300000F013A5152EC14F0DF6E20EE05F0175039
:10231000D9261850DA220F013B5152EC14F0DF6E2F
:102320001200206E020E1B18D8A430D020C015F069
:10233000166A000E186E640E176EF3EC12F015504C
:102340001610D8A402D0010E01D0000E00081C6E99
:1023500020C015F0166A010E186E900E176EF3EC81
:1023600012F015501610D8A403D01D6A1D2A01D0F2
:102370001D6A20C01EF0030E1E16D8A402D0010E46
:1023800001D0000E1D241C241C0F12001B50010B39
:102390001C6E1D6A1C1E1D1E1C4A1D2A1B501E6E13
:1023A0001F6A1C501E1A1D501F1A0D0E1E16000EFD
:1023B0001F16040E1E181F10D8A402D0010E01D043
:1023C000000E00081F0F12002EC0D9FF2FC0DAFF29
:1023D000DECF32F0DECF33F0DECF34F0DECF35F0BB
:1023E0003050196E1A6A1B6A1C6A32C015F033C06D
:1023F00016F034C017F035C018F074EC12F02EC08F
:10240000D9FF2FC0DAFF15C0DEFF16C0DEFF17C0F0
:10241000DEFF18C0DDFFDD52DD52DECF22F0DECF61
:1024200023F0DECF24F0DECF25F03050266E276A71
:10243000286A296A2BEC13F0221E231E241E251E57
:10244000222A000E232224222522325022242E6EFC
:10245000335023202F6E34502420306E35502520E9
:10246000316E1200000E1A6E18AE06D0176C181ED0
:10247000D8B0182A010E1A6E16AE06D0156C161EAC
:10248000D8B0162A010E1A1A000E1C6E000E1B6E12
:1024900017501810D8B41CD0010E196E04D0D89063
:1024A00017361836192A18AEFAD7D8901B361C36AC
:1024B0001750155C18501658D8A005D01750155E47
:1024C0001850165A1B80D89018321732192EEDD793
:1024D0001A50D8B404D01B6C1C1ED8B01C2A1BC0C8
:1024E00015F01CC016F01200000E1D6E000E1E6EC0
:1024F000000E1F6E000E206E19501A101B101C10BB
:10250000D8B42AD0010E216E06D0D89019361A36CA
:102510001B361C36212A1CAEF8D7D8901D361E3625
:102520001F3620361950155C1A5016581B50175874
:102530001C501858D8A009D01950155E1A50165AB8
:102540001B50175A1C50185A1D80D8901C321B3231
:102550001A321932212EE1D71DC015F01EC016F017
:102560001FC017F020C018F01200D388D38AD38C74
:102570009B8CFC0ED316200E926E370E936EBA0E05
:10258000946E0F0148690F014969F19ECD503F0BD0
:102590008009CD6ECD86CF0ECD16CD84CD92CD8067
:1025A0009F909E909D80F28C3F0E7916799679507F
:1025B000CF0B2009796E799E7980A292A192A08298
:1025C000F28CEFEC13F0AD9CAD8AAD98AD94AC8E6F
:1025D000AC9CAC887E964D0EB06E000E7F6E9F9ABE
:1025E0009D8AF28C1200000E1A6E16AE06D0156C83
:1025F000161ED8B0162A010E1A6E18AE04D0176C2B
:10260000181ED8B0182A17501810D8B418D0010EB8
:10261000196E04D0D89017361836192A18AEFAD782
:102620001750155C18501658D8A004D01750155ED6
:102630001850165AD89018321732192EF1D71A504E
:10264000D8B404D0156C161ED8B0162A15C015F0D3
:1026500016C016F01200000E2A6E000E2B6E000E31
:102660002C6E000E2D6E22A008D026502A26275050
:102670002B2228502C2229502D22D890263627365E
:1026800028362936D890253224322332223222505D
:10269000231024102510D8A4E6D72AC022F02BC07E
:1026A00023F02CC024F02DC025F01200000E1B6E6C
:1026B000000E1A6E17501810D8B41CD0010E196EE7
:1026C00004D0D89017361836192A18AEFAD7D890F1
:1026D0001A361B361750155C18501658D8A005D05E
:1026E0001750155E1850165A1A80D89018321732A3
:1026F000192EEDD71AC015F01BC016F012001E508F
:102700001F10D8B418D0010E206E04D0D8901E36F9
:102710001F36202A1FAEFAD71E501C5C1F501D58B2
:10272000D8A004D01E501C5E1F501D5AD8901F32D6
:102730001E32202EF1D71CC01CF01DC01DF012004F
:102740000F013FB9FDD7000E3FB7010E0001A86F82
:102750003C500001A819D8B41200A8C03CF0A8C091
:10276000A7F0010E00019B6F9C0E346E000E356EBB
:1027700045EC14F0120000EE9BF00F0EEE6AE80636
:10278000FDE100EE3AF0100EEE6AE806FDE1BC0E47
:10279000F66E280EF76E000EF86E0900F5CF4AF0BF
:1027A0004B904B9200016BEF10F020EE0DF01550A6
:1027B000D9261650DA22DF50D8B409D020EE0DF019
:1027C0001550D9261650DA22000EDF6E120020EEC8
:1027D0000DF01550D9261650DA22DF8012000F01B5
:1027E0003F8B0F013FBB06D0550EA76EAA0EA76EFA
:1027F0000F013F8B0F013F8F0F013F950F013C836E
:102800000F013C85000E0F013E6FCD861200155062
:102810001702F3CF19F0F4CF1AF015501802F35045
:102820001A2616501702F3501A2619C015F01AC0AE
:1028300016F01200176E000E166E3A0E176005D0D5
:102840002F0E176402D0010E166E16C015F015304B
:1028500012001D6E1DC015F0166A000E186E0A0ECD
:10286000176E32EC12F01550060DF3501D241200B5
:102870006AC036F06BC037F095EC0EF06AC01EF0FF
:102880006BC01FF0D6EC10F0120034C017F035C04A
:1028900018F03AEC11F034C02EF035C02FF084EC73
:1028A0000DF01200166E16C015F00F0E1516163824
:0E28B0000F0B0F0B0A0DF35015241200010040
:020000040001F9
:08FFF8008CF71AFAF2F8FFFB86
:00000001FF
