:040000008031A4287F
:100008007E14803120007F08A7002100110E0139DD
:100018002000A500110E0139250503192328D93020
:10002800843119248031003A03192128D9308331C9
:10003800C123803123009A002328210011122000B7
:10004800111C8A281110A8010330280203188A28D5
:10005800280885311B2580317035F400710DF500B5
:100068000330F6000030F7008531362580317408FA
:100078002000A5007508A600A636A50CA636A50C76
:1000880028352F3E860087012508C03F2608C13F36
:1000980028352F3E86008701403FA500413FA60036
:1000A8000030260232300319250203187928283532
:1000B800D33E860087010130810741310318810A48
:1000C8002835D33E86008701403FA500413FA60062
:1000D80000302602303003192502031C8128F00164
:1000E800280884316F248031812820002835D33EA8
:1000F800860087010030C03FC13F01302000A500C5
:100108002508A80703302802031C2C280B1D9F284C
:100118000B110130BB070030BC3D90303B06031D7E
:100128009F283C03031D9F28BB01BC018031B920D7
:1001380080318231342220002708FF007E10090018
:100148008031A6282F308400003085000E3085319C
:1001580074258031D3308400003085000A30853121
:1001680074257E1020008231A92A503085316925F6
:1001780080313030853169258031203085316925DD
:100188008031E830F6000330F70020003008F30033
:100198002F08F2001030F0002730F1008331ED23F2
:1001A80080317108F9007008F800833160238031CC
:1001B8007608303E8531692580316430F60000309C
:1001C800F70020003008F3002F08F200E830F000B4
:1001D8000330F1008331ED2380317108F900700894
:1001E800F8008331602380317608303E85316925F7
:1001F80080310A30F6000030F70020003008F300A4
:100208002F08F2006430F0000030F1008331ED2354
:1002180080317108F9007008F8008331602380315B
:100228007608303E8531692580310A30F00000308B
:10023800F10020003008F3002F08F2008331ED238D
:1002480080317008303E8531692580316D308531C7
:100258006925803141308531692580310A30853101
:1002680069258031503085316925803131308531BB
:10027800692580312030853169258031E830F600E4
:100288000330F70020003208F3003108F200103084
:10029800F0002730F1008331ED2380317108F90037
:1002A8007008F8008331602380317608303E85314C
:1002B800692580316430F6000030F70020003208EC
:1002C800F3003108F200E830F0000330F100833128
:1002D800ED2380317108F9007008F800833160233C
:1002E80080317608303E8531692580310A30F60044
:1002F8000030F70020003208F3003108F2006430C3
:10030800F0000030F1008331ED2380317108F900ED
:100318007008F8008331602380317608303E8531DB
:10032800692580310A30F0000030F10020003208E1
:10033800F3003108F2008331ED2380317008303E3C
:100348008531692580316D308531692580314130AD
:100358008531692580310A308531692580315030F1
:1003680085316925803132308531692580312030E9
:10037800853169258031E830F6000330F700200028
:100388003408F3003308F2001030F0002730F10091
:100398008331ED2380317108F9007008F80083314A
:1003A800602380317608303E85316925803164309C
:1003B800F6000030F70020003408F3003308F2009C
:1003C800E830F0000330F1008331ED23803171080B
:1003D800F9007008F8008331602380317608303ED8
:1003E8008531692580310A30F6000030F700200099
:1003F8003408F3003308F2006430F0000030F100F4
:100408008331ED2380317108F9007008F8008331D9
:10041800602380317608303E8531692580310A3085
:10042800F0000030F10020003408F3003308F20037
:100438008331ED2380317008303E85316925803164
:100448006D308531692580314130853169258031AC
:100458000A308531692580310A30853169250800DF
:100468002000A40103302402031808000130A00072
:100478002408353E86008701200881072408353E78
:1004880086008701011C4E2AF00124088431BC240F
:100498008231A32A6430F6000030F70020002435AA
:1004A8002F3E86008701403FF800413FF900833125
:1004B8006023823176082000A0007708A10002306E
:1004C800F0000030F1002408353E8600870101085D
:1004D800A200A3012208F2002308F30083310F23AE
:1004E8008231710820002102031D7C2A7008200235
:1004F800031C882AF001F00A24088431BC248231C4
:1005080020002408383EA02A0130A0002408383EE4
:100518008600870120088107F00124088431BC2463
:10052800823120002408383E86008701023001020B
:10053800031CA32A2408353E860087018101013067
:100548002000A0002008A407362A83319423823192
:100558002000A901A90A00308431982482312000A2
:10056800A901A90A01308431982482312000A90107
:10057800A90A02308431982482312000A901A90AED
:1005880000308431DF2482312000A901A90A01301A
:100598008431DF2482312000A901A90A0230843184
:1005A800DF248231A0302000AD002D08A9003230B0
:1005B800AE002E08AA00D9308531002582312100ED
:1005C800D201033052020318E32A5208853151251B
:1005D8008231003A0319082B2000A901A90A210039
:1005E80052088431982482312000A901A90A2100E7
:1005F80052088431DF24823121005235D33E8600EF
:1006080087010030C03FC13F01302000AD002D08F8
:100618002100D207E52AF601F11F192BF009F1098B
:10062800F00A0319F10AF601F60AF31F242BF2095E
:10063800F309F20A0319F30A0130F4007408F60604
:10064800F701F801700871040319532BF501F50A35
:10065800F11B382B0130F035F10D890B2F2B0130B0
:10066800F4007408F5072C2B0130F735F80D890BC9
:10067800392B71087302031D432B70087202031C87
:100688004A2B7008F2027108F33B77140130F136F7
:10069800F00C890B4B2B0130F502031D382B760823
:1006A80003195B2BF709F809F70A0319F80A780800
:1006B800F1007708F0000800FB01FC0176087704D8
:1006C80003198F2BFD01FD0AF71B742B0130F6353A
:1006D800F70D890B6B2B0130FA007A08FD07682BA0
:1006E8000130FB35FC0D890B752B77087902031D4A
:1006F8007F2B76087802031C862B7608F802770889
:10070800F93B7B140130F736F60C890B872B013047
:10071800FD02031D742B7C08F7007B08F600080017
:100728007030210099003F308C0002308D00073076
:1007380023008C008D01933021009E00833022001D
:10074800970023009D1722001E109D139030230050
:100758009D009F119C01CF309B0024309E00933058
:10076800210095008B1621302000980097019601F2
:10077800210011140B178B170800F300730886006B
:1007880087017308033E8400850100080107F00013
:100798007008860087010108F1007108F200013035
:1007A800F0007308033E860087017008810773080C
:1007B800033E86008701730A840085010008010250
:1007C800031CEB2B7308033E860087018101720826
:1007D8000800700871040319142CF501F50AF11BBF
:1007E800FF2B0130F035F10D890BF62B0130F400A9
:1007F8007408F507F32B71087302031D052C7008A4
:100808007202031C0B2C7008F2027108F33B0130D2
:10081800F136F00C890B0C2C0130F502031DFF2B6F
:100828007308F1007208F0000800F1007108023E38
:10083800860087017108033E8400850100080102D3
:10084800031C322C7108023E860087017108033EA2
:10085800840085010003FF3A010708007108023E81
:1008680086008701710A840085010008F00071087C
:10087800033E840085010003FF3A70070107080062
:10088800F3007008F1007308860087017308023EC0
:100898008400850100080107F200720886008701BC
:1008A800710881000130F1007308023E860087015B
:1008B800710881077308023E86008701730A840065
:1008C800850100080102031C08007308023E860027
:1008D800870181010800F1008C2C70080319772C1E
:1008E80020000D10080020000D14080070080319DE
:1008F800802C20008D11080020008D15080070083C
:100908000319892C20000D12080020000D1608007C
:100918007108003A0319712C013A03197A2C033A29
:100928000319832C972C08002000AA00B02C290852
:100938000319A02C0D1008000D140800290803192C
:10094800A72C8D1108008D15080029080319AE2C55
:100958000D1208000D1608002A08003A03199B2CEE
:10096800013A0319A22C033A0319A92CBB2C08003D
:10097800F100D32C70082000031D8D1603198D1269
:10098800080070082000031D0C1703190C13080039
:1009980070082000031D8C1703198C1308007108B8
:1009A800003A0319BE2C013A0319C52C033A03195E
:1009B800CC2CDE2C08002000AA00F42C2908031DEA
:1009C8008D1603198D1208002908031D0C17031929
:1009D8000C1308002908031D8C1703198C13080031
:1009E8002A08003A0319E22C013A0319E82C033AC1
:1009F8000319EE2CFF2C08002000AC002908AB00DE
:100A08002C08860087012B0881002A08AB002C0AD5
:100A1800860087012B0881002C08023E860087018A
:100A280081012C08033E8600870181010800F3003C
:100A380021001D147303FF3A023EF200F20DF20D7D
:100A48001D087206833972069D003530F200F20BDC
:100A58002B2D21009D149D182F2D1C08F1001B081B
:100A6800F0000800F801F901741C3E2D7608F8071B
:100A78007708F93D0130F635F70D890B3F2D013028
:100A8800F536F40C890B442D74087504031D382DB4
:100A98007908F5007808F40008002000AA000C087E
:100AA800A9002908AB000130A9002A03FF3A053E36
:100AB800890A5F2DA935890B5E2D29082B05031995
:100AC800672D0030080001300800F5007508F400B3
:100AD8007408F000D930843144242100111608002C
:0C0AE800640080010131890B752D003481
:020000040001F9
:04000E00A4C9FFDDA5
:00000001FF
