:0400000071EF00F0AC
:100008004182FACF11F0FBCF12F0E9CF13F0EACF1B
:1000180014F0E1CF15F0E2CF16F0D9CF17F0DACF10
:1000280018F0F3CF19F0F4CF1AF0F6CF1BF0F7CF92
:100038001CF0F8CF1DF0F5CF1EF00DEC95F0F2B4E2
:10004800F2949EA003D09E90800ECF6EA1A227D0DE
:10005800A1923D0E016E000E026E80BA02D0010E12
:1000680001D0000E036E65EC88F0390E016E000EAB
:10007800026E80BC02D0010E01D0000E036E65EC4A
:1000880088F0350E016E000E026E80BE02D0010EA1
:1000980001D0000E036E65EC88F0010E2B6E1EC0B9
:1000A800F5FF1DC0F8FF1CC0F7FF1BC0F6FF1AC004
:1000B800F4FF19C0F3FF18C0DAFF17C0D9FF16C044
:1000C800E2FF15C0E1FF14C0EAFF13C0E9FF12C048
:0E00D800FBFF11C0FAFF4192110088EF94F077
:10FDE6000001000A006400E803102753554E004D39
:10FDF6004F4E00545545005745440054485500465B
:10FE060052490053415400092A2A2A2A2A2A2A2A10
:10FE16002A2A2A2A2A2A2A2A2A2A2A2A2A2A2A2A3C
:10FE26002A2A0A092A2A2A2A204B696C6C696669D9
:10FE36007368204C6967687420202A2A2A2A0A09CE
:10FE46002A2A2A2A204D6164652062792040527947
:10FE56006F6B657269202A2A2A2A0A092A2A2A2AFF
:10FE66002A2A2A2A2A2A2A2A2A2A2A2A2A2A2A2AEC
:10FE76002A2A2A2A2A2A0A0A09636F6D6D616E6484
:10FE860020096F70656C616E6431096F70656C6115
:10FE96006E64320A0A097072696E745F74696D6500
:10FEA6002874290A0961646A7573745F74696D65DB
:10FEB60028617429205B68616E643A792C4D2C6444
:10FEC6002C682C6D2C735D205B76616C75652864DF
:10FED6006563696D616C295D0A0970776D205B63E6
:10FEE6006F6C6F723A522C472C422C575D205B7612
:10FEF600616C75652825293A307E3130305D0A09F6
:10FF060070776D20636C6561720A0973657420747D
:10FF1600696D655F73796E635F6D6F64652873796C
:10FF26006E63290A09736574204144435F6D6F64EB
:10FF36006528616463290A09524553455428293BBB
:10FF46000A00093230253032642F253032642F25DD
:10FF560030326428257329253032643A25303264DC
:10FF66002D253032640A0061646A7573745F7469A2
:10FF76006D65007072696E745F74696D65005245D7
:10FF860053455428293B00096572726F720A00288E
:10FF96006E756C6C29007365636F6E64006D696EB7
:10FFA600757465006D6F6E746800636C65617200D0
:10FFB60073796E630068656C7000796561720068BC
:10FFC6006F757200082008004144430050574D00E9
:10FFD6006164630070776D00736574006461790015
:10FFE6002020006174003F00420047005200570085
:0AFFF600620067007300770000004E
:020000040001F9
:10000000770E00018A6F000E00018B6F0ED2250E55
:1000100000019319D8B40AD073C0D9FF74C0DAFFB5
:1000200093C0DFFF0001734B742BFFD1000E000162
:10003000956F000E946F000E0001926F05D00001C5
:1000400092850001754B762B75C0F6FF76C0F7FFE1
:10005000000EF86E0800F550300AD8B4F0D775C01D
:10006000F6FF76C0F7FF000EF86E0800F5504AEC78
:1000700096F0D8A0CAD0000E0001956F000E946FC4
:1000800094C01FF095C020F0000E226E0A0E216E63
:10009000F4EC95F01FC094F020C095F0D00E000154
:1000A000856FFF0E0001866F75C0F6FF76C0F7FF03
:1000B000000EF86E0800F5500001876F886B000194
:1000C0008551000187270001865100018823000126
:1000D00087510001942700018851000195230001F8
:1000E000754B762B75C0F6FF76C0F7FF000EF86EE5
:1000F0000800F5504AEC96F0D8A087D0C1D78AC046
:10010000D9FF8BC0DAFFDECF8CF0DDCF8DF0020E91
:1001100000018A27000E8B2300018C5100018D11F4
:10012000D8A406D0950E00018C6FFF0E00018D6FD4
:10013000000E0001916F000E906F03D00001904BF4
:10014000912B0001905100018C250001856F000169
:10015000915100018D210001866F85C0F6FF86C098
:10016000F7FF000EF86E0800F5500009D8A4E6D796
:10017000000194510001905D0001955100019159D9
:10018000D8B009D0000190510001945F0001915155
:100190000001955B0FD0000E0001956F000E946F6B
:1001A00009D073C0D9FF74C0DAFF200EDF6E0001E2
:1001B000734B742B00019407D8A095070001942974
:1001C000F0E100019529D8B414D0EBD78CC0F6FF2C
:1001D0008DC0F7FF000EF86E73C0D9FF74C0DAFF50
:1001E0000800F5CFDFFF00018C4B8D2B0001734B16
:1001F000742B00019007D8A0910700019029E6E137
:1002000000019129D8B411D1E1D775C0F6FF76C0AD
:10021000F7FF0001754B762B000EF86E0800F5CF46
:1002200093F000019351000AD8B40FD1640AD8B4F6
:1002300007D00D0AD8B404D01A0AD8B460D7F5D0C4
:100240008AC0D9FF8BC0DAFFDECF8EF0DDCF8FF012
:10025000020E00018A27000E8B2300018FAF08D009
:10026000030E0001921300018E6D8F1FD8B08F2BEB
:10027000010E0001936F050E00019319D8B419D037
:1002800000019351020DE70EF324F66EFD0EF420EB
:10029000F76EF86A000EF8220900F55000018E5D35
:1002A0000900F55000018F59D8A003D00001932B0D
:1002B000E2D70001945100019511D8B40BD092C03F
:1002C00085F0030E00018517D8B404D0000194070F
:1002D000D8A09507800E000193BF7F0E0001856FA7
:1002E000000194510001935D00019551800A0001C5
:1002F0008559D8B00BD0000193510001945F000ED6
:10030000000193BFFF0E0001955B05D0000E0001B8
:10031000956F000E946F000192A524D092C085F0D5
:10032000030E00018517D8B409D073C0D9FF74C07B
:10033000DAFF2D0EDF6E0001734B742B0001945118
:1003400000019511D8B437D073C0D9FF74C0DAFF5B
:10035000300EDF6E0001734B742B00019407D8A0A0
:100360009507ECD70001945100019511D8B413D032
:1003700073C0D9FF74C0DAFF200EDF6E0001734B2B
:10038000742B00019407D8A0950700019451000137
:100390009511D8A4EDD792C085F0030E0001851702
:1003A000D8B409D073C0D9FF74C0DAFF2D0EDF6E48
:1003B0000001734B742B93C089F031D00001895137
:1003C000020DE70EF324F66EFD0EF420F76EF86AC8
:1003D000000EF8220900F5CF6AF00A00F5CF6BF0A5
:1003E0008EC068F08FC069F071EC93F068C06FF058
:1003F00069C070F0000E0001726F0A0E716FB8ECE8
:1004000094F000016F51300F0001936F73C0D9FF5A
:1004100074C0DAFF93C0DFFF0001734B742B00013F
:10042000890700018929D8A4C9D775C0F6FF76C00D
:10043000F7FF0001754B762B000EF86E0800F5CF24
:1004400093F000019351D8A4E2D573C0D9FF74C0D2
:10045000DAFF000EDF6E12000AC11FF00BC120F0A0
:10046000BB0E216EFF0E226E1BEC92F00009D8B479
:100470000DD00AC11FF00BC120F0EC0E216EFF0E53
:10048000226E1BEC92F00009D8A406D00D0E246E4B
:10049000FE0E256E78EC95F008C100F109C101F15E
:1004A0000AC102F10BC103F10CC104F10DC105F148
:1004B0000EC106F10FC107F19BEC85F00AC11FF0D8
:1004C0000BC120F0840E216EFF0E226E1BEC92F009
:1004D0000009D8B4FF000AC11FF00BC120F0DE0EE6
:1004E000216EFF0E226E1BEC92F00009D8A42DD0D5
:1004F0000CC11FF00DC120F0B60E216EFF0E226E52
:100500001BEC92F00009D8A403D0000E0001C96FC3
:100510000CC11FF00DC120F0D60E216EFF0E226E11
:100520001BEC92F00009D8B40DD00CC11FF00DC126
:1005300020F0CE0E216EFF0E226E1BEC92F0000911
:10054000D8A403D0010E0001C96F0AC11FF00BC16E
:1005500020F0DA0E216EFF0E226E1BEC92F00009E5
:10056000D8B40DD00AC11FF00BC120F0D20E216EFD
:10057000FF0E226E1BEC92F00009D8A412000CC1F1
:100580001FF00DC120F0B40E216EFF0E226E1BEC89
:1005900092F00009D8B40DD00CC11FF00DC120F0AD
:1005A000F20E216EFF0E226E1BEC92F00009D8A411
:1005B0002DD0020E0001C96F0EC160F00FC161F0B5
:1005C000E8EC90F060C012F161C013F112C11FF0AD
:1005D00013C120F0000E226EFA0E216EF4EC95F09D
:1005E0001FC068F020C069F0000E00016B6F640E40
:1005F0006A6F71EC93F068C014F169C015F114C111
:100600006FF015C170F0000EA8EC8BF00CC11FF05C
:100610000DC120F0F80E216EFF0E226E1BEC92F041
:100620000009D8B40DD00CC11FF00DC120F0F00EA0
:10063000216EFF0E226E1BEC92F00009D8A42DD083
:10064000020E0001C96F0EC160F00FC161F0E8EC4D
:1006500090F060C012F161C013F112C11FF013C11C
:1006600020F0000E226EFA0E216EF4EC95F01FC001
:1006700068F020C069F0000E00016B6F640E6A6FB5
:1006800071EC93F068C014F169C015F114C16FF0FA
:1006900015C170F0010EA8EC8BF00CC11FF00DC15C
:1006A00020F0F60E216EFF0E226E1BEC92F0000978
:1006B000D8B40DD00CC11FF00DC120F0EE0E216E8C
:1006C000FF0E226E1BEC92F00009D8A42DD0020E72
:1006D0000001C96F0EC160F00FC161F0E8EC90F04D
:1006E00060C012F161C013F112C11FF013C120F0FC
:1006F000000E226EFA0E216EF4EC95F01FC068F029
:1007000020C069F0000E00016B6F640E6A6F71EC1F
:1007100093F068C014F169C015F114C16FF015C1F0
:1007200070F0020EA8EC8BF00CC11FF00DC120F090
:10073000FC0E216EFF0E226E1BEC92F00009D8B465
:100740000DD00CC11FF00DC120F0F40E216EFF0E74
:10075000226E1BEC92F00009D8A42DD0020E0001ED
:10076000C96F0EC160F00FC161F0E8EC90F060C09D
:1007700012F161C013F112C11FF013C120F0000E7D
:10078000226EFA0E216EF4EC95F01FC068F020C0C6
:1007900069F0000E00016B6F640E6A6F71EC93F0EC
:1007A00068C014F169C015F114C16FF015C170F083
:1007B000030EA8EC8BF00CC11FF00DC120F0B00EA1
:1007C000216EFF0E226E1BEC92F00009D8A41200DD
:1007D000020E0001C96F000E0001706F000E6F6FF6
:1007E000000EA8EC8BF0000E0001706F000E6F6F12
:1007F000010EA8EC8BF0000E0001706F000E6F6F01
:10080000020EA8EC8BF0000E0001706F000E6F6FEF
:10081000030EA8EC8BF012000001CC510001D8A40B
:1008200011D0010E0001CC6FE90E1F6E000E206E7C
:100830001A0E216E010E226E000E246E640E236EBF
:10084000E6EC94F018C11FF019C120F06FEC8CF0A9
:100850001F502010D8B4120018C121F019C122F085
:1008600029EC8FF00101816F57D1E90E216E000E46
:10087000226E000E236EA9EC8DF016C121F017C177
:1008800022F0090E236EA9EC8DF0E90E1F6E000E0A
:10089000206E6FEC8CF0FF0E1F2401017E6FFF0EA7
:1008A000202001017F6F16C173F017C174F07EC163
:1008B00075F07FC176F0020E0001776F31EC93F096
:1008C00016C121F017C122F00A0E236EA9EC8DF09B
:1008D000000E0101826F02D00101822BE90E216E10
:1008E000000E226E29EC8FF00001BE6F01018251D3
:1008F000010DCD0EF324D96E000EF420DA6EBEC0C9
:10090000DFFFDF50D8A4E8D701018251010DCD0EE1
:10091000F324D96E000EF420DA6E000EDF6E000EA6
:100920000101826F02D00101822BE90E216E000EBF
:10093000226E29EC8FF00001BE6F01018251010D82
:10094000830EF324D96E010EF420DA6EBEC0DFFFF1
:10095000DF50D8A4E8D701018251010D830EF324A2
:10096000D96E010EF420DA6E000EDF6E000E01016A
:10097000826F02D00101822BE90E216E000E226EE1
:1009800029EC8FF00001BE6F01018251010D970E1D
:10099000F324D96E010EF420DA6EBEC0DFFFDF5003
:1009A000D8A4E8D701018251010D970EF324D96E26
:1009B000010EF420DA6E000EDF6E000E0101826F70
:1009C00002D00101822BE90E216E000E226E29EC6D
:1009D0008FF00001BE6F01018251010DAB0EF324B7
:1009E000D96E010EF420DA6EBEC0DFFFDF50D8A44E
:1009F000E8D701018251010DAB0EF324D96E010E2F
:100A0000F420DA6E000EDF6E16C108F117C109F18D
:100A1000CD0E01010A6F000E01010B6F830E010163
:100A20000C6F010E01010D6F970E01010E6F010E8B
:100A300001010F6FAB0E0101106F010E0101116F6B
:100A40002CEC82F01200E90E216E000E226E000ED8
:100A5000236EA9EC8DF016C121F017C122F0200EF3
:100A6000236EA9EC8DF01200E90E216E000E226EAD
:100A7000AFEC92F016C16AF017C16BF0CA0E00011C
:100A80006C6FFF0E00016D6F57EC94F01200000EBA
:100A90000101806F0ED016C16AF017C16BF0CA0E4B
:100AA00000016C6FFF0E00016D6F57EC94F00101B7
:100AB000802BE90E1F6E000E206E6FEC8CF0010192
:100AC00080510001BE6FBF6B1F500001BE5D205002
:100AD0000001BF59D8A0DFD7E90E1F6E000E206EAF
:100AE00007EC96F012001F0E0101816512007F0EC7
:100AF000010181611200E90E216E000E226E81C19A
:100B000023F0A9EC8DF016C121F017C122F081C1AC
:100B100023F0A9EC8DF0120001018151080AD8B42C
:100B2000A3D7050AD8B4A1D62D0AD8B48CD75F0AAA
:100B3000D8B4ADD7D8D702C11FF003C120F0790EC9
:100B4000216EFF0E226E1BEC92F00009D8B40DD07E
:100B500002C11FF003C120F0EA0E216EFF0E226ECB
:100B60001BEC92F00009D8A406D000C196F001C198
:100B700097F085EC91F002C11FF003C120F0E90E5F
:100B8000216EFF0E226E1BEC92F00009D8B40DD03E
:100B900002C11FF003C120F06D0E216EFF0E226E08
:100BA0001BEC92F00009D8A4120004C11FF005C18B
:100BB00020F0E40E216EFF0E226E1BEC92F0000975
:100BC000D8B40DD004C11FF005C120F0C00E216EB5
:100BD000FF0E226E1BEC92F00009D8A41CD000C1BD
:100BE000B6F001C1B7F0F70E0001B86F000E0001BA
:100BF000B96F000E0001BA6F630E0001BB6F06C132
:100C000060F007C161F0E8EC90F000016051000174
:100C1000BC6F20EC94F004C11FF005C120F0D40E8D
:100C2000216EFF0E226E1BEC92F00009D8B40DD09D
:100C300004C11FF005C120F0AA0E216EFF0E226E26
:100C40001BEC92F00009D8A41CD000C1B6F001C181
:100C5000B7F0F60E0001B86F000E0001B96F010E7B
:100C60000001BA6F0C0E0001BB6F06C160F007C136
:100C700061F0E8EC90F0000160510001BC6F20ECE5
:100C800094F004C11FF005C120F0A10E216EFF0EEB
:100C9000226E1BEC92F00009D8B40DD004C11FF0F5
:100CA00005C120F0E20E216EFF0E226E1BEC92F0C9
:100CB0000009D8A423D0F6C025F00001F75145EC77
:100CC0008DF00001BD6F00C1B6F001C1B7F0F50EA7
:100CD0000001B86F000E0001B96F010E0001BA6F7C
:100CE000BDC0BBF006C160F007C161F0E8EC90F058
:100CF000000160510001BC6F20EC94F004C11FF0B2
:100D000005C120F0AE0E216EFF0E226E1BEC92F09C
:100D10000009D8B40DD004C11FF005C120F0C50EE4
:100D2000216EFF0E226E1BEC92F00009D8A41CD09D
:100D300000C1B6F001C1B7F0F30E0001B86F000EAC
:100D40000001B96F000E0001BA6F170E0001BB6FF2
:100D500006C160F007C161F0E8EC90F0000160515D
:100D60000001BC6F20EC94F004C11FF005C120F01D
:100D7000DC0E216EFF0E226E1BEC92F00009D8B43F
:100D80000DD004C11FF005C120F0A30E216EFF0E8F
:100D9000226E1BEC92F00009D8A41CD000C1B6F062
:100DA00001C1B7F0F20E0001B86F000E0001B96F7B
:100DB000000E0001BA6F3B0E0001BB6F06C160F070
:100DC00007C161F0E8EC90F0000160510001BC6FD8
:100DD00020EC94F004C11FF005C120F0FA0E216E42
:100DE000FF0E226E1BEC92F00009D8B40DD004C1A6
:100DF0001FF005C120F09C0E216EFF0E226E1BEC31
:100E000092F00009D8A4120000C1B6F001C1B7F0F9
:100E1000F10E0001B86F000E0001B96F000E000165
:100E2000BA6F3B0E0001BB6F06C160F007C161F0F5
:100E3000E8EC90F0000160510001BC6F20EC94F0F0
:100E40001200000E00017B6F000E7C6F000E7D6FA4
:100E5000000E7E6F000E0001796F37D0010E000189
:100E60007F6F0C0E00017F6501D02DD07FC025F073
:100E70000001795145EC8DF00001756F000175514D
:100E80000001656F666B676B686B800E0001696FB0
:100E9000510E6A6F010E6B6F000E6C6FADEC93F02C
:100EA0000001655100017B270001665100017C2390
:100EB0000001675100017D230001685100017E237C
:100EC00000017F2BCED70001792B000120EE06F028
:100ED0007151D9267251DA22DE500001795DD8A015
:100EE000BDD7010E00017A6F32D07AC025F0000123
:100EF00020EE06F07151D9267251DA22DF5045EC0E
:100F00008DF00001756F000175510001656F666B12
:100F1000676B686B800E0001696F510E6A6F010E7E
:100F20006B6F000E6C6FADEC93F00001655100012A
:100F30007B270001665100017C23000167510001FD
:100F40007D230001685100017E2300017A2B0001FE
:100F500020EE05F07151D9267251DA22DE500001DF
:100F60007A5DD8A0C2D7FF0E0001756FFF0E000199
:100F7000766F000120EE04F07151D9267251DA2209
:100F8000DF500001776F786B000175510001772702
:100F9000000176510001782377C065F078C066F0D3
:100FA0000001000E66BFFF0E676F686F800E0001C4
:100FB000696F510E6A6F010E6B6F000E6C6FADECB6
:100FC00093F00001655100017B270001665100018B
:100FD0007C230001675100017D230001685100015D
:100FE0007E23000120EE02F07151D9267251DA22DF
:100FF000DF500001756F000175510001656F666B70
:10100000676B686B100E0001696F0E0E6A6F000E41
:101010006B6F000E6C6FADEC93F000016551000139
:101020007B270001665100017C230001675100010C
:101030007D230001685100017E23000120EE01F0B4
:101040007151D9267251DA22DF500001756F00010B
:1010500075510001656F666B676B686B3C0E000134
:10106000696F000E6A6F000E6B6F000E6C6FADEC57
:1010700093F00001655100017B27000166510001DA
:101080007C230001675100017D23000168510001AC
:101090007E2371C0D9FF72C0DAFFDF500001756F87
:1010A0000001755100017B27000E7C237D237E23E8
:1010B00073C0D9FF74C0DAFF7BC0DEFF7CC0DEFFE7
:1010C0007DC0DEFF7EC0DEFF12000350D8B498D092
:1010D00001C0D9FF02C0DAFF840EDE180BE1030E57
:1010E000DE18D8A407D020EE03F00150D926025014
:1010F000DA22DF8E01C0D9FF02C0DAFFBC0EDE1893
:101100000BE1020EDE18D8A407D020EE03F0015048
:10111000D9260250DA22DF8C01C0D9FF02C0DAFFE3
:10112000F40EDE180AE1DE04D8A407D020EE03F0A6
:101130000150D9260250DA22DF8A01C0D9FF02C04D
:10114000DAFF2C0EDE180AE1DE04D8A407D020EE68
:1011500003F00150D9260250DA22DF8801C0D9FFFE
:1011600002C0DAFF960EDE18DE10D8A407D020EEFB
:1011700003F00150D9260250DA22DF8601C0D9FFE0
:1011800002C0DAFF3C0EDE18DE10D8A407D020EE35
:1011900003F00150D9260250DA22DF8401C0D9FFC2
:1011A00002C0DAFF100EDE18DE10D8A407D020EE41
:1011B00003F00150D9260250DA22DF8201C0D9FFA4
:1011C00002C0DAFF020EDE18DE10D8A407D020EE2F
:1011D00003F00150D9260250DA22DF8001C0D9FF86
:1011E00002C0DAFF850EDE5C030EDE58D8B01200B6
:1011F00001C0D9FF02C0DAFFDE2A000EDD22120094
:1012000001C0D9FF02C0DAFF840EDE5C030EDE5897
:10121000D8A008D020EE02F00150D9260250DA22E0
:10122000DF8E81D001C0D9FF02C0DAFFBC0EDE5CC8
:10123000020EDE58D8A008D020EE02F00150D926C8
:101240000250DA22DF8C6FD001C0D9FF02C0DAFF72
:10125000F40EDE5C010EDE58D8A008D020EE02F0BD
:101260000150D9260250DA22DF8A5DD001C0D9FFB1
:1012700002C0DAFF2C0EDE5C010EDE58D8A008D0CA
:1012800020EE02F00150D9260250DA22DF884BD03E
:1012900001C0D9FF02C0DAFF010EDB5004E1960E57
:1012A000DE5CD8A008D020EE02F00150D926025012
:1012B000DA22DF8638D001C0D9FF02C0DAFF010E82
:1012C000DB5004E13C0EDE5CD8A008D020EE02F03A
:1012D0000150D9260250DA22DF8425D001C0D9FF7F
:1012E00002C0DAFF010EDB5004E1100EDE5CD8A074
:1012F00008D020EE02F00150D9260250DA22DF8217
:1013000012D001C0D9FF02C0DAFF010EDB5004E1A8
:10131000020EDE5CD8A007D020EE02F00150D926E4
:101320000250DA22DF8001C0D9FF02C0DAFF000ECE
:10133000DE6E000EDD6E20EE02F00150D926025066
:10134000DA22FF0EDE16000EDD1612000001CA5171
:10135000D8B4B4D0000E0001CA6FF10E0001806F46
:10136000000E0001816FF80E0001826F000E000177
:10137000836F18EC96F00001C951D8A49FD0F8C033
:1013800060F0F9C061F0FAC062F0FBC063F0800E5B
:101390000001646F510E656F010E666F000E676F7E
:1013A00065EC92F060C08AF061C08BF062C08CF096
:1013B00063C08DF000018D5100018C1108E1C10E58
:1013C00000018A5DA80E00018B59D8A026D08AC0E2
:1013D00084F08BC085F08CC086F08DC087F0000152
:1013E000841F851F861F871F842B000E852386235D
:1013F0008723800E0001842500018A6F510E0001B1
:10140000852100018B6F010E0001862100018C6F88
:10141000000E0001872100018D6FD89000018A35F0
:101420000001656F00018B350001666F00018C358E
:101430000001676F00018D350001686FFA0E000131
:10144000696F000E6A6F000E6B6F000E6C6FADEC73
:1014500093F065C071F066C072F067C073F068C049
:1014600074F0800E0001756F510E766F010E776F6C
:10147000000E786F6DEC8EF071C08AF072C08BF048
:1014800073C08CF074C08DF08AC06FF08BC070F0A8
:10149000030EA8EC8BF0000E00018E6F020E00010F
:1014A0008E6501D00BD08AC06FF08BC070F0000148
:1014B0008E51A8EC8BF000018E2BF0D73BA029D0E9
:1014C000000E3C6E000E3B6E020E0001C96F020E54
:1014D0000001FD6504D0000E0001FD6F02D0000187
:1014E000FD2B0001FD51530DF3CF88F0000E0001DC
:1014F0008E6F020E00018E6501D00BD088C06FF098
:101500000001706B00018E51A8EC8BF000018E2B56
:10151000F0D737A01DD0000E386E000E376E020EC9
:101520000001C96F020E0001FC6504D0000E00012D
:10153000FC6F02D00001FC2B0001FC51530DF3CFD6
:1015400089F089C06FF00001706B030EA8EC8BF07E
:101550003FA01200000E406E000E3F6E000E000114
:10156000C96F1200000E0001906F010E0001916F13
:1015700088C0D9FF89C0DAFFDECF92F0DECF93F0CA
:10158000DECF94F0DECF95F0920E00017E6F000E5C
:1015900000017F6F3C0E0001806FDBEC8CF00001DE
:1015A0007E5186C0D9FF87C0DAFFDF6E920E000140
:1015B0007E6F000E00017F6F3C0E0001806FDBEC40
:1015C0008CF0000120EE01F08651D9268751DA22F5
:1015D00000017EC0DFFF920E00017E6F000E000151
:1015E0007F6F180E0001806FDBEC8CF0000120EEA5
:1015F00002F08651D9268751DA2200017EC0DFFF32
:1016000092C08EF093C08FF08EC08CF08FC08DF0A2
:10161000060E00019227000E932394239523920E29
:1016200000017E6F000E00017F6F070E0001806FCA
:10163000DBEC8CF0000120EE03F08651D9268751B7
:10164000DA2200017EC0DFFF3FD08A8491C025F0FE
:101650000001905145EC8DF000018A6F8B6B000109
:101660008A1F8B1F8A4B8B2B00018E5100018A250C
:1016700000018E6F00018F5100018B2100018F6FDF
:101680000C0E00019119D8A419D0010E0001916F20
:101690000001902B630E0001906512D088C0D9FF25
:1016A00089C0DAFF800EDE5E130EDE5A190EDE5A96
:1016B000BC0EDE5A000E0001906F02D00001912B8B
:1016C00091C0FEF090C0CBF091C025F00001905188
:1016D00045EC8DF000018A6F00018A5100018E5D9A
:1016E000000E8F59D8B0B1D78EC08AF08FC08BF062
:1016F00000018A1F8B1F8A4B8B2B00018C5100012C
:101700008A250001C46F00018D5100018B21000169
:10171000C56F00018E4B8F2B000120EE06F0865125
:10172000D9268751DA2290C0DFFF000120EE05F0B4
:101730008651D9268751DA2291C0DFFF000120EEC1
:1017400004F08651D9268751DA228EC0DFFF1200BD
:10175000256E6FC01FF070C020F06FC021F070C008
:1017600022F0F4EC95F01FC068F020C069F0000E84
:1017700000016B6FFA0E6A6F71EC93F068C06FF046
:1017800069C070F06FC01FF070C020F06FC021F012
:1017900070C022F0F4EC95F01FC068F020C069F032
:1017A000000E00016B6FFA0E6A6F71EC93F068C067
:1017B0006FF069C070F06FC01FF070C020F0000EB5
:1017C000226E030E216EF4EC95F0D89020321F3279
:1017D000D89020321F321FC06FF020C070F04FD061
:1017E0000001705105E13E0E00016F5DD8A069D087
:1017F0006FC071F070C072F0D8900001713772370D
:10180000840E000171250001686FFF0E0001722136
:101810000001696F000E00016B6F030E6A6F71ECBF
:1018200093F03E0E0001682500016F6F000E00016D
:10183000692122D00001705105E13E0E00016F5D6B
:10184000D8A03FD0C20E00016F251F6EFF0E000111
:101850007021206E000E226E030E216EF4EC95F0C6
:10186000D89020321F32D89020321F323E0E1F24D3
:1018700000016F6F000E20200001706F22D02550F4
:10188000000AD8B4ADD7010AD8B41BD0030AD8B423
:10189000D1D7010A16D0CF0EBA166FC0BBFF120007
:1018A000CF0EB4166FC0B5FF1200CF0E0F01151783
:1018B0006FC016FF1200CF0E0F0112176FC013FF7B
:1018C00012002550000AD8B4E6D7010AD8B4E8D7E8
:1018D000030AD8B4EAD7010AD8A41200ECD720EE44
:1018E00006F01F50D9262050DA2210EE04F01F50C7
:1018F000E1262050E222DE50E65CDE50E658D8A019
:1019000024D020EE04F01F50D9262050DA22DECF5A
:1019100060F0DDCF61F020EE06F01F50D926205098
:10192000DA22DECF62F0DDCF63F00001621F631FB9
:10193000624B632B00016051000162251F6E0001A4
:10194000615100016321206E120020EE04F01F504F
:10195000D9262050DA22DECF60F0DDCF61F020EE14
:1019600002F01F50D9262050DA22DECF62F0DDCF00
:1019700063F020EE06F01F50D9262050DA22DECF89
:1019800064F0DDCF65F00001641F651F644B652BBB
:1019900000016251000164270001635100016523C9
:1019A00000016051000164251F6E000161510001BA
:1019B0006521206E12007EC0D9FF7FC0DAFFDECF26
:1019C00082F0DECF83F0DECF84F0DECF85F0000141
:1019D00080510001756F766B776B786B82C071F008
:1019E00083C072F084C073F085C074F06DEC8EF02B
:1019F0007EC0D9FF7FC0DAFF000171C0DEFF0001A9
:101A000072C0DEFF000173C0DEFF000174C0DDFFA5
:101A1000DD52DD52DECF65F0DECF66F0DECF67F05F
:101A2000DECF68F0000180510001696F6A6B6B6B5B
:101A30006C6BADEC93F00001651F0001661F0001A7
:101A4000671F0001681F0001652B000E000166235F
:101A50000001672300016823000182510001652510
:101A600000017E6F000183510001662100017F6F3C
:101A700000018451000167210001806F0001855140
:101A8000000168210001816F12000001646F020EE5
:101A90002518D8A436D064C01FF0206A000E226E2C
:101AA000640E216EE8EC93F01F502010D8A402D0F1
:101AB000010E01D0000E00080001606F64C01FF02D
:101AC000206A010E226E900E216EE8EC93F01F50FA
:101AD0002010D8A404D00001616B612B02D000015A
:101AE000616B64C062F0030E00016217D8A402D0DB
:101AF000010E01D0000E00016125000160251C0FC0
:101B000012002550010B0001606F616B0001601F26
:101B1000611F604B612B25500001626F636B0001F8
:101B200060510001621B000161510001631B0D0E39
:101B300000016217000E6317040E00016219000114
:101B40006311D8A402D0010E01D0000E00081F0FAF
:101B5000120021C01FF022C020F06FEC8CF020EEAC
:101B600002F02150D9262250DA22DE501F5CDE50CE
:101B70002058D8B0120020EE04F02150D92622506F
:101B8000DA22DECF66F0DDCF67F021C0D9FF22C0B8
:101B9000DAFFDECF68F0DDCF69F0000166510001A9
:101BA0006825D96E0001675100016921DA6E23C0F2
:101BB000DFFF20EE02F02150D9262250DA2210EE6B
:101BC00004F02150E1262250E222E6CF68F0E5CF72
:101BD00069F0010E00016827000E6923DE50000144
:101BE000685DDE5000016959D8B00AD020EE04F0DB
:101BF0002150D9262250DA22DE2A000EDD221200E0
:101C000020EE04F02150D9262250DA22000EDE6E9A
:101C1000000EDD6E12000F013FB9FDD70F013F81AD
:101C20000F013F8320EE06F02450D9262550DA22FA
:101C3000DF5059EC96F00F013A6F000E0F013B6F29
:101C40000F013F910F013F8320EE04F02450D9266D
:101C50002550DA22DF5059EC96F00F013A6F20EE52
:101C600005F02450D9262550DA22DF5059EC96F0A1
:101C70000F013B6F0F013F810F013F9320EE02F0F8
:101C80002450D9262550DA22DF5059EC96F00F0166
:101C90003A6F20EE03F02450D9262550DA22DF5087
:101CA00059EC96F00F013B6F0F013F910F013F93ED
:101CB00024C0D9FF25C0DAFFDF5059EC96F00F01A0
:101CC0003A6F20EE01F02450D9262550DA22DF5059
:101CD00059EC96F00F013B6F1200000E0001796F76
:101CE000000E7A6F000E7B6F000E7C6F0001755145
:101CF000000176110001771100017811D8B442D0AB
:101D0000010E00017D6F08D00001D890753776373D
:101D10007737783700017D2B000178AFF5D70001C8
:101D2000D89079377A377B377C37000175510001BD
:101D3000715D000176510001725900017751000177
:101D400073590001785100017459D8A012D00001D4
:101D500075510001715F000176510001725B000155
:101D600077510001735B000178510001745B000141
:101D700079810001D8907833773376337533000159
:101D80007D2FCDD779C071F07AC072F07BC073F02F
:101D90007CC074F0120020EE06F00150D9260250EB
:101DA000DA2210EE04F00150E1260250E222DE5069
:101DB000E65CDE50E658D8A01FD020EE04F00150BB
:101DC000D9260250DA22DECF03F0DDCF04F020EE78
:101DD00006F00150D9260250DA22DECF05F0DDCF21
:101DE00006F0051E061E054A062A03500524016E4C
:101DF00004500620026E120020EE04F00150D92695
:101E00000250DA22DECF03F0DDCF04F020EE02F044
:101E10000150D9260250DA22DECF05F0DDCF06F0E0
:101E200020EE06F00150D9260250DA22DECF07F06C
:101E3000DDCF08F0071E081E074A082A05500726AE
:101E40000650082203500724016E04500820026E39
:101E5000120021C01FF022C020F06FEC8CF01F5048
:101E60002010D8B451D020EE06F02150D9262250AF
:101E7000DA22DECF66F0DDCF67F021C0D9FF22C0C5
:101E8000DAFFDECF68F0DDCF69F0000166510001B6
:101E90006825D96E0001675100016921DA6EDF50B3
:101EA000236E20EE02F02150D9262250DA2210EEC5
:101EB00006F02150E1262250E222E6CF68F0E5CF7D
:101EC00069F0010E00016827000E6923DE50000151
:101ED000685DDE5000016959D8B00AD020EE06F0E6
:101EE0002150D9262250DA22DE2A000EDD220AD025
:101EF00020EE06F02150D9262250DA22000EDE6EA6
:101F0000000EDD6E23501200000E12001F6E0E0137
:101F1000BF910E01BFA106D0550EA76EAA0EA76EE7
:101F20000E01BF910E0E0E01C36F120E0E01C46F93
:101F3000160E0E01C56FBA50F00B0C09BA6E3F0EAB
:101F4000BA160F01529152935295000EBB6ECF0EEE
:101F5000BA16B450F00B0C09B46E3F0EB4160F0154
:101F600052975299529B000EB56ECF0EB4160F01C8
:101F70001551F00B0C09156F3F0E0F0115173F0E91
:101F80000F015217000E0F01166FCF0E0F0115171C
:101F90000F011251F00B0C09126FFC0E0F015117BB
:101FA000000E0F01136FCF0E0F011217CA96CA98B9
:101FB000CA9ACA9CCA50FC0B0209CA6E1F04CB6E97
:101FC000CA84120009C001F00AC002F0CBEC8EF006
:101FD00020EE02F00950D9260A50DA22DE50015CC8
:101FE000DE500258D8B0120020EE04F00950D92675
:101FF0000A50DA22DECF0CF0DDCF0DF009C0D9FF98
:102000000AC0DAFFDECF0EF0DDCF0FF00C500E2449
:10201000D96E0D500F20DA6E0BC0DFFF20EE02F0FC
:102020000950D9260A50DA2210EE04F00950E126B0
:102030000A50E222E6CF0EF0E5CF0FF0010E0E2699
:10204000000E0F22DE500E5CDE500F58D8B00AD0C2
:1020500020EE04F00950D9260A50DA22DE2A000EBA
:10206000DD22120020EE04F00950D9260A50DA22AF
:10207000000EDE6E000EDD6E120009C001F00AC017
:1020800002F0CBEC8EF001500210D8B44AD020EE12
:1020900006F00950D9260A50DA22DECF0BF0DDCF48
:1020A0000CF009C0D9FF0AC0DAFFDECF0DF0DDCF9A
:1020B0000EF00B500D24D96E0C500E20DA6EDF504E
:1020C0000F6E20EE02F00950D9260A50DA2210EEE7
:1020D00006F00950E1260A50E222E6CF0DF0E5CFE6
:1020E0000EF0010E0D26000E0E22DE500D5CDE50AD
:1020F0000E58D8B00AD020EE06F00950D9260A5062
:10210000DA22DE2A000EDD220AD020EE06F0095087
:10211000D9260A50DA22000EDE6E000EDD6E0F5058
:102120001200000E12000F013FB9FDD70F013F81D1
:102130000F013F8320EE06F02150D9262250DA22EB
:102140000F013A5176EC96F0DF6E3BCF23F020EE94
:1021500004F02150D9262250DA220F013A5176ECB0
:1021600096F0DF6E20EE05F02150D9262250DA22BB
:102170000F013B5176EC96F0DF6E20EE02F021501D
:10218000D9262250DA220F013A5176EC96F0DF6E12
:1021900020EE03F02150D9262250DA220F013B51C4
:1021A00076EC96F0DF6E0F013A5176EC96F021C096
:1021B000D9FF22C0DAFFDF6E20EE01F02150D926D0
:1021C0002250DA220F013B5176EC96F0DF6E1200BE
:1021D000000E0001676F000E666F3DD060C0D9FF32
:1021E00061C0DAFF2F0EDF6433D060C0D9FF61C059
:1021F000DAFF3A0EDF602CD066C01FF067C020F017
:10220000000E226E0A0E216EF4EC95F01FC066F0EF
:1022100020C067F0D00E0001626FFF0E0001636FF7
:1022200060C0D9FF61C0DAFFDF500001646F656BE9
:102230000001625100016427000163510001652320
:102240000001645100016627000165510001672308
:102250000001604B612B60C0D9FF61C0DAFFDF5025
:10226000D8A4BCD766C060F067C061F01200000E51
:102270000001616F22AE07D0216C221ED8B0222A45
:10228000010E0001616F20AE07D01F6C201ED8B078
:10229000202A010E0001611B000E0001636F000E79
:1022A000626F21502210D8B421D0010E0001606F5E
:1022B00005D0D890213622360001602B22AEF9D706
:1022C0000001D8906237633721501F5C225020589C
:1022D000D8A006D021501F5E2250205A00016281F2
:1022E000D890223221320001602FEAD700016151DB
:1022F0000001D8B405D00001626D631FD8B0632B14
:1023000062C01FF063C020F01200F10E0001806F68
:10231000000E0001816FF80E0001826F000E0001B7
:10232000836F18EC96F0980E0001736F000E000199
:10233000746F480E0001756FFF0E0001766FF7C0D5
:1023400077F00001786BF6C079F000017A6BF5C088
:102350007BF000017C6B0001F451040DF10EF324BD
:1023600000017D6FFD0EF42000017E6FF3C07FF051
:102370000001806BF2C081F00001826BF1C083F03C
:102380000001846B00EC80F096C06AF097C06BF09F
:10239000980E00016C6F000E00016D6F57EC94F009
:1023A0001200F0EC92F0F10E0001806F000E0001BF
:1023B000816FF80E0001826F000E0001836F18EC30
:1023C00096F00001F551D8A417D0000E0001F86F67
:1023D000000EF96F000EFA6F000EFB6FF10E000198
:1023E000966F000E0001976FF80E0001986F000EB7
:1023F0000001996F29EC96F0F29E32EC95F02D0ECB
:102400000101166F000E0101176FE10E0101186F37
:10241000000E0101196F0CEC84F02D0E1F6E000EE2
:10242000206E6FEC8CF01F502010D8A49D88A6EC75
:1024300089F0F28EE1D726D01FC0D9FF20C0DAFF85
:10244000DF50236E21C0F6FF22C0F7FF000EF86EAA
:102450000800F5502318D8B411D01FC0D9FF20C0F0
:10246000DAFFDF50236E21C0F6FF22C0F7FF000E17
:10247000F86E0800F5500008232412001F4A202A95
:10248000214A222A1FC0D9FF20C0DAFFDF50D8B46A
:102490000BD021C0F6FF22C0F7FF000EF86E080037
:1024A000F5500009D8A4C8D71FC0D9FF20C0DAFF53
:1024B000DF50236E21C0F6FF22C0F7FF000EF86E3A
:1024C0000800F550000823241200000164510001A7
:1024D00065110001661100016711D8B437D0010EF3
:1024E0001F6E07D00001D8906437653766376737AD
:1024F0001F2A000167AFF6D7000164510001605D3B
:1025000000016551000161590001665100016259E5
:102510000001675100016359D8A010D00001645137
:102520000001605F000165510001615B00016651BF
:102530000001625B000167510001635B0001D890FC
:1025400067336633653364331F2ED6D760C060F0BF
:1025500061C061F062C062F063C063F0120021C02C
:102560001FF022C020F06FEC8CF01F502010D8B468
:10257000120020EE04F02150D9262250DA22DE503B
:10258000DE10D8B40AD020EE04F02150D926225013
:10259000DA22DE06000EDD5A1200FF0E0001666F21
:1025A000FF0E0001676F20EE02F02150D926225065
:1025B000DA22DECF68F0DDCF69F00001665100015C
:1025C0006827000167510001692320EE04F02150C3
:1025D000D9262250DA2268C0DEFF69C0DDFF120072
:1025E00082EC96F0E70E926E000E936EBA0E946E29
:1025F000F80E0F01486F1F0E0F01496FF19E080E74
:10260000B2EC95F0020E1F6E000E56EC95F0020E25
:10261000E1EC95F0000E68EC96F0CAEC95F0FA0E3D
:1026200086EC8FF03AEC96F02D0E1F6E000E206EA9
:10263000FA0E216E020E226E030E246EE80E236E39
:10264000E6EC94F0E10E1F6E000E206E000E216E7F
:10265000020E226E000E246EFA0E236EE6EC94F04B
:10266000120038D075C079F076C07AF0000E000103
:10267000786F11D079C068F07AC069F0000E00015F
:102680006B6F0A0E6A6F71EC93F068C079F069C0E5
:102690007AF00001782B000177510001785DD8A015
:1026A000E9D779C06FF07AC070F0000E0001726F48
:1026B0000A0E716FB8EC94F06FC079F070C07AF0C8
:1026C00073C021F074C022F000017951300F236EE5
:1026D000A9EC8DF00001770700017729D8B412002A
:1026E000C1D7000E00016E6F000E6D6F00016A51C0
:1026F00000016B11D8B42CD0010E00016C6F06D014
:102700000001D8906A376B3700016C2B00016BAF6A
:10271000F7D70001D8906D376E3700016A5100017C
:10272000685D00016B5100016959D8A00AD0000111
:102730006A510001685F00016B510001695B000193
:102740006D810001D8906B336A3300016C2FE1D7A3
:102750006DC068F06EC069F01200000E00016D6F70
:10276000000E6E6F000E6F6F000E706F000165A19E
:1027700010D00001695100016D2700016A5100016C
:102780006E2300016B5100016F2300016C510001A9
:1027900070230001D89069376A376B376C370001B6
:1027A000D8906833673366336533000165510001A3
:1027B00066110001671100016811D8A4D7D76DC058
:1027C00065F06EC066F06FC067F070C068F0120010
:1027D000000E246E20AE06D01F6C201ED8B0202A1A
:1027E000010E246E22AE04D0216C221ED8B0222A03
:1027F00021502210D8B418D0010E236E04D0D890E6
:1028000021362236232A22AEFAD721501F5C2250CD
:102810002058D8A004D021501F5E2250205AD890B2
:1028200022322132232EF1D72450D8B404D01F6C89
:10283000201ED8B0202A1FC01FF020C020F0120098
:102840000001BA510001BC5DD8A024D00001BC51E8
:102850000001BB5DD8A01ED0B8C0D9FFB9C0DAFF57
:10286000BCC0DFFFF10E0001966F000E0001976FF4
:10287000F80E0001986F000E0001996F97EC95F02B
:10288000010E0001CA6FB6C096F0B7C097F085EC94
:1028900091F01200B6C06AF0B7C06BF08D0E000167
:1028A0006C6FFF0E00016D6F57EC94F012001BD09F
:1028B0006AC021F06BC022F06CC0F6FF6DC0F7FF5C
:1028C000000EF86E0E0EF76403D00800F55005D028
:1028D000F6CFE1FFF7CFE2FFE750236EA9EC8DF0D2
:1028E00000016C4B6D2B6CC0F6FF6DC0F7FF000E46
:1028F000F86E0E0EF76403D00800F55005D0F6CF41
:10290000E1FFF7CFE2FFE7500009D8B41200D0D7BB
:1029100002EEFAF013EEE8F0EE6AE550E150FCE169
:10292000E250FAE102EE00F0FA0EEE6AE806FDE18E
:1029300001EE83F03C0EEE6AE806FDE100EEC0F029
:102940003E0EEE6AE806FDE100EE26F01B0EEE6A92
:10295000E806FDE1120EF66E2D0EF76E010EF86E12
:102960000900F5CFFEF0419041920001D1EF91F0C6
:102970000001715100017211D8B423D0010E256EEF
:1029800005D00001D89071377237252A000172AF47
:10299000F8D70001715100016F5D00017251000113
:1029A0007059D8A008D00001715100016F5F00017B
:1029B00072510001705B0001D89072337133252E83
:1029C000E8D76FC06FF070C070F012001FC0D9FF61
:1029D00020C0DAFF21C0DEFF22C0DDFF20EE02F0C2
:1029E0001F50D9262050DA2223C0DEFF24C0DDFF8D
:1029F00020EE04F01F50D9262050DA22000EDE6EA1
:102A0000000EDD6E20EE06F01F50D9262050DA228F
:102A1000000EDE6E000EDD6E12009DB89EA813D073
:102A20002D0E016E000E026ECBEC8EF001500210E6
:102A3000D8B408D02D0E096E000E0A6E3DEC90F051
:102A4000AE6E01D09D989EAA12009DAA1200AFCF33
:102A500010F0E10E096E000E0A6E10C00BF0E2ECF1
:102A60008FF012000F013FB9FDD7000E3FB7010EE6
:102A70000001C86F0001C8510001C619D8B4120086
:102A8000C8C0C6F0C8C0C7F0010E0001CA6FF10E81
:102A90000001806F000E0001816FF80E0001826F4F
:102AA000000E0001836F18EC96F01200216E1FC01B
:102AB00020F0203A20462046CD5020183F0B201809
:102AC000CD6E020E1F18D8A402D0CD8601D0CD96AF
:102AD00021C020F0203ACD502018CF0B2018CD6E09
:102AE000CD84CD92CD809F909E909D80F28C1200DF
:102AF00011D02D0E216E000E226E24C0F6FF25C0CF
:102B0000F7FF000EF86E0800F5CF23F0A9EC8DF06A
:102B1000244A252A24C0F6FF25C0F7FF000EF86ED0
:102B20000800F5500009D8A4E4D79D88120096C08B
:102B300071F097C072F098C073F099C074F021ECF6
:102B400087F096C086F097C087F098C088F099C04B
:102B500089F0B2EC8AF096C024F097C025F00BEC17
:102B60008EF01200206ED58ED58CD59A2050D8A428
:102B700002D0D5860AD0D59620C01FF0FF0E1F26A2
:102B8000D5501F18F80B1F18D56EF28AF294F194E5
:102B9000F28C12000F013F8B0F013FBB06D0550E88
:102BA000A76EAA0EA76E0F013F8B0F013F8F0F017B
:102BB0003F950F013C830F013C85000E0F013E6FD6
:102BC0001200206E3F0E7916799620C01FF01F3A32
:102BD00079501F18CF0B1F18796E799E7980A292B9
:102BE000A192A082F28C12001F502102F3CF23F099
:102BF000F4CF24F01F502202F3502426205021024B
:102C0000F350242623C01FF024C020F0120020EE31
:102C100006F01F50D9262050DA2210EE04F01F5083
:102C2000E1262050E222DECFE6FFDDCFE5FF1200F5
:102C300080C021F081C022F093EC90F080C071F050
:102C400081C072F082C073F083C074F021EC87F011
:102C5000120096C086F097C087F098C088F099C09F
:102C600089F0B2EC8AF096C024F097C025F00BEC06
:102C70008EF01200AD9CAD8AAD98AD94AC8EAC9C3C
:102C8000AC887E964D0EB06E000E7F6E9F9A9D8A28
:102C9000F28C1200216E000E206E3A0E216005D0DB
:102CA0002F0E216402D0010E206E20C01FF01F30B5
:102CB0001200236E23C01FF0206A000E226E0A0E3F
:102CC000216E37EC91F01F50060DF35023241200B3
:102CD0001F6EC29E1FB002D0C29C01D0C28CC18E9A
:102CE000C19CC150F80B0609C16E1200206E20C0B5
:102CF0001FF00F0E1F1620380F0B0F0B0A0DF3508D
:102D00001F241200D388D38AD38C9B8CFC0ED3163D
:042D100012000100AC
:08FFF8008CF70AFAF2F8FFFB96
:00000001FF
