:040000008031EE2835
:100008007E14803120007F08A200911E552891128D
:1000180023001908453A031D5528433085313725F3
:100028008031683085313725803161308531372519
:1000380080317230853137258031673085313725F9
:10004800803165308531372580312030853137253D
:1000580080315330853137258031743085313725EB
:1000680080316130853137258031743085313725CD
:10007800803169308531372580316F3085313725BA
:1000880080316E30853137258031203085313725F4
:10009800803133308531372580310D308531372532
:1000A80080312100110E01392000A000110E013904
:1000B800200503196F28DF308331F2238031003A9D
:1000C80003196D28DF3083317023803123009A00B3
:1000D8006F28210011122000111CD6281110A3012D
:1000E800033023020318D62823088431BE24803124
:1000F8007035F400710DF5000330F6000030F7009C
:100108008431DB24803174082000A0007508A10028
:10011800A136A00CA136A00C2335D93E8600870154
:100128002008C03F2108C13F2335D93E86008701FA
:10013800403FA000413FA1000030210232300319A6
:1001480020020318C5282335D33E860087010130D5
:10015800810741310318810A2335D33E8600870180
:10016800403FA000413FA100003021023030031978
:100178002002031CCD28F001230884314724803154
:10018800CD2820002335D33E860087010030C03FAC
:10019800C13F01302000A0002008A307033023023C
:1001A800031C78280B1DE9280B110130BB07003010
:1001B800BC3D01303C06031DE32890303B06031D7F
:1001C800E928BB01BC0181317C2120002208FF0005
:1001D8007E1009008031F028353084000030850019
:1001E8000830853142258031D330840000308500C5
:1001F8001030853142257E1020008131EA29200007
:10020800B200E830AA000330AB003235D93E860090
:100218008701403FA600413FA7001030A4002730C7
:10022800A50083311523813120002508AD01AD07D4
:100238002408AC01AC078231A822813120002A08A9
:10024800303E85312B2581312E3085312B2581316A
:1002580064302000AA000030AB003235D93E860059
:100268008701403FA600413FA700E830A4000330C3
:10027800A50083311523813120002508AD01AD0784
:100288002408AC01AC078231A822813120002A0859
:10029800303E85312B2581310A302000AA000030FC
:1002A800AB003235D93E86008701403FA600413F6A
:1002B800A7006430A4000030A500833115238131E4
:1002C80020002508AD01AD072408AC01AC07823138
:1002D800A822813120002A08303E85312B25813122
:1002E800413085312B2581310D3085312B25080092
:1002F800FD0103307D02031808000130F9007D0874
:10030800353E86008701790881077D08353E8600DD
:100318008701011C9529F0017D08843198248131D9
:10032800E5296430F0000030F1007D35D93E8600C3
:100338008701403FF200413FF3008231DF228131E3
:100348007008F9007108FA000230F0000030F1007E
:100358007D08353E860087010108FB00FC017B080B
:10036800F2007C08F30082315522813171087A024B
:10037800031DC02970087902031CCB29F001F00A7B
:100388007D088431982481317D08383EE229013086
:10039800F9007D08383E8600870179088107F00159
:1003A8007D088431982481317D08383E8600870194
:1003B80002300102031CE5297D08353E86008701CD
:1003C80081010130F9007908FD077D2984311D2458
:1003D80081312000A401A40A003083319C2381319B
:1003E8002000A401A40A013083319C23813120001C
:1003F800A401A40A023083319C2381312000A40186
:10040800A40A00308431702481312000A401A40A98
:1004180001308431702481312000A401A40A023003
:10042800843170248131A0302000B3003308A40047
:100438003230B4003408A500DF308431F82481312B
:100448002100D201033052020318242A52088531B0
:1004580013258131003A03194E2A2000A401A40A69
:100468002100520883319C2381312000A401A40A71
:1004780021005208843170248131210052088131D1
:100488000321813121005235D33E86008701003097
:10049800C03FC13F01302000B30033082100D2071C
:1004A800262AF601F11F5F2AF009F109F00A03195B
:1004B800F10AF601F60AF31F6A2AF209F309F20AA9
:1004C8000319F30A0130F4007408F606F701F8017D
:1004D800710870040319992AF501F50AF11B7E2A9F
:1004E8000130F035F10D890B752A0130F4007408DC
:1004F800F507722A0130F735F80D890B7F2A710844
:100508007302031D892A70087202031C902A70085E
:10051800F2027108F33B77140130F136F00C890BC5
:10052800912A0130F502031D7E2A76080319A12AB3
:10053800F709F809F70A0319F80A7808F101F10729
:100548007708F001F00708002000B001B1012B087E
:100558002A040319D82AAF01AF0AAB1BBD2A013000
:10056800AA35AB0D890BB42A0130AE002E08AF07AF
:10057800B12A0130B035B10D890BBE2A2B082D02E6
:10058800031DC82A2A082C02031CCF2A2A08AC02F9
:100598002B08AD3B30140130AB36AA0C890BD02A9E
:1005A8000130AF02031DBD2A3108AB01AB0730088B
:1005B800AA01AA070800F501F601710870040319D9
:1005C8000E2BF701F70AF11BF32A0130F035F10D74
:1005D800890BEA2A0130F4007408F707E72A01308A
:1005E800F535F60D890BF42A71087302031DFE2AEE
:1005F80070087202031C052B7008F2027108F33BA5
:1006080075140130F136F00C890B062B0130F70216
:10061800031DF32A7608F101F1077508F001F007C8
:10062800080020002508240403193D2BA901A90A64
:10063800A51B282B0130A435A50D890B1F2B0130D4
:10064800A8002808A9071C2B25082702031D2E2B04
:1006580024082602031C342B2408A6022508A73BDD
:100668000130A536A40C890B352B0130A902031DD6
:10067800282B2708A501A5072608A401A407080018
:100688002000A7002408A50027088600870127085E
:10069800023E8400850100080107A600260886009E
:1006A8008701250881000130A5002708023E860041
:1006B8008701250881072708023E86008701270A47
:1006C8008400850100080102031C08002708023E77
:1006D8008600870181010800F300730886008701FE
:1006E8007308033E8400850100080107F0007008C4
:1006F800860087010108F1007108F2000130F0005E
:100708007308033E86008701700881077308033E5B
:1007180086008701730A8400850100080102031C12
:100728009A2B7308033E860087018101720808002E
:100738002000A500BA2B24080319A52B22000D10B0
:10074800080022000D14080024080319AE2B22000B
:100758008D11080022008D15080024080319B72BF5
:1007680022000D12080022000D160800200025089E
:10077800003A03199F2B013A0319A82B033A0319CE
:10078800B12BC62B0800F3007008F100730886002F
:1007980087017308023E8400850100080107F20002
:1007A800720886008701710881000130F100730822
:1007B800023E86008701710881077308023E8600A1
:1007C8008701730A8400850100080102031C0800E0
:1007D8007308023E8600870181010800F100710854
:1007E800023E860087017108033E840085010008E7
:1007F8000102031C0B2C7108023E86008701710858
:10080800033E840085010003FF3A010708007108D0
:10081800023E86008701710A840085010008F00005
:100828007108033E840085010003FF3A7007010741
:1008380008007030210099003F308C0002308D0094
:10084800073023008C008D01933021009E008330F7
:100858002200970023009D1790309D009F119C0156
:10086800CF309B0024309E002100911693309500D4
:100878008B16213020009800970196012100111451
:100888000B178B170800F100642C700803194F2C04
:1008980022000D10080022000D140800700803192A
:1008A800582C22008D11080022008D1508007008B0
:1008B8000319612C22000D12080022000D160800F1
:1008C8007108003A0319492C013A0319522C033ACA
:1008D80003195B2C6F2C08002000A5008B2C241C0E
:1008E800782C22008D16080022008D120800241C86
:1008F800802C22000C17080022000C130800241C6E
:10090800882C22008C17080022008C130800200075
:100918002508003A0319732C013A03197B2C033A72
:100928000319832C972C0800F100B22C701C9F2C03
:1009380022008D16080022008D120800701CA72CBA
:1009480022000C17080022000C130800701CAF2CA2
:1009580022008C17080022008C1308007108003A46
:1009680003199A2C013A0319A22C033A0319AA2C49
:10097800BD2C0800F30021001D147303FF3A023E4A
:10098800F200F20DF20D1D087206833972069D0001
:100998003530F200F20BCE2C21009D149D18D22C7C
:1009A8001C08F101F1071B08F001F0070800F80125
:1009B800F901741CE32C7608F8077708F93D013033
:1009C800F635F70D890BE42C0130F536F40C890B5C
:1009D800E92C75087404031DDD2C7908F501F50769
:1009E8007808F401F40708002000A7002408A600EE
:1009F800270886008701260881002508A600270AFF
:100A080086008701260881002708023E86008701A4
:100A180081012708033E8600870181010800200024
:100A2800A5000C08A4002408A6000130A400250392
:100A3800FF3A053E890A212DA435890B202D24086B
:100A480026050319292D0030080001300800200070
:100A5800A9002908A8002808A400DF30833144230E
:100A6800210011160800F5007508F4007408F0005C
:100A7800DF308331C723210011160800640080018C
:080A88000131890B432D0034FC
:020000040001F9
:04000E00A4C9FFDDA5
:00000001FF
